{
	"contracts/Todo2.sol": {
		"Todos2": {
			"abi": [
				{
					"inputs": [
						{
							"internalType": "string",
							"name": "_task",
							"type": "string"
						}
					],
					"name": "addTask",
					"outputs": [],
					"stateMutability": "nonpayable",
					"type": "function"
				},
				{
					"inputs": [
						{
							"internalType": "uint256",
							"name": "_taskIndex",
							"type": "uint256"
						}
					],
					"name": "deleteTask",
					"outputs": [],
					"stateMutability": "nonpayable",
					"type": "function"
				},
				{
					"inputs": [
						{
							"internalType": "uint256",
							"name": "_taskIndex",
							"type": "uint256"
						}
					],
					"name": "getTask",
					"outputs": [
						{
							"components": [
								{
									"internalType": "string",
									"name": "task",
									"type": "string"
								},
								{
									"internalType": "bool",
									"name": "isDone",
									"type": "bool"
								}
							],
							"internalType": "struct Todos2.Task",
							"name": "",
							"type": "tuple"
						}
					],
					"stateMutability": "view",
					"type": "function"
				},
				{
					"inputs": [],
					"name": "getTaskCount",
					"outputs": [
						{
							"internalType": "uint256",
							"name": "",
							"type": "uint256"
						}
					],
					"stateMutability": "view",
					"type": "function"
				},
				{
					"inputs": [
						{
							"internalType": "uint256",
							"name": "_taskIndex",
							"type": "uint256"
						},
						{
							"internalType": "bool",
							"name": "_status",
							"type": "bool"
						}
					],
					"name": "updateStatus",
					"outputs": [],
					"stateMutability": "nonpayable",
					"type": "function"
				}
			],
			"devdoc": {
				"kind": "dev",
				"methods": {},
				"version": 1
			},
			"evm": {
				"assembly": "    /* \"contracts/Todo2.sol\":100:1114  contract Todos2{... */\n  mstore(0x40, 0x80)\n  callvalue\n  dup1\n  iszero\n  tag_1\n  jumpi\n  0x00\n  dup1\n  revert\ntag_1:\n  pop\n  dataSize(sub_0)\n  dup1\n  dataOffset(sub_0)\n  0x00\n  codecopy\n  0x00\n  return\nstop\n\nsub_0: assembly {\n        /* \"contracts/Todo2.sol\":100:1114  contract Todos2{... */\n      mstore(0x40, 0x80)\n      callvalue\n      dup1\n      iszero\n      tag_1\n      jumpi\n      0x00\n      dup1\n      revert\n    tag_1:\n      pop\n      jumpi(tag_2, lt(calldatasize, 0x04))\n      shr(0xe0, calldataload(0x00))\n      dup1\n      0x1d65e77e\n      eq\n      tag_3\n      jumpi\n      dup1\n      0x387008c2\n      eq\n      tag_4\n      jumpi\n      dup1\n      0x560f3192\n      eq\n      tag_5\n      jumpi\n      dup1\n      0x67238562\n      eq\n      tag_6\n      jumpi\n      dup1\n      0xc17a340e\n      eq\n      tag_7\n      jumpi\n    tag_2:\n      0x00\n      dup1\n      revert\n        /* \"contracts/Todo2.sol\":493:640  function getTask(uint _taskIndex) external view returns (Task memory)... */\n    tag_3:\n      tag_8\n      0x04\n      dup1\n      calldatasize\n      sub\n      dup2\n      add\n      swap1\n      tag_9\n      swap2\n      swap1\n      tag_10\n      jump\t// in\n    tag_9:\n      tag_11\n      jump\t// in\n    tag_8:\n      mload(0x40)\n      tag_12\n      swap2\n      swap1\n      tag_13\n      jump\t// in\n    tag_12:\n      mload(0x40)\n      dup1\n      swap2\n      sub\n      swap1\n      return\n        /* \"contracts/Todo2.sol\":697:819  function updateStatus(uint256 _taskIndex,bool _status) external... */\n    tag_4:\n      tag_14\n      0x04\n      dup1\n      calldatasize\n      sub\n      dup2\n      add\n      swap1\n      tag_15\n      swap2\n      swap1\n      tag_16\n      jump\t// in\n    tag_15:\n      tag_17\n      jump\t// in\n    tag_14:\n      stop\n        /* \"contracts/Todo2.sol\":866:963  function deleteTask(uint256 _taskIndex) external... */\n    tag_5:\n      tag_18\n      0x04\n      dup1\n      calldatasize\n      sub\n      dup2\n      add\n      swap1\n      tag_19\n      swap2\n      swap1\n      tag_10\n      jump\t// in\n    tag_19:\n      tag_20\n      jump\t// in\n    tag_18:\n      stop\n        /* \"contracts/Todo2.sol\":308:438  function addTask(string calldata _task) external... */\n    tag_6:\n      tag_21\n      0x04\n      dup1\n      calldatasize\n      sub\n      dup2\n      add\n      swap1\n      tag_22\n      swap2\n      swap1\n      tag_23\n      jump\t// in\n    tag_22:\n      tag_24\n      jump\t// in\n    tag_21:\n      stop\n        /* \"contracts/Todo2.sol\":1012:1111  function getTaskCount() external view returns (uint256)... */\n    tag_7:\n      tag_25\n      tag_26\n      jump\t// in\n    tag_25:\n      mload(0x40)\n      tag_27\n      swap2\n      swap1\n      tag_28\n      jump\t// in\n    tag_27:\n      mload(0x40)\n      dup1\n      swap2\n      sub\n      swap1\n      return\n        /* \"contracts/Todo2.sol\":493:640  function getTask(uint _taskIndex) external view returns (Task memory)... */\n    tag_11:\n        /* \"contracts/Todo2.sol\":550:561  Task memory */\n      tag_29\n      tag_30\n      jump\t// in\n    tag_29:\n        /* \"contracts/Todo2.sol\":570:587  Task storage task */\n      0x00\n        /* \"contracts/Todo2.sol\":590:595  Users */\n      dup1\n        /* \"contracts/Todo2.sol\":590:607  Users[msg.sender] */\n      0x00\n        /* \"contracts/Todo2.sol\":596:606  msg.sender */\n      caller\n        /* \"contracts/Todo2.sol\":590:607  Users[msg.sender] */\n      0xffffffffffffffffffffffffffffffffffffffff\n      and\n      0xffffffffffffffffffffffffffffffffffffffff\n      and\n      dup2\n      mstore\n      0x20\n      add\n      swap1\n      dup2\n      mstore\n      0x20\n      add\n      0x00\n      keccak256\n        /* \"contracts/Todo2.sol\":608:618  _taskIndex */\n      dup4\n        /* \"contracts/Todo2.sol\":590:619  Users[msg.sender][_taskIndex] */\n      dup2\n      sload\n      dup2\n      lt\n      tag_32\n      jumpi\n      tag_33\n      tag_34\n      jump\t// in\n    tag_33:\n    tag_32:\n      swap1\n      0x00\n      mstore\n      keccak256(0x00, 0x20)\n      swap1\n      0x02\n      mul\n      add\n        /* \"contracts/Todo2.sol\":570:619  Task storage task = Users[msg.sender][_taskIndex] */\n      swap1\n      pop\n        /* \"contracts/Todo2.sol\":631:635  task */\n      dup1\n        /* \"contracts/Todo2.sol\":624:635  return task */\n      mload(0x40)\n      dup1\n      0x40\n      add\n      0x40\n      mstore\n      swap1\n      dup2\n      0x00\n      dup3\n      add\n      dup1\n      sload\n      tag_36\n      swap1\n      tag_37\n      jump\t// in\n    tag_36:\n      dup1\n      0x1f\n      add\n      0x20\n      dup1\n      swap2\n      div\n      mul\n      0x20\n      add\n      mload(0x40)\n      swap1\n      dup2\n      add\n      0x40\n      mstore\n      dup1\n      swap3\n      swap2\n      swap1\n      dup2\n      dup2\n      mstore\n      0x20\n      add\n      dup3\n      dup1\n      sload\n      tag_38\n      swap1\n      tag_37\n      jump\t// in\n    tag_38:\n      dup1\n      iszero\n      tag_39\n      jumpi\n      dup1\n      0x1f\n      lt\n      tag_40\n      jumpi\n      0x0100\n      dup1\n      dup4\n      sload\n      div\n      mul\n      dup4\n      mstore\n      swap2\n      0x20\n      add\n      swap2\n      jump(tag_39)\n    tag_40:\n      dup3\n      add\n      swap2\n      swap1\n      0x00\n      mstore\n      keccak256(0x00, 0x20)\n      swap1\n    tag_41:\n      dup2\n      sload\n      dup2\n      mstore\n      swap1\n      0x01\n      add\n      swap1\n      0x20\n      add\n      dup1\n      dup4\n      gt\n      tag_41\n      jumpi\n      dup3\n      swap1\n      sub\n      0x1f\n      and\n      dup3\n      add\n      swap2\n    tag_39:\n      pop\n      pop\n      pop\n      pop\n      pop\n      dup2\n      mstore\n      0x20\n      add\n      0x01\n      dup3\n      add\n      0x00\n      swap1\n      sload\n      swap1\n      0x0100\n      exp\n      swap1\n      div\n      0xff\n      and\n      iszero\n      iszero\n      iszero\n      iszero\n      dup2\n      mstore\n      pop\n      pop\n      swap2\n      pop\n      pop\n        /* \"contracts/Todo2.sol\":493:640  function getTask(uint _taskIndex) external view returns (Task memory)... */\n      swap2\n      swap1\n      pop\n      jump\t// out\n        /* \"contracts/Todo2.sol\":697:819  function updateStatus(uint256 _taskIndex,bool _status) external... */\n    tag_17:\n        /* \"contracts/Todo2.sol\":807:814  _status */\n      dup1\n        /* \"contracts/Todo2.sol\":768:773  Users */\n      0x00\n        /* \"contracts/Todo2.sol\":768:785  Users[msg.sender] */\n      dup1\n        /* \"contracts/Todo2.sol\":774:784  msg.sender */\n      caller\n        /* \"contracts/Todo2.sol\":768:785  Users[msg.sender] */\n      0xffffffffffffffffffffffffffffffffffffffff\n      and\n      0xffffffffffffffffffffffffffffffffffffffff\n      and\n      dup2\n      mstore\n      0x20\n      add\n      swap1\n      dup2\n      mstore\n      0x20\n      add\n      0x00\n      keccak256\n        /* \"contracts/Todo2.sol\":786:796  _taskIndex */\n      dup4\n        /* \"contracts/Todo2.sol\":768:797  Users[msg.sender][_taskIndex] */\n      dup2\n      sload\n      dup2\n      lt\n      tag_43\n      jumpi\n      tag_44\n      tag_34\n      jump\t// in\n    tag_44:\n    tag_43:\n      swap1\n      0x00\n      mstore\n      keccak256(0x00, 0x20)\n      swap1\n      0x02\n      mul\n      add\n        /* \"contracts/Todo2.sol\":768:804  Users[msg.sender][_taskIndex].isDone */\n      0x01\n      add\n      0x00\n        /* \"contracts/Todo2.sol\":768:814  Users[msg.sender][_taskIndex].isDone = _status */\n      0x0100\n      exp\n      dup2\n      sload\n      dup2\n      0xff\n      mul\n      not\n      and\n      swap1\n      dup4\n      iszero\n      iszero\n      mul\n      or\n      swap1\n      sstore\n      pop\n        /* \"contracts/Todo2.sol\":697:819  function updateStatus(uint256 _taskIndex,bool _status) external... */\n      pop\n      pop\n      jump\t// out\n        /* \"contracts/Todo2.sol\":866:963  function deleteTask(uint256 _taskIndex) external... */\n    tag_20:\n        /* \"contracts/Todo2.sol\":929:934  Users */\n      0x00\n        /* \"contracts/Todo2.sol\":929:946  Users[msg.sender] */\n      dup1\n        /* \"contracts/Todo2.sol\":935:945  msg.sender */\n      caller\n        /* \"contracts/Todo2.sol\":929:946  Users[msg.sender] */\n      0xffffffffffffffffffffffffffffffffffffffff\n      and\n      0xffffffffffffffffffffffffffffffffffffffff\n      and\n      dup2\n      mstore\n      0x20\n      add\n      swap1\n      dup2\n      mstore\n      0x20\n      add\n      0x00\n      keccak256\n        /* \"contracts/Todo2.sol\":947:957  _taskIndex */\n      dup2\n        /* \"contracts/Todo2.sol\":929:958  Users[msg.sender][_taskIndex] */\n      dup2\n      sload\n      dup2\n      lt\n      tag_47\n      jumpi\n      tag_48\n      tag_34\n      jump\t// in\n    tag_48:\n    tag_47:\n      swap1\n      0x00\n      mstore\n      keccak256(0x00, 0x20)\n      swap1\n      0x02\n      mul\n      add\n      0x00\n        /* \"contracts/Todo2.sol\":922:958  delete Users[msg.sender][_taskIndex] */\n      dup1\n      dup3\n      add\n      0x00\n      tag_50\n      swap2\n      swap1\n      tag_51\n      jump\t// in\n    tag_50:\n      0x01\n      dup3\n      add\n      exp(0x0100, 0x00)\n      dup2\n      sload\n      swap1\n      0xff\n      mul\n      not\n      and\n      swap1\n      sstore\n      pop\n      pop\n        /* \"contracts/Todo2.sol\":866:963  function deleteTask(uint256 _taskIndex) external... */\n      pop\n      jump\t// out\n        /* \"contracts/Todo2.sol\":308:438  function addTask(string calldata _task) external... */\n    tag_24:\n        /* \"contracts/Todo2.sol\":364:369  Users */\n      0x00\n        /* \"contracts/Todo2.sol\":364:381  Users[msg.sender] */\n      dup1\n        /* \"contracts/Todo2.sol\":370:380  msg.sender */\n      caller\n        /* \"contracts/Todo2.sol\":364:381  Users[msg.sender] */\n      0xffffffffffffffffffffffffffffffffffffffff\n      and\n      0xffffffffffffffffffffffffffffffffffffffff\n      and\n      dup2\n      mstore\n      0x20\n      add\n      swap1\n      dup2\n      mstore\n      0x20\n      add\n      0x00\n      keccak256\n        /* \"contracts/Todo2.sol\":387:432  Task({... */\n      mload(0x40)\n      dup1\n      0x40\n      add\n      0x40\n      mstore\n      dup1\n        /* \"contracts/Todo2.sol\":403:408  _task */\n      dup5\n      dup5\n        /* \"contracts/Todo2.sol\":387:432  Task({... */\n      dup1\n      dup1\n      0x1f\n      add\n      0x20\n      dup1\n      swap2\n      div\n      mul\n      0x20\n      add\n      mload(0x40)\n      swap1\n      dup2\n      add\n      0x40\n      mstore\n      dup1\n      swap4\n      swap3\n      swap2\n      swap1\n      dup2\n      dup2\n      mstore\n      0x20\n      add\n      dup4\n      dup4\n      dup1\n      dup3\n      dup5\n      calldatacopy\n      0x00\n      dup2\n      dup5\n      add\n      mstore\n      not(0x1f)\n      0x1f\n      dup3\n      add\n      and\n      swap1\n      pop\n      dup1\n      dup4\n      add\n      swap3\n      pop\n      pop\n      pop\n      pop\n      pop\n      pop\n      pop\n      dup2\n      mstore\n      0x20\n      add\n        /* \"contracts/Todo2.sol\":421:426  false */\n      0x00\n        /* \"contracts/Todo2.sol\":387:432  Task({... */\n      iszero\n      iszero\n      dup2\n      mstore\n      pop\n        /* \"contracts/Todo2.sol\":364:433  Users[msg.sender].push(Task({... */\n      swap1\n      dup1\n      0x01\n      dup2\n      sload\n      add\n      dup1\n      dup3\n      sstore\n      dup1\n      swap2\n      pop\n      pop\n      0x01\n      swap1\n      sub\n      swap1\n      0x00\n      mstore\n      keccak256(0x00, 0x20)\n      swap1\n      0x02\n      mul\n      add\n      0x00\n      swap1\n      swap2\n      swap1\n      swap2\n      swap1\n      swap2\n      pop\n      0x00\n      dup3\n      add\n      mload\n      dup2\n      0x00\n      add\n      swap1\n      dup2\n      tag_54\n      swap2\n      swap1\n      tag_55\n      jump\t// in\n    tag_54:\n      pop\n      0x20\n      dup3\n      add\n      mload\n      dup2\n      0x01\n      add\n      exp(0x0100, 0x00)\n      dup2\n      sload\n      dup2\n      0xff\n      mul\n      not\n      and\n      swap1\n      dup4\n      iszero\n      iszero\n      mul\n      or\n      swap1\n      sstore\n      pop\n      pop\n      pop\n        /* \"contracts/Todo2.sol\":308:438  function addTask(string calldata _task) external... */\n      pop\n      pop\n      jump\t// out\n        /* \"contracts/Todo2.sol\":1012:1111  function getTaskCount() external view returns (uint256)... */\n    tag_26:\n        /* \"contracts/Todo2.sol\":1059:1066  uint256 */\n      0x00\n        /* \"contracts/Todo2.sol\":1082:1087  Users */\n      dup1\n        /* \"contracts/Todo2.sol\":1082:1099  Users[msg.sender] */\n      0x00\n        /* \"contracts/Todo2.sol\":1088:1098  msg.sender */\n      caller\n        /* \"contracts/Todo2.sol\":1082:1099  Users[msg.sender] */\n      0xffffffffffffffffffffffffffffffffffffffff\n      and\n      0xffffffffffffffffffffffffffffffffffffffff\n      and\n      dup2\n      mstore\n      0x20\n      add\n      swap1\n      dup2\n      mstore\n      0x20\n      add\n      0x00\n      keccak256\n        /* \"contracts/Todo2.sol\":1082:1106  Users[msg.sender].length */\n      dup1\n      sload\n      swap1\n      pop\n        /* \"contracts/Todo2.sol\":1075:1106  return Users[msg.sender].length */\n      swap1\n      pop\n        /* \"contracts/Todo2.sol\":1012:1111  function getTaskCount() external view returns (uint256)... */\n      swap1\n      jump\t// out\n    tag_30:\n      mload(0x40)\n      dup1\n      0x40\n      add\n      0x40\n      mstore\n      dup1\n      0x60\n      dup2\n      mstore\n      0x20\n      add\n      iszero(iszero(0x00))\n      dup2\n      mstore\n      pop\n      swap1\n      jump\t// out\n    tag_51:\n      pop\n      dup1\n      sload\n      tag_57\n      swap1\n      tag_37\n      jump\t// in\n    tag_57:\n      0x00\n      dup3\n      sstore\n      dup1\n      0x1f\n      lt\n      tag_59\n      jumpi\n      pop\n      jump(tag_58)\n    tag_59:\n      0x1f\n      add\n      0x20\n      swap1\n      div\n      swap1\n      0x00\n      mstore\n      keccak256(0x00, 0x20)\n      swap1\n      dup2\n      add\n      swap1\n      tag_60\n      swap2\n      swap1\n      tag_61\n      jump\t// in\n    tag_60:\n    tag_58:\n      pop\n      jump\t// out\n    tag_61:\n    tag_62:\n      dup1\n      dup3\n      gt\n      iszero\n      tag_63\n      jumpi\n      0x00\n      dup2\n      0x00\n      swap1\n      sstore\n      pop\n      0x01\n      add\n      jump(tag_62)\n    tag_63:\n      pop\n      swap1\n      jump\t// out\n        /* \"#utility.yul\":88:205   */\n    tag_65:\n        /* \"#utility.yul\":197:198   */\n      0x00\n        /* \"#utility.yul\":194:195   */\n      dup1\n        /* \"#utility.yul\":187:199   */\n      revert\n        /* \"#utility.yul\":211:328   */\n    tag_66:\n        /* \"#utility.yul\":320:321   */\n      0x00\n        /* \"#utility.yul\":317:318   */\n      dup1\n        /* \"#utility.yul\":310:322   */\n      revert\n        /* \"#utility.yul\":334:411   */\n    tag_67:\n        /* \"#utility.yul\":371:378   */\n      0x00\n        /* \"#utility.yul\":400:405   */\n      dup2\n        /* \"#utility.yul\":389:405   */\n      swap1\n      pop\n        /* \"#utility.yul\":334:411   */\n      swap2\n      swap1\n      pop\n      jump\t// out\n        /* \"#utility.yul\":417:539   */\n    tag_68:\n        /* \"#utility.yul\":490:514   */\n      tag_108\n        /* \"#utility.yul\":508:513   */\n      dup2\n        /* \"#utility.yul\":490:514   */\n      tag_67\n      jump\t// in\n    tag_108:\n        /* \"#utility.yul\":483:488   */\n      dup2\n        /* \"#utility.yul\":480:515   */\n      eq\n        /* \"#utility.yul\":470:533   */\n      tag_109\n      jumpi\n        /* \"#utility.yul\":529:530   */\n      0x00\n        /* \"#utility.yul\":526:527   */\n      dup1\n        /* \"#utility.yul\":519:531   */\n      revert\n        /* \"#utility.yul\":470:533   */\n    tag_109:\n        /* \"#utility.yul\":417:539   */\n      pop\n      jump\t// out\n        /* \"#utility.yul\":545:684   */\n    tag_69:\n        /* \"#utility.yul\":591:596   */\n      0x00\n        /* \"#utility.yul\":629:635   */\n      dup2\n        /* \"#utility.yul\":616:636   */\n      calldataload\n        /* \"#utility.yul\":607:636   */\n      swap1\n      pop\n        /* \"#utility.yul\":645:678   */\n      tag_111\n        /* \"#utility.yul\":672:677   */\n      dup2\n        /* \"#utility.yul\":645:678   */\n      tag_68\n      jump\t// in\n    tag_111:\n        /* \"#utility.yul\":545:684   */\n      swap3\n      swap2\n      pop\n      pop\n      jump\t// out\n        /* \"#utility.yul\":690:1019   */\n    tag_10:\n        /* \"#utility.yul\":749:755   */\n      0x00\n        /* \"#utility.yul\":798:800   */\n      0x20\n        /* \"#utility.yul\":786:795   */\n      dup3\n        /* \"#utility.yul\":777:784   */\n      dup5\n        /* \"#utility.yul\":773:796   */\n      sub\n        /* \"#utility.yul\":769:801   */\n      slt\n        /* \"#utility.yul\":766:885   */\n      iszero\n      tag_113\n      jumpi\n        /* \"#utility.yul\":804:883   */\n      tag_114\n      tag_65\n      jump\t// in\n    tag_114:\n        /* \"#utility.yul\":766:885   */\n    tag_113:\n        /* \"#utility.yul\":924:925   */\n      0x00\n        /* \"#utility.yul\":949:1002   */\n      tag_115\n        /* \"#utility.yul\":994:1001   */\n      dup5\n        /* \"#utility.yul\":985:991   */\n      dup3\n        /* \"#utility.yul\":974:983   */\n      dup6\n        /* \"#utility.yul\":970:992   */\n      add\n        /* \"#utility.yul\":949:1002   */\n      tag_69\n      jump\t// in\n    tag_115:\n        /* \"#utility.yul\":939:1002   */\n      swap2\n      pop\n        /* \"#utility.yul\":895:1012   */\n      pop\n        /* \"#utility.yul\":690:1019   */\n      swap3\n      swap2\n      pop\n      pop\n      jump\t// out\n        /* \"#utility.yul\":1025:1124   */\n    tag_70:\n        /* \"#utility.yul\":1077:1083   */\n      0x00\n        /* \"#utility.yul\":1111:1116   */\n      dup2\n        /* \"#utility.yul\":1105:1117   */\n      mload\n        /* \"#utility.yul\":1095:1117   */\n      swap1\n      pop\n        /* \"#utility.yul\":1025:1124   */\n      swap2\n      swap1\n      pop\n      jump\t// out\n        /* \"#utility.yul\":1130:1289   */\n    tag_71:\n        /* \"#utility.yul\":1204:1215   */\n      0x00\n        /* \"#utility.yul\":1238:1244   */\n      dup3\n        /* \"#utility.yul\":1233:1236   */\n      dup3\n        /* \"#utility.yul\":1226:1245   */\n      mstore\n        /* \"#utility.yul\":1278:1282   */\n      0x20\n        /* \"#utility.yul\":1273:1276   */\n      dup3\n        /* \"#utility.yul\":1269:1283   */\n      add\n        /* \"#utility.yul\":1254:1283   */\n      swap1\n      pop\n        /* \"#utility.yul\":1130:1289   */\n      swap3\n      swap2\n      pop\n      pop\n      jump\t// out\n        /* \"#utility.yul\":1295:1541   */\n    tag_72:\n        /* \"#utility.yul\":1376:1377   */\n      0x00\n        /* \"#utility.yul\":1386:1499   */\n    tag_119:\n        /* \"#utility.yul\":1400:1406   */\n      dup4\n        /* \"#utility.yul\":1397:1398   */\n      dup2\n        /* \"#utility.yul\":1394:1407   */\n      lt\n        /* \"#utility.yul\":1386:1499   */\n      iszero\n      tag_121\n      jumpi\n        /* \"#utility.yul\":1485:1486   */\n      dup1\n        /* \"#utility.yul\":1480:1483   */\n      dup3\n        /* \"#utility.yul\":1476:1487   */\n      add\n        /* \"#utility.yul\":1470:1488   */\n      mload\n        /* \"#utility.yul\":1466:1467   */\n      dup2\n        /* \"#utility.yul\":1461:1464   */\n      dup5\n        /* \"#utility.yul\":1457:1468   */\n      add\n        /* \"#utility.yul\":1450:1489   */\n      mstore\n        /* \"#utility.yul\":1422:1424   */\n      0x20\n        /* \"#utility.yul\":1419:1420   */\n      dup2\n        /* \"#utility.yul\":1415:1425   */\n      add\n        /* \"#utility.yul\":1410:1425   */\n      swap1\n      pop\n        /* \"#utility.yul\":1386:1499   */\n      jump(tag_119)\n    tag_121:\n        /* \"#utility.yul\":1533:1534   */\n      0x00\n        /* \"#utility.yul\":1524:1530   */\n      dup5\n        /* \"#utility.yul\":1519:1522   */\n      dup5\n        /* \"#utility.yul\":1515:1531   */\n      add\n        /* \"#utility.yul\":1508:1535   */\n      mstore\n        /* \"#utility.yul\":1357:1541   */\n      pop\n        /* \"#utility.yul\":1295:1541   */\n      pop\n      pop\n      pop\n      jump\t// out\n        /* \"#utility.yul\":1547:1649   */\n    tag_73:\n        /* \"#utility.yul\":1588:1594   */\n      0x00\n        /* \"#utility.yul\":1639:1641   */\n      0x1f\n        /* \"#utility.yul\":1635:1642   */\n      not\n        /* \"#utility.yul\":1630:1632   */\n      0x1f\n        /* \"#utility.yul\":1623:1628   */\n      dup4\n        /* \"#utility.yul\":1619:1633   */\n      add\n        /* \"#utility.yul\":1615:1643   */\n      and\n        /* \"#utility.yul\":1605:1643   */\n      swap1\n      pop\n        /* \"#utility.yul\":1547:1649   */\n      swap2\n      swap1\n      pop\n      jump\t// out\n        /* \"#utility.yul\":1655:2012   */\n    tag_74:\n        /* \"#utility.yul\":1733:1736   */\n      0x00\n        /* \"#utility.yul\":1761:1800   */\n      tag_124\n        /* \"#utility.yul\":1794:1799   */\n      dup3\n        /* \"#utility.yul\":1761:1800   */\n      tag_70\n      jump\t// in\n    tag_124:\n        /* \"#utility.yul\":1816:1877   */\n      tag_125\n        /* \"#utility.yul\":1870:1876   */\n      dup2\n        /* \"#utility.yul\":1865:1868   */\n      dup6\n        /* \"#utility.yul\":1816:1877   */\n      tag_71\n      jump\t// in\n    tag_125:\n        /* \"#utility.yul\":1809:1877   */\n      swap4\n      pop\n        /* \"#utility.yul\":1886:1951   */\n      tag_126\n        /* \"#utility.yul\":1944:1950   */\n      dup2\n        /* \"#utility.yul\":1939:1942   */\n      dup6\n        /* \"#utility.yul\":1932:1936   */\n      0x20\n        /* \"#utility.yul\":1925:1930   */\n      dup7\n        /* \"#utility.yul\":1921:1937   */\n      add\n        /* \"#utility.yul\":1886:1951   */\n      tag_72\n      jump\t// in\n    tag_126:\n        /* \"#utility.yul\":1976:2005   */\n      tag_127\n        /* \"#utility.yul\":1998:2004   */\n      dup2\n        /* \"#utility.yul\":1976:2005   */\n      tag_73\n      jump\t// in\n    tag_127:\n        /* \"#utility.yul\":1971:1974   */\n      dup5\n        /* \"#utility.yul\":1967:2006   */\n      add\n        /* \"#utility.yul\":1960:2006   */\n      swap2\n      pop\n        /* \"#utility.yul\":1737:2012   */\n      pop\n        /* \"#utility.yul\":1655:2012   */\n      swap3\n      swap2\n      pop\n      pop\n      jump\t// out\n        /* \"#utility.yul\":2018:2108   */\n    tag_75:\n        /* \"#utility.yul\":2052:2059   */\n      0x00\n        /* \"#utility.yul\":2095:2100   */\n      dup2\n        /* \"#utility.yul\":2088:2101   */\n      iszero\n        /* \"#utility.yul\":2081:2102   */\n      iszero\n        /* \"#utility.yul\":2070:2102   */\n      swap1\n      pop\n        /* \"#utility.yul\":2018:2108   */\n      swap2\n      swap1\n      pop\n      jump\t// out\n        /* \"#utility.yul\":2114:2213   */\n    tag_76:\n        /* \"#utility.yul\":2185:2206   */\n      tag_130\n        /* \"#utility.yul\":2200:2205   */\n      dup2\n        /* \"#utility.yul\":2185:2206   */\n      tag_75\n      jump\t// in\n    tag_130:\n        /* \"#utility.yul\":2180:2183   */\n      dup3\n        /* \"#utility.yul\":2173:2207   */\n      mstore\n        /* \"#utility.yul\":2114:2213   */\n      pop\n      pop\n      jump\t// out\n        /* \"#utility.yul\":2267:2857   */\n    tag_77:\n        /* \"#utility.yul\":2374:2377   */\n      0x00\n        /* \"#utility.yul\":2410:2414   */\n      0x40\n        /* \"#utility.yul\":2405:2408   */\n      dup4\n        /* \"#utility.yul\":2401:2415   */\n      add\n        /* \"#utility.yul\":2497:2501   */\n      0x00\n        /* \"#utility.yul\":2490:2495   */\n      dup4\n        /* \"#utility.yul\":2486:2502   */\n      add\n        /* \"#utility.yul\":2480:2503   */\n      mload\n        /* \"#utility.yul\":2550:2553   */\n      dup5\n        /* \"#utility.yul\":2544:2548   */\n      dup3\n        /* \"#utility.yul\":2540:2554   */\n      sub\n        /* \"#utility.yul\":2533:2537   */\n      0x00\n        /* \"#utility.yul\":2528:2531   */\n      dup7\n        /* \"#utility.yul\":2524:2538   */\n      add\n        /* \"#utility.yul\":2517:2555   */\n      mstore\n        /* \"#utility.yul\":2576:2649   */\n      tag_132\n        /* \"#utility.yul\":2644:2648   */\n      dup3\n        /* \"#utility.yul\":2630:2642   */\n      dup3\n        /* \"#utility.yul\":2576:2649   */\n      tag_74\n      jump\t// in\n    tag_132:\n        /* \"#utility.yul\":2568:2649   */\n      swap2\n      pop\n        /* \"#utility.yul\":2425:2660   */\n      pop\n        /* \"#utility.yul\":2744:2748   */\n      0x20\n        /* \"#utility.yul\":2737:2742   */\n      dup4\n        /* \"#utility.yul\":2733:2749   */\n      add\n        /* \"#utility.yul\":2727:2750   */\n      mload\n        /* \"#utility.yul\":2763:2820   */\n      tag_133\n        /* \"#utility.yul\":2814:2818   */\n      0x20\n        /* \"#utility.yul\":2809:2812   */\n      dup7\n        /* \"#utility.yul\":2805:2819   */\n      add\n        /* \"#utility.yul\":2791:2803   */\n      dup3\n        /* \"#utility.yul\":2763:2820   */\n      tag_76\n      jump\t// in\n    tag_133:\n        /* \"#utility.yul\":2670:2830   */\n      pop\n        /* \"#utility.yul\":2847:2851   */\n      dup1\n        /* \"#utility.yul\":2840:2851   */\n      swap2\n      pop\n        /* \"#utility.yul\":2379:2857   */\n      pop\n        /* \"#utility.yul\":2267:2857   */\n      swap3\n      swap2\n      pop\n      pop\n      jump\t// out\n        /* \"#utility.yul\":2863:3212   */\n    tag_13:\n        /* \"#utility.yul\":2994:2998   */\n      0x00\n        /* \"#utility.yul\":3032:3034   */\n      0x20\n        /* \"#utility.yul\":3021:3030   */\n      dup3\n        /* \"#utility.yul\":3017:3035   */\n      add\n        /* \"#utility.yul\":3009:3035   */\n      swap1\n      pop\n        /* \"#utility.yul\":3081:3090   */\n      dup2\n        /* \"#utility.yul\":3075:3079   */\n      dup2\n        /* \"#utility.yul\":3071:3091   */\n      sub\n        /* \"#utility.yul\":3067:3068   */\n      0x00\n        /* \"#utility.yul\":3056:3065   */\n      dup4\n        /* \"#utility.yul\":3052:3069   */\n      add\n        /* \"#utility.yul\":3045:3092   */\n      mstore\n        /* \"#utility.yul\":3109:3205   */\n      tag_135\n        /* \"#utility.yul\":3200:3204   */\n      dup2\n        /* \"#utility.yul\":3191:3197   */\n      dup5\n        /* \"#utility.yul\":3109:3205   */\n      tag_77\n      jump\t// in\n    tag_135:\n        /* \"#utility.yul\":3101:3205   */\n      swap1\n      pop\n        /* \"#utility.yul\":2863:3212   */\n      swap3\n      swap2\n      pop\n      pop\n      jump\t// out\n        /* \"#utility.yul\":3218:3334   */\n    tag_78:\n        /* \"#utility.yul\":3288:3309   */\n      tag_137\n        /* \"#utility.yul\":3303:3308   */\n      dup2\n        /* \"#utility.yul\":3288:3309   */\n      tag_75\n      jump\t// in\n    tag_137:\n        /* \"#utility.yul\":3281:3286   */\n      dup2\n        /* \"#utility.yul\":3278:3310   */\n      eq\n        /* \"#utility.yul\":3268:3328   */\n      tag_138\n      jumpi\n        /* \"#utility.yul\":3324:3325   */\n      0x00\n        /* \"#utility.yul\":3321:3322   */\n      dup1\n        /* \"#utility.yul\":3314:3326   */\n      revert\n        /* \"#utility.yul\":3268:3328   */\n    tag_138:\n        /* \"#utility.yul\":3218:3334   */\n      pop\n      jump\t// out\n        /* \"#utility.yul\":3340:3473   */\n    tag_79:\n        /* \"#utility.yul\":3383:3388   */\n      0x00\n        /* \"#utility.yul\":3421:3427   */\n      dup2\n        /* \"#utility.yul\":3408:3428   */\n      calldataload\n        /* \"#utility.yul\":3399:3428   */\n      swap1\n      pop\n        /* \"#utility.yul\":3437:3467   */\n      tag_140\n        /* \"#utility.yul\":3461:3466   */\n      dup2\n        /* \"#utility.yul\":3437:3467   */\n      tag_78\n      jump\t// in\n    tag_140:\n        /* \"#utility.yul\":3340:3473   */\n      swap3\n      swap2\n      pop\n      pop\n      jump\t// out\n        /* \"#utility.yul\":3479:3947   */\n    tag_16:\n        /* \"#utility.yul\":3544:3550   */\n      0x00\n        /* \"#utility.yul\":3552:3558   */\n      dup1\n        /* \"#utility.yul\":3601:3603   */\n      0x40\n        /* \"#utility.yul\":3589:3598   */\n      dup4\n        /* \"#utility.yul\":3580:3587   */\n      dup6\n        /* \"#utility.yul\":3576:3599   */\n      sub\n        /* \"#utility.yul\":3572:3604   */\n      slt\n        /* \"#utility.yul\":3569:3688   */\n      iszero\n      tag_142\n      jumpi\n        /* \"#utility.yul\":3607:3686   */\n      tag_143\n      tag_65\n      jump\t// in\n    tag_143:\n        /* \"#utility.yul\":3569:3688   */\n    tag_142:\n        /* \"#utility.yul\":3727:3728   */\n      0x00\n        /* \"#utility.yul\":3752:3805   */\n      tag_144\n        /* \"#utility.yul\":3797:3804   */\n      dup6\n        /* \"#utility.yul\":3788:3794   */\n      dup3\n        /* \"#utility.yul\":3777:3786   */\n      dup7\n        /* \"#utility.yul\":3773:3795   */\n      add\n        /* \"#utility.yul\":3752:3805   */\n      tag_69\n      jump\t// in\n    tag_144:\n        /* \"#utility.yul\":3742:3805   */\n      swap3\n      pop\n        /* \"#utility.yul\":3698:3815   */\n      pop\n        /* \"#utility.yul\":3854:3856   */\n      0x20\n        /* \"#utility.yul\":3880:3930   */\n      tag_145\n        /* \"#utility.yul\":3922:3929   */\n      dup6\n        /* \"#utility.yul\":3913:3919   */\n      dup3\n        /* \"#utility.yul\":3902:3911   */\n      dup7\n        /* \"#utility.yul\":3898:3920   */\n      add\n        /* \"#utility.yul\":3880:3930   */\n      tag_79\n      jump\t// in\n    tag_145:\n        /* \"#utility.yul\":3870:3930   */\n      swap2\n      pop\n        /* \"#utility.yul\":3825:3940   */\n      pop\n        /* \"#utility.yul\":3479:3947   */\n      swap3\n      pop\n      swap3\n      swap1\n      pop\n      jump\t// out\n        /* \"#utility.yul\":3953:4070   */\n    tag_80:\n        /* \"#utility.yul\":4062:4063   */\n      0x00\n        /* \"#utility.yul\":4059:4060   */\n      dup1\n        /* \"#utility.yul\":4052:4064   */\n      revert\n        /* \"#utility.yul\":4076:4193   */\n    tag_81:\n        /* \"#utility.yul\":4185:4186   */\n      0x00\n        /* \"#utility.yul\":4182:4183   */\n      dup1\n        /* \"#utility.yul\":4175:4187   */\n      revert\n        /* \"#utility.yul\":4199:4316   */\n    tag_82:\n        /* \"#utility.yul\":4308:4309   */\n      0x00\n        /* \"#utility.yul\":4305:4306   */\n      dup1\n        /* \"#utility.yul\":4298:4310   */\n      revert\n        /* \"#utility.yul\":4336:4889   */\n    tag_83:\n        /* \"#utility.yul\":4394:4402   */\n      0x00\n        /* \"#utility.yul\":4404:4410   */\n      dup1\n        /* \"#utility.yul\":4454:4457   */\n      dup4\n        /* \"#utility.yul\":4447:4451   */\n      0x1f\n        /* \"#utility.yul\":4439:4445   */\n      dup5\n        /* \"#utility.yul\":4435:4452   */\n      add\n        /* \"#utility.yul\":4431:4458   */\n      slt\n        /* \"#utility.yul\":4421:4543   */\n      tag_150\n      jumpi\n        /* \"#utility.yul\":4462:4541   */\n      tag_151\n      tag_80\n      jump\t// in\n    tag_151:\n        /* \"#utility.yul\":4421:4543   */\n    tag_150:\n        /* \"#utility.yul\":4575:4581   */\n      dup3\n        /* \"#utility.yul\":4562:4582   */\n      calldataload\n        /* \"#utility.yul\":4552:4582   */\n      swap1\n      pop\n        /* \"#utility.yul\":4605:4623   */\n      0xffffffffffffffff\n        /* \"#utility.yul\":4597:4603   */\n      dup2\n        /* \"#utility.yul\":4594:4624   */\n      gt\n        /* \"#utility.yul\":4591:4708   */\n      iszero\n      tag_152\n      jumpi\n        /* \"#utility.yul\":4627:4706   */\n      tag_153\n      tag_81\n      jump\t// in\n    tag_153:\n        /* \"#utility.yul\":4591:4708   */\n    tag_152:\n        /* \"#utility.yul\":4741:4745   */\n      0x20\n        /* \"#utility.yul\":4733:4739   */\n      dup4\n        /* \"#utility.yul\":4729:4746   */\n      add\n        /* \"#utility.yul\":4717:4746   */\n      swap2\n      pop\n        /* \"#utility.yul\":4795:4798   */\n      dup4\n        /* \"#utility.yul\":4787:4791   */\n      0x01\n        /* \"#utility.yul\":4779:4785   */\n      dup3\n        /* \"#utility.yul\":4775:4792   */\n      mul\n        /* \"#utility.yul\":4765:4773   */\n      dup4\n        /* \"#utility.yul\":4761:4793   */\n      add\n        /* \"#utility.yul\":4758:4799   */\n      gt\n        /* \"#utility.yul\":4755:4883   */\n      iszero\n      tag_154\n      jumpi\n        /* \"#utility.yul\":4802:4881   */\n      tag_155\n      tag_82\n      jump\t// in\n    tag_155:\n        /* \"#utility.yul\":4755:4883   */\n    tag_154:\n        /* \"#utility.yul\":4336:4889   */\n      swap3\n      pop\n      swap3\n      swap1\n      pop\n      jump\t// out\n        /* \"#utility.yul\":4895:5424   */\n    tag_23:\n        /* \"#utility.yul\":4966:4972   */\n      0x00\n        /* \"#utility.yul\":4974:4980   */\n      dup1\n        /* \"#utility.yul\":5023:5025   */\n      0x20\n        /* \"#utility.yul\":5011:5020   */\n      dup4\n        /* \"#utility.yul\":5002:5009   */\n      dup6\n        /* \"#utility.yul\":4998:5021   */\n      sub\n        /* \"#utility.yul\":4994:5026   */\n      slt\n        /* \"#utility.yul\":4991:5110   */\n      iszero\n      tag_157\n      jumpi\n        /* \"#utility.yul\":5029:5108   */\n      tag_158\n      tag_65\n      jump\t// in\n    tag_158:\n        /* \"#utility.yul\":4991:5110   */\n    tag_157:\n        /* \"#utility.yul\":5177:5178   */\n      0x00\n        /* \"#utility.yul\":5166:5175   */\n      dup4\n        /* \"#utility.yul\":5162:5179   */\n      add\n        /* \"#utility.yul\":5149:5180   */\n      calldataload\n        /* \"#utility.yul\":5207:5225   */\n      0xffffffffffffffff\n        /* \"#utility.yul\":5199:5205   */\n      dup2\n        /* \"#utility.yul\":5196:5226   */\n      gt\n        /* \"#utility.yul\":5193:5310   */\n      iszero\n      tag_159\n      jumpi\n        /* \"#utility.yul\":5229:5308   */\n      tag_160\n      tag_66\n      jump\t// in\n    tag_160:\n        /* \"#utility.yul\":5193:5310   */\n    tag_159:\n        /* \"#utility.yul\":5342:5407   */\n      tag_161\n        /* \"#utility.yul\":5399:5406   */\n      dup6\n        /* \"#utility.yul\":5390:5396   */\n      dup3\n        /* \"#utility.yul\":5379:5388   */\n      dup7\n        /* \"#utility.yul\":5375:5397   */\n      add\n        /* \"#utility.yul\":5342:5407   */\n      tag_83\n      jump\t// in\n    tag_161:\n        /* \"#utility.yul\":5324:5407   */\n      swap3\n      pop\n      swap3\n      pop\n        /* \"#utility.yul\":5120:5417   */\n      pop\n        /* \"#utility.yul\":4895:5424   */\n      swap3\n      pop\n      swap3\n      swap1\n      pop\n      jump\t// out\n        /* \"#utility.yul\":5430:5548   */\n    tag_84:\n        /* \"#utility.yul\":5517:5541   */\n      tag_163\n        /* \"#utility.yul\":5535:5540   */\n      dup2\n        /* \"#utility.yul\":5517:5541   */\n      tag_67\n      jump\t// in\n    tag_163:\n        /* \"#utility.yul\":5512:5515   */\n      dup3\n        /* \"#utility.yul\":5505:5542   */\n      mstore\n        /* \"#utility.yul\":5430:5548   */\n      pop\n      pop\n      jump\t// out\n        /* \"#utility.yul\":5554:5776   */\n    tag_28:\n        /* \"#utility.yul\":5647:5651   */\n      0x00\n        /* \"#utility.yul\":5685:5687   */\n      0x20\n        /* \"#utility.yul\":5674:5683   */\n      dup3\n        /* \"#utility.yul\":5670:5688   */\n      add\n        /* \"#utility.yul\":5662:5688   */\n      swap1\n      pop\n        /* \"#utility.yul\":5698:5769   */\n      tag_165\n        /* \"#utility.yul\":5766:5767   */\n      0x00\n        /* \"#utility.yul\":5755:5764   */\n      dup4\n        /* \"#utility.yul\":5751:5768   */\n      add\n        /* \"#utility.yul\":5742:5748   */\n      dup5\n        /* \"#utility.yul\":5698:5769   */\n      tag_84\n      jump\t// in\n    tag_165:\n        /* \"#utility.yul\":5554:5776   */\n      swap3\n      swap2\n      pop\n      pop\n      jump\t// out\n        /* \"#utility.yul\":5782:5962   */\n    tag_34:\n        /* \"#utility.yul\":5830:5907   */\n      0x4e487b7100000000000000000000000000000000000000000000000000000000\n        /* \"#utility.yul\":5827:5828   */\n      0x00\n        /* \"#utility.yul\":5820:5908   */\n      mstore\n        /* \"#utility.yul\":5927:5931   */\n      0x32\n        /* \"#utility.yul\":5924:5925   */\n      0x04\n        /* \"#utility.yul\":5917:5932   */\n      mstore\n        /* \"#utility.yul\":5951:5955   */\n      0x24\n        /* \"#utility.yul\":5948:5949   */\n      0x00\n        /* \"#utility.yul\":5941:5956   */\n      revert\n        /* \"#utility.yul\":5968:6148   */\n    tag_85:\n        /* \"#utility.yul\":6016:6093   */\n      0x4e487b7100000000000000000000000000000000000000000000000000000000\n        /* \"#utility.yul\":6013:6014   */\n      0x00\n        /* \"#utility.yul\":6006:6094   */\n      mstore\n        /* \"#utility.yul\":6113:6117   */\n      0x22\n        /* \"#utility.yul\":6110:6111   */\n      0x04\n        /* \"#utility.yul\":6103:6118   */\n      mstore\n        /* \"#utility.yul\":6137:6141   */\n      0x24\n        /* \"#utility.yul\":6134:6135   */\n      0x00\n        /* \"#utility.yul\":6127:6142   */\n      revert\n        /* \"#utility.yul\":6154:6474   */\n    tag_37:\n        /* \"#utility.yul\":6198:6204   */\n      0x00\n        /* \"#utility.yul\":6235:6236   */\n      0x02\n        /* \"#utility.yul\":6229:6233   */\n      dup3\n        /* \"#utility.yul\":6225:6237   */\n      div\n        /* \"#utility.yul\":6215:6237   */\n      swap1\n      pop\n        /* \"#utility.yul\":6282:6283   */\n      0x01\n        /* \"#utility.yul\":6276:6280   */\n      dup3\n        /* \"#utility.yul\":6272:6284   */\n      and\n        /* \"#utility.yul\":6303:6321   */\n      dup1\n        /* \"#utility.yul\":6293:6374   */\n      tag_169\n      jumpi\n        /* \"#utility.yul\":6359:6363   */\n      0x7f\n        /* \"#utility.yul\":6351:6357   */\n      dup3\n        /* \"#utility.yul\":6347:6364   */\n      and\n        /* \"#utility.yul\":6337:6364   */\n      swap2\n      pop\n        /* \"#utility.yul\":6293:6374   */\n    tag_169:\n        /* \"#utility.yul\":6421:6423   */\n      0x20\n        /* \"#utility.yul\":6413:6419   */\n      dup3\n        /* \"#utility.yul\":6410:6424   */\n      lt\n        /* \"#utility.yul\":6390:6408   */\n      dup2\n        /* \"#utility.yul\":6387:6425   */\n      sub\n        /* \"#utility.yul\":6384:6468   */\n      tag_170\n      jumpi\n        /* \"#utility.yul\":6440:6458   */\n      tag_171\n      tag_85\n      jump\t// in\n    tag_171:\n        /* \"#utility.yul\":6384:6468   */\n    tag_170:\n        /* \"#utility.yul\":6205:6474   */\n      pop\n        /* \"#utility.yul\":6154:6474   */\n      swap2\n      swap1\n      pop\n      jump\t// out\n        /* \"#utility.yul\":6480:6660   */\n    tag_86:\n        /* \"#utility.yul\":6528:6605   */\n      0x4e487b7100000000000000000000000000000000000000000000000000000000\n        /* \"#utility.yul\":6525:6526   */\n      0x00\n        /* \"#utility.yul\":6518:6606   */\n      mstore\n        /* \"#utility.yul\":6625:6629   */\n      0x41\n        /* \"#utility.yul\":6622:6623   */\n      0x04\n        /* \"#utility.yul\":6615:6630   */\n      mstore\n        /* \"#utility.yul\":6649:6653   */\n      0x24\n        /* \"#utility.yul\":6646:6647   */\n      0x00\n        /* \"#utility.yul\":6639:6654   */\n      revert\n        /* \"#utility.yul\":6666:6807   */\n    tag_87:\n        /* \"#utility.yul\":6715:6719   */\n      0x00\n        /* \"#utility.yul\":6738:6741   */\n      dup2\n        /* \"#utility.yul\":6730:6741   */\n      swap1\n      pop\n        /* \"#utility.yul\":6761:6764   */\n      dup2\n        /* \"#utility.yul\":6758:6759   */\n      0x00\n        /* \"#utility.yul\":6751:6765   */\n      mstore\n        /* \"#utility.yul\":6795:6799   */\n      0x20\n        /* \"#utility.yul\":6792:6793   */\n      0x00\n        /* \"#utility.yul\":6782:6800   */\n      keccak256\n        /* \"#utility.yul\":6774:6800   */\n      swap1\n      pop\n        /* \"#utility.yul\":6666:6807   */\n      swap2\n      swap1\n      pop\n      jump\t// out\n        /* \"#utility.yul\":6813:6906   */\n    tag_88:\n        /* \"#utility.yul\":6850:6856   */\n      0x00\n        /* \"#utility.yul\":6897:6899   */\n      0x20\n        /* \"#utility.yul\":6892:6894   */\n      0x1f\n        /* \"#utility.yul\":6885:6890   */\n      dup4\n        /* \"#utility.yul\":6881:6895   */\n      add\n        /* \"#utility.yul\":6877:6900   */\n      div\n        /* \"#utility.yul\":6867:6900   */\n      swap1\n      pop\n        /* \"#utility.yul\":6813:6906   */\n      swap2\n      swap1\n      pop\n      jump\t// out\n        /* \"#utility.yul\":6912:7019   */\n    tag_89:\n        /* \"#utility.yul\":6956:6964   */\n      0x00\n        /* \"#utility.yul\":7006:7011   */\n      dup3\n        /* \"#utility.yul\":7000:7004   */\n      dup3\n        /* \"#utility.yul\":6996:7012   */\n      shl\n        /* \"#utility.yul\":6975:7012   */\n      swap1\n      pop\n        /* \"#utility.yul\":6912:7019   */\n      swap3\n      swap2\n      pop\n      pop\n      jump\t// out\n        /* \"#utility.yul\":7025:7418   */\n    tag_90:\n        /* \"#utility.yul\":7094:7100   */\n      0x00\n        /* \"#utility.yul\":7144:7145   */\n      0x08\n        /* \"#utility.yul\":7132:7142   */\n      dup4\n        /* \"#utility.yul\":7128:7146   */\n      mul\n        /* \"#utility.yul\":7167:7264   */\n      tag_177\n        /* \"#utility.yul\":7197:7263   */\n      0xffffffffffffffffffffffffffffffffffffffffffffffffffffffffffffffff\n        /* \"#utility.yul\":7186:7195   */\n      dup3\n        /* \"#utility.yul\":7167:7264   */\n      tag_89\n      jump\t// in\n    tag_177:\n        /* \"#utility.yul\":7285:7324   */\n      tag_178\n        /* \"#utility.yul\":7315:7323   */\n      dup7\n        /* \"#utility.yul\":7304:7313   */\n      dup4\n        /* \"#utility.yul\":7285:7324   */\n      tag_89\n      jump\t// in\n    tag_178:\n        /* \"#utility.yul\":7273:7324   */\n      swap6\n      pop\n        /* \"#utility.yul\":7357:7361   */\n      dup1\n        /* \"#utility.yul\":7353:7362   */\n      not\n        /* \"#utility.yul\":7346:7351   */\n      dup5\n        /* \"#utility.yul\":7342:7363   */\n      and\n        /* \"#utility.yul\":7333:7363   */\n      swap4\n      pop\n        /* \"#utility.yul\":7406:7410   */\n      dup1\n        /* \"#utility.yul\":7396:7404   */\n      dup7\n        /* \"#utility.yul\":7392:7411   */\n      and\n        /* \"#utility.yul\":7385:7390   */\n      dup5\n        /* \"#utility.yul\":7382:7412   */\n      or\n        /* \"#utility.yul\":7372:7412   */\n      swap3\n      pop\n        /* \"#utility.yul\":7101:7418   */\n      pop\n      pop\n        /* \"#utility.yul\":7025:7418   */\n      swap4\n      swap3\n      pop\n      pop\n      pop\n      jump\t// out\n        /* \"#utility.yul\":7424:7484   */\n    tag_91:\n        /* \"#utility.yul\":7452:7455   */\n      0x00\n        /* \"#utility.yul\":7473:7478   */\n      dup2\n        /* \"#utility.yul\":7466:7478   */\n      swap1\n      pop\n        /* \"#utility.yul\":7424:7484   */\n      swap2\n      swap1\n      pop\n      jump\t// out\n        /* \"#utility.yul\":7490:7632   */\n    tag_92:\n        /* \"#utility.yul\":7540:7549   */\n      0x00\n        /* \"#utility.yul\":7573:7626   */\n      tag_181\n        /* \"#utility.yul\":7591:7625   */\n      tag_182\n        /* \"#utility.yul\":7600:7624   */\n      tag_183\n        /* \"#utility.yul\":7618:7623   */\n      dup5\n        /* \"#utility.yul\":7600:7624   */\n      tag_67\n      jump\t// in\n    tag_183:\n        /* \"#utility.yul\":7591:7625   */\n      tag_91\n      jump\t// in\n    tag_182:\n        /* \"#utility.yul\":7573:7626   */\n      tag_67\n      jump\t// in\n    tag_181:\n        /* \"#utility.yul\":7560:7626   */\n      swap1\n      pop\n        /* \"#utility.yul\":7490:7632   */\n      swap2\n      swap1\n      pop\n      jump\t// out\n        /* \"#utility.yul\":7638:7713   */\n    tag_93:\n        /* \"#utility.yul\":7681:7684   */\n      0x00\n        /* \"#utility.yul\":7702:7707   */\n      dup2\n        /* \"#utility.yul\":7695:7707   */\n      swap1\n      pop\n        /* \"#utility.yul\":7638:7713   */\n      swap2\n      swap1\n      pop\n      jump\t// out\n        /* \"#utility.yul\":7719:7988   */\n    tag_94:\n        /* \"#utility.yul\":7829:7868   */\n      tag_186\n        /* \"#utility.yul\":7860:7867   */\n      dup4\n        /* \"#utility.yul\":7829:7868   */\n      tag_92\n      jump\t// in\n    tag_186:\n        /* \"#utility.yul\":7890:7981   */\n      tag_187\n        /* \"#utility.yul\":7939:7980   */\n      tag_188\n        /* \"#utility.yul\":7963:7979   */\n      dup3\n        /* \"#utility.yul\":7939:7980   */\n      tag_93\n      jump\t// in\n    tag_188:\n        /* \"#utility.yul\":7931:7937   */\n      dup5\n        /* \"#utility.yul\":7924:7928   */\n      dup5\n        /* \"#utility.yul\":7918:7929   */\n      sload\n        /* \"#utility.yul\":7890:7981   */\n      tag_90\n      jump\t// in\n    tag_187:\n        /* \"#utility.yul\":7884:7888   */\n      dup3\n        /* \"#utility.yul\":7877:7982   */\n      sstore\n        /* \"#utility.yul\":7795:7988   */\n      pop\n        /* \"#utility.yul\":7719:7988   */\n      pop\n      pop\n      pop\n      jump\t// out\n        /* \"#utility.yul\":7994:8067   */\n    tag_95:\n        /* \"#utility.yul\":8039:8042   */\n      0x00\n        /* \"#utility.yul\":7994:8067   */\n      swap1\n      jump\t// out\n        /* \"#utility.yul\":8073:8262   */\n    tag_96:\n        /* \"#utility.yul\":8150:8182   */\n      tag_191\n      tag_95\n      jump\t// in\n    tag_191:\n        /* \"#utility.yul\":8191:8256   */\n      tag_192\n        /* \"#utility.yul\":8249:8255   */\n      dup2\n        /* \"#utility.yul\":8241:8247   */\n      dup5\n        /* \"#utility.yul\":8235:8239   */\n      dup5\n        /* \"#utility.yul\":8191:8256   */\n      tag_94\n      jump\t// in\n    tag_192:\n        /* \"#utility.yul\":8126:8262   */\n      pop\n        /* \"#utility.yul\":8073:8262   */\n      pop\n      pop\n      jump\t// out\n        /* \"#utility.yul\":8268:8454   */\n    tag_97:\n        /* \"#utility.yul\":8328:8448   */\n    tag_194:\n        /* \"#utility.yul\":8345:8348   */\n      dup2\n        /* \"#utility.yul\":8338:8343   */\n      dup2\n        /* \"#utility.yul\":8335:8349   */\n      lt\n        /* \"#utility.yul\":8328:8448   */\n      iszero\n      tag_196\n      jumpi\n        /* \"#utility.yul\":8399:8438   */\n      tag_197\n        /* \"#utility.yul\":8436:8437   */\n      0x00\n        /* \"#utility.yul\":8429:8434   */\n      dup3\n        /* \"#utility.yul\":8399:8438   */\n      tag_96\n      jump\t// in\n    tag_197:\n        /* \"#utility.yul\":8372:8373   */\n      0x01\n        /* \"#utility.yul\":8365:8370   */\n      dup2\n        /* \"#utility.yul\":8361:8374   */\n      add\n        /* \"#utility.yul\":8352:8374   */\n      swap1\n      pop\n        /* \"#utility.yul\":8328:8448   */\n      jump(tag_194)\n    tag_196:\n        /* \"#utility.yul\":8268:8454   */\n      pop\n      pop\n      jump\t// out\n        /* \"#utility.yul\":8460:9003   */\n    tag_98:\n        /* \"#utility.yul\":8561:8563   */\n      0x1f\n        /* \"#utility.yul\":8556:8559   */\n      dup3\n        /* \"#utility.yul\":8553:8564   */\n      gt\n        /* \"#utility.yul\":8550:8996   */\n      iszero\n      tag_199\n      jumpi\n        /* \"#utility.yul\":8595:8633   */\n      tag_200\n        /* \"#utility.yul\":8627:8632   */\n      dup2\n        /* \"#utility.yul\":8595:8633   */\n      tag_87\n      jump\t// in\n    tag_200:\n        /* \"#utility.yul\":8679:8708   */\n      tag_201\n        /* \"#utility.yul\":8697:8707   */\n      dup5\n        /* \"#utility.yul\":8679:8708   */\n      tag_88\n      jump\t// in\n    tag_201:\n        /* \"#utility.yul\":8669:8677   */\n      dup2\n        /* \"#utility.yul\":8665:8709   */\n      add\n        /* \"#utility.yul\":8862:8864   */\n      0x20\n        /* \"#utility.yul\":8850:8860   */\n      dup6\n        /* \"#utility.yul\":8847:8865   */\n      lt\n        /* \"#utility.yul\":8844:8893   */\n      iszero\n      tag_202\n      jumpi\n        /* \"#utility.yul\":8883:8891   */\n      dup2\n        /* \"#utility.yul\":8868:8891   */\n      swap1\n      pop\n        /* \"#utility.yul\":8844:8893   */\n    tag_202:\n        /* \"#utility.yul\":8906:8986   */\n      tag_203\n        /* \"#utility.yul\":8962:8984   */\n      tag_204\n        /* \"#utility.yul\":8980:8983   */\n      dup6\n        /* \"#utility.yul\":8962:8984   */\n      tag_88\n      jump\t// in\n    tag_204:\n        /* \"#utility.yul\":8952:8960   */\n      dup4\n        /* \"#utility.yul\":8948:8985   */\n      add\n        /* \"#utility.yul\":8935:8946   */\n      dup3\n        /* \"#utility.yul\":8906:8986   */\n      tag_97\n      jump\t// in\n    tag_203:\n        /* \"#utility.yul\":8565:8996   */\n      pop\n      pop\n        /* \"#utility.yul\":8550:8996   */\n    tag_199:\n        /* \"#utility.yul\":8460:9003   */\n      pop\n      pop\n      pop\n      jump\t// out\n        /* \"#utility.yul\":9009:9126   */\n    tag_99:\n        /* \"#utility.yul\":9063:9071   */\n      0x00\n        /* \"#utility.yul\":9113:9118   */\n      dup3\n        /* \"#utility.yul\":9107:9111   */\n      dup3\n        /* \"#utility.yul\":9103:9119   */\n      shr\n        /* \"#utility.yul\":9082:9119   */\n      swap1\n      pop\n        /* \"#utility.yul\":9009:9126   */\n      swap3\n      swap2\n      pop\n      pop\n      jump\t// out\n        /* \"#utility.yul\":9132:9301   */\n    tag_100:\n        /* \"#utility.yul\":9176:9182   */\n      0x00\n        /* \"#utility.yul\":9209:9260   */\n      tag_207\n        /* \"#utility.yul\":9257:9258   */\n      0x00\n        /* \"#utility.yul\":9253:9259   */\n      not\n        /* \"#utility.yul\":9245:9250   */\n      dup5\n        /* \"#utility.yul\":9242:9243   */\n      0x08\n        /* \"#utility.yul\":9238:9251   */\n      mul\n        /* \"#utility.yul\":9209:9260   */\n      tag_99\n      jump\t// in\n    tag_207:\n        /* \"#utility.yul\":9205:9261   */\n      not\n        /* \"#utility.yul\":9290:9294   */\n      dup1\n        /* \"#utility.yul\":9284:9288   */\n      dup4\n        /* \"#utility.yul\":9280:9295   */\n      and\n        /* \"#utility.yul\":9270:9295   */\n      swap2\n      pop\n        /* \"#utility.yul\":9183:9301   */\n      pop\n        /* \"#utility.yul\":9132:9301   */\n      swap3\n      swap2\n      pop\n      pop\n      jump\t// out\n        /* \"#utility.yul\":9306:9601   */\n    tag_101:\n        /* \"#utility.yul\":9382:9386   */\n      0x00\n        /* \"#utility.yul\":9528:9557   */\n      tag_209\n        /* \"#utility.yul\":9553:9556   */\n      dup4\n        /* \"#utility.yul\":9547:9551   */\n      dup4\n        /* \"#utility.yul\":9528:9557   */\n      tag_100\n      jump\t// in\n    tag_209:\n        /* \"#utility.yul\":9520:9557   */\n      swap2\n      pop\n        /* \"#utility.yul\":9590:9593   */\n      dup3\n        /* \"#utility.yul\":9587:9588   */\n      0x02\n        /* \"#utility.yul\":9583:9594   */\n      mul\n        /* \"#utility.yul\":9577:9581   */\n      dup3\n        /* \"#utility.yul\":9574:9595   */\n      or\n        /* \"#utility.yul\":9566:9595   */\n      swap1\n      pop\n        /* \"#utility.yul\":9306:9601   */\n      swap3\n      swap2\n      pop\n      pop\n      jump\t// out\n        /* \"#utility.yul\":9606:11001   */\n    tag_55:\n        /* \"#utility.yul\":9723:9760   */\n      tag_211\n        /* \"#utility.yul\":9756:9759   */\n      dup3\n        /* \"#utility.yul\":9723:9760   */\n      tag_70\n      jump\t// in\n    tag_211:\n        /* \"#utility.yul\":9825:9843   */\n      0xffffffffffffffff\n        /* \"#utility.yul\":9817:9823   */\n      dup2\n        /* \"#utility.yul\":9814:9844   */\n      gt\n        /* \"#utility.yul\":9811:9867   */\n      iszero\n      tag_212\n      jumpi\n        /* \"#utility.yul\":9847:9865   */\n      tag_213\n      tag_86\n      jump\t// in\n    tag_213:\n        /* \"#utility.yul\":9811:9867   */\n    tag_212:\n        /* \"#utility.yul\":9891:9929   */\n      tag_214\n        /* \"#utility.yul\":9923:9927   */\n      dup3\n        /* \"#utility.yul\":9917:9928   */\n      sload\n        /* \"#utility.yul\":9891:9929   */\n      tag_37\n      jump\t// in\n    tag_214:\n        /* \"#utility.yul\":9976:10043   */\n      tag_215\n        /* \"#utility.yul\":10036:10042   */\n      dup3\n        /* \"#utility.yul\":10028:10034   */\n      dup3\n        /* \"#utility.yul\":10022:10026   */\n      dup6\n        /* \"#utility.yul\":9976:10043   */\n      tag_98\n      jump\t// in\n    tag_215:\n        /* \"#utility.yul\":10070:10071   */\n      0x00\n        /* \"#utility.yul\":10094:10098   */\n      0x20\n        /* \"#utility.yul\":10081:10098   */\n      swap1\n      pop\n        /* \"#utility.yul\":10126:10128   */\n      0x1f\n        /* \"#utility.yul\":10118:10124   */\n      dup4\n        /* \"#utility.yul\":10115:10129   */\n      gt\n        /* \"#utility.yul\":10143:10144   */\n      0x01\n        /* \"#utility.yul\":10138:10756   */\n      dup2\n      eq\n      tag_217\n      jumpi\n        /* \"#utility.yul\":10800:10801   */\n      0x00\n        /* \"#utility.yul\":10817:10823   */\n      dup5\n        /* \"#utility.yul\":10814:10891   */\n      iszero\n      tag_218\n      jumpi\n        /* \"#utility.yul\":10866:10875   */\n      dup3\n        /* \"#utility.yul\":10861:10864   */\n      dup8\n        /* \"#utility.yul\":10857:10876   */\n      add\n        /* \"#utility.yul\":10851:10877   */\n      mload\n        /* \"#utility.yul\":10842:10877   */\n      swap1\n      pop\n        /* \"#utility.yul\":10814:10891   */\n    tag_218:\n        /* \"#utility.yul\":10917:10984   */\n      tag_219\n        /* \"#utility.yul\":10977:10983   */\n      dup6\n        /* \"#utility.yul\":10970:10975   */\n      dup3\n        /* \"#utility.yul\":10917:10984   */\n      tag_101\n      jump\t// in\n    tag_219:\n        /* \"#utility.yul\":10911:10915   */\n      dup7\n        /* \"#utility.yul\":10904:10985   */\n      sstore\n        /* \"#utility.yul\":10773:10995   */\n      pop\n        /* \"#utility.yul\":10108:10995   */\n      jump(tag_216)\n        /* \"#utility.yul\":10138:10756   */\n    tag_217:\n        /* \"#utility.yul\":10190:10194   */\n      0x1f\n        /* \"#utility.yul\":10186:10195   */\n      not\n        /* \"#utility.yul\":10178:10184   */\n      dup5\n        /* \"#utility.yul\":10174:10196   */\n      and\n        /* \"#utility.yul\":10224:10261   */\n      tag_220\n        /* \"#utility.yul\":10256:10260   */\n      dup7\n        /* \"#utility.yul\":10224:10261   */\n      tag_87\n      jump\t// in\n    tag_220:\n        /* \"#utility.yul\":10283:10284   */\n      0x00\n        /* \"#utility.yul\":10297:10505   */\n    tag_221:\n        /* \"#utility.yul\":10311:10318   */\n      dup3\n        /* \"#utility.yul\":10308:10309   */\n      dup2\n        /* \"#utility.yul\":10305:10319   */\n      lt\n        /* \"#utility.yul\":10297:10505   */\n      iszero\n      tag_223\n      jumpi\n        /* \"#utility.yul\":10390:10399   */\n      dup5\n        /* \"#utility.yul\":10385:10388   */\n      dup10\n        /* \"#utility.yul\":10381:10400   */\n      add\n        /* \"#utility.yul\":10375:10401   */\n      mload\n        /* \"#utility.yul\":10367:10373   */\n      dup3\n        /* \"#utility.yul\":10360:10402   */\n      sstore\n        /* \"#utility.yul\":10441:10442   */\n      0x01\n        /* \"#utility.yul\":10433:10439   */\n      dup3\n        /* \"#utility.yul\":10429:10443   */\n      add\n        /* \"#utility.yul\":10419:10443   */\n      swap2\n      pop\n        /* \"#utility.yul\":10488:10490   */\n      0x20\n        /* \"#utility.yul\":10477:10486   */\n      dup6\n        /* \"#utility.yul\":10473:10491   */\n      add\n        /* \"#utility.yul\":10460:10491   */\n      swap5\n      pop\n        /* \"#utility.yul\":10334:10338   */\n      0x20\n        /* \"#utility.yul\":10331:10332   */\n      dup2\n        /* \"#utility.yul\":10327:10339   */\n      add\n        /* \"#utility.yul\":10322:10339   */\n      swap1\n      pop\n        /* \"#utility.yul\":10297:10505   */\n      jump(tag_221)\n    tag_223:\n        /* \"#utility.yul\":10533:10539   */\n      dup7\n        /* \"#utility.yul\":10524:10531   */\n      dup4\n        /* \"#utility.yul\":10521:10540   */\n      lt\n        /* \"#utility.yul\":10518:10697   */\n      iszero\n      tag_224\n      jumpi\n        /* \"#utility.yul\":10591:10600   */\n      dup5\n        /* \"#utility.yul\":10586:10589   */\n      dup10\n        /* \"#utility.yul\":10582:10601   */\n      add\n        /* \"#utility.yul\":10576:10602   */\n      mload\n        /* \"#utility.yul\":10634:10682   */\n      tag_225\n        /* \"#utility.yul\":10676:10680   */\n      0x1f\n        /* \"#utility.yul\":10668:10674   */\n      dup10\n        /* \"#utility.yul\":10664:10681   */\n      and\n        /* \"#utility.yul\":10653:10662   */\n      dup3\n        /* \"#utility.yul\":10634:10682   */\n      tag_100\n      jump\t// in\n    tag_225:\n        /* \"#utility.yul\":10626:10632   */\n      dup4\n        /* \"#utility.yul\":10619:10683   */\n      sstore\n        /* \"#utility.yul\":10541:10697   */\n      pop\n        /* \"#utility.yul\":10518:10697   */\n    tag_224:\n        /* \"#utility.yul\":10743:10744   */\n      0x01\n        /* \"#utility.yul\":10739:10740   */\n      0x02\n        /* \"#utility.yul\":10731:10737   */\n      dup9\n        /* \"#utility.yul\":10727:10741   */\n      mul\n        /* \"#utility.yul\":10723:10745   */\n      add\n        /* \"#utility.yul\":10717:10721   */\n      dup9\n        /* \"#utility.yul\":10710:10746   */\n      sstore\n        /* \"#utility.yul\":10145:10756   */\n      pop\n      pop\n      pop\n        /* \"#utility.yul\":10108:10995   */\n    tag_216:\n      pop\n        /* \"#utility.yul\":9698:11001   */\n      pop\n      pop\n      pop\n        /* \"#utility.yul\":9606:11001   */\n      pop\n      pop\n      jump\t// out\n\n    auxdata: 0xa2646970667358221220e3653e6a2c0b8b9ce7aa63b915628e5479862f85867886c01aa3adfbdbbb58c064736f6c63430008120033\n}\n",
				"bytecode": {
					"linkReferences": {},
					"object": "608060405234801561001057600080fd5b50610b20806100206000396000f3fe608060405234801561001057600080fd5b50600436106100575760003560e01c80631d65e77e1461005c578063387008c21461008c578063560f3192146100a857806367238562146100c4578063c17a340e146100e0575b600080fd5b6100766004803603810190610071919061052f565b6100fe565b6040516100839190610644565b60405180910390f35b6100a660048036038101906100a19190610692565b610229565b005b6100c260048036038101906100bd919061052f565b6102a6565b005b6100de60048036038101906100d99190610737565b61032e565b005b6100e861042d565b6040516100f59190610793565b60405180910390f35b610106610476565b60008060003373ffffffffffffffffffffffffffffffffffffffff1673ffffffffffffffffffffffffffffffffffffffff1681526020019081526020016000208381548110610158576101576107ae565b5b90600052602060002090600202019050806040518060400160405290816000820180546101849061080c565b80601f01602080910402602001604051908101604052809291908181526020018280546101b09061080c565b80156101fd5780601f106101d2576101008083540402835291602001916101fd565b820191906000526020600020905b8154815290600101906020018083116101e057829003601f168201915b505050505081526020016001820160009054906101000a900460ff161515151581525050915050919050565b806000803373ffffffffffffffffffffffffffffffffffffffff1673ffffffffffffffffffffffffffffffffffffffff168152602001908152602001600020838154811061027a576102796107ae565b5b906000526020600020906002020160010160006101000a81548160ff0219169083151502179055505050565b6000803373ffffffffffffffffffffffffffffffffffffffff1673ffffffffffffffffffffffffffffffffffffffff16815260200190815260200160002081815481106102f6576102f56107ae565b5b9060005260206000209060020201600080820160006103159190610492565b6001820160006101000a81549060ff0219169055505050565b6000803373ffffffffffffffffffffffffffffffffffffffff1673ffffffffffffffffffffffffffffffffffffffff168152602001908152602001600020604051806040016040528084848080601f016020809104026020016040519081016040528093929190818152602001838380828437600081840152601f19601f82011690508083019250505050505050815260200160001515815250908060018154018082558091505060019003906000526020600020906002020160009091909190915060008201518160000190816104069190610a18565b5060208201518160010160006101000a81548160ff02191690831515021790555050505050565b60008060003373ffffffffffffffffffffffffffffffffffffffff1673ffffffffffffffffffffffffffffffffffffffff16815260200190815260200160002080549050905090565b6040518060400160405280606081526020016000151581525090565b50805461049e9061080c565b6000825580601f106104b057506104cf565b601f0160209004906000526020600020908101906104ce91906104d2565b5b50565b5b808211156104eb5760008160009055506001016104d3565b5090565b600080fd5b600080fd5b6000819050919050565b61050c816104f9565b811461051757600080fd5b50565b60008135905061052981610503565b92915050565b600060208284031215610545576105446104ef565b5b60006105538482850161051a565b91505092915050565b600081519050919050565b600082825260208201905092915050565b60005b8381101561059657808201518184015260208101905061057b565b60008484015250505050565b6000601f19601f8301169050919050565b60006105be8261055c565b6105c88185610567565b93506105d8818560208601610578565b6105e1816105a2565b840191505092915050565b60008115159050919050565b610601816105ec565b82525050565b6000604083016000830151848203600086015261062482826105b3565b915050602083015161063960208601826105f8565b508091505092915050565b6000602082019050818103600083015261065e8184610607565b905092915050565b61066f816105ec565b811461067a57600080fd5b50565b60008135905061068c81610666565b92915050565b600080604083850312156106a9576106a86104ef565b5b60006106b78582860161051a565b92505060206106c88582860161067d565b9150509250929050565b600080fd5b600080fd5b600080fd5b60008083601f8401126106f7576106f66106d2565b5b8235905067ffffffffffffffff811115610714576107136106d7565b5b6020830191508360018202830111156107305761072f6106dc565b5b9250929050565b6000806020838503121561074e5761074d6104ef565b5b600083013567ffffffffffffffff81111561076c5761076b6104f4565b5b610778858286016106e1565b92509250509250929050565b61078d816104f9565b82525050565b60006020820190506107a86000830184610784565b92915050565b7f4e487b7100000000000000000000000000000000000000000000000000000000600052603260045260246000fd5b7f4e487b7100000000000000000000000000000000000000000000000000000000600052602260045260246000fd5b6000600282049050600182168061082457607f821691505b602082108103610837576108366107dd565b5b50919050565b7f4e487b7100000000000000000000000000000000000000000000000000000000600052604160045260246000fd5b60008190508160005260206000209050919050565b60006020601f8301049050919050565b600082821b905092915050565b6000600883026108ce7fffffffffffffffffffffffffffffffffffffffffffffffffffffffffffffffff82610891565b6108d88683610891565b95508019841693508086168417925050509392505050565b6000819050919050565b600061091561091061090b846104f9565b6108f0565b6104f9565b9050919050565b6000819050919050565b61092f836108fa565b61094361093b8261091c565b84845461089e565b825550505050565b600090565b61095861094b565b610963818484610926565b505050565b5b818110156109875761097c600082610950565b600181019050610969565b5050565b601f8211156109cc5761099d8161086c565b6109a684610881565b810160208510156109b5578190505b6109c96109c185610881565b830182610968565b50505b505050565b600082821c905092915050565b60006109ef600019846008026109d1565b1980831691505092915050565b6000610a0883836109de565b9150826002028217905092915050565b610a218261055c565b67ffffffffffffffff811115610a3a57610a3961083d565b5b610a44825461080c565b610a4f82828561098b565b600060209050601f831160018114610a825760008415610a70578287015190505b610a7a85826109fc565b865550610ae2565b601f198416610a908661086c565b60005b82811015610ab857848901518255600182019150602085019450602081019050610a93565b86831015610ad55784890151610ad1601f8916826109de565b8355505b6001600288020188555050505b50505050505056fea2646970667358221220e3653e6a2c0b8b9ce7aa63b915628e5479862f85867886c01aa3adfbdbbb58c064736f6c63430008120033",
					"opcodes": "PUSH1 0x80 PUSH1 0x40 MSTORE CALLVALUE DUP1 ISZERO PUSH2 0x10 JUMPI PUSH1 0x0 DUP1 REVERT JUMPDEST POP PUSH2 0xB20 DUP1 PUSH2 0x20 PUSH1 0x0 CODECOPY PUSH1 0x0 RETURN INVALID PUSH1 0x80 PUSH1 0x40 MSTORE CALLVALUE DUP1 ISZERO PUSH2 0x10 JUMPI PUSH1 0x0 DUP1 REVERT JUMPDEST POP PUSH1 0x4 CALLDATASIZE LT PUSH2 0x57 JUMPI PUSH1 0x0 CALLDATALOAD PUSH1 0xE0 SHR DUP1 PUSH4 0x1D65E77E EQ PUSH2 0x5C JUMPI DUP1 PUSH4 0x387008C2 EQ PUSH2 0x8C JUMPI DUP1 PUSH4 0x560F3192 EQ PUSH2 0xA8 JUMPI DUP1 PUSH4 0x67238562 EQ PUSH2 0xC4 JUMPI DUP1 PUSH4 0xC17A340E EQ PUSH2 0xE0 JUMPI JUMPDEST PUSH1 0x0 DUP1 REVERT JUMPDEST PUSH2 0x76 PUSH1 0x4 DUP1 CALLDATASIZE SUB DUP2 ADD SWAP1 PUSH2 0x71 SWAP2 SWAP1 PUSH2 0x52F JUMP JUMPDEST PUSH2 0xFE JUMP JUMPDEST PUSH1 0x40 MLOAD PUSH2 0x83 SWAP2 SWAP1 PUSH2 0x644 JUMP JUMPDEST PUSH1 0x40 MLOAD DUP1 SWAP2 SUB SWAP1 RETURN JUMPDEST PUSH2 0xA6 PUSH1 0x4 DUP1 CALLDATASIZE SUB DUP2 ADD SWAP1 PUSH2 0xA1 SWAP2 SWAP1 PUSH2 0x692 JUMP JUMPDEST PUSH2 0x229 JUMP JUMPDEST STOP JUMPDEST PUSH2 0xC2 PUSH1 0x4 DUP1 CALLDATASIZE SUB DUP2 ADD SWAP1 PUSH2 0xBD SWAP2 SWAP1 PUSH2 0x52F JUMP JUMPDEST PUSH2 0x2A6 JUMP JUMPDEST STOP JUMPDEST PUSH2 0xDE PUSH1 0x4 DUP1 CALLDATASIZE SUB DUP2 ADD SWAP1 PUSH2 0xD9 SWAP2 SWAP1 PUSH2 0x737 JUMP JUMPDEST PUSH2 0x32E JUMP JUMPDEST STOP JUMPDEST PUSH2 0xE8 PUSH2 0x42D JUMP JUMPDEST PUSH1 0x40 MLOAD PUSH2 0xF5 SWAP2 SWAP1 PUSH2 0x793 JUMP JUMPDEST PUSH1 0x40 MLOAD DUP1 SWAP2 SUB SWAP1 RETURN JUMPDEST PUSH2 0x106 PUSH2 0x476 JUMP JUMPDEST PUSH1 0x0 DUP1 PUSH1 0x0 CALLER PUSH20 0xFFFFFFFFFFFFFFFFFFFFFFFFFFFFFFFFFFFFFFFF AND PUSH20 0xFFFFFFFFFFFFFFFFFFFFFFFFFFFFFFFFFFFFFFFF AND DUP2 MSTORE PUSH1 0x20 ADD SWAP1 DUP2 MSTORE PUSH1 0x20 ADD PUSH1 0x0 KECCAK256 DUP4 DUP2 SLOAD DUP2 LT PUSH2 0x158 JUMPI PUSH2 0x157 PUSH2 0x7AE JUMP JUMPDEST JUMPDEST SWAP1 PUSH1 0x0 MSTORE PUSH1 0x20 PUSH1 0x0 KECCAK256 SWAP1 PUSH1 0x2 MUL ADD SWAP1 POP DUP1 PUSH1 0x40 MLOAD DUP1 PUSH1 0x40 ADD PUSH1 0x40 MSTORE SWAP1 DUP2 PUSH1 0x0 DUP3 ADD DUP1 SLOAD PUSH2 0x184 SWAP1 PUSH2 0x80C JUMP JUMPDEST DUP1 PUSH1 0x1F ADD PUSH1 0x20 DUP1 SWAP2 DIV MUL PUSH1 0x20 ADD PUSH1 0x40 MLOAD SWAP1 DUP2 ADD PUSH1 0x40 MSTORE DUP1 SWAP3 SWAP2 SWAP1 DUP2 DUP2 MSTORE PUSH1 0x20 ADD DUP3 DUP1 SLOAD PUSH2 0x1B0 SWAP1 PUSH2 0x80C JUMP JUMPDEST DUP1 ISZERO PUSH2 0x1FD JUMPI DUP1 PUSH1 0x1F LT PUSH2 0x1D2 JUMPI PUSH2 0x100 DUP1 DUP4 SLOAD DIV MUL DUP4 MSTORE SWAP2 PUSH1 0x20 ADD SWAP2 PUSH2 0x1FD JUMP JUMPDEST DUP3 ADD SWAP2 SWAP1 PUSH1 0x0 MSTORE PUSH1 0x20 PUSH1 0x0 KECCAK256 SWAP1 JUMPDEST DUP2 SLOAD DUP2 MSTORE SWAP1 PUSH1 0x1 ADD SWAP1 PUSH1 0x20 ADD DUP1 DUP4 GT PUSH2 0x1E0 JUMPI DUP3 SWAP1 SUB PUSH1 0x1F AND DUP3 ADD SWAP2 JUMPDEST POP POP POP POP POP DUP2 MSTORE PUSH1 0x20 ADD PUSH1 0x1 DUP3 ADD PUSH1 0x0 SWAP1 SLOAD SWAP1 PUSH2 0x100 EXP SWAP1 DIV PUSH1 0xFF AND ISZERO ISZERO ISZERO ISZERO DUP2 MSTORE POP POP SWAP2 POP POP SWAP2 SWAP1 POP JUMP JUMPDEST DUP1 PUSH1 0x0 DUP1 CALLER PUSH20 0xFFFFFFFFFFFFFFFFFFFFFFFFFFFFFFFFFFFFFFFF AND PUSH20 0xFFFFFFFFFFFFFFFFFFFFFFFFFFFFFFFFFFFFFFFF AND DUP2 MSTORE PUSH1 0x20 ADD SWAP1 DUP2 MSTORE PUSH1 0x20 ADD PUSH1 0x0 KECCAK256 DUP4 DUP2 SLOAD DUP2 LT PUSH2 0x27A JUMPI PUSH2 0x279 PUSH2 0x7AE JUMP JUMPDEST JUMPDEST SWAP1 PUSH1 0x0 MSTORE PUSH1 0x20 PUSH1 0x0 KECCAK256 SWAP1 PUSH1 0x2 MUL ADD PUSH1 0x1 ADD PUSH1 0x0 PUSH2 0x100 EXP DUP2 SLOAD DUP2 PUSH1 0xFF MUL NOT AND SWAP1 DUP4 ISZERO ISZERO MUL OR SWAP1 SSTORE POP POP POP JUMP JUMPDEST PUSH1 0x0 DUP1 CALLER PUSH20 0xFFFFFFFFFFFFFFFFFFFFFFFFFFFFFFFFFFFFFFFF AND PUSH20 0xFFFFFFFFFFFFFFFFFFFFFFFFFFFFFFFFFFFFFFFF AND DUP2 MSTORE PUSH1 0x20 ADD SWAP1 DUP2 MSTORE PUSH1 0x20 ADD PUSH1 0x0 KECCAK256 DUP2 DUP2 SLOAD DUP2 LT PUSH2 0x2F6 JUMPI PUSH2 0x2F5 PUSH2 0x7AE JUMP JUMPDEST JUMPDEST SWAP1 PUSH1 0x0 MSTORE PUSH1 0x20 PUSH1 0x0 KECCAK256 SWAP1 PUSH1 0x2 MUL ADD PUSH1 0x0 DUP1 DUP3 ADD PUSH1 0x0 PUSH2 0x315 SWAP2 SWAP1 PUSH2 0x492 JUMP JUMPDEST PUSH1 0x1 DUP3 ADD PUSH1 0x0 PUSH2 0x100 EXP DUP2 SLOAD SWAP1 PUSH1 0xFF MUL NOT AND SWAP1 SSTORE POP POP POP JUMP JUMPDEST PUSH1 0x0 DUP1 CALLER PUSH20 0xFFFFFFFFFFFFFFFFFFFFFFFFFFFFFFFFFFFFFFFF AND PUSH20 0xFFFFFFFFFFFFFFFFFFFFFFFFFFFFFFFFFFFFFFFF AND DUP2 MSTORE PUSH1 0x20 ADD SWAP1 DUP2 MSTORE PUSH1 0x20 ADD PUSH1 0x0 KECCAK256 PUSH1 0x40 MLOAD DUP1 PUSH1 0x40 ADD PUSH1 0x40 MSTORE DUP1 DUP5 DUP5 DUP1 DUP1 PUSH1 0x1F ADD PUSH1 0x20 DUP1 SWAP2 DIV MUL PUSH1 0x20 ADD PUSH1 0x40 MLOAD SWAP1 DUP2 ADD PUSH1 0x40 MSTORE DUP1 SWAP4 SWAP3 SWAP2 SWAP1 DUP2 DUP2 MSTORE PUSH1 0x20 ADD DUP4 DUP4 DUP1 DUP3 DUP5 CALLDATACOPY PUSH1 0x0 DUP2 DUP5 ADD MSTORE PUSH1 0x1F NOT PUSH1 0x1F DUP3 ADD AND SWAP1 POP DUP1 DUP4 ADD SWAP3 POP POP POP POP POP POP POP DUP2 MSTORE PUSH1 0x20 ADD PUSH1 0x0 ISZERO ISZERO DUP2 MSTORE POP SWAP1 DUP1 PUSH1 0x1 DUP2 SLOAD ADD DUP1 DUP3 SSTORE DUP1 SWAP2 POP POP PUSH1 0x1 SWAP1 SUB SWAP1 PUSH1 0x0 MSTORE PUSH1 0x20 PUSH1 0x0 KECCAK256 SWAP1 PUSH1 0x2 MUL ADD PUSH1 0x0 SWAP1 SWAP2 SWAP1 SWAP2 SWAP1 SWAP2 POP PUSH1 0x0 DUP3 ADD MLOAD DUP2 PUSH1 0x0 ADD SWAP1 DUP2 PUSH2 0x406 SWAP2 SWAP1 PUSH2 0xA18 JUMP JUMPDEST POP PUSH1 0x20 DUP3 ADD MLOAD DUP2 PUSH1 0x1 ADD PUSH1 0x0 PUSH2 0x100 EXP DUP2 SLOAD DUP2 PUSH1 0xFF MUL NOT AND SWAP1 DUP4 ISZERO ISZERO MUL OR SWAP1 SSTORE POP POP POP POP POP JUMP JUMPDEST PUSH1 0x0 DUP1 PUSH1 0x0 CALLER PUSH20 0xFFFFFFFFFFFFFFFFFFFFFFFFFFFFFFFFFFFFFFFF AND PUSH20 0xFFFFFFFFFFFFFFFFFFFFFFFFFFFFFFFFFFFFFFFF AND DUP2 MSTORE PUSH1 0x20 ADD SWAP1 DUP2 MSTORE PUSH1 0x20 ADD PUSH1 0x0 KECCAK256 DUP1 SLOAD SWAP1 POP SWAP1 POP SWAP1 JUMP JUMPDEST PUSH1 0x40 MLOAD DUP1 PUSH1 0x40 ADD PUSH1 0x40 MSTORE DUP1 PUSH1 0x60 DUP2 MSTORE PUSH1 0x20 ADD PUSH1 0x0 ISZERO ISZERO DUP2 MSTORE POP SWAP1 JUMP JUMPDEST POP DUP1 SLOAD PUSH2 0x49E SWAP1 PUSH2 0x80C JUMP JUMPDEST PUSH1 0x0 DUP3 SSTORE DUP1 PUSH1 0x1F LT PUSH2 0x4B0 JUMPI POP PUSH2 0x4CF JUMP JUMPDEST PUSH1 0x1F ADD PUSH1 0x20 SWAP1 DIV SWAP1 PUSH1 0x0 MSTORE PUSH1 0x20 PUSH1 0x0 KECCAK256 SWAP1 DUP2 ADD SWAP1 PUSH2 0x4CE SWAP2 SWAP1 PUSH2 0x4D2 JUMP JUMPDEST JUMPDEST POP JUMP JUMPDEST JUMPDEST DUP1 DUP3 GT ISZERO PUSH2 0x4EB JUMPI PUSH1 0x0 DUP2 PUSH1 0x0 SWAP1 SSTORE POP PUSH1 0x1 ADD PUSH2 0x4D3 JUMP JUMPDEST POP SWAP1 JUMP JUMPDEST PUSH1 0x0 DUP1 REVERT JUMPDEST PUSH1 0x0 DUP1 REVERT JUMPDEST PUSH1 0x0 DUP2 SWAP1 POP SWAP2 SWAP1 POP JUMP JUMPDEST PUSH2 0x50C DUP2 PUSH2 0x4F9 JUMP JUMPDEST DUP2 EQ PUSH2 0x517 JUMPI PUSH1 0x0 DUP1 REVERT JUMPDEST POP JUMP JUMPDEST PUSH1 0x0 DUP2 CALLDATALOAD SWAP1 POP PUSH2 0x529 DUP2 PUSH2 0x503 JUMP JUMPDEST SWAP3 SWAP2 POP POP JUMP JUMPDEST PUSH1 0x0 PUSH1 0x20 DUP3 DUP5 SUB SLT ISZERO PUSH2 0x545 JUMPI PUSH2 0x544 PUSH2 0x4EF JUMP JUMPDEST JUMPDEST PUSH1 0x0 PUSH2 0x553 DUP5 DUP3 DUP6 ADD PUSH2 0x51A JUMP JUMPDEST SWAP2 POP POP SWAP3 SWAP2 POP POP JUMP JUMPDEST PUSH1 0x0 DUP2 MLOAD SWAP1 POP SWAP2 SWAP1 POP JUMP JUMPDEST PUSH1 0x0 DUP3 DUP3 MSTORE PUSH1 0x20 DUP3 ADD SWAP1 POP SWAP3 SWAP2 POP POP JUMP JUMPDEST PUSH1 0x0 JUMPDEST DUP4 DUP2 LT ISZERO PUSH2 0x596 JUMPI DUP1 DUP3 ADD MLOAD DUP2 DUP5 ADD MSTORE PUSH1 0x20 DUP2 ADD SWAP1 POP PUSH2 0x57B JUMP JUMPDEST PUSH1 0x0 DUP5 DUP5 ADD MSTORE POP POP POP POP JUMP JUMPDEST PUSH1 0x0 PUSH1 0x1F NOT PUSH1 0x1F DUP4 ADD AND SWAP1 POP SWAP2 SWAP1 POP JUMP JUMPDEST PUSH1 0x0 PUSH2 0x5BE DUP3 PUSH2 0x55C JUMP JUMPDEST PUSH2 0x5C8 DUP2 DUP6 PUSH2 0x567 JUMP JUMPDEST SWAP4 POP PUSH2 0x5D8 DUP2 DUP6 PUSH1 0x20 DUP7 ADD PUSH2 0x578 JUMP JUMPDEST PUSH2 0x5E1 DUP2 PUSH2 0x5A2 JUMP JUMPDEST DUP5 ADD SWAP2 POP POP SWAP3 SWAP2 POP POP JUMP JUMPDEST PUSH1 0x0 DUP2 ISZERO ISZERO SWAP1 POP SWAP2 SWAP1 POP JUMP JUMPDEST PUSH2 0x601 DUP2 PUSH2 0x5EC JUMP JUMPDEST DUP3 MSTORE POP POP JUMP JUMPDEST PUSH1 0x0 PUSH1 0x40 DUP4 ADD PUSH1 0x0 DUP4 ADD MLOAD DUP5 DUP3 SUB PUSH1 0x0 DUP7 ADD MSTORE PUSH2 0x624 DUP3 DUP3 PUSH2 0x5B3 JUMP JUMPDEST SWAP2 POP POP PUSH1 0x20 DUP4 ADD MLOAD PUSH2 0x639 PUSH1 0x20 DUP7 ADD DUP3 PUSH2 0x5F8 JUMP JUMPDEST POP DUP1 SWAP2 POP POP SWAP3 SWAP2 POP POP JUMP JUMPDEST PUSH1 0x0 PUSH1 0x20 DUP3 ADD SWAP1 POP DUP2 DUP2 SUB PUSH1 0x0 DUP4 ADD MSTORE PUSH2 0x65E DUP2 DUP5 PUSH2 0x607 JUMP JUMPDEST SWAP1 POP SWAP3 SWAP2 POP POP JUMP JUMPDEST PUSH2 0x66F DUP2 PUSH2 0x5EC JUMP JUMPDEST DUP2 EQ PUSH2 0x67A JUMPI PUSH1 0x0 DUP1 REVERT JUMPDEST POP JUMP JUMPDEST PUSH1 0x0 DUP2 CALLDATALOAD SWAP1 POP PUSH2 0x68C DUP2 PUSH2 0x666 JUMP JUMPDEST SWAP3 SWAP2 POP POP JUMP JUMPDEST PUSH1 0x0 DUP1 PUSH1 0x40 DUP4 DUP6 SUB SLT ISZERO PUSH2 0x6A9 JUMPI PUSH2 0x6A8 PUSH2 0x4EF JUMP JUMPDEST JUMPDEST PUSH1 0x0 PUSH2 0x6B7 DUP6 DUP3 DUP7 ADD PUSH2 0x51A JUMP JUMPDEST SWAP3 POP POP PUSH1 0x20 PUSH2 0x6C8 DUP6 DUP3 DUP7 ADD PUSH2 0x67D JUMP JUMPDEST SWAP2 POP POP SWAP3 POP SWAP3 SWAP1 POP JUMP JUMPDEST PUSH1 0x0 DUP1 REVERT JUMPDEST PUSH1 0x0 DUP1 REVERT JUMPDEST PUSH1 0x0 DUP1 REVERT JUMPDEST PUSH1 0x0 DUP1 DUP4 PUSH1 0x1F DUP5 ADD SLT PUSH2 0x6F7 JUMPI PUSH2 0x6F6 PUSH2 0x6D2 JUMP JUMPDEST JUMPDEST DUP3 CALLDATALOAD SWAP1 POP PUSH8 0xFFFFFFFFFFFFFFFF DUP2 GT ISZERO PUSH2 0x714 JUMPI PUSH2 0x713 PUSH2 0x6D7 JUMP JUMPDEST JUMPDEST PUSH1 0x20 DUP4 ADD SWAP2 POP DUP4 PUSH1 0x1 DUP3 MUL DUP4 ADD GT ISZERO PUSH2 0x730 JUMPI PUSH2 0x72F PUSH2 0x6DC JUMP JUMPDEST JUMPDEST SWAP3 POP SWAP3 SWAP1 POP JUMP JUMPDEST PUSH1 0x0 DUP1 PUSH1 0x20 DUP4 DUP6 SUB SLT ISZERO PUSH2 0x74E JUMPI PUSH2 0x74D PUSH2 0x4EF JUMP JUMPDEST JUMPDEST PUSH1 0x0 DUP4 ADD CALLDATALOAD PUSH8 0xFFFFFFFFFFFFFFFF DUP2 GT ISZERO PUSH2 0x76C JUMPI PUSH2 0x76B PUSH2 0x4F4 JUMP JUMPDEST JUMPDEST PUSH2 0x778 DUP6 DUP3 DUP7 ADD PUSH2 0x6E1 JUMP JUMPDEST SWAP3 POP SWAP3 POP POP SWAP3 POP SWAP3 SWAP1 POP JUMP JUMPDEST PUSH2 0x78D DUP2 PUSH2 0x4F9 JUMP JUMPDEST DUP3 MSTORE POP POP JUMP JUMPDEST PUSH1 0x0 PUSH1 0x20 DUP3 ADD SWAP1 POP PUSH2 0x7A8 PUSH1 0x0 DUP4 ADD DUP5 PUSH2 0x784 JUMP JUMPDEST SWAP3 SWAP2 POP POP JUMP JUMPDEST PUSH32 0x4E487B7100000000000000000000000000000000000000000000000000000000 PUSH1 0x0 MSTORE PUSH1 0x32 PUSH1 0x4 MSTORE PUSH1 0x24 PUSH1 0x0 REVERT JUMPDEST PUSH32 0x4E487B7100000000000000000000000000000000000000000000000000000000 PUSH1 0x0 MSTORE PUSH1 0x22 PUSH1 0x4 MSTORE PUSH1 0x24 PUSH1 0x0 REVERT JUMPDEST PUSH1 0x0 PUSH1 0x2 DUP3 DIV SWAP1 POP PUSH1 0x1 DUP3 AND DUP1 PUSH2 0x824 JUMPI PUSH1 0x7F DUP3 AND SWAP2 POP JUMPDEST PUSH1 0x20 DUP3 LT DUP2 SUB PUSH2 0x837 JUMPI PUSH2 0x836 PUSH2 0x7DD JUMP JUMPDEST JUMPDEST POP SWAP2 SWAP1 POP JUMP JUMPDEST PUSH32 0x4E487B7100000000000000000000000000000000000000000000000000000000 PUSH1 0x0 MSTORE PUSH1 0x41 PUSH1 0x4 MSTORE PUSH1 0x24 PUSH1 0x0 REVERT JUMPDEST PUSH1 0x0 DUP2 SWAP1 POP DUP2 PUSH1 0x0 MSTORE PUSH1 0x20 PUSH1 0x0 KECCAK256 SWAP1 POP SWAP2 SWAP1 POP JUMP JUMPDEST PUSH1 0x0 PUSH1 0x20 PUSH1 0x1F DUP4 ADD DIV SWAP1 POP SWAP2 SWAP1 POP JUMP JUMPDEST PUSH1 0x0 DUP3 DUP3 SHL SWAP1 POP SWAP3 SWAP2 POP POP JUMP JUMPDEST PUSH1 0x0 PUSH1 0x8 DUP4 MUL PUSH2 0x8CE PUSH32 0xFFFFFFFFFFFFFFFFFFFFFFFFFFFFFFFFFFFFFFFFFFFFFFFFFFFFFFFFFFFFFFFF DUP3 PUSH2 0x891 JUMP JUMPDEST PUSH2 0x8D8 DUP7 DUP4 PUSH2 0x891 JUMP JUMPDEST SWAP6 POP DUP1 NOT DUP5 AND SWAP4 POP DUP1 DUP7 AND DUP5 OR SWAP3 POP POP POP SWAP4 SWAP3 POP POP POP JUMP JUMPDEST PUSH1 0x0 DUP2 SWAP1 POP SWAP2 SWAP1 POP JUMP JUMPDEST PUSH1 0x0 PUSH2 0x915 PUSH2 0x910 PUSH2 0x90B DUP5 PUSH2 0x4F9 JUMP JUMPDEST PUSH2 0x8F0 JUMP JUMPDEST PUSH2 0x4F9 JUMP JUMPDEST SWAP1 POP SWAP2 SWAP1 POP JUMP JUMPDEST PUSH1 0x0 DUP2 SWAP1 POP SWAP2 SWAP1 POP JUMP JUMPDEST PUSH2 0x92F DUP4 PUSH2 0x8FA JUMP JUMPDEST PUSH2 0x943 PUSH2 0x93B DUP3 PUSH2 0x91C JUMP JUMPDEST DUP5 DUP5 SLOAD PUSH2 0x89E JUMP JUMPDEST DUP3 SSTORE POP POP POP POP JUMP JUMPDEST PUSH1 0x0 SWAP1 JUMP JUMPDEST PUSH2 0x958 PUSH2 0x94B JUMP JUMPDEST PUSH2 0x963 DUP2 DUP5 DUP5 PUSH2 0x926 JUMP JUMPDEST POP POP POP JUMP JUMPDEST JUMPDEST DUP2 DUP2 LT ISZERO PUSH2 0x987 JUMPI PUSH2 0x97C PUSH1 0x0 DUP3 PUSH2 0x950 JUMP JUMPDEST PUSH1 0x1 DUP2 ADD SWAP1 POP PUSH2 0x969 JUMP JUMPDEST POP POP JUMP JUMPDEST PUSH1 0x1F DUP3 GT ISZERO PUSH2 0x9CC JUMPI PUSH2 0x99D DUP2 PUSH2 0x86C JUMP JUMPDEST PUSH2 0x9A6 DUP5 PUSH2 0x881 JUMP JUMPDEST DUP2 ADD PUSH1 0x20 DUP6 LT ISZERO PUSH2 0x9B5 JUMPI DUP2 SWAP1 POP JUMPDEST PUSH2 0x9C9 PUSH2 0x9C1 DUP6 PUSH2 0x881 JUMP JUMPDEST DUP4 ADD DUP3 PUSH2 0x968 JUMP JUMPDEST POP POP JUMPDEST POP POP POP JUMP JUMPDEST PUSH1 0x0 DUP3 DUP3 SHR SWAP1 POP SWAP3 SWAP2 POP POP JUMP JUMPDEST PUSH1 0x0 PUSH2 0x9EF PUSH1 0x0 NOT DUP5 PUSH1 0x8 MUL PUSH2 0x9D1 JUMP JUMPDEST NOT DUP1 DUP4 AND SWAP2 POP POP SWAP3 SWAP2 POP POP JUMP JUMPDEST PUSH1 0x0 PUSH2 0xA08 DUP4 DUP4 PUSH2 0x9DE JUMP JUMPDEST SWAP2 POP DUP3 PUSH1 0x2 MUL DUP3 OR SWAP1 POP SWAP3 SWAP2 POP POP JUMP JUMPDEST PUSH2 0xA21 DUP3 PUSH2 0x55C JUMP JUMPDEST PUSH8 0xFFFFFFFFFFFFFFFF DUP2 GT ISZERO PUSH2 0xA3A JUMPI PUSH2 0xA39 PUSH2 0x83D JUMP JUMPDEST JUMPDEST PUSH2 0xA44 DUP3 SLOAD PUSH2 0x80C JUMP JUMPDEST PUSH2 0xA4F DUP3 DUP3 DUP6 PUSH2 0x98B JUMP JUMPDEST PUSH1 0x0 PUSH1 0x20 SWAP1 POP PUSH1 0x1F DUP4 GT PUSH1 0x1 DUP2 EQ PUSH2 0xA82 JUMPI PUSH1 0x0 DUP5 ISZERO PUSH2 0xA70 JUMPI DUP3 DUP8 ADD MLOAD SWAP1 POP JUMPDEST PUSH2 0xA7A DUP6 DUP3 PUSH2 0x9FC JUMP JUMPDEST DUP7 SSTORE POP PUSH2 0xAE2 JUMP JUMPDEST PUSH1 0x1F NOT DUP5 AND PUSH2 0xA90 DUP7 PUSH2 0x86C JUMP JUMPDEST PUSH1 0x0 JUMPDEST DUP3 DUP2 LT ISZERO PUSH2 0xAB8 JUMPI DUP5 DUP10 ADD MLOAD DUP3 SSTORE PUSH1 0x1 DUP3 ADD SWAP2 POP PUSH1 0x20 DUP6 ADD SWAP5 POP PUSH1 0x20 DUP2 ADD SWAP1 POP PUSH2 0xA93 JUMP JUMPDEST DUP7 DUP4 LT ISZERO PUSH2 0xAD5 JUMPI DUP5 DUP10 ADD MLOAD PUSH2 0xAD1 PUSH1 0x1F DUP10 AND DUP3 PUSH2 0x9DE JUMP JUMPDEST DUP4 SSTORE POP JUMPDEST PUSH1 0x1 PUSH1 0x2 DUP9 MUL ADD DUP9 SSTORE POP POP POP JUMPDEST POP POP POP POP POP POP JUMP INVALID LOG2 PUSH5 0x6970667358 0x22 SLT KECCAK256 0xE3 PUSH6 0x3E6A2C0B8B9C 0xE7 0xAA PUSH4 0xB915628E SLOAD PUSH26 0x862F85867886C01AA3ADFBDBBB58C064736F6C63430008120033 "
				},
				"gasEstimates": {
					"creation": {
						"codeDepositCost": "569600",
						"executionCost": "600",
						"totalCost": "570200"
					},
					"external": {
						"addTask(string)": "infinite",
						"deleteTask(uint256)": "infinite",
						"getTask(uint256)": "infinite",
						"getTaskCount()": "2600",
						"updateStatus(uint256,bool)": "27138"
					}
				},
				"methodIdentifiers": {
					"addTask(string)": "67238562",
					"deleteTask(uint256)": "560f3192",
					"getTask(uint256)": "1d65e77e",
					"getTaskCount()": "c17a340e",
					"updateStatus(uint256,bool)": "387008c2"
				}
			},
			"storageLayout": {
				"storage": [
					{
						"astId": 12,
						"contract": "contracts/Todo2.sol:Todos2",
						"label": "Users",
						"offset": 0,
						"slot": "0",
						"type": "t_mapping(t_address,t_array(t_struct(Task)6_storage)dyn_storage)"
					}
				],
				"types": {
					"t_address": {
						"encoding": "inplace",
						"label": "address",
						"numberOfBytes": "20"
					},
					"t_array(t_struct(Task)6_storage)dyn_storage": {
						"base": "t_struct(Task)6_storage",
						"encoding": "dynamic_array",
						"label": "struct Todos2.Task[]",
						"numberOfBytes": "32"
					},
					"t_bool": {
						"encoding": "inplace",
						"label": "bool",
						"numberOfBytes": "1"
					},
					"t_mapping(t_address,t_array(t_struct(Task)6_storage)dyn_storage)": {
						"encoding": "mapping",
						"key": "t_address",
						"label": "mapping(address => struct Todos2.Task[])",
						"numberOfBytes": "32",
						"value": "t_array(t_struct(Task)6_storage)dyn_storage"
					},
					"t_string_storage": {
						"encoding": "bytes",
						"label": "string",
						"numberOfBytes": "32"
					},
					"t_struct(Task)6_storage": {
						"encoding": "inplace",
						"label": "struct Todos2.Task",
						"members": [
							{
								"astId": 3,
								"contract": "contracts/Todo2.sol:Todos2",
								"label": "task",
								"offset": 0,
								"slot": "0",
								"type": "t_string_storage"
							},
							{
								"astId": 5,
								"contract": "contracts/Todo2.sol:Todos2",
								"label": "isDone",
								"offset": 0,
								"slot": "1",
								"type": "t_bool"
							}
						],
						"numberOfBytes": "64"
					}
				}
			},
			"userdoc": {
				"kind": "user",
				"methods": {},
				"version": 1
			}
		}
	}
}