{
	"contracts/Todo.sol": {
		"Todos": {
			"abi": [
				{
					"inputs": [
						{
							"internalType": "uint256",
							"name": "_index",
							"type": "uint256"
						}
					],
					"name": "deleteToDo",
					"outputs": [],
					"stateMutability": "nonpayable",
					"type": "function"
				},
				{
					"inputs": [],
					"name": "getTodo",
					"outputs": [
						{
							"internalType": "string[]",
							"name": "",
							"type": "string[]"
						}
					],
					"stateMutability": "view",
					"type": "function"
				},
				{
					"inputs": [],
					"name": "getTodosLength",
					"outputs": [
						{
							"internalType": "uint256",
							"name": "",
							"type": "uint256"
						}
					],
					"stateMutability": "view",
					"type": "function"
				},
				{
					"inputs": [
						{
							"internalType": "string",
							"name": "_todo",
							"type": "string"
						}
					],
					"name": "setTodo",
					"outputs": [],
					"stateMutability": "nonpayable",
					"type": "function"
				},
				{
					"inputs": [
						{
							"internalType": "uint256",
							"name": "",
							"type": "uint256"
						}
					],
					"name": "todos",
					"outputs": [
						{
							"internalType": "string",
							"name": "",
							"type": "string"
						}
					],
					"stateMutability": "view",
					"type": "function"
				}
			],
			"devdoc": {
				"kind": "dev",
				"methods": {},
				"version": 1
			},
			"evm": {
				"assembly": "    /* \"contracts/Todo.sol\":100:1075  contract Todos {... */\n  mstore(0x40, 0x80)\n  callvalue\n  dup1\n  iszero\n  tag_1\n  jumpi\n  0x00\n  dup1\n  revert\ntag_1:\n  pop\n  dataSize(sub_0)\n  dup1\n  dataOffset(sub_0)\n  0x00\n  codecopy\n  0x00\n  return\nstop\n\nsub_0: assembly {\n        /* \"contracts/Todo.sol\":100:1075  contract Todos {... */\n      mstore(0x40, 0x80)\n      callvalue\n      dup1\n      iszero\n      tag_1\n      jumpi\n      0x00\n      dup1\n      revert\n    tag_1:\n      pop\n      jumpi(tag_2, lt(calldatasize, 0x04))\n      shr(0xe0, calldataload(0x00))\n      dup1\n      0x549fd151\n      eq\n      tag_3\n      jumpi\n      dup1\n      0x7fa1680a\n      eq\n      tag_4\n      jumpi\n      dup1\n      0xb9abac74\n      eq\n      tag_5\n      jumpi\n      dup1\n      0xbc8bc2b4\n      eq\n      tag_6\n      jumpi\n      dup1\n      0xec209aab\n      eq\n      tag_7\n      jumpi\n    tag_2:\n      0x00\n      dup1\n      revert\n        /* \"contracts/Todo.sol\":872:1072  function deleteToDo(uint _index) public {... */\n    tag_3:\n      tag_8\n      0x04\n      dup1\n      calldatasize\n      sub\n      dup2\n      add\n      swap1\n      tag_9\n      swap2\n      swap1\n      tag_10\n      jump\t// in\n    tag_9:\n      tag_11\n      jump\t// in\n    tag_8:\n      stop\n        /* \"contracts/Todo.sol\":444:532  function getTodo() public view returns (string[] memory) {... */\n    tag_4:\n      tag_12\n      tag_13\n      jump\t// in\n    tag_12:\n      mload(0x40)\n      tag_14\n      swap2\n      swap1\n      tag_15\n      jump\t// in\n    tag_14:\n      mload(0x40)\n      dup1\n      swap2\n      sub\n      swap1\n      return\n        /* \"contracts/Todo.sol\":298:379  function setTodo(string memory _todo) public {... */\n    tag_5:\n      tag_16\n      0x04\n      dup1\n      calldatasize\n      sub\n      dup2\n      add\n      swap1\n      tag_17\n      swap2\n      swap1\n      tag_18\n      jump\t// in\n    tag_17:\n      tag_19\n      jump\t// in\n    tag_16:\n      stop\n        /* \"contracts/Todo.sol\":179:200  string[] public todos */\n    tag_6:\n      tag_20\n      0x04\n      dup1\n      calldatasize\n      sub\n      dup2\n      add\n      swap1\n      tag_21\n      swap2\n      swap1\n      tag_10\n      jump\t// in\n    tag_21:\n      tag_22\n      jump\t// in\n    tag_20:\n      mload(0x40)\n      tag_23\n      swap2\n      swap1\n      tag_24\n      jump\t// in\n    tag_23:\n      mload(0x40)\n      dup1\n      swap2\n      sub\n      swap1\n      return\n        /* \"contracts/Todo.sol\":604:736  function getTodosLength() public view returns (uint) {... */\n    tag_7:\n      tag_25\n      tag_26\n      jump\t// in\n    tag_25:\n      mload(0x40)\n      tag_27\n      swap2\n      swap1\n      tag_28\n      jump\t// in\n    tag_27:\n      mload(0x40)\n      dup1\n      swap2\n      sub\n      swap1\n      return\n        /* \"contracts/Todo.sol\":872:1072  function deleteToDo(uint _index) public {... */\n    tag_11:\n        /* \"contracts/Todo.sol\":940:945  todos */\n      0x00\n        /* \"contracts/Todo.sol\":940:952  todos.length */\n      dup1\n      sload\n      swap1\n      pop\n        /* \"contracts/Todo.sol\":931:937  _index */\n      dup2\n        /* \"contracts/Todo.sol\":931:952  _index < todos.length */\n      lt\n        /* \"contracts/Todo.sol\":923:988  require(_index < todos.length, \"This todo index does not exist.\") */\n      tag_30\n      jumpi\n      mload(0x40)\n      0x08c379a000000000000000000000000000000000000000000000000000000000\n      dup2\n      mstore\n      0x04\n      add\n      tag_31\n      swap1\n      tag_32\n      jump\t// in\n    tag_31:\n      mload(0x40)\n      dup1\n      swap2\n      sub\n      swap1\n      revert\n    tag_30:\n        /* \"contracts/Todo.sol\":1015:1020  todos */\n      0x00\n        /* \"contracts/Todo.sol\":1040:1041  1 */\n      0x01\n        /* \"contracts/Todo.sol\":1021:1037  getTodosLength() */\n      tag_33\n        /* \"contracts/Todo.sol\":1021:1035  getTodosLength */\n      tag_26\n        /* \"contracts/Todo.sol\":1021:1037  getTodosLength() */\n      jump\t// in\n    tag_33:\n        /* \"contracts/Todo.sol\":1021:1041  getTodosLength() - 1 */\n      tag_34\n      swap2\n      swap1\n      tag_35\n      jump\t// in\n    tag_34:\n        /* \"contracts/Todo.sol\":1015:1042  todos[getTodosLength() - 1] */\n      dup2\n      sload\n      dup2\n      lt\n      tag_36\n      jumpi\n      tag_37\n      tag_38\n      jump\t// in\n    tag_37:\n    tag_36:\n      swap1\n      0x00\n      mstore\n      keccak256(0x00, 0x20)\n      add\n        /* \"contracts/Todo.sol\":999:1004  todos */\n      0x00\n        /* \"contracts/Todo.sol\":1005:1011  _index */\n      dup3\n        /* \"contracts/Todo.sol\":999:1012  todos[_index] */\n      dup2\n      sload\n      dup2\n      lt\n      tag_40\n      jumpi\n      tag_41\n      tag_38\n      jump\t// in\n    tag_41:\n    tag_40:\n      swap1\n      0x00\n      mstore\n      keccak256(0x00, 0x20)\n      add\n        /* \"contracts/Todo.sol\":999:1042  todos[_index] = todos[getTodosLength() - 1] */\n      swap1\n      dup2\n      tag_43\n      swap2\n      swap1\n      tag_44\n      jump\t// in\n    tag_43:\n      pop\n        /* \"contracts/Todo.sol\":1053:1058  todos */\n      0x00\n        /* \"contracts/Todo.sol\":1053:1064  todos.pop() */\n      dup1\n      sload\n      dup1\n      tag_45\n      jumpi\n      tag_46\n      tag_47\n      jump\t// in\n    tag_46:\n    tag_45:\n      0x01\n      swap1\n      sub\n      dup2\n      dup2\n      swap1\n      0x00\n      mstore\n      keccak256(0x00, 0x20)\n      add\n      0x00\n      tag_49\n      swap2\n      swap1\n      tag_50\n      jump\t// in\n    tag_49:\n      swap1\n      sstore\n        /* \"contracts/Todo.sol\":872:1072  function deleteToDo(uint _index) public {... */\n      pop\n      jump\t// out\n        /* \"contracts/Todo.sol\":444:532  function getTodo() public view returns (string[] memory) {... */\n    tag_13:\n        /* \"contracts/Todo.sol\":484:499  string[] memory */\n      0x60\n        /* \"contracts/Todo.sol\":519:524  todos */\n      0x00\n        /* \"contracts/Todo.sol\":512:524  return todos */\n      dup1\n      sload\n      dup1\n      0x20\n      mul\n      0x20\n      add\n      mload(0x40)\n      swap1\n      dup2\n      add\n      0x40\n      mstore\n      dup1\n      swap3\n      swap2\n      swap1\n      dup2\n      dup2\n      mstore\n      0x20\n      add\n      0x00\n      swap1\n    tag_52:\n      dup3\n      dup3\n      lt\n      iszero\n      tag_53\n      jumpi\n      dup4\n      dup3\n      swap1\n      0x00\n      mstore\n      keccak256(0x00, 0x20)\n      add\n      dup1\n      sload\n      tag_55\n      swap1\n      tag_56\n      jump\t// in\n    tag_55:\n      dup1\n      0x1f\n      add\n      0x20\n      dup1\n      swap2\n      div\n      mul\n      0x20\n      add\n      mload(0x40)\n      swap1\n      dup2\n      add\n      0x40\n      mstore\n      dup1\n      swap3\n      swap2\n      swap1\n      dup2\n      dup2\n      mstore\n      0x20\n      add\n      dup3\n      dup1\n      sload\n      tag_57\n      swap1\n      tag_56\n      jump\t// in\n    tag_57:\n      dup1\n      iszero\n      tag_58\n      jumpi\n      dup1\n      0x1f\n      lt\n      tag_59\n      jumpi\n      0x0100\n      dup1\n      dup4\n      sload\n      div\n      mul\n      dup4\n      mstore\n      swap2\n      0x20\n      add\n      swap2\n      jump(tag_58)\n    tag_59:\n      dup3\n      add\n      swap2\n      swap1\n      0x00\n      mstore\n      keccak256(0x00, 0x20)\n      swap1\n    tag_60:\n      dup2\n      sload\n      dup2\n      mstore\n      swap1\n      0x01\n      add\n      swap1\n      0x20\n      add\n      dup1\n      dup4\n      gt\n      tag_60\n      jumpi\n      dup3\n      swap1\n      sub\n      0x1f\n      and\n      dup3\n      add\n      swap2\n    tag_58:\n      pop\n      pop\n      pop\n      pop\n      pop\n      dup2\n      mstore\n      0x20\n      add\n      swap1\n      0x01\n      add\n      swap1\n      jump(tag_52)\n    tag_53:\n      pop\n      pop\n      pop\n      pop\n      swap1\n      pop\n        /* \"contracts/Todo.sol\":444:532  function getTodo() public view returns (string[] memory) {... */\n      swap1\n      jump\t// out\n        /* \"contracts/Todo.sol\":298:379  function setTodo(string memory _todo) public {... */\n    tag_19:\n        /* \"contracts/Todo.sol\":354:359  todos */\n      0x00\n        /* \"contracts/Todo.sol\":365:370  _todo */\n      dup2\n        /* \"contracts/Todo.sol\":354:371  todos.push(_todo) */\n      swap1\n      dup1\n      0x01\n      dup2\n      sload\n      add\n      dup1\n      dup3\n      sstore\n      dup1\n      swap2\n      pop\n      pop\n      0x01\n      swap1\n      sub\n      swap1\n      0x00\n      mstore\n      keccak256(0x00, 0x20)\n      add\n      0x00\n      swap1\n      swap2\n      swap1\n      swap2\n      swap1\n      swap2\n      pop\n      swap1\n      dup2\n      tag_63\n      swap2\n      swap1\n      tag_64\n      jump\t// in\n    tag_63:\n      pop\n        /* \"contracts/Todo.sol\":298:379  function setTodo(string memory _todo) public {... */\n      pop\n      jump\t// out\n        /* \"contracts/Todo.sol\":179:200  string[] public todos */\n    tag_22:\n      0x00\n      dup2\n      dup2\n      sload\n      dup2\n      lt\n      tag_65\n      jumpi\n      0x00\n      dup1\n      revert\n    tag_65:\n      swap1\n      0x00\n      mstore\n      keccak256(0x00, 0x20)\n      add\n      0x00\n      swap2\n      pop\n      swap1\n      pop\n      dup1\n      sload\n      tag_67\n      swap1\n      tag_56\n      jump\t// in\n    tag_67:\n      dup1\n      0x1f\n      add\n      0x20\n      dup1\n      swap2\n      div\n      mul\n      0x20\n      add\n      mload(0x40)\n      swap1\n      dup2\n      add\n      0x40\n      mstore\n      dup1\n      swap3\n      swap2\n      swap1\n      dup2\n      dup2\n      mstore\n      0x20\n      add\n      dup3\n      dup1\n      sload\n      tag_68\n      swap1\n      tag_56\n      jump\t// in\n    tag_68:\n      dup1\n      iszero\n      tag_69\n      jumpi\n      dup1\n      0x1f\n      lt\n      tag_70\n      jumpi\n      0x0100\n      dup1\n      dup4\n      sload\n      div\n      mul\n      dup4\n      mstore\n      swap2\n      0x20\n      add\n      swap2\n      jump(tag_69)\n    tag_70:\n      dup3\n      add\n      swap2\n      swap1\n      0x00\n      mstore\n      keccak256(0x00, 0x20)\n      swap1\n    tag_71:\n      dup2\n      sload\n      dup2\n      mstore\n      swap1\n      0x01\n      add\n      swap1\n      0x20\n      add\n      dup1\n      dup4\n      gt\n      tag_71\n      jumpi\n      dup3\n      swap1\n      sub\n      0x1f\n      and\n      dup3\n      add\n      swap2\n    tag_69:\n      pop\n      pop\n      pop\n      pop\n      pop\n      dup2\n      jump\t// out\n        /* \"contracts/Todo.sol\":604:736  function getTodosLength() public view returns (uint) {... */\n    tag_26:\n        /* \"contracts/Todo.sol\":651:655  uint */\n      0x00\n        /* \"contracts/Todo.sol\":668:684  uint todosLength */\n      dup1\n        /* \"contracts/Todo.sol\":687:692  todos */\n      0x00\n        /* \"contracts/Todo.sol\":687:699  todos.length */\n      dup1\n      sload\n      swap1\n      pop\n        /* \"contracts/Todo.sol\":668:699  uint todosLength = todos.length */\n      swap1\n      pop\n        /* \"contracts/Todo.sol\":717:728  todosLength */\n      dup1\n        /* \"contracts/Todo.sol\":710:728  return todosLength */\n      swap2\n      pop\n      pop\n        /* \"contracts/Todo.sol\":604:736  function getTodosLength() public view returns (uint) {... */\n      swap1\n      jump\t// out\n    tag_50:\n      pop\n      dup1\n      sload\n      tag_73\n      swap1\n      tag_56\n      jump\t// in\n    tag_73:\n      0x00\n      dup3\n      sstore\n      dup1\n      0x1f\n      lt\n      tag_75\n      jumpi\n      pop\n      jump(tag_74)\n    tag_75:\n      0x1f\n      add\n      0x20\n      swap1\n      div\n      swap1\n      0x00\n      mstore\n      keccak256(0x00, 0x20)\n      swap1\n      dup2\n      add\n      swap1\n      tag_76\n      swap2\n      swap1\n      tag_77\n      jump\t// in\n    tag_76:\n    tag_74:\n      pop\n      jump\t// out\n    tag_77:\n    tag_78:\n      dup1\n      dup3\n      gt\n      iszero\n      tag_79\n      jumpi\n      0x00\n      dup2\n      0x00\n      swap1\n      sstore\n      pop\n      0x01\n      add\n      jump(tag_78)\n    tag_79:\n      pop\n      swap1\n      jump\t// out\n        /* \"#utility.yul\":7:82   */\n    tag_80:\n        /* \"#utility.yul\":40:46   */\n      0x00\n        /* \"#utility.yul\":73:75   */\n      0x40\n        /* \"#utility.yul\":67:76   */\n      mload\n        /* \"#utility.yul\":57:76   */\n      swap1\n      pop\n        /* \"#utility.yul\":7:82   */\n      swap1\n      jump\t// out\n        /* \"#utility.yul\":88:205   */\n    tag_81:\n        /* \"#utility.yul\":197:198   */\n      0x00\n        /* \"#utility.yul\":194:195   */\n      dup1\n        /* \"#utility.yul\":187:199   */\n      revert\n        /* \"#utility.yul\":211:328   */\n    tag_82:\n        /* \"#utility.yul\":320:321   */\n      0x00\n        /* \"#utility.yul\":317:318   */\n      dup1\n        /* \"#utility.yul\":310:322   */\n      revert\n        /* \"#utility.yul\":334:411   */\n    tag_83:\n        /* \"#utility.yul\":371:378   */\n      0x00\n        /* \"#utility.yul\":400:405   */\n      dup2\n        /* \"#utility.yul\":389:405   */\n      swap1\n      pop\n        /* \"#utility.yul\":334:411   */\n      swap2\n      swap1\n      pop\n      jump\t// out\n        /* \"#utility.yul\":417:539   */\n    tag_84:\n        /* \"#utility.yul\":490:514   */\n      tag_136\n        /* \"#utility.yul\":508:513   */\n      dup2\n        /* \"#utility.yul\":490:514   */\n      tag_83\n      jump\t// in\n    tag_136:\n        /* \"#utility.yul\":483:488   */\n      dup2\n        /* \"#utility.yul\":480:515   */\n      eq\n        /* \"#utility.yul\":470:533   */\n      tag_137\n      jumpi\n        /* \"#utility.yul\":529:530   */\n      0x00\n        /* \"#utility.yul\":526:527   */\n      dup1\n        /* \"#utility.yul\":519:531   */\n      revert\n        /* \"#utility.yul\":470:533   */\n    tag_137:\n        /* \"#utility.yul\":417:539   */\n      pop\n      jump\t// out\n        /* \"#utility.yul\":545:684   */\n    tag_85:\n        /* \"#utility.yul\":591:596   */\n      0x00\n        /* \"#utility.yul\":629:635   */\n      dup2\n        /* \"#utility.yul\":616:636   */\n      calldataload\n        /* \"#utility.yul\":607:636   */\n      swap1\n      pop\n        /* \"#utility.yul\":645:678   */\n      tag_139\n        /* \"#utility.yul\":672:677   */\n      dup2\n        /* \"#utility.yul\":645:678   */\n      tag_84\n      jump\t// in\n    tag_139:\n        /* \"#utility.yul\":545:684   */\n      swap3\n      swap2\n      pop\n      pop\n      jump\t// out\n        /* \"#utility.yul\":690:1019   */\n    tag_10:\n        /* \"#utility.yul\":749:755   */\n      0x00\n        /* \"#utility.yul\":798:800   */\n      0x20\n        /* \"#utility.yul\":786:795   */\n      dup3\n        /* \"#utility.yul\":777:784   */\n      dup5\n        /* \"#utility.yul\":773:796   */\n      sub\n        /* \"#utility.yul\":769:801   */\n      slt\n        /* \"#utility.yul\":766:885   */\n      iszero\n      tag_141\n      jumpi\n        /* \"#utility.yul\":804:883   */\n      tag_142\n      tag_81\n      jump\t// in\n    tag_142:\n        /* \"#utility.yul\":766:885   */\n    tag_141:\n        /* \"#utility.yul\":924:925   */\n      0x00\n        /* \"#utility.yul\":949:1002   */\n      tag_143\n        /* \"#utility.yul\":994:1001   */\n      dup5\n        /* \"#utility.yul\":985:991   */\n      dup3\n        /* \"#utility.yul\":974:983   */\n      dup6\n        /* \"#utility.yul\":970:992   */\n      add\n        /* \"#utility.yul\":949:1002   */\n      tag_85\n      jump\t// in\n    tag_143:\n        /* \"#utility.yul\":939:1002   */\n      swap2\n      pop\n        /* \"#utility.yul\":895:1012   */\n      pop\n        /* \"#utility.yul\":690:1019   */\n      swap3\n      swap2\n      pop\n      pop\n      jump\t// out\n        /* \"#utility.yul\":1025:1149   */\n    tag_86:\n        /* \"#utility.yul\":1102:1108   */\n      0x00\n        /* \"#utility.yul\":1136:1141   */\n      dup2\n        /* \"#utility.yul\":1130:1142   */\n      mload\n        /* \"#utility.yul\":1120:1142   */\n      swap1\n      pop\n        /* \"#utility.yul\":1025:1149   */\n      swap2\n      swap1\n      pop\n      jump\t// out\n        /* \"#utility.yul\":1155:1349   */\n    tag_87:\n        /* \"#utility.yul\":1264:1275   */\n      0x00\n        /* \"#utility.yul\":1298:1304   */\n      dup3\n        /* \"#utility.yul\":1293:1296   */\n      dup3\n        /* \"#utility.yul\":1286:1305   */\n      mstore\n        /* \"#utility.yul\":1338:1342   */\n      0x20\n        /* \"#utility.yul\":1333:1336   */\n      dup3\n        /* \"#utility.yul\":1329:1343   */\n      add\n        /* \"#utility.yul\":1314:1343   */\n      swap1\n      pop\n        /* \"#utility.yul\":1155:1349   */\n      swap3\n      swap2\n      pop\n      pop\n      jump\t// out\n        /* \"#utility.yul\":1355:1497   */\n    tag_88:\n        /* \"#utility.yul\":1432:1436   */\n      0x00\n        /* \"#utility.yul\":1455:1458   */\n      dup2\n        /* \"#utility.yul\":1447:1458   */\n      swap1\n      pop\n        /* \"#utility.yul\":1485:1489   */\n      0x20\n        /* \"#utility.yul\":1480:1483   */\n      dup3\n        /* \"#utility.yul\":1476:1490   */\n      add\n        /* \"#utility.yul\":1468:1490   */\n      swap1\n      pop\n        /* \"#utility.yul\":1355:1497   */\n      swap2\n      swap1\n      pop\n      jump\t// out\n        /* \"#utility.yul\":1503:1602   */\n    tag_89:\n        /* \"#utility.yul\":1555:1561   */\n      0x00\n        /* \"#utility.yul\":1589:1594   */\n      dup2\n        /* \"#utility.yul\":1583:1595   */\n      mload\n        /* \"#utility.yul\":1573:1595   */\n      swap1\n      pop\n        /* \"#utility.yul\":1503:1602   */\n      swap2\n      swap1\n      pop\n      jump\t// out\n        /* \"#utility.yul\":1608:1767   */\n    tag_90:\n        /* \"#utility.yul\":1682:1693   */\n      0x00\n        /* \"#utility.yul\":1716:1722   */\n      dup3\n        /* \"#utility.yul\":1711:1714   */\n      dup3\n        /* \"#utility.yul\":1704:1723   */\n      mstore\n        /* \"#utility.yul\":1756:1760   */\n      0x20\n        /* \"#utility.yul\":1751:1754   */\n      dup3\n        /* \"#utility.yul\":1747:1761   */\n      add\n        /* \"#utility.yul\":1732:1761   */\n      swap1\n      pop\n        /* \"#utility.yul\":1608:1767   */\n      swap3\n      swap2\n      pop\n      pop\n      jump\t// out\n        /* \"#utility.yul\":1773:2019   */\n    tag_91:\n        /* \"#utility.yul\":1854:1855   */\n      0x00\n        /* \"#utility.yul\":1864:1977   */\n    tag_150:\n        /* \"#utility.yul\":1878:1884   */\n      dup4\n        /* \"#utility.yul\":1875:1876   */\n      dup2\n        /* \"#utility.yul\":1872:1885   */\n      lt\n        /* \"#utility.yul\":1864:1977   */\n      iszero\n      tag_152\n      jumpi\n        /* \"#utility.yul\":1963:1964   */\n      dup1\n        /* \"#utility.yul\":1958:1961   */\n      dup3\n        /* \"#utility.yul\":1954:1965   */\n      add\n        /* \"#utility.yul\":1948:1966   */\n      mload\n        /* \"#utility.yul\":1944:1945   */\n      dup2\n        /* \"#utility.yul\":1939:1942   */\n      dup5\n        /* \"#utility.yul\":1935:1946   */\n      add\n        /* \"#utility.yul\":1928:1967   */\n      mstore\n        /* \"#utility.yul\":1900:1902   */\n      0x20\n        /* \"#utility.yul\":1897:1898   */\n      dup2\n        /* \"#utility.yul\":1893:1903   */\n      add\n        /* \"#utility.yul\":1888:1903   */\n      swap1\n      pop\n        /* \"#utility.yul\":1864:1977   */\n      jump(tag_150)\n    tag_152:\n        /* \"#utility.yul\":2011:2012   */\n      0x00\n        /* \"#utility.yul\":2002:2008   */\n      dup5\n        /* \"#utility.yul\":1997:2000   */\n      dup5\n        /* \"#utility.yul\":1993:2009   */\n      add\n        /* \"#utility.yul\":1986:2013   */\n      mstore\n        /* \"#utility.yul\":1835:2019   */\n      pop\n        /* \"#utility.yul\":1773:2019   */\n      pop\n      pop\n      pop\n      jump\t// out\n        /* \"#utility.yul\":2025:2127   */\n    tag_92:\n        /* \"#utility.yul\":2066:2072   */\n      0x00\n        /* \"#utility.yul\":2117:2119   */\n      0x1f\n        /* \"#utility.yul\":2113:2120   */\n      not\n        /* \"#utility.yul\":2108:2110   */\n      0x1f\n        /* \"#utility.yul\":2101:2106   */\n      dup4\n        /* \"#utility.yul\":2097:2111   */\n      add\n        /* \"#utility.yul\":2093:2121   */\n      and\n        /* \"#utility.yul\":2083:2121   */\n      swap1\n      pop\n        /* \"#utility.yul\":2025:2127   */\n      swap2\n      swap1\n      pop\n      jump\t// out\n        /* \"#utility.yul\":2133:2490   */\n    tag_93:\n        /* \"#utility.yul\":2211:2214   */\n      0x00\n        /* \"#utility.yul\":2239:2278   */\n      tag_155\n        /* \"#utility.yul\":2272:2277   */\n      dup3\n        /* \"#utility.yul\":2239:2278   */\n      tag_89\n      jump\t// in\n    tag_155:\n        /* \"#utility.yul\":2294:2355   */\n      tag_156\n        /* \"#utility.yul\":2348:2354   */\n      dup2\n        /* \"#utility.yul\":2343:2346   */\n      dup6\n        /* \"#utility.yul\":2294:2355   */\n      tag_90\n      jump\t// in\n    tag_156:\n        /* \"#utility.yul\":2287:2355   */\n      swap4\n      pop\n        /* \"#utility.yul\":2364:2429   */\n      tag_157\n        /* \"#utility.yul\":2422:2428   */\n      dup2\n        /* \"#utility.yul\":2417:2420   */\n      dup6\n        /* \"#utility.yul\":2410:2414   */\n      0x20\n        /* \"#utility.yul\":2403:2408   */\n      dup7\n        /* \"#utility.yul\":2399:2415   */\n      add\n        /* \"#utility.yul\":2364:2429   */\n      tag_91\n      jump\t// in\n    tag_157:\n        /* \"#utility.yul\":2454:2483   */\n      tag_158\n        /* \"#utility.yul\":2476:2482   */\n      dup2\n        /* \"#utility.yul\":2454:2483   */\n      tag_92\n      jump\t// in\n    tag_158:\n        /* \"#utility.yul\":2449:2452   */\n      dup5\n        /* \"#utility.yul\":2445:2484   */\n      add\n        /* \"#utility.yul\":2438:2484   */\n      swap2\n      pop\n        /* \"#utility.yul\":2215:2490   */\n      pop\n        /* \"#utility.yul\":2133:2490   */\n      swap3\n      swap2\n      pop\n      pop\n      jump\t// out\n        /* \"#utility.yul\":2496:2692   */\n    tag_94:\n        /* \"#utility.yul\":2585:2595   */\n      0x00\n        /* \"#utility.yul\":2620:2686   */\n      tag_160\n        /* \"#utility.yul\":2682:2685   */\n      dup4\n        /* \"#utility.yul\":2674:2680   */\n      dup4\n        /* \"#utility.yul\":2620:2686   */\n      tag_93\n      jump\t// in\n    tag_160:\n        /* \"#utility.yul\":2606:2686   */\n      swap1\n      pop\n        /* \"#utility.yul\":2496:2692   */\n      swap3\n      swap2\n      pop\n      pop\n      jump\t// out\n        /* \"#utility.yul\":2698:2821   */\n    tag_95:\n        /* \"#utility.yul\":2778:2782   */\n      0x00\n        /* \"#utility.yul\":2810:2814   */\n      0x20\n        /* \"#utility.yul\":2805:2808   */\n      dup3\n        /* \"#utility.yul\":2801:2815   */\n      add\n        /* \"#utility.yul\":2793:2815   */\n      swap1\n      pop\n        /* \"#utility.yul\":2698:2821   */\n      swap2\n      swap1\n      pop\n      jump\t// out\n        /* \"#utility.yul\":2855:3846   */\n    tag_96:\n        /* \"#utility.yul\":2994:2997   */\n      0x00\n        /* \"#utility.yul\":3023:3087   */\n      tag_163\n        /* \"#utility.yul\":3081:3086   */\n      dup3\n        /* \"#utility.yul\":3023:3087   */\n      tag_86\n      jump\t// in\n    tag_163:\n        /* \"#utility.yul\":3103:3199   */\n      tag_164\n        /* \"#utility.yul\":3192:3198   */\n      dup2\n        /* \"#utility.yul\":3187:3190   */\n      dup6\n        /* \"#utility.yul\":3103:3199   */\n      tag_87\n      jump\t// in\n    tag_164:\n        /* \"#utility.yul\":3096:3199   */\n      swap4\n      pop\n        /* \"#utility.yul\":3225:3228   */\n      dup4\n        /* \"#utility.yul\":3270:3274   */\n      0x20\n        /* \"#utility.yul\":3262:3268   */\n      dup3\n        /* \"#utility.yul\":3258:3275   */\n      mul\n        /* \"#utility.yul\":3253:3256   */\n      dup6\n        /* \"#utility.yul\":3249:3276   */\n      add\n        /* \"#utility.yul\":3300:3366   */\n      tag_165\n        /* \"#utility.yul\":3360:3365   */\n      dup6\n        /* \"#utility.yul\":3300:3366   */\n      tag_88\n      jump\t// in\n    tag_165:\n        /* \"#utility.yul\":3389:3396   */\n      dup1\n        /* \"#utility.yul\":3420:3421   */\n      0x00\n        /* \"#utility.yul\":3405:3801   */\n    tag_166:\n        /* \"#utility.yul\":3430:3436   */\n      dup6\n        /* \"#utility.yul\":3427:3428   */\n      dup2\n        /* \"#utility.yul\":3424:3437   */\n      lt\n        /* \"#utility.yul\":3405:3801   */\n      iszero\n      tag_168\n      jumpi\n        /* \"#utility.yul\":3501:3510   */\n      dup5\n        /* \"#utility.yul\":3495:3499   */\n      dup5\n        /* \"#utility.yul\":3491:3511   */\n      sub\n        /* \"#utility.yul\":3486:3489   */\n      dup10\n        /* \"#utility.yul\":3479:3512   */\n      mstore\n        /* \"#utility.yul\":3552:3558   */\n      dup2\n        /* \"#utility.yul\":3546:3559   */\n      mload\n        /* \"#utility.yul\":3580:3664   */\n      tag_169\n        /* \"#utility.yul\":3659:3663   */\n      dup6\n        /* \"#utility.yul\":3644:3657   */\n      dup3\n        /* \"#utility.yul\":3580:3664   */\n      tag_94\n      jump\t// in\n    tag_169:\n        /* \"#utility.yul\":3572:3664   */\n      swap5\n      pop\n        /* \"#utility.yul\":3687:3757   */\n      tag_170\n        /* \"#utility.yul\":3750:3756   */\n      dup4\n        /* \"#utility.yul\":3687:3757   */\n      tag_95\n      jump\t// in\n    tag_170:\n        /* \"#utility.yul\":3677:3757   */\n      swap3\n      pop\n        /* \"#utility.yul\":3786:3790   */\n      0x20\n        /* \"#utility.yul\":3781:3784   */\n      dup11\n        /* \"#utility.yul\":3777:3791   */\n      add\n        /* \"#utility.yul\":3770:3791   */\n      swap10\n      pop\n        /* \"#utility.yul\":3465:3801   */\n      pop\n        /* \"#utility.yul\":3452:3453   */\n      0x01\n        /* \"#utility.yul\":3449:3450   */\n      dup2\n        /* \"#utility.yul\":3445:3454   */\n      add\n        /* \"#utility.yul\":3440:3454   */\n      swap1\n      pop\n        /* \"#utility.yul\":3405:3801   */\n      jump(tag_166)\n    tag_168:\n        /* \"#utility.yul\":3409:3423   */\n      pop\n        /* \"#utility.yul\":3817:3821   */\n      dup3\n        /* \"#utility.yul\":3810:3821   */\n      swap8\n      pop\n        /* \"#utility.yul\":3837:3840   */\n      dup8\n        /* \"#utility.yul\":3830:3840   */\n      swap6\n      pop\n        /* \"#utility.yul\":2999:3846   */\n      pop\n      pop\n      pop\n      pop\n      pop\n        /* \"#utility.yul\":2855:3846   */\n      swap3\n      swap2\n      pop\n      pop\n      jump\t// out\n        /* \"#utility.yul\":3852:4265   */\n    tag_15:\n        /* \"#utility.yul\":4015:4019   */\n      0x00\n        /* \"#utility.yul\":4053:4055   */\n      0x20\n        /* \"#utility.yul\":4042:4051   */\n      dup3\n        /* \"#utility.yul\":4038:4056   */\n      add\n        /* \"#utility.yul\":4030:4056   */\n      swap1\n      pop\n        /* \"#utility.yul\":4102:4111   */\n      dup2\n        /* \"#utility.yul\":4096:4100   */\n      dup2\n        /* \"#utility.yul\":4092:4112   */\n      sub\n        /* \"#utility.yul\":4088:4089   */\n      0x00\n        /* \"#utility.yul\":4077:4086   */\n      dup4\n        /* \"#utility.yul\":4073:4090   */\n      add\n        /* \"#utility.yul\":4066:4113   */\n      mstore\n        /* \"#utility.yul\":4130:4258   */\n      tag_172\n        /* \"#utility.yul\":4253:4257   */\n      dup2\n        /* \"#utility.yul\":4244:4250   */\n      dup5\n        /* \"#utility.yul\":4130:4258   */\n      tag_96\n      jump\t// in\n    tag_172:\n        /* \"#utility.yul\":4122:4258   */\n      swap1\n      pop\n        /* \"#utility.yul\":3852:4265   */\n      swap3\n      swap2\n      pop\n      pop\n      jump\t// out\n        /* \"#utility.yul\":4271:4388   */\n    tag_97:\n        /* \"#utility.yul\":4380:4381   */\n      0x00\n        /* \"#utility.yul\":4377:4378   */\n      dup1\n        /* \"#utility.yul\":4370:4382   */\n      revert\n        /* \"#utility.yul\":4394:4511   */\n    tag_98:\n        /* \"#utility.yul\":4503:4504   */\n      0x00\n        /* \"#utility.yul\":4500:4501   */\n      dup1\n        /* \"#utility.yul\":4493:4505   */\n      revert\n        /* \"#utility.yul\":4517:4697   */\n    tag_99:\n        /* \"#utility.yul\":4565:4642   */\n      0x4e487b7100000000000000000000000000000000000000000000000000000000\n        /* \"#utility.yul\":4562:4563   */\n      0x00\n        /* \"#utility.yul\":4555:4643   */\n      mstore\n        /* \"#utility.yul\":4662:4666   */\n      0x41\n        /* \"#utility.yul\":4659:4660   */\n      0x04\n        /* \"#utility.yul\":4652:4667   */\n      mstore\n        /* \"#utility.yul\":4686:4690   */\n      0x24\n        /* \"#utility.yul\":4683:4684   */\n      0x00\n        /* \"#utility.yul\":4676:4691   */\n      revert\n        /* \"#utility.yul\":4703:4984   */\n    tag_100:\n        /* \"#utility.yul\":4786:4813   */\n      tag_177\n        /* \"#utility.yul\":4808:4812   */\n      dup3\n        /* \"#utility.yul\":4786:4813   */\n      tag_92\n      jump\t// in\n    tag_177:\n        /* \"#utility.yul\":4778:4784   */\n      dup2\n        /* \"#utility.yul\":4774:4814   */\n      add\n        /* \"#utility.yul\":4916:4922   */\n      dup2\n        /* \"#utility.yul\":4904:4914   */\n      dup2\n        /* \"#utility.yul\":4901:4923   */\n      lt\n        /* \"#utility.yul\":4880:4898   */\n      0xffffffffffffffff\n        /* \"#utility.yul\":4868:4878   */\n      dup3\n        /* \"#utility.yul\":4865:4899   */\n      gt\n        /* \"#utility.yul\":4862:4924   */\n      or\n        /* \"#utility.yul\":4859:4947   */\n      iszero\n      tag_178\n      jumpi\n        /* \"#utility.yul\":4927:4945   */\n      tag_179\n      tag_99\n      jump\t// in\n    tag_179:\n        /* \"#utility.yul\":4859:4947   */\n    tag_178:\n        /* \"#utility.yul\":4967:4977   */\n      dup1\n        /* \"#utility.yul\":4963:4965   */\n      0x40\n        /* \"#utility.yul\":4956:4978   */\n      mstore\n        /* \"#utility.yul\":4746:4984   */\n      pop\n        /* \"#utility.yul\":4703:4984   */\n      pop\n      pop\n      jump\t// out\n        /* \"#utility.yul\":4990:5119   */\n    tag_101:\n        /* \"#utility.yul\":5024:5030   */\n      0x00\n        /* \"#utility.yul\":5051:5071   */\n      tag_181\n      tag_80\n      jump\t// in\n    tag_181:\n        /* \"#utility.yul\":5041:5071   */\n      swap1\n      pop\n        /* \"#utility.yul\":5080:5113   */\n      tag_182\n        /* \"#utility.yul\":5108:5112   */\n      dup3\n        /* \"#utility.yul\":5100:5106   */\n      dup3\n        /* \"#utility.yul\":5080:5113   */\n      tag_100\n      jump\t// in\n    tag_182:\n        /* \"#utility.yul\":4990:5119   */\n      swap2\n      swap1\n      pop\n      jump\t// out\n        /* \"#utility.yul\":5125:5433   */\n    tag_102:\n        /* \"#utility.yul\":5187:5191   */\n      0x00\n        /* \"#utility.yul\":5277:5295   */\n      0xffffffffffffffff\n        /* \"#utility.yul\":5269:5275   */\n      dup3\n        /* \"#utility.yul\":5266:5296   */\n      gt\n        /* \"#utility.yul\":5263:5319   */\n      iszero\n      tag_184\n      jumpi\n        /* \"#utility.yul\":5299:5317   */\n      tag_185\n      tag_99\n      jump\t// in\n    tag_185:\n        /* \"#utility.yul\":5263:5319   */\n    tag_184:\n        /* \"#utility.yul\":5337:5366   */\n      tag_186\n        /* \"#utility.yul\":5359:5365   */\n      dup3\n        /* \"#utility.yul\":5337:5366   */\n      tag_92\n      jump\t// in\n    tag_186:\n        /* \"#utility.yul\":5329:5366   */\n      swap1\n      pop\n        /* \"#utility.yul\":5421:5425   */\n      0x20\n        /* \"#utility.yul\":5415:5419   */\n      dup2\n        /* \"#utility.yul\":5411:5426   */\n      add\n        /* \"#utility.yul\":5403:5426   */\n      swap1\n      pop\n        /* \"#utility.yul\":5125:5433   */\n      swap2\n      swap1\n      pop\n      jump\t// out\n        /* \"#utility.yul\":5439:5585   */\n    tag_103:\n        /* \"#utility.yul\":5536:5542   */\n      dup3\n        /* \"#utility.yul\":5531:5534   */\n      dup2\n        /* \"#utility.yul\":5526:5529   */\n      dup4\n        /* \"#utility.yul\":5513:5543   */\n      calldatacopy\n        /* \"#utility.yul\":5577:5578   */\n      0x00\n        /* \"#utility.yul\":5568:5574   */\n      dup4\n        /* \"#utility.yul\":5563:5566   */\n      dup4\n        /* \"#utility.yul\":5559:5575   */\n      add\n        /* \"#utility.yul\":5552:5579   */\n      mstore\n        /* \"#utility.yul\":5439:5585   */\n      pop\n      pop\n      pop\n      jump\t// out\n        /* \"#utility.yul\":5591:6016   */\n    tag_104:\n        /* \"#utility.yul\":5669:5674   */\n      0x00\n        /* \"#utility.yul\":5694:5760   */\n      tag_189\n        /* \"#utility.yul\":5710:5759   */\n      tag_190\n        /* \"#utility.yul\":5752:5758   */\n      dup5\n        /* \"#utility.yul\":5710:5759   */\n      tag_102\n      jump\t// in\n    tag_190:\n        /* \"#utility.yul\":5694:5760   */\n      tag_101\n      jump\t// in\n    tag_189:\n        /* \"#utility.yul\":5685:5760   */\n      swap1\n      pop\n        /* \"#utility.yul\":5783:5789   */\n      dup3\n        /* \"#utility.yul\":5776:5781   */\n      dup2\n        /* \"#utility.yul\":5769:5790   */\n      mstore\n        /* \"#utility.yul\":5821:5825   */\n      0x20\n        /* \"#utility.yul\":5814:5819   */\n      dup2\n        /* \"#utility.yul\":5810:5826   */\n      add\n        /* \"#utility.yul\":5859:5862   */\n      dup5\n        /* \"#utility.yul\":5850:5856   */\n      dup5\n        /* \"#utility.yul\":5845:5848   */\n      dup5\n        /* \"#utility.yul\":5841:5857   */\n      add\n        /* \"#utility.yul\":5838:5863   */\n      gt\n        /* \"#utility.yul\":5835:5947   */\n      iszero\n      tag_191\n      jumpi\n        /* \"#utility.yul\":5866:5945   */\n      tag_192\n      tag_98\n      jump\t// in\n    tag_192:\n        /* \"#utility.yul\":5835:5947   */\n    tag_191:\n        /* \"#utility.yul\":5956:6010   */\n      tag_193\n        /* \"#utility.yul\":6003:6009   */\n      dup5\n        /* \"#utility.yul\":5998:6001   */\n      dup3\n        /* \"#utility.yul\":5993:5996   */\n      dup6\n        /* \"#utility.yul\":5956:6010   */\n      tag_103\n      jump\t// in\n    tag_193:\n        /* \"#utility.yul\":5675:6016   */\n      pop\n        /* \"#utility.yul\":5591:6016   */\n      swap4\n      swap3\n      pop\n      pop\n      pop\n      jump\t// out\n        /* \"#utility.yul\":6036:6376   */\n    tag_105:\n        /* \"#utility.yul\":6092:6097   */\n      0x00\n        /* \"#utility.yul\":6141:6144   */\n      dup3\n        /* \"#utility.yul\":6134:6138   */\n      0x1f\n        /* \"#utility.yul\":6126:6132   */\n      dup4\n        /* \"#utility.yul\":6122:6139   */\n      add\n        /* \"#utility.yul\":6118:6145   */\n      slt\n        /* \"#utility.yul\":6108:6230   */\n      tag_195\n      jumpi\n        /* \"#utility.yul\":6149:6228   */\n      tag_196\n      tag_97\n      jump\t// in\n    tag_196:\n        /* \"#utility.yul\":6108:6230   */\n    tag_195:\n        /* \"#utility.yul\":6266:6272   */\n      dup2\n        /* \"#utility.yul\":6253:6273   */\n      calldataload\n        /* \"#utility.yul\":6291:6370   */\n      tag_197\n        /* \"#utility.yul\":6366:6369   */\n      dup5\n        /* \"#utility.yul\":6358:6364   */\n      dup3\n        /* \"#utility.yul\":6351:6355   */\n      0x20\n        /* \"#utility.yul\":6343:6349   */\n      dup7\n        /* \"#utility.yul\":6339:6356   */\n      add\n        /* \"#utility.yul\":6291:6370   */\n      tag_104\n      jump\t// in\n    tag_197:\n        /* \"#utility.yul\":6282:6370   */\n      swap2\n      pop\n        /* \"#utility.yul\":6098:6376   */\n      pop\n        /* \"#utility.yul\":6036:6376   */\n      swap3\n      swap2\n      pop\n      pop\n      jump\t// out\n        /* \"#utility.yul\":6382:6891   */\n    tag_18:\n        /* \"#utility.yul\":6451:6457   */\n      0x00\n        /* \"#utility.yul\":6500:6502   */\n      0x20\n        /* \"#utility.yul\":6488:6497   */\n      dup3\n        /* \"#utility.yul\":6479:6486   */\n      dup5\n        /* \"#utility.yul\":6475:6498   */\n      sub\n        /* \"#utility.yul\":6471:6503   */\n      slt\n        /* \"#utility.yul\":6468:6587   */\n      iszero\n      tag_199\n      jumpi\n        /* \"#utility.yul\":6506:6585   */\n      tag_200\n      tag_81\n      jump\t// in\n    tag_200:\n        /* \"#utility.yul\":6468:6587   */\n    tag_199:\n        /* \"#utility.yul\":6654:6655   */\n      0x00\n        /* \"#utility.yul\":6643:6652   */\n      dup3\n        /* \"#utility.yul\":6639:6656   */\n      add\n        /* \"#utility.yul\":6626:6657   */\n      calldataload\n        /* \"#utility.yul\":6684:6702   */\n      0xffffffffffffffff\n        /* \"#utility.yul\":6676:6682   */\n      dup2\n        /* \"#utility.yul\":6673:6703   */\n      gt\n        /* \"#utility.yul\":6670:6787   */\n      iszero\n      tag_201\n      jumpi\n        /* \"#utility.yul\":6706:6785   */\n      tag_202\n      tag_82\n      jump\t// in\n    tag_202:\n        /* \"#utility.yul\":6670:6787   */\n    tag_201:\n        /* \"#utility.yul\":6811:6874   */\n      tag_203\n        /* \"#utility.yul\":6866:6873   */\n      dup5\n        /* \"#utility.yul\":6857:6863   */\n      dup3\n        /* \"#utility.yul\":6846:6855   */\n      dup6\n        /* \"#utility.yul\":6842:6864   */\n      add\n        /* \"#utility.yul\":6811:6874   */\n      tag_105\n      jump\t// in\n    tag_203:\n        /* \"#utility.yul\":6801:6874   */\n      swap2\n      pop\n        /* \"#utility.yul\":6597:6884   */\n      pop\n        /* \"#utility.yul\":6382:6891   */\n      swap3\n      swap2\n      pop\n      pop\n      jump\t// out\n        /* \"#utility.yul\":6897:7066   */\n    tag_106:\n        /* \"#utility.yul\":6981:6992   */\n      0x00\n        /* \"#utility.yul\":7015:7021   */\n      dup3\n        /* \"#utility.yul\":7010:7013   */\n      dup3\n        /* \"#utility.yul\":7003:7022   */\n      mstore\n        /* \"#utility.yul\":7055:7059   */\n      0x20\n        /* \"#utility.yul\":7050:7053   */\n      dup3\n        /* \"#utility.yul\":7046:7060   */\n      add\n        /* \"#utility.yul\":7031:7060   */\n      swap1\n      pop\n        /* \"#utility.yul\":6897:7066   */\n      swap3\n      swap2\n      pop\n      pop\n      jump\t// out\n        /* \"#utility.yul\":7072:7449   */\n    tag_107:\n        /* \"#utility.yul\":7160:7163   */\n      0x00\n        /* \"#utility.yul\":7188:7227   */\n      tag_206\n        /* \"#utility.yul\":7221:7226   */\n      dup3\n        /* \"#utility.yul\":7188:7227   */\n      tag_89\n      jump\t// in\n    tag_206:\n        /* \"#utility.yul\":7243:7314   */\n      tag_207\n        /* \"#utility.yul\":7307:7313   */\n      dup2\n        /* \"#utility.yul\":7302:7305   */\n      dup6\n        /* \"#utility.yul\":7243:7314   */\n      tag_106\n      jump\t// in\n    tag_207:\n        /* \"#utility.yul\":7236:7314   */\n      swap4\n      pop\n        /* \"#utility.yul\":7323:7388   */\n      tag_208\n        /* \"#utility.yul\":7381:7387   */\n      dup2\n        /* \"#utility.yul\":7376:7379   */\n      dup6\n        /* \"#utility.yul\":7369:7373   */\n      0x20\n        /* \"#utility.yul\":7362:7367   */\n      dup7\n        /* \"#utility.yul\":7358:7374   */\n      add\n        /* \"#utility.yul\":7323:7388   */\n      tag_91\n      jump\t// in\n    tag_208:\n        /* \"#utility.yul\":7413:7442   */\n      tag_209\n        /* \"#utility.yul\":7435:7441   */\n      dup2\n        /* \"#utility.yul\":7413:7442   */\n      tag_92\n      jump\t// in\n    tag_209:\n        /* \"#utility.yul\":7408:7411   */\n      dup5\n        /* \"#utility.yul\":7404:7443   */\n      add\n        /* \"#utility.yul\":7397:7443   */\n      swap2\n      pop\n        /* \"#utility.yul\":7164:7449   */\n      pop\n        /* \"#utility.yul\":7072:7449   */\n      swap3\n      swap2\n      pop\n      pop\n      jump\t// out\n        /* \"#utility.yul\":7455:7768   */\n    tag_24:\n        /* \"#utility.yul\":7568:7572   */\n      0x00\n        /* \"#utility.yul\":7606:7608   */\n      0x20\n        /* \"#utility.yul\":7595:7604   */\n      dup3\n        /* \"#utility.yul\":7591:7609   */\n      add\n        /* \"#utility.yul\":7583:7609   */\n      swap1\n      pop\n        /* \"#utility.yul\":7655:7664   */\n      dup2\n        /* \"#utility.yul\":7649:7653   */\n      dup2\n        /* \"#utility.yul\":7645:7665   */\n      sub\n        /* \"#utility.yul\":7641:7642   */\n      0x00\n        /* \"#utility.yul\":7630:7639   */\n      dup4\n        /* \"#utility.yul\":7626:7643   */\n      add\n        /* \"#utility.yul\":7619:7666   */\n      mstore\n        /* \"#utility.yul\":7683:7761   */\n      tag_211\n        /* \"#utility.yul\":7756:7760   */\n      dup2\n        /* \"#utility.yul\":7747:7753   */\n      dup5\n        /* \"#utility.yul\":7683:7761   */\n      tag_107\n      jump\t// in\n    tag_211:\n        /* \"#utility.yul\":7675:7761   */\n      swap1\n      pop\n        /* \"#utility.yul\":7455:7768   */\n      swap3\n      swap2\n      pop\n      pop\n      jump\t// out\n        /* \"#utility.yul\":7774:7892   */\n    tag_108:\n        /* \"#utility.yul\":7861:7885   */\n      tag_213\n        /* \"#utility.yul\":7879:7884   */\n      dup2\n        /* \"#utility.yul\":7861:7885   */\n      tag_83\n      jump\t// in\n    tag_213:\n        /* \"#utility.yul\":7856:7859   */\n      dup3\n        /* \"#utility.yul\":7849:7886   */\n      mstore\n        /* \"#utility.yul\":7774:7892   */\n      pop\n      pop\n      jump\t// out\n        /* \"#utility.yul\":7898:8120   */\n    tag_28:\n        /* \"#utility.yul\":7991:7995   */\n      0x00\n        /* \"#utility.yul\":8029:8031   */\n      0x20\n        /* \"#utility.yul\":8018:8027   */\n      dup3\n        /* \"#utility.yul\":8014:8032   */\n      add\n        /* \"#utility.yul\":8006:8032   */\n      swap1\n      pop\n        /* \"#utility.yul\":8042:8113   */\n      tag_215\n        /* \"#utility.yul\":8110:8111   */\n      0x00\n        /* \"#utility.yul\":8099:8108   */\n      dup4\n        /* \"#utility.yul\":8095:8112   */\n      add\n        /* \"#utility.yul\":8086:8092   */\n      dup5\n        /* \"#utility.yul\":8042:8113   */\n      tag_108\n      jump\t// in\n    tag_215:\n        /* \"#utility.yul\":7898:8120   */\n      swap3\n      swap2\n      pop\n      pop\n      jump\t// out\n        /* \"#utility.yul\":8126:8307   */\n    tag_109:\n        /* \"#utility.yul\":8266:8299   */\n      0x5468697320746f646f20696e64657820646f6573206e6f742065786973742e00\n        /* \"#utility.yul\":8262:8263   */\n      0x00\n        /* \"#utility.yul\":8254:8260   */\n      dup3\n        /* \"#utility.yul\":8250:8264   */\n      add\n        /* \"#utility.yul\":8243:8300   */\n      mstore\n        /* \"#utility.yul\":8126:8307   */\n      pop\n      jump\t// out\n        /* \"#utility.yul\":8313:8679   */\n    tag_110:\n        /* \"#utility.yul\":8455:8458   */\n      0x00\n        /* \"#utility.yul\":8476:8543   */\n      tag_218\n        /* \"#utility.yul\":8540:8542   */\n      0x1f\n        /* \"#utility.yul\":8535:8538   */\n      dup4\n        /* \"#utility.yul\":8476:8543   */\n      tag_106\n      jump\t// in\n    tag_218:\n        /* \"#utility.yul\":8469:8543   */\n      swap2\n      pop\n        /* \"#utility.yul\":8552:8645   */\n      tag_219\n        /* \"#utility.yul\":8641:8644   */\n      dup3\n        /* \"#utility.yul\":8552:8645   */\n      tag_109\n      jump\t// in\n    tag_219:\n        /* \"#utility.yul\":8670:8672   */\n      0x20\n        /* \"#utility.yul\":8665:8668   */\n      dup3\n        /* \"#utility.yul\":8661:8673   */\n      add\n        /* \"#utility.yul\":8654:8673   */\n      swap1\n      pop\n        /* \"#utility.yul\":8313:8679   */\n      swap2\n      swap1\n      pop\n      jump\t// out\n        /* \"#utility.yul\":8685:9104   */\n    tag_32:\n        /* \"#utility.yul\":8851:8855   */\n      0x00\n        /* \"#utility.yul\":8889:8891   */\n      0x20\n        /* \"#utility.yul\":8878:8887   */\n      dup3\n        /* \"#utility.yul\":8874:8892   */\n      add\n        /* \"#utility.yul\":8866:8892   */\n      swap1\n      pop\n        /* \"#utility.yul\":8938:8947   */\n      dup2\n        /* \"#utility.yul\":8932:8936   */\n      dup2\n        /* \"#utility.yul\":8928:8948   */\n      sub\n        /* \"#utility.yul\":8924:8925   */\n      0x00\n        /* \"#utility.yul\":8913:8922   */\n      dup4\n        /* \"#utility.yul\":8909:8926   */\n      add\n        /* \"#utility.yul\":8902:8949   */\n      mstore\n        /* \"#utility.yul\":8966:9097   */\n      tag_221\n        /* \"#utility.yul\":9092:9096   */\n      dup2\n        /* \"#utility.yul\":8966:9097   */\n      tag_110\n      jump\t// in\n    tag_221:\n        /* \"#utility.yul\":8958:9097   */\n      swap1\n      pop\n        /* \"#utility.yul\":8685:9104   */\n      swap2\n      swap1\n      pop\n      jump\t// out\n        /* \"#utility.yul\":9110:9290   */\n    tag_111:\n        /* \"#utility.yul\":9158:9235   */\n      0x4e487b7100000000000000000000000000000000000000000000000000000000\n        /* \"#utility.yul\":9155:9156   */\n      0x00\n        /* \"#utility.yul\":9148:9236   */\n      mstore\n        /* \"#utility.yul\":9255:9259   */\n      0x11\n        /* \"#utility.yul\":9252:9253   */\n      0x04\n        /* \"#utility.yul\":9245:9260   */\n      mstore\n        /* \"#utility.yul\":9279:9283   */\n      0x24\n        /* \"#utility.yul\":9276:9277   */\n      0x00\n        /* \"#utility.yul\":9269:9284   */\n      revert\n        /* \"#utility.yul\":9296:9490   */\n    tag_35:\n        /* \"#utility.yul\":9336:9340   */\n      0x00\n        /* \"#utility.yul\":9356:9376   */\n      tag_224\n        /* \"#utility.yul\":9374:9375   */\n      dup3\n        /* \"#utility.yul\":9356:9376   */\n      tag_83\n      jump\t// in\n    tag_224:\n        /* \"#utility.yul\":9351:9376   */\n      swap2\n      pop\n        /* \"#utility.yul\":9390:9410   */\n      tag_225\n        /* \"#utility.yul\":9408:9409   */\n      dup4\n        /* \"#utility.yul\":9390:9410   */\n      tag_83\n      jump\t// in\n    tag_225:\n        /* \"#utility.yul\":9385:9410   */\n      swap3\n      pop\n        /* \"#utility.yul\":9434:9435   */\n      dup3\n        /* \"#utility.yul\":9431:9432   */\n      dup3\n        /* \"#utility.yul\":9427:9436   */\n      sub\n        /* \"#utility.yul\":9419:9436   */\n      swap1\n      pop\n        /* \"#utility.yul\":9458:9459   */\n      dup2\n        /* \"#utility.yul\":9452:9456   */\n      dup2\n        /* \"#utility.yul\":9449:9460   */\n      gt\n        /* \"#utility.yul\":9446:9483   */\n      iszero\n      tag_226\n      jumpi\n        /* \"#utility.yul\":9463:9481   */\n      tag_227\n      tag_111\n      jump\t// in\n    tag_227:\n        /* \"#utility.yul\":9446:9483   */\n    tag_226:\n        /* \"#utility.yul\":9296:9490   */\n      swap3\n      swap2\n      pop\n      pop\n      jump\t// out\n        /* \"#utility.yul\":9496:9676   */\n    tag_38:\n        /* \"#utility.yul\":9544:9621   */\n      0x4e487b7100000000000000000000000000000000000000000000000000000000\n        /* \"#utility.yul\":9541:9542   */\n      0x00\n        /* \"#utility.yul\":9534:9622   */\n      mstore\n        /* \"#utility.yul\":9641:9645   */\n      0x32\n        /* \"#utility.yul\":9638:9639   */\n      0x04\n        /* \"#utility.yul\":9631:9646   */\n      mstore\n        /* \"#utility.yul\":9665:9669   */\n      0x24\n        /* \"#utility.yul\":9662:9663   */\n      0x00\n        /* \"#utility.yul\":9655:9670   */\n      revert\n        /* \"#utility.yul\":9682:9862   */\n    tag_112:\n        /* \"#utility.yul\":9730:9807   */\n      0x4e487b7100000000000000000000000000000000000000000000000000000000\n        /* \"#utility.yul\":9727:9728   */\n      0x00\n        /* \"#utility.yul\":9720:9808   */\n      mstore\n        /* \"#utility.yul\":9827:9831   */\n      0x22\n        /* \"#utility.yul\":9824:9825   */\n      0x04\n        /* \"#utility.yul\":9817:9832   */\n      mstore\n        /* \"#utility.yul\":9851:9855   */\n      0x24\n        /* \"#utility.yul\":9848:9849   */\n      0x00\n        /* \"#utility.yul\":9841:9856   */\n      revert\n        /* \"#utility.yul\":9868:10188   */\n    tag_56:\n        /* \"#utility.yul\":9912:9918   */\n      0x00\n        /* \"#utility.yul\":9949:9950   */\n      0x02\n        /* \"#utility.yul\":9943:9947   */\n      dup3\n        /* \"#utility.yul\":9939:9951   */\n      div\n        /* \"#utility.yul\":9929:9951   */\n      swap1\n      pop\n        /* \"#utility.yul\":9996:9997   */\n      0x01\n        /* \"#utility.yul\":9990:9994   */\n      dup3\n        /* \"#utility.yul\":9986:9998   */\n      and\n        /* \"#utility.yul\":10017:10035   */\n      dup1\n        /* \"#utility.yul\":10007:10088   */\n      tag_231\n      jumpi\n        /* \"#utility.yul\":10073:10077   */\n      0x7f\n        /* \"#utility.yul\":10065:10071   */\n      dup3\n        /* \"#utility.yul\":10061:10078   */\n      and\n        /* \"#utility.yul\":10051:10078   */\n      swap2\n      pop\n        /* \"#utility.yul\":10007:10088   */\n    tag_231:\n        /* \"#utility.yul\":10135:10137   */\n      0x20\n        /* \"#utility.yul\":10127:10133   */\n      dup3\n        /* \"#utility.yul\":10124:10138   */\n      lt\n        /* \"#utility.yul\":10104:10122   */\n      dup2\n        /* \"#utility.yul\":10101:10139   */\n      sub\n        /* \"#utility.yul\":10098:10182   */\n      tag_232\n      jumpi\n        /* \"#utility.yul\":10154:10172   */\n      tag_233\n      tag_112\n      jump\t// in\n    tag_233:\n        /* \"#utility.yul\":10098:10182   */\n    tag_232:\n        /* \"#utility.yul\":9919:10188   */\n      pop\n        /* \"#utility.yul\":9868:10188   */\n      swap2\n      swap1\n      pop\n      jump\t// out\n        /* \"#utility.yul\":10194:10347   */\n    tag_113:\n        /* \"#utility.yul\":10247:10253   */\n      0x00\n        /* \"#utility.yul\":10281:10286   */\n      dup2\n        /* \"#utility.yul\":10275:10287   */\n      sload\n        /* \"#utility.yul\":10265:10287   */\n      swap1\n      pop\n        /* \"#utility.yul\":10307:10340   */\n      tag_235\n        /* \"#utility.yul\":10333:10339   */\n      dup2\n        /* \"#utility.yul\":10307:10340   */\n      tag_56\n      jump\t// in\n    tag_235:\n        /* \"#utility.yul\":10297:10340   */\n      swap1\n      pop\n        /* \"#utility.yul\":10194:10347   */\n      swap2\n      swap1\n      pop\n      jump\t// out\n        /* \"#utility.yul\":10353:10494   */\n    tag_114:\n        /* \"#utility.yul\":10402:10406   */\n      0x00\n        /* \"#utility.yul\":10425:10428   */\n      dup2\n        /* \"#utility.yul\":10417:10428   */\n      swap1\n      pop\n        /* \"#utility.yul\":10448:10451   */\n      dup2\n        /* \"#utility.yul\":10445:10446   */\n      0x00\n        /* \"#utility.yul\":10438:10452   */\n      mstore\n        /* \"#utility.yul\":10482:10486   */\n      0x20\n        /* \"#utility.yul\":10479:10480   */\n      0x00\n        /* \"#utility.yul\":10469:10487   */\n      keccak256\n        /* \"#utility.yul\":10461:10487   */\n      swap1\n      pop\n        /* \"#utility.yul\":10353:10494   */\n      swap2\n      swap1\n      pop\n      jump\t// out\n        /* \"#utility.yul\":10500:10645   */\n    tag_115:\n        /* \"#utility.yul\":10553:10557   */\n      0x00\n        /* \"#utility.yul\":10576:10579   */\n      dup2\n        /* \"#utility.yul\":10568:10579   */\n      swap1\n      pop\n        /* \"#utility.yul\":10599:10602   */\n      dup2\n        /* \"#utility.yul\":10596:10597   */\n      0x00\n        /* \"#utility.yul\":10589:10603   */\n      mstore\n        /* \"#utility.yul\":10633:10637   */\n      0x20\n        /* \"#utility.yul\":10630:10631   */\n      0x00\n        /* \"#utility.yul\":10620:10638   */\n      keccak256\n        /* \"#utility.yul\":10612:10638   */\n      swap1\n      pop\n        /* \"#utility.yul\":10500:10645   */\n      swap2\n      swap1\n      pop\n      jump\t// out\n        /* \"#utility.yul\":10651:10744   */\n    tag_116:\n        /* \"#utility.yul\":10688:10694   */\n      0x00\n        /* \"#utility.yul\":10735:10737   */\n      0x20\n        /* \"#utility.yul\":10730:10732   */\n      0x1f\n        /* \"#utility.yul\":10723:10728   */\n      dup4\n        /* \"#utility.yul\":10719:10733   */\n      add\n        /* \"#utility.yul\":10715:10738   */\n      div\n        /* \"#utility.yul\":10705:10738   */\n      swap1\n      pop\n        /* \"#utility.yul\":10651:10744   */\n      swap2\n      swap1\n      pop\n      jump\t// out\n        /* \"#utility.yul\":10750:10857   */\n    tag_117:\n        /* \"#utility.yul\":10794:10802   */\n      0x00\n        /* \"#utility.yul\":10844:10849   */\n      dup3\n        /* \"#utility.yul\":10838:10842   */\n      dup3\n        /* \"#utility.yul\":10834:10850   */\n      shl\n        /* \"#utility.yul\":10813:10850   */\n      swap1\n      pop\n        /* \"#utility.yul\":10750:10857   */\n      swap3\n      swap2\n      pop\n      pop\n      jump\t// out\n        /* \"#utility.yul\":10863:11256   */\n    tag_118:\n        /* \"#utility.yul\":10932:10938   */\n      0x00\n        /* \"#utility.yul\":10982:10983   */\n      0x08\n        /* \"#utility.yul\":10970:10980   */\n      dup4\n        /* \"#utility.yul\":10966:10984   */\n      mul\n        /* \"#utility.yul\":11005:11102   */\n      tag_241\n        /* \"#utility.yul\":11035:11101   */\n      0xffffffffffffffffffffffffffffffffffffffffffffffffffffffffffffffff\n        /* \"#utility.yul\":11024:11033   */\n      dup3\n        /* \"#utility.yul\":11005:11102   */\n      tag_117\n      jump\t// in\n    tag_241:\n        /* \"#utility.yul\":11123:11162   */\n      tag_242\n        /* \"#utility.yul\":11153:11161   */\n      dup7\n        /* \"#utility.yul\":11142:11151   */\n      dup4\n        /* \"#utility.yul\":11123:11162   */\n      tag_117\n      jump\t// in\n    tag_242:\n        /* \"#utility.yul\":11111:11162   */\n      swap6\n      pop\n        /* \"#utility.yul\":11195:11199   */\n      dup1\n        /* \"#utility.yul\":11191:11200   */\n      not\n        /* \"#utility.yul\":11184:11189   */\n      dup5\n        /* \"#utility.yul\":11180:11201   */\n      and\n        /* \"#utility.yul\":11171:11201   */\n      swap4\n      pop\n        /* \"#utility.yul\":11244:11248   */\n      dup1\n        /* \"#utility.yul\":11234:11242   */\n      dup7\n        /* \"#utility.yul\":11230:11249   */\n      and\n        /* \"#utility.yul\":11223:11228   */\n      dup5\n        /* \"#utility.yul\":11220:11250   */\n      or\n        /* \"#utility.yul\":11210:11250   */\n      swap3\n      pop\n        /* \"#utility.yul\":10939:11256   */\n      pop\n      pop\n        /* \"#utility.yul\":10863:11256   */\n      swap4\n      swap3\n      pop\n      pop\n      pop\n      jump\t// out\n        /* \"#utility.yul\":11262:11322   */\n    tag_119:\n        /* \"#utility.yul\":11290:11293   */\n      0x00\n        /* \"#utility.yul\":11311:11316   */\n      dup2\n        /* \"#utility.yul\":11304:11316   */\n      swap1\n      pop\n        /* \"#utility.yul\":11262:11322   */\n      swap2\n      swap1\n      pop\n      jump\t// out\n        /* \"#utility.yul\":11328:11470   */\n    tag_120:\n        /* \"#utility.yul\":11378:11387   */\n      0x00\n        /* \"#utility.yul\":11411:11464   */\n      tag_245\n        /* \"#utility.yul\":11429:11463   */\n      tag_246\n        /* \"#utility.yul\":11438:11462   */\n      tag_247\n        /* \"#utility.yul\":11456:11461   */\n      dup5\n        /* \"#utility.yul\":11438:11462   */\n      tag_83\n      jump\t// in\n    tag_247:\n        /* \"#utility.yul\":11429:11463   */\n      tag_119\n      jump\t// in\n    tag_246:\n        /* \"#utility.yul\":11411:11464   */\n      tag_83\n      jump\t// in\n    tag_245:\n        /* \"#utility.yul\":11398:11464   */\n      swap1\n      pop\n        /* \"#utility.yul\":11328:11470   */\n      swap2\n      swap1\n      pop\n      jump\t// out\n        /* \"#utility.yul\":11476:11551   */\n    tag_121:\n        /* \"#utility.yul\":11519:11522   */\n      0x00\n        /* \"#utility.yul\":11540:11545   */\n      dup2\n        /* \"#utility.yul\":11533:11545   */\n      swap1\n      pop\n        /* \"#utility.yul\":11476:11551   */\n      swap2\n      swap1\n      pop\n      jump\t// out\n        /* \"#utility.yul\":11557:11826   */\n    tag_122:\n        /* \"#utility.yul\":11667:11706   */\n      tag_250\n        /* \"#utility.yul\":11698:11705   */\n      dup4\n        /* \"#utility.yul\":11667:11706   */\n      tag_120\n      jump\t// in\n    tag_250:\n        /* \"#utility.yul\":11728:11819   */\n      tag_251\n        /* \"#utility.yul\":11777:11818   */\n      tag_252\n        /* \"#utility.yul\":11801:11817   */\n      dup3\n        /* \"#utility.yul\":11777:11818   */\n      tag_121\n      jump\t// in\n    tag_252:\n        /* \"#utility.yul\":11769:11775   */\n      dup5\n        /* \"#utility.yul\":11762:11766   */\n      dup5\n        /* \"#utility.yul\":11756:11767   */\n      sload\n        /* \"#utility.yul\":11728:11819   */\n      tag_118\n      jump\t// in\n    tag_251:\n        /* \"#utility.yul\":11722:11726   */\n      dup3\n        /* \"#utility.yul\":11715:11820   */\n      sstore\n        /* \"#utility.yul\":11633:11826   */\n      pop\n        /* \"#utility.yul\":11557:11826   */\n      pop\n      pop\n      pop\n      jump\t// out\n        /* \"#utility.yul\":11832:11905   */\n    tag_123:\n        /* \"#utility.yul\":11877:11880   */\n      0x00\n        /* \"#utility.yul\":11832:11905   */\n      swap1\n      jump\t// out\n        /* \"#utility.yul\":11911:12100   */\n    tag_124:\n        /* \"#utility.yul\":11988:12020   */\n      tag_255\n      tag_123\n      jump\t// in\n    tag_255:\n        /* \"#utility.yul\":12029:12094   */\n      tag_256\n        /* \"#utility.yul\":12087:12093   */\n      dup2\n        /* \"#utility.yul\":12079:12085   */\n      dup5\n        /* \"#utility.yul\":12073:12077   */\n      dup5\n        /* \"#utility.yul\":12029:12094   */\n      tag_122\n      jump\t// in\n    tag_256:\n        /* \"#utility.yul\":11964:12100   */\n      pop\n        /* \"#utility.yul\":11911:12100   */\n      pop\n      pop\n      jump\t// out\n        /* \"#utility.yul\":12106:12292   */\n    tag_125:\n        /* \"#utility.yul\":12166:12286   */\n    tag_258:\n        /* \"#utility.yul\":12183:12186   */\n      dup2\n        /* \"#utility.yul\":12176:12181   */\n      dup2\n        /* \"#utility.yul\":12173:12187   */\n      lt\n        /* \"#utility.yul\":12166:12286   */\n      iszero\n      tag_260\n      jumpi\n        /* \"#utility.yul\":12237:12276   */\n      tag_261\n        /* \"#utility.yul\":12274:12275   */\n      0x00\n        /* \"#utility.yul\":12267:12272   */\n      dup3\n        /* \"#utility.yul\":12237:12276   */\n      tag_124\n      jump\t// in\n    tag_261:\n        /* \"#utility.yul\":12210:12211   */\n      0x01\n        /* \"#utility.yul\":12203:12208   */\n      dup2\n        /* \"#utility.yul\":12199:12212   */\n      add\n        /* \"#utility.yul\":12190:12212   */\n      swap1\n      pop\n        /* \"#utility.yul\":12166:12286   */\n      jump(tag_258)\n    tag_260:\n        /* \"#utility.yul\":12106:12292   */\n      pop\n      pop\n      jump\t// out\n        /* \"#utility.yul\":12298:12841   */\n    tag_126:\n        /* \"#utility.yul\":12399:12401   */\n      0x1f\n        /* \"#utility.yul\":12394:12397   */\n      dup3\n        /* \"#utility.yul\":12391:12402   */\n      gt\n        /* \"#utility.yul\":12388:12834   */\n      iszero\n      tag_263\n      jumpi\n        /* \"#utility.yul\":12433:12471   */\n      tag_264\n        /* \"#utility.yul\":12465:12470   */\n      dup2\n        /* \"#utility.yul\":12433:12471   */\n      tag_114\n      jump\t// in\n    tag_264:\n        /* \"#utility.yul\":12517:12546   */\n      tag_265\n        /* \"#utility.yul\":12535:12545   */\n      dup5\n        /* \"#utility.yul\":12517:12546   */\n      tag_116\n      jump\t// in\n    tag_265:\n        /* \"#utility.yul\":12507:12515   */\n      dup2\n        /* \"#utility.yul\":12503:12547   */\n      add\n        /* \"#utility.yul\":12700:12702   */\n      0x20\n        /* \"#utility.yul\":12688:12698   */\n      dup6\n        /* \"#utility.yul\":12685:12703   */\n      lt\n        /* \"#utility.yul\":12682:12731   */\n      iszero\n      tag_266\n      jumpi\n        /* \"#utility.yul\":12721:12729   */\n      dup2\n        /* \"#utility.yul\":12706:12729   */\n      swap1\n      pop\n        /* \"#utility.yul\":12682:12731   */\n    tag_266:\n        /* \"#utility.yul\":12744:12824   */\n      tag_267\n        /* \"#utility.yul\":12800:12822   */\n      tag_268\n        /* \"#utility.yul\":12818:12821   */\n      dup6\n        /* \"#utility.yul\":12800:12822   */\n      tag_116\n      jump\t// in\n    tag_268:\n        /* \"#utility.yul\":12790:12798   */\n      dup4\n        /* \"#utility.yul\":12786:12823   */\n      add\n        /* \"#utility.yul\":12773:12784   */\n      dup3\n        /* \"#utility.yul\":12744:12824   */\n      tag_125\n      jump\t// in\n    tag_267:\n        /* \"#utility.yul\":12403:12834   */\n      pop\n      pop\n        /* \"#utility.yul\":12388:12834   */\n    tag_263:\n        /* \"#utility.yul\":12298:12841   */\n      pop\n      pop\n      pop\n      jump\t// out\n        /* \"#utility.yul\":12847:12964   */\n    tag_127:\n        /* \"#utility.yul\":12901:12909   */\n      0x00\n        /* \"#utility.yul\":12951:12956   */\n      dup3\n        /* \"#utility.yul\":12945:12949   */\n      dup3\n        /* \"#utility.yul\":12941:12957   */\n      shr\n        /* \"#utility.yul\":12920:12957   */\n      swap1\n      pop\n        /* \"#utility.yul\":12847:12964   */\n      swap3\n      swap2\n      pop\n      pop\n      jump\t// out\n        /* \"#utility.yul\":12970:13139   */\n    tag_128:\n        /* \"#utility.yul\":13014:13020   */\n      0x00\n        /* \"#utility.yul\":13047:13098   */\n      tag_271\n        /* \"#utility.yul\":13095:13096   */\n      0x00\n        /* \"#utility.yul\":13091:13097   */\n      not\n        /* \"#utility.yul\":13083:13088   */\n      dup5\n        /* \"#utility.yul\":13080:13081   */\n      0x08\n        /* \"#utility.yul\":13076:13089   */\n      mul\n        /* \"#utility.yul\":13047:13098   */\n      tag_127\n      jump\t// in\n    tag_271:\n        /* \"#utility.yul\":13043:13099   */\n      not\n        /* \"#utility.yul\":13128:13132   */\n      dup1\n        /* \"#utility.yul\":13122:13126   */\n      dup4\n        /* \"#utility.yul\":13118:13133   */\n      and\n        /* \"#utility.yul\":13108:13133   */\n      swap2\n      pop\n        /* \"#utility.yul\":13021:13139   */\n      pop\n        /* \"#utility.yul\":12970:13139   */\n      swap3\n      swap2\n      pop\n      pop\n      jump\t// out\n        /* \"#utility.yul\":13144:13439   */\n    tag_129:\n        /* \"#utility.yul\":13220:13224   */\n      0x00\n        /* \"#utility.yul\":13366:13395   */\n      tag_273\n        /* \"#utility.yul\":13391:13394   */\n      dup4\n        /* \"#utility.yul\":13385:13389   */\n      dup4\n        /* \"#utility.yul\":13366:13395   */\n      tag_128\n      jump\t// in\n    tag_273:\n        /* \"#utility.yul\":13358:13395   */\n      swap2\n      pop\n        /* \"#utility.yul\":13428:13431   */\n      dup3\n        /* \"#utility.yul\":13425:13426   */\n      0x02\n        /* \"#utility.yul\":13421:13432   */\n      mul\n        /* \"#utility.yul\":13415:13419   */\n      dup3\n        /* \"#utility.yul\":13412:13433   */\n      or\n        /* \"#utility.yul\":13404:13433   */\n      swap1\n      pop\n        /* \"#utility.yul\":13144:13439   */\n      swap3\n      swap2\n      pop\n      pop\n      jump\t// out\n        /* \"#utility.yul\":13444:14907   */\n    tag_44:\n        /* \"#utility.yul\":13559:13562   */\n      dup2\n        /* \"#utility.yul\":13553:13557   */\n      dup2\n        /* \"#utility.yul\":13550:13563   */\n      sub\n        /* \"#utility.yul\":13547:13573   */\n      tag_275\n      jumpi\n        /* \"#utility.yul\":13566:13571   */\n      pop\n      pop\n      jump(tag_274)\n        /* \"#utility.yul\":13547:13573   */\n    tag_275:\n        /* \"#utility.yul\":13597:13635   */\n      tag_276\n        /* \"#utility.yul\":13631:13634   */\n      dup3\n        /* \"#utility.yul\":13597:13635   */\n      tag_113\n      jump\t// in\n    tag_276:\n        /* \"#utility.yul\":13700:13718   */\n      0xffffffffffffffff\n        /* \"#utility.yul\":13692:13698   */\n      dup2\n        /* \"#utility.yul\":13689:13719   */\n      gt\n        /* \"#utility.yul\":13686:13742   */\n      iszero\n      tag_277\n      jumpi\n        /* \"#utility.yul\":13722:13740   */\n      tag_278\n      tag_99\n      jump\t// in\n    tag_278:\n        /* \"#utility.yul\":13686:13742   */\n    tag_277:\n        /* \"#utility.yul\":13766:13804   */\n      tag_279\n        /* \"#utility.yul\":13798:13802   */\n      dup3\n        /* \"#utility.yul\":13792:13803   */\n      sload\n        /* \"#utility.yul\":13766:13804   */\n      tag_56\n      jump\t// in\n    tag_279:\n        /* \"#utility.yul\":13851:13918   */\n      tag_280\n        /* \"#utility.yul\":13911:13917   */\n      dup3\n        /* \"#utility.yul\":13903:13909   */\n      dup3\n        /* \"#utility.yul\":13897:13901   */\n      dup6\n        /* \"#utility.yul\":13851:13918   */\n      tag_126\n      jump\t// in\n    tag_280:\n        /* \"#utility.yul\":13945:13946   */\n      0x00\n        /* \"#utility.yul\":13974:13976   */\n      0x1f\n        /* \"#utility.yul\":13966:13972   */\n      dup4\n        /* \"#utility.yul\":13963:13977   */\n      gt\n        /* \"#utility.yul\":13991:13992   */\n      0x01\n        /* \"#utility.yul\":13986:14662   */\n      dup2\n      eq\n      tag_282\n      jumpi\n        /* \"#utility.yul\":14706:14707   */\n      0x00\n        /* \"#utility.yul\":14723:14729   */\n      dup5\n        /* \"#utility.yul\":14720:14797   */\n      iszero\n      tag_283\n      jumpi\n        /* \"#utility.yul\":14772:14781   */\n      dup3\n        /* \"#utility.yul\":14767:14770   */\n      dup8\n        /* \"#utility.yul\":14763:14782   */\n      add\n        /* \"#utility.yul\":14757:14783   */\n      sload\n        /* \"#utility.yul\":14748:14783   */\n      swap1\n      pop\n        /* \"#utility.yul\":14720:14797   */\n    tag_283:\n        /* \"#utility.yul\":14823:14890   */\n      tag_284\n        /* \"#utility.yul\":14883:14889   */\n      dup6\n        /* \"#utility.yul\":14876:14881   */\n      dup3\n        /* \"#utility.yul\":14823:14890   */\n      tag_129\n      jump\t// in\n    tag_284:\n        /* \"#utility.yul\":14817:14821   */\n      dup7\n        /* \"#utility.yul\":14810:14891   */\n      sstore\n        /* \"#utility.yul\":14679:14901   */\n      pop\n        /* \"#utility.yul\":13956:14901   */\n      jump(tag_281)\n        /* \"#utility.yul\":13986:14662   */\n    tag_282:\n        /* \"#utility.yul\":14038:14042   */\n      0x1f\n        /* \"#utility.yul\":14034:14043   */\n      not\n        /* \"#utility.yul\":14026:14032   */\n      dup5\n        /* \"#utility.yul\":14022:14044   */\n      and\n        /* \"#utility.yul\":14064:14104   */\n      tag_285\n        /* \"#utility.yul\":14100:14103   */\n      dup8\n        /* \"#utility.yul\":14064:14104   */\n      tag_115\n      jump\t// in\n    tag_285:\n        /* \"#utility.yul\":14057:14104   */\n      swap7\n      pop\n        /* \"#utility.yul\":14131:14168   */\n      tag_286\n        /* \"#utility.yul\":14163:14167   */\n      dup7\n        /* \"#utility.yul\":14131:14168   */\n      tag_114\n      jump\t// in\n    tag_286:\n        /* \"#utility.yul\":14190:14191   */\n      0x00\n        /* \"#utility.yul\":14204:14411   */\n    tag_287:\n        /* \"#utility.yul\":14218:14225   */\n      dup3\n        /* \"#utility.yul\":14215:14216   */\n      dup2\n        /* \"#utility.yul\":14212:14226   */\n      lt\n        /* \"#utility.yul\":14204:14411   */\n      iszero\n      tag_289\n      jumpi\n        /* \"#utility.yul\":14297:14306   */\n      dup5\n        /* \"#utility.yul\":14292:14295   */\n      dup10\n        /* \"#utility.yul\":14288:14307   */\n      add\n        /* \"#utility.yul\":14282:14308   */\n      sload\n        /* \"#utility.yul\":14274:14280   */\n      dup3\n        /* \"#utility.yul\":14267:14309   */\n      sstore\n        /* \"#utility.yul\":14348:14349   */\n      0x01\n        /* \"#utility.yul\":14340:14346   */\n      dup3\n        /* \"#utility.yul\":14336:14350   */\n      add\n        /* \"#utility.yul\":14326:14350   */\n      swap2\n      pop\n        /* \"#utility.yul\":14395:14396   */\n      0x01\n        /* \"#utility.yul\":14384:14393   */\n      dup6\n        /* \"#utility.yul\":14380:14397   */\n      add\n        /* \"#utility.yul\":14367:14397   */\n      swap5\n      pop\n        /* \"#utility.yul\":14241:14245   */\n      0x20\n        /* \"#utility.yul\":14238:14239   */\n      dup2\n        /* \"#utility.yul\":14234:14246   */\n      add\n        /* \"#utility.yul\":14229:14246   */\n      swap1\n      pop\n        /* \"#utility.yul\":14204:14411   */\n      jump(tag_287)\n    tag_289:\n        /* \"#utility.yul\":14439:14445   */\n      dup7\n        /* \"#utility.yul\":14430:14437   */\n      dup4\n        /* \"#utility.yul\":14427:14446   */\n      lt\n        /* \"#utility.yul\":14424:14603   */\n      iszero\n      tag_290\n      jumpi\n        /* \"#utility.yul\":14497:14506   */\n      dup5\n        /* \"#utility.yul\":14492:14495   */\n      dup10\n        /* \"#utility.yul\":14488:14507   */\n      add\n        /* \"#utility.yul\":14482:14508   */\n      sload\n        /* \"#utility.yul\":14540:14588   */\n      tag_291\n        /* \"#utility.yul\":14582:14586   */\n      0x1f\n        /* \"#utility.yul\":14574:14580   */\n      dup10\n        /* \"#utility.yul\":14570:14587   */\n      and\n        /* \"#utility.yul\":14559:14568   */\n      dup3\n        /* \"#utility.yul\":14540:14588   */\n      tag_128\n      jump\t// in\n    tag_291:\n        /* \"#utility.yul\":14532:14538   */\n      dup4\n        /* \"#utility.yul\":14525:14589   */\n      sstore\n        /* \"#utility.yul\":14447:14603   */\n      pop\n        /* \"#utility.yul\":14424:14603   */\n    tag_290:\n        /* \"#utility.yul\":14649:14650   */\n      0x01\n        /* \"#utility.yul\":14645:14646   */\n      0x02\n        /* \"#utility.yul\":14637:14643   */\n      dup9\n        /* \"#utility.yul\":14633:14647   */\n      mul\n        /* \"#utility.yul\":14629:14651   */\n      add\n        /* \"#utility.yul\":14623:14627   */\n      dup9\n        /* \"#utility.yul\":14616:14652   */\n      sstore\n        /* \"#utility.yul\":13993:14662   */\n      pop\n      pop\n      pop\n        /* \"#utility.yul\":13956:14901   */\n    tag_281:\n      pop\n        /* \"#utility.yul\":13537:14907   */\n      pop\n      pop\n      pop\n        /* \"#utility.yul\":13444:14907   */\n      pop\n      pop\n    tag_274:\n      jump\t// out\n        /* \"#utility.yul\":14913:15093   */\n    tag_47:\n        /* \"#utility.yul\":14961:15038   */\n      0x4e487b7100000000000000000000000000000000000000000000000000000000\n        /* \"#utility.yul\":14958:14959   */\n      0x00\n        /* \"#utility.yul\":14951:15039   */\n      mstore\n        /* \"#utility.yul\":15058:15062   */\n      0x31\n        /* \"#utility.yul\":15055:15056   */\n      0x04\n        /* \"#utility.yul\":15048:15063   */\n      mstore\n        /* \"#utility.yul\":15082:15086   */\n      0x24\n        /* \"#utility.yul\":15079:15080   */\n      0x00\n        /* \"#utility.yul\":15072:15087   */\n      revert\n        /* \"#utility.yul\":15099:16494   */\n    tag_64:\n        /* \"#utility.yul\":15216:15253   */\n      tag_294\n        /* \"#utility.yul\":15249:15252   */\n      dup3\n        /* \"#utility.yul\":15216:15253   */\n      tag_89\n      jump\t// in\n    tag_294:\n        /* \"#utility.yul\":15318:15336   */\n      0xffffffffffffffff\n        /* \"#utility.yul\":15310:15316   */\n      dup2\n        /* \"#utility.yul\":15307:15337   */\n      gt\n        /* \"#utility.yul\":15304:15360   */\n      iszero\n      tag_295\n      jumpi\n        /* \"#utility.yul\":15340:15358   */\n      tag_296\n      tag_99\n      jump\t// in\n    tag_296:\n        /* \"#utility.yul\":15304:15360   */\n    tag_295:\n        /* \"#utility.yul\":15384:15422   */\n      tag_297\n        /* \"#utility.yul\":15416:15420   */\n      dup3\n        /* \"#utility.yul\":15410:15421   */\n      sload\n        /* \"#utility.yul\":15384:15422   */\n      tag_56\n      jump\t// in\n    tag_297:\n        /* \"#utility.yul\":15469:15536   */\n      tag_298\n        /* \"#utility.yul\":15529:15535   */\n      dup3\n        /* \"#utility.yul\":15521:15527   */\n      dup3\n        /* \"#utility.yul\":15515:15519   */\n      dup6\n        /* \"#utility.yul\":15469:15536   */\n      tag_126\n      jump\t// in\n    tag_298:\n        /* \"#utility.yul\":15563:15564   */\n      0x00\n        /* \"#utility.yul\":15587:15591   */\n      0x20\n        /* \"#utility.yul\":15574:15591   */\n      swap1\n      pop\n        /* \"#utility.yul\":15619:15621   */\n      0x1f\n        /* \"#utility.yul\":15611:15617   */\n      dup4\n        /* \"#utility.yul\":15608:15622   */\n      gt\n        /* \"#utility.yul\":15636:15637   */\n      0x01\n        /* \"#utility.yul\":15631:16249   */\n      dup2\n      eq\n      tag_300\n      jumpi\n        /* \"#utility.yul\":16293:16294   */\n      0x00\n        /* \"#utility.yul\":16310:16316   */\n      dup5\n        /* \"#utility.yul\":16307:16384   */\n      iszero\n      tag_301\n      jumpi\n        /* \"#utility.yul\":16359:16368   */\n      dup3\n        /* \"#utility.yul\":16354:16357   */\n      dup8\n        /* \"#utility.yul\":16350:16369   */\n      add\n        /* \"#utility.yul\":16344:16370   */\n      mload\n        /* \"#utility.yul\":16335:16370   */\n      swap1\n      pop\n        /* \"#utility.yul\":16307:16384   */\n    tag_301:\n        /* \"#utility.yul\":16410:16477   */\n      tag_302\n        /* \"#utility.yul\":16470:16476   */\n      dup6\n        /* \"#utility.yul\":16463:16468   */\n      dup3\n        /* \"#utility.yul\":16410:16477   */\n      tag_129\n      jump\t// in\n    tag_302:\n        /* \"#utility.yul\":16404:16408   */\n      dup7\n        /* \"#utility.yul\":16397:16478   */\n      sstore\n        /* \"#utility.yul\":16266:16488   */\n      pop\n        /* \"#utility.yul\":15601:16488   */\n      jump(tag_299)\n        /* \"#utility.yul\":15631:16249   */\n    tag_300:\n        /* \"#utility.yul\":15683:15687   */\n      0x1f\n        /* \"#utility.yul\":15679:15688   */\n      not\n        /* \"#utility.yul\":15671:15677   */\n      dup5\n        /* \"#utility.yul\":15667:15689   */\n      and\n        /* \"#utility.yul\":15717:15754   */\n      tag_303\n        /* \"#utility.yul\":15749:15753   */\n      dup7\n        /* \"#utility.yul\":15717:15754   */\n      tag_114\n      jump\t// in\n    tag_303:\n        /* \"#utility.yul\":15776:15777   */\n      0x00\n        /* \"#utility.yul\":15790:15998   */\n    tag_304:\n        /* \"#utility.yul\":15804:15811   */\n      dup3\n        /* \"#utility.yul\":15801:15802   */\n      dup2\n        /* \"#utility.yul\":15798:15812   */\n      lt\n        /* \"#utility.yul\":15790:15998   */\n      iszero\n      tag_306\n      jumpi\n        /* \"#utility.yul\":15883:15892   */\n      dup5\n        /* \"#utility.yul\":15878:15881   */\n      dup10\n        /* \"#utility.yul\":15874:15893   */\n      add\n        /* \"#utility.yul\":15868:15894   */\n      mload\n        /* \"#utility.yul\":15860:15866   */\n      dup3\n        /* \"#utility.yul\":15853:15895   */\n      sstore\n        /* \"#utility.yul\":15934:15935   */\n      0x01\n        /* \"#utility.yul\":15926:15932   */\n      dup3\n        /* \"#utility.yul\":15922:15936   */\n      add\n        /* \"#utility.yul\":15912:15936   */\n      swap2\n      pop\n        /* \"#utility.yul\":15981:15983   */\n      0x20\n        /* \"#utility.yul\":15970:15979   */\n      dup6\n        /* \"#utility.yul\":15966:15984   */\n      add\n        /* \"#utility.yul\":15953:15984   */\n      swap5\n      pop\n        /* \"#utility.yul\":15827:15831   */\n      0x20\n        /* \"#utility.yul\":15824:15825   */\n      dup2\n        /* \"#utility.yul\":15820:15832   */\n      add\n        /* \"#utility.yul\":15815:15832   */\n      swap1\n      pop\n        /* \"#utility.yul\":15790:15998   */\n      jump(tag_304)\n    tag_306:\n        /* \"#utility.yul\":16026:16032   */\n      dup7\n        /* \"#utility.yul\":16017:16024   */\n      dup4\n        /* \"#utility.yul\":16014:16033   */\n      lt\n        /* \"#utility.yul\":16011:16190   */\n      iszero\n      tag_307\n      jumpi\n        /* \"#utility.yul\":16084:16093   */\n      dup5\n        /* \"#utility.yul\":16079:16082   */\n      dup10\n        /* \"#utility.yul\":16075:16094   */\n      add\n        /* \"#utility.yul\":16069:16095   */\n      mload\n        /* \"#utility.yul\":16127:16175   */\n      tag_308\n        /* \"#utility.yul\":16169:16173   */\n      0x1f\n        /* \"#utility.yul\":16161:16167   */\n      dup10\n        /* \"#utility.yul\":16157:16174   */\n      and\n        /* \"#utility.yul\":16146:16155   */\n      dup3\n        /* \"#utility.yul\":16127:16175   */\n      tag_128\n      jump\t// in\n    tag_308:\n        /* \"#utility.yul\":16119:16125   */\n      dup4\n        /* \"#utility.yul\":16112:16176   */\n      sstore\n        /* \"#utility.yul\":16034:16190   */\n      pop\n        /* \"#utility.yul\":16011:16190   */\n    tag_307:\n        /* \"#utility.yul\":16236:16237   */\n      0x01\n        /* \"#utility.yul\":16232:16233   */\n      0x02\n        /* \"#utility.yul\":16224:16230   */\n      dup9\n        /* \"#utility.yul\":16220:16234   */\n      mul\n        /* \"#utility.yul\":16216:16238   */\n      add\n        /* \"#utility.yul\":16210:16214   */\n      dup9\n        /* \"#utility.yul\":16203:16239   */\n      sstore\n        /* \"#utility.yul\":15638:16249   */\n      pop\n      pop\n      pop\n        /* \"#utility.yul\":15601:16488   */\n    tag_299:\n      pop\n        /* \"#utility.yul\":15191:16494   */\n      pop\n      pop\n      pop\n        /* \"#utility.yul\":15099:16494   */\n      pop\n      pop\n      jump\t// out\n\n    auxdata: 0xa2646970667358221220fab4042d561178a9d42574ce1aebf14add43abe8ae5037c7c945cb0cf1c94fc964736f6c63430008120033\n}\n",
				"bytecode": {
					"linkReferences": {},
					"object": "608060405234801561001057600080fd5b50610d55806100206000396000f3fe608060405234801561001057600080fd5b50600436106100575760003560e01c8063549fd1511461005c5780637fa1680a14610078578063b9abac7414610096578063bc8bc2b4146100b2578063ec209aab146100e2575b600080fd5b6100766004803603810190610071919061044c565b610100565b005b6100806101d6565b60405161008d91906105cb565b60405180910390f35b6100b060048036038101906100ab9190610722565b6102af565b005b6100cc60048036038101906100c7919061044c565b6102e7565b6040516100d991906107b5565b60405180910390f35b6100ea610393565b6040516100f791906107e6565b60405180910390f35b6000805490508110610147576040517f08c379a000000000000000000000000000000000000000000000000000000000815260040161013e9061084d565b60405180910390fd5b60006001610153610393565b61015d919061089c565b8154811061016e5761016d6108d0565b5b906000526020600020016000828154811061018c5761018b6108d0565b5b9060005260206000200190816101a29190610b36565b5060008054806101b5576101b4610c1e565b5b6001900381819060005260206000200160006101d191906103a5565b905550565b60606000805480602002602001604051908101604052809291908181526020016000905b828210156102a65783829060005260206000200180546102199061092e565b80601f01602080910402602001604051908101604052809291908181526020018280546102459061092e565b80156102925780601f1061026757610100808354040283529160200191610292565b820191906000526020600020905b81548152906001019060200180831161027557829003601f168201915b5050505050815260200190600101906101fa565b50505050905090565b6000819080600181540180825580915050600190039060005260206000200160009091909190915090816102e39190610c4d565b5050565b600081815481106102f757600080fd5b9060005260206000200160009150905080546103129061092e565b80601f016020809104026020016040519081016040528092919081815260200182805461033e9061092e565b801561038b5780601f106103605761010080835404028352916020019161038b565b820191906000526020600020905b81548152906001019060200180831161036e57829003601f168201915b505050505081565b60008060008054905090508091505090565b5080546103b19061092e565b6000825580601f106103c357506103e2565b601f0160209004906000526020600020908101906103e191906103e5565b5b50565b5b808211156103fe5760008160009055506001016103e6565b5090565b6000604051905090565b600080fd5b600080fd5b6000819050919050565b61042981610416565b811461043457600080fd5b50565b60008135905061044681610420565b92915050565b6000602082840312156104625761046161040c565b5b600061047084828501610437565b91505092915050565b600081519050919050565b600082825260208201905092915050565b6000819050602082019050919050565b600081519050919050565b600082825260208201905092915050565b60005b838110156104df5780820151818401526020810190506104c4565b60008484015250505050565b6000601f19601f8301169050919050565b6000610507826104a5565b61051181856104b0565b93506105218185602086016104c1565b61052a816104eb565b840191505092915050565b600061054183836104fc565b905092915050565b6000602082019050919050565b600061056182610479565b61056b8185610484565b93508360208202850161057d85610495565b8060005b858110156105b9578484038952815161059a8582610535565b94506105a583610549565b925060208a01995050600181019050610581565b50829750879550505050505092915050565b600060208201905081810360008301526105e58184610556565b905092915050565b600080fd5b600080fd5b7f4e487b7100000000000000000000000000000000000000000000000000000000600052604160045260246000fd5b61062f826104eb565b810181811067ffffffffffffffff8211171561064e5761064d6105f7565b5b80604052505050565b6000610661610402565b905061066d8282610626565b919050565b600067ffffffffffffffff82111561068d5761068c6105f7565b5b610696826104eb565b9050602081019050919050565b82818337600083830152505050565b60006106c56106c084610672565b610657565b9050828152602081018484840111156106e1576106e06105f2565b5b6106ec8482856106a3565b509392505050565b600082601f830112610709576107086105ed565b5b81356107198482602086016106b2565b91505092915050565b6000602082840312156107385761073761040c565b5b600082013567ffffffffffffffff81111561075657610755610411565b5b610762848285016106f4565b91505092915050565b600082825260208201905092915050565b6000610787826104a5565b610791818561076b565b93506107a18185602086016104c1565b6107aa816104eb565b840191505092915050565b600060208201905081810360008301526107cf818461077c565b905092915050565b6107e081610416565b82525050565b60006020820190506107fb60008301846107d7565b92915050565b7f5468697320746f646f20696e64657820646f6573206e6f742065786973742e00600082015250565b6000610837601f8361076b565b915061084282610801565b602082019050919050565b600060208201905081810360008301526108668161082a565b9050919050565b7f4e487b7100000000000000000000000000000000000000000000000000000000600052601160045260246000fd5b60006108a782610416565b91506108b283610416565b92508282039050818111156108ca576108c961086d565b5b92915050565b7f4e487b7100000000000000000000000000000000000000000000000000000000600052603260045260246000fd5b7f4e487b7100000000000000000000000000000000000000000000000000000000600052602260045260246000fd5b6000600282049050600182168061094657607f821691505b602082108103610959576109586108ff565b5b50919050565b60008154905061096e8161092e565b9050919050565b60008190508160005260206000209050919050565b60008190508160005260206000209050919050565b60006020601f8301049050919050565b600082821b905092915050565b6000600883026109ec7fffffffffffffffffffffffffffffffffffffffffffffffffffffffffffffffff826109af565b6109f686836109af565b95508019841693508086168417925050509392505050565b6000819050919050565b6000610a33610a2e610a2984610416565b610a0e565b610416565b9050919050565b6000819050919050565b610a4d83610a18565b610a61610a5982610a3a565b8484546109bc565b825550505050565b600090565b610a76610a69565b610a81818484610a44565b505050565b5b81811015610aa557610a9a600082610a6e565b600181019050610a87565b5050565b601f821115610aea57610abb81610975565b610ac48461099f565b81016020851015610ad3578190505b610ae7610adf8561099f565b830182610a86565b50505b505050565b600082821c905092915050565b6000610b0d60001984600802610aef565b1980831691505092915050565b6000610b268383610afc565b9150826002028217905092915050565b818103610b44575050610c1c565b610b4d8261095f565b67ffffffffffffffff811115610b6657610b656105f7565b5b610b70825461092e565b610b7b828285610aa9565b6000601f831160018114610baa5760008415610b98578287015490505b610ba28582610b1a565b865550610c15565b601f198416610bb88761098a565b9650610bc386610975565b60005b82811015610beb57848901548255600182019150600185019450602081019050610bc6565b86831015610c085784890154610c04601f891682610afc565b8355505b6001600288020188555050505b5050505050505b565b7f4e487b7100000000000000000000000000000000000000000000000000000000600052603160045260246000fd5b610c56826104a5565b67ffffffffffffffff811115610c6f57610c6e6105f7565b5b610c79825461092e565b610c84828285610aa9565b600060209050601f831160018114610cb75760008415610ca5578287015190505b610caf8582610b1a565b865550610d17565b601f198416610cc586610975565b60005b82811015610ced57848901518255600182019150602085019450602081019050610cc8565b86831015610d0a5784890151610d06601f891682610afc565b8355505b6001600288020188555050505b50505050505056fea2646970667358221220fab4042d561178a9d42574ce1aebf14add43abe8ae5037c7c945cb0cf1c94fc964736f6c63430008120033",
					"opcodes": "PUSH1 0x80 PUSH1 0x40 MSTORE CALLVALUE DUP1 ISZERO PUSH2 0x10 JUMPI PUSH1 0x0 DUP1 REVERT JUMPDEST POP PUSH2 0xD55 DUP1 PUSH2 0x20 PUSH1 0x0 CODECOPY PUSH1 0x0 RETURN INVALID PUSH1 0x80 PUSH1 0x40 MSTORE CALLVALUE DUP1 ISZERO PUSH2 0x10 JUMPI PUSH1 0x0 DUP1 REVERT JUMPDEST POP PUSH1 0x4 CALLDATASIZE LT PUSH2 0x57 JUMPI PUSH1 0x0 CALLDATALOAD PUSH1 0xE0 SHR DUP1 PUSH4 0x549FD151 EQ PUSH2 0x5C JUMPI DUP1 PUSH4 0x7FA1680A EQ PUSH2 0x78 JUMPI DUP1 PUSH4 0xB9ABAC74 EQ PUSH2 0x96 JUMPI DUP1 PUSH4 0xBC8BC2B4 EQ PUSH2 0xB2 JUMPI DUP1 PUSH4 0xEC209AAB EQ PUSH2 0xE2 JUMPI JUMPDEST PUSH1 0x0 DUP1 REVERT JUMPDEST PUSH2 0x76 PUSH1 0x4 DUP1 CALLDATASIZE SUB DUP2 ADD SWAP1 PUSH2 0x71 SWAP2 SWAP1 PUSH2 0x44C JUMP JUMPDEST PUSH2 0x100 JUMP JUMPDEST STOP JUMPDEST PUSH2 0x80 PUSH2 0x1D6 JUMP JUMPDEST PUSH1 0x40 MLOAD PUSH2 0x8D SWAP2 SWAP1 PUSH2 0x5CB JUMP JUMPDEST PUSH1 0x40 MLOAD DUP1 SWAP2 SUB SWAP1 RETURN JUMPDEST PUSH2 0xB0 PUSH1 0x4 DUP1 CALLDATASIZE SUB DUP2 ADD SWAP1 PUSH2 0xAB SWAP2 SWAP1 PUSH2 0x722 JUMP JUMPDEST PUSH2 0x2AF JUMP JUMPDEST STOP JUMPDEST PUSH2 0xCC PUSH1 0x4 DUP1 CALLDATASIZE SUB DUP2 ADD SWAP1 PUSH2 0xC7 SWAP2 SWAP1 PUSH2 0x44C JUMP JUMPDEST PUSH2 0x2E7 JUMP JUMPDEST PUSH1 0x40 MLOAD PUSH2 0xD9 SWAP2 SWAP1 PUSH2 0x7B5 JUMP JUMPDEST PUSH1 0x40 MLOAD DUP1 SWAP2 SUB SWAP1 RETURN JUMPDEST PUSH2 0xEA PUSH2 0x393 JUMP JUMPDEST PUSH1 0x40 MLOAD PUSH2 0xF7 SWAP2 SWAP1 PUSH2 0x7E6 JUMP JUMPDEST PUSH1 0x40 MLOAD DUP1 SWAP2 SUB SWAP1 RETURN JUMPDEST PUSH1 0x0 DUP1 SLOAD SWAP1 POP DUP2 LT PUSH2 0x147 JUMPI PUSH1 0x40 MLOAD PUSH32 0x8C379A000000000000000000000000000000000000000000000000000000000 DUP2 MSTORE PUSH1 0x4 ADD PUSH2 0x13E SWAP1 PUSH2 0x84D JUMP JUMPDEST PUSH1 0x40 MLOAD DUP1 SWAP2 SUB SWAP1 REVERT JUMPDEST PUSH1 0x0 PUSH1 0x1 PUSH2 0x153 PUSH2 0x393 JUMP JUMPDEST PUSH2 0x15D SWAP2 SWAP1 PUSH2 0x89C JUMP JUMPDEST DUP2 SLOAD DUP2 LT PUSH2 0x16E JUMPI PUSH2 0x16D PUSH2 0x8D0 JUMP JUMPDEST JUMPDEST SWAP1 PUSH1 0x0 MSTORE PUSH1 0x20 PUSH1 0x0 KECCAK256 ADD PUSH1 0x0 DUP3 DUP2 SLOAD DUP2 LT PUSH2 0x18C JUMPI PUSH2 0x18B PUSH2 0x8D0 JUMP JUMPDEST JUMPDEST SWAP1 PUSH1 0x0 MSTORE PUSH1 0x20 PUSH1 0x0 KECCAK256 ADD SWAP1 DUP2 PUSH2 0x1A2 SWAP2 SWAP1 PUSH2 0xB36 JUMP JUMPDEST POP PUSH1 0x0 DUP1 SLOAD DUP1 PUSH2 0x1B5 JUMPI PUSH2 0x1B4 PUSH2 0xC1E JUMP JUMPDEST JUMPDEST PUSH1 0x1 SWAP1 SUB DUP2 DUP2 SWAP1 PUSH1 0x0 MSTORE PUSH1 0x20 PUSH1 0x0 KECCAK256 ADD PUSH1 0x0 PUSH2 0x1D1 SWAP2 SWAP1 PUSH2 0x3A5 JUMP JUMPDEST SWAP1 SSTORE POP JUMP JUMPDEST PUSH1 0x60 PUSH1 0x0 DUP1 SLOAD DUP1 PUSH1 0x20 MUL PUSH1 0x20 ADD PUSH1 0x40 MLOAD SWAP1 DUP2 ADD PUSH1 0x40 MSTORE DUP1 SWAP3 SWAP2 SWAP1 DUP2 DUP2 MSTORE PUSH1 0x20 ADD PUSH1 0x0 SWAP1 JUMPDEST DUP3 DUP3 LT ISZERO PUSH2 0x2A6 JUMPI DUP4 DUP3 SWAP1 PUSH1 0x0 MSTORE PUSH1 0x20 PUSH1 0x0 KECCAK256 ADD DUP1 SLOAD PUSH2 0x219 SWAP1 PUSH2 0x92E JUMP JUMPDEST DUP1 PUSH1 0x1F ADD PUSH1 0x20 DUP1 SWAP2 DIV MUL PUSH1 0x20 ADD PUSH1 0x40 MLOAD SWAP1 DUP2 ADD PUSH1 0x40 MSTORE DUP1 SWAP3 SWAP2 SWAP1 DUP2 DUP2 MSTORE PUSH1 0x20 ADD DUP3 DUP1 SLOAD PUSH2 0x245 SWAP1 PUSH2 0x92E JUMP JUMPDEST DUP1 ISZERO PUSH2 0x292 JUMPI DUP1 PUSH1 0x1F LT PUSH2 0x267 JUMPI PUSH2 0x100 DUP1 DUP4 SLOAD DIV MUL DUP4 MSTORE SWAP2 PUSH1 0x20 ADD SWAP2 PUSH2 0x292 JUMP JUMPDEST DUP3 ADD SWAP2 SWAP1 PUSH1 0x0 MSTORE PUSH1 0x20 PUSH1 0x0 KECCAK256 SWAP1 JUMPDEST DUP2 SLOAD DUP2 MSTORE SWAP1 PUSH1 0x1 ADD SWAP1 PUSH1 0x20 ADD DUP1 DUP4 GT PUSH2 0x275 JUMPI DUP3 SWAP1 SUB PUSH1 0x1F AND DUP3 ADD SWAP2 JUMPDEST POP POP POP POP POP DUP2 MSTORE PUSH1 0x20 ADD SWAP1 PUSH1 0x1 ADD SWAP1 PUSH2 0x1FA JUMP JUMPDEST POP POP POP POP SWAP1 POP SWAP1 JUMP JUMPDEST PUSH1 0x0 DUP2 SWAP1 DUP1 PUSH1 0x1 DUP2 SLOAD ADD DUP1 DUP3 SSTORE DUP1 SWAP2 POP POP PUSH1 0x1 SWAP1 SUB SWAP1 PUSH1 0x0 MSTORE PUSH1 0x20 PUSH1 0x0 KECCAK256 ADD PUSH1 0x0 SWAP1 SWAP2 SWAP1 SWAP2 SWAP1 SWAP2 POP SWAP1 DUP2 PUSH2 0x2E3 SWAP2 SWAP1 PUSH2 0xC4D JUMP JUMPDEST POP POP JUMP JUMPDEST PUSH1 0x0 DUP2 DUP2 SLOAD DUP2 LT PUSH2 0x2F7 JUMPI PUSH1 0x0 DUP1 REVERT JUMPDEST SWAP1 PUSH1 0x0 MSTORE PUSH1 0x20 PUSH1 0x0 KECCAK256 ADD PUSH1 0x0 SWAP2 POP SWAP1 POP DUP1 SLOAD PUSH2 0x312 SWAP1 PUSH2 0x92E JUMP JUMPDEST DUP1 PUSH1 0x1F ADD PUSH1 0x20 DUP1 SWAP2 DIV MUL PUSH1 0x20 ADD PUSH1 0x40 MLOAD SWAP1 DUP2 ADD PUSH1 0x40 MSTORE DUP1 SWAP3 SWAP2 SWAP1 DUP2 DUP2 MSTORE PUSH1 0x20 ADD DUP3 DUP1 SLOAD PUSH2 0x33E SWAP1 PUSH2 0x92E JUMP JUMPDEST DUP1 ISZERO PUSH2 0x38B JUMPI DUP1 PUSH1 0x1F LT PUSH2 0x360 JUMPI PUSH2 0x100 DUP1 DUP4 SLOAD DIV MUL DUP4 MSTORE SWAP2 PUSH1 0x20 ADD SWAP2 PUSH2 0x38B JUMP JUMPDEST DUP3 ADD SWAP2 SWAP1 PUSH1 0x0 MSTORE PUSH1 0x20 PUSH1 0x0 KECCAK256 SWAP1 JUMPDEST DUP2 SLOAD DUP2 MSTORE SWAP1 PUSH1 0x1 ADD SWAP1 PUSH1 0x20 ADD DUP1 DUP4 GT PUSH2 0x36E JUMPI DUP3 SWAP1 SUB PUSH1 0x1F AND DUP3 ADD SWAP2 JUMPDEST POP POP POP POP POP DUP2 JUMP JUMPDEST PUSH1 0x0 DUP1 PUSH1 0x0 DUP1 SLOAD SWAP1 POP SWAP1 POP DUP1 SWAP2 POP POP SWAP1 JUMP JUMPDEST POP DUP1 SLOAD PUSH2 0x3B1 SWAP1 PUSH2 0x92E JUMP JUMPDEST PUSH1 0x0 DUP3 SSTORE DUP1 PUSH1 0x1F LT PUSH2 0x3C3 JUMPI POP PUSH2 0x3E2 JUMP JUMPDEST PUSH1 0x1F ADD PUSH1 0x20 SWAP1 DIV SWAP1 PUSH1 0x0 MSTORE PUSH1 0x20 PUSH1 0x0 KECCAK256 SWAP1 DUP2 ADD SWAP1 PUSH2 0x3E1 SWAP2 SWAP1 PUSH2 0x3E5 JUMP JUMPDEST JUMPDEST POP JUMP JUMPDEST JUMPDEST DUP1 DUP3 GT ISZERO PUSH2 0x3FE JUMPI PUSH1 0x0 DUP2 PUSH1 0x0 SWAP1 SSTORE POP PUSH1 0x1 ADD PUSH2 0x3E6 JUMP JUMPDEST POP SWAP1 JUMP JUMPDEST PUSH1 0x0 PUSH1 0x40 MLOAD SWAP1 POP SWAP1 JUMP JUMPDEST PUSH1 0x0 DUP1 REVERT JUMPDEST PUSH1 0x0 DUP1 REVERT JUMPDEST PUSH1 0x0 DUP2 SWAP1 POP SWAP2 SWAP1 POP JUMP JUMPDEST PUSH2 0x429 DUP2 PUSH2 0x416 JUMP JUMPDEST DUP2 EQ PUSH2 0x434 JUMPI PUSH1 0x0 DUP1 REVERT JUMPDEST POP JUMP JUMPDEST PUSH1 0x0 DUP2 CALLDATALOAD SWAP1 POP PUSH2 0x446 DUP2 PUSH2 0x420 JUMP JUMPDEST SWAP3 SWAP2 POP POP JUMP JUMPDEST PUSH1 0x0 PUSH1 0x20 DUP3 DUP5 SUB SLT ISZERO PUSH2 0x462 JUMPI PUSH2 0x461 PUSH2 0x40C JUMP JUMPDEST JUMPDEST PUSH1 0x0 PUSH2 0x470 DUP5 DUP3 DUP6 ADD PUSH2 0x437 JUMP JUMPDEST SWAP2 POP POP SWAP3 SWAP2 POP POP JUMP JUMPDEST PUSH1 0x0 DUP2 MLOAD SWAP1 POP SWAP2 SWAP1 POP JUMP JUMPDEST PUSH1 0x0 DUP3 DUP3 MSTORE PUSH1 0x20 DUP3 ADD SWAP1 POP SWAP3 SWAP2 POP POP JUMP JUMPDEST PUSH1 0x0 DUP2 SWAP1 POP PUSH1 0x20 DUP3 ADD SWAP1 POP SWAP2 SWAP1 POP JUMP JUMPDEST PUSH1 0x0 DUP2 MLOAD SWAP1 POP SWAP2 SWAP1 POP JUMP JUMPDEST PUSH1 0x0 DUP3 DUP3 MSTORE PUSH1 0x20 DUP3 ADD SWAP1 POP SWAP3 SWAP2 POP POP JUMP JUMPDEST PUSH1 0x0 JUMPDEST DUP4 DUP2 LT ISZERO PUSH2 0x4DF JUMPI DUP1 DUP3 ADD MLOAD DUP2 DUP5 ADD MSTORE PUSH1 0x20 DUP2 ADD SWAP1 POP PUSH2 0x4C4 JUMP JUMPDEST PUSH1 0x0 DUP5 DUP5 ADD MSTORE POP POP POP POP JUMP JUMPDEST PUSH1 0x0 PUSH1 0x1F NOT PUSH1 0x1F DUP4 ADD AND SWAP1 POP SWAP2 SWAP1 POP JUMP JUMPDEST PUSH1 0x0 PUSH2 0x507 DUP3 PUSH2 0x4A5 JUMP JUMPDEST PUSH2 0x511 DUP2 DUP6 PUSH2 0x4B0 JUMP JUMPDEST SWAP4 POP PUSH2 0x521 DUP2 DUP6 PUSH1 0x20 DUP7 ADD PUSH2 0x4C1 JUMP JUMPDEST PUSH2 0x52A DUP2 PUSH2 0x4EB JUMP JUMPDEST DUP5 ADD SWAP2 POP POP SWAP3 SWAP2 POP POP JUMP JUMPDEST PUSH1 0x0 PUSH2 0x541 DUP4 DUP4 PUSH2 0x4FC JUMP JUMPDEST SWAP1 POP SWAP3 SWAP2 POP POP JUMP JUMPDEST PUSH1 0x0 PUSH1 0x20 DUP3 ADD SWAP1 POP SWAP2 SWAP1 POP JUMP JUMPDEST PUSH1 0x0 PUSH2 0x561 DUP3 PUSH2 0x479 JUMP JUMPDEST PUSH2 0x56B DUP2 DUP6 PUSH2 0x484 JUMP JUMPDEST SWAP4 POP DUP4 PUSH1 0x20 DUP3 MUL DUP6 ADD PUSH2 0x57D DUP6 PUSH2 0x495 JUMP JUMPDEST DUP1 PUSH1 0x0 JUMPDEST DUP6 DUP2 LT ISZERO PUSH2 0x5B9 JUMPI DUP5 DUP5 SUB DUP10 MSTORE DUP2 MLOAD PUSH2 0x59A DUP6 DUP3 PUSH2 0x535 JUMP JUMPDEST SWAP5 POP PUSH2 0x5A5 DUP4 PUSH2 0x549 JUMP JUMPDEST SWAP3 POP PUSH1 0x20 DUP11 ADD SWAP10 POP POP PUSH1 0x1 DUP2 ADD SWAP1 POP PUSH2 0x581 JUMP JUMPDEST POP DUP3 SWAP8 POP DUP8 SWAP6 POP POP POP POP POP POP SWAP3 SWAP2 POP POP JUMP JUMPDEST PUSH1 0x0 PUSH1 0x20 DUP3 ADD SWAP1 POP DUP2 DUP2 SUB PUSH1 0x0 DUP4 ADD MSTORE PUSH2 0x5E5 DUP2 DUP5 PUSH2 0x556 JUMP JUMPDEST SWAP1 POP SWAP3 SWAP2 POP POP JUMP JUMPDEST PUSH1 0x0 DUP1 REVERT JUMPDEST PUSH1 0x0 DUP1 REVERT JUMPDEST PUSH32 0x4E487B7100000000000000000000000000000000000000000000000000000000 PUSH1 0x0 MSTORE PUSH1 0x41 PUSH1 0x4 MSTORE PUSH1 0x24 PUSH1 0x0 REVERT JUMPDEST PUSH2 0x62F DUP3 PUSH2 0x4EB JUMP JUMPDEST DUP2 ADD DUP2 DUP2 LT PUSH8 0xFFFFFFFFFFFFFFFF DUP3 GT OR ISZERO PUSH2 0x64E JUMPI PUSH2 0x64D PUSH2 0x5F7 JUMP JUMPDEST JUMPDEST DUP1 PUSH1 0x40 MSTORE POP POP POP JUMP JUMPDEST PUSH1 0x0 PUSH2 0x661 PUSH2 0x402 JUMP JUMPDEST SWAP1 POP PUSH2 0x66D DUP3 DUP3 PUSH2 0x626 JUMP JUMPDEST SWAP2 SWAP1 POP JUMP JUMPDEST PUSH1 0x0 PUSH8 0xFFFFFFFFFFFFFFFF DUP3 GT ISZERO PUSH2 0x68D JUMPI PUSH2 0x68C PUSH2 0x5F7 JUMP JUMPDEST JUMPDEST PUSH2 0x696 DUP3 PUSH2 0x4EB JUMP JUMPDEST SWAP1 POP PUSH1 0x20 DUP2 ADD SWAP1 POP SWAP2 SWAP1 POP JUMP JUMPDEST DUP3 DUP2 DUP4 CALLDATACOPY PUSH1 0x0 DUP4 DUP4 ADD MSTORE POP POP POP JUMP JUMPDEST PUSH1 0x0 PUSH2 0x6C5 PUSH2 0x6C0 DUP5 PUSH2 0x672 JUMP JUMPDEST PUSH2 0x657 JUMP JUMPDEST SWAP1 POP DUP3 DUP2 MSTORE PUSH1 0x20 DUP2 ADD DUP5 DUP5 DUP5 ADD GT ISZERO PUSH2 0x6E1 JUMPI PUSH2 0x6E0 PUSH2 0x5F2 JUMP JUMPDEST JUMPDEST PUSH2 0x6EC DUP5 DUP3 DUP6 PUSH2 0x6A3 JUMP JUMPDEST POP SWAP4 SWAP3 POP POP POP JUMP JUMPDEST PUSH1 0x0 DUP3 PUSH1 0x1F DUP4 ADD SLT PUSH2 0x709 JUMPI PUSH2 0x708 PUSH2 0x5ED JUMP JUMPDEST JUMPDEST DUP2 CALLDATALOAD PUSH2 0x719 DUP5 DUP3 PUSH1 0x20 DUP7 ADD PUSH2 0x6B2 JUMP JUMPDEST SWAP2 POP POP SWAP3 SWAP2 POP POP JUMP JUMPDEST PUSH1 0x0 PUSH1 0x20 DUP3 DUP5 SUB SLT ISZERO PUSH2 0x738 JUMPI PUSH2 0x737 PUSH2 0x40C JUMP JUMPDEST JUMPDEST PUSH1 0x0 DUP3 ADD CALLDATALOAD PUSH8 0xFFFFFFFFFFFFFFFF DUP2 GT ISZERO PUSH2 0x756 JUMPI PUSH2 0x755 PUSH2 0x411 JUMP JUMPDEST JUMPDEST PUSH2 0x762 DUP5 DUP3 DUP6 ADD PUSH2 0x6F4 JUMP JUMPDEST SWAP2 POP POP SWAP3 SWAP2 POP POP JUMP JUMPDEST PUSH1 0x0 DUP3 DUP3 MSTORE PUSH1 0x20 DUP3 ADD SWAP1 POP SWAP3 SWAP2 POP POP JUMP JUMPDEST PUSH1 0x0 PUSH2 0x787 DUP3 PUSH2 0x4A5 JUMP JUMPDEST PUSH2 0x791 DUP2 DUP6 PUSH2 0x76B JUMP JUMPDEST SWAP4 POP PUSH2 0x7A1 DUP2 DUP6 PUSH1 0x20 DUP7 ADD PUSH2 0x4C1 JUMP JUMPDEST PUSH2 0x7AA DUP2 PUSH2 0x4EB JUMP JUMPDEST DUP5 ADD SWAP2 POP POP SWAP3 SWAP2 POP POP JUMP JUMPDEST PUSH1 0x0 PUSH1 0x20 DUP3 ADD SWAP1 POP DUP2 DUP2 SUB PUSH1 0x0 DUP4 ADD MSTORE PUSH2 0x7CF DUP2 DUP5 PUSH2 0x77C JUMP JUMPDEST SWAP1 POP SWAP3 SWAP2 POP POP JUMP JUMPDEST PUSH2 0x7E0 DUP2 PUSH2 0x416 JUMP JUMPDEST DUP3 MSTORE POP POP JUMP JUMPDEST PUSH1 0x0 PUSH1 0x20 DUP3 ADD SWAP1 POP PUSH2 0x7FB PUSH1 0x0 DUP4 ADD DUP5 PUSH2 0x7D7 JUMP JUMPDEST SWAP3 SWAP2 POP POP JUMP JUMPDEST PUSH32 0x5468697320746F646F20696E64657820646F6573206E6F742065786973742E00 PUSH1 0x0 DUP3 ADD MSTORE POP JUMP JUMPDEST PUSH1 0x0 PUSH2 0x837 PUSH1 0x1F DUP4 PUSH2 0x76B JUMP JUMPDEST SWAP2 POP PUSH2 0x842 DUP3 PUSH2 0x801 JUMP JUMPDEST PUSH1 0x20 DUP3 ADD SWAP1 POP SWAP2 SWAP1 POP JUMP JUMPDEST PUSH1 0x0 PUSH1 0x20 DUP3 ADD SWAP1 POP DUP2 DUP2 SUB PUSH1 0x0 DUP4 ADD MSTORE PUSH2 0x866 DUP2 PUSH2 0x82A JUMP JUMPDEST SWAP1 POP SWAP2 SWAP1 POP JUMP JUMPDEST PUSH32 0x4E487B7100000000000000000000000000000000000000000000000000000000 PUSH1 0x0 MSTORE PUSH1 0x11 PUSH1 0x4 MSTORE PUSH1 0x24 PUSH1 0x0 REVERT JUMPDEST PUSH1 0x0 PUSH2 0x8A7 DUP3 PUSH2 0x416 JUMP JUMPDEST SWAP2 POP PUSH2 0x8B2 DUP4 PUSH2 0x416 JUMP JUMPDEST SWAP3 POP DUP3 DUP3 SUB SWAP1 POP DUP2 DUP2 GT ISZERO PUSH2 0x8CA JUMPI PUSH2 0x8C9 PUSH2 0x86D JUMP JUMPDEST JUMPDEST SWAP3 SWAP2 POP POP JUMP JUMPDEST PUSH32 0x4E487B7100000000000000000000000000000000000000000000000000000000 PUSH1 0x0 MSTORE PUSH1 0x32 PUSH1 0x4 MSTORE PUSH1 0x24 PUSH1 0x0 REVERT JUMPDEST PUSH32 0x4E487B7100000000000000000000000000000000000000000000000000000000 PUSH1 0x0 MSTORE PUSH1 0x22 PUSH1 0x4 MSTORE PUSH1 0x24 PUSH1 0x0 REVERT JUMPDEST PUSH1 0x0 PUSH1 0x2 DUP3 DIV SWAP1 POP PUSH1 0x1 DUP3 AND DUP1 PUSH2 0x946 JUMPI PUSH1 0x7F DUP3 AND SWAP2 POP JUMPDEST PUSH1 0x20 DUP3 LT DUP2 SUB PUSH2 0x959 JUMPI PUSH2 0x958 PUSH2 0x8FF JUMP JUMPDEST JUMPDEST POP SWAP2 SWAP1 POP JUMP JUMPDEST PUSH1 0x0 DUP2 SLOAD SWAP1 POP PUSH2 0x96E DUP2 PUSH2 0x92E JUMP JUMPDEST SWAP1 POP SWAP2 SWAP1 POP JUMP JUMPDEST PUSH1 0x0 DUP2 SWAP1 POP DUP2 PUSH1 0x0 MSTORE PUSH1 0x20 PUSH1 0x0 KECCAK256 SWAP1 POP SWAP2 SWAP1 POP JUMP JUMPDEST PUSH1 0x0 DUP2 SWAP1 POP DUP2 PUSH1 0x0 MSTORE PUSH1 0x20 PUSH1 0x0 KECCAK256 SWAP1 POP SWAP2 SWAP1 POP JUMP JUMPDEST PUSH1 0x0 PUSH1 0x20 PUSH1 0x1F DUP4 ADD DIV SWAP1 POP SWAP2 SWAP1 POP JUMP JUMPDEST PUSH1 0x0 DUP3 DUP3 SHL SWAP1 POP SWAP3 SWAP2 POP POP JUMP JUMPDEST PUSH1 0x0 PUSH1 0x8 DUP4 MUL PUSH2 0x9EC PUSH32 0xFFFFFFFFFFFFFFFFFFFFFFFFFFFFFFFFFFFFFFFFFFFFFFFFFFFFFFFFFFFFFFFF DUP3 PUSH2 0x9AF JUMP JUMPDEST PUSH2 0x9F6 DUP7 DUP4 PUSH2 0x9AF JUMP JUMPDEST SWAP6 POP DUP1 NOT DUP5 AND SWAP4 POP DUP1 DUP7 AND DUP5 OR SWAP3 POP POP POP SWAP4 SWAP3 POP POP POP JUMP JUMPDEST PUSH1 0x0 DUP2 SWAP1 POP SWAP2 SWAP1 POP JUMP JUMPDEST PUSH1 0x0 PUSH2 0xA33 PUSH2 0xA2E PUSH2 0xA29 DUP5 PUSH2 0x416 JUMP JUMPDEST PUSH2 0xA0E JUMP JUMPDEST PUSH2 0x416 JUMP JUMPDEST SWAP1 POP SWAP2 SWAP1 POP JUMP JUMPDEST PUSH1 0x0 DUP2 SWAP1 POP SWAP2 SWAP1 POP JUMP JUMPDEST PUSH2 0xA4D DUP4 PUSH2 0xA18 JUMP JUMPDEST PUSH2 0xA61 PUSH2 0xA59 DUP3 PUSH2 0xA3A JUMP JUMPDEST DUP5 DUP5 SLOAD PUSH2 0x9BC JUMP JUMPDEST DUP3 SSTORE POP POP POP POP JUMP JUMPDEST PUSH1 0x0 SWAP1 JUMP JUMPDEST PUSH2 0xA76 PUSH2 0xA69 JUMP JUMPDEST PUSH2 0xA81 DUP2 DUP5 DUP5 PUSH2 0xA44 JUMP JUMPDEST POP POP POP JUMP JUMPDEST JUMPDEST DUP2 DUP2 LT ISZERO PUSH2 0xAA5 JUMPI PUSH2 0xA9A PUSH1 0x0 DUP3 PUSH2 0xA6E JUMP JUMPDEST PUSH1 0x1 DUP2 ADD SWAP1 POP PUSH2 0xA87 JUMP JUMPDEST POP POP JUMP JUMPDEST PUSH1 0x1F DUP3 GT ISZERO PUSH2 0xAEA JUMPI PUSH2 0xABB DUP2 PUSH2 0x975 JUMP JUMPDEST PUSH2 0xAC4 DUP5 PUSH2 0x99F JUMP JUMPDEST DUP2 ADD PUSH1 0x20 DUP6 LT ISZERO PUSH2 0xAD3 JUMPI DUP2 SWAP1 POP JUMPDEST PUSH2 0xAE7 PUSH2 0xADF DUP6 PUSH2 0x99F JUMP JUMPDEST DUP4 ADD DUP3 PUSH2 0xA86 JUMP JUMPDEST POP POP JUMPDEST POP POP POP JUMP JUMPDEST PUSH1 0x0 DUP3 DUP3 SHR SWAP1 POP SWAP3 SWAP2 POP POP JUMP JUMPDEST PUSH1 0x0 PUSH2 0xB0D PUSH1 0x0 NOT DUP5 PUSH1 0x8 MUL PUSH2 0xAEF JUMP JUMPDEST NOT DUP1 DUP4 AND SWAP2 POP POP SWAP3 SWAP2 POP POP JUMP JUMPDEST PUSH1 0x0 PUSH2 0xB26 DUP4 DUP4 PUSH2 0xAFC JUMP JUMPDEST SWAP2 POP DUP3 PUSH1 0x2 MUL DUP3 OR SWAP1 POP SWAP3 SWAP2 POP POP JUMP JUMPDEST DUP2 DUP2 SUB PUSH2 0xB44 JUMPI POP POP PUSH2 0xC1C JUMP JUMPDEST PUSH2 0xB4D DUP3 PUSH2 0x95F JUMP JUMPDEST PUSH8 0xFFFFFFFFFFFFFFFF DUP2 GT ISZERO PUSH2 0xB66 JUMPI PUSH2 0xB65 PUSH2 0x5F7 JUMP JUMPDEST JUMPDEST PUSH2 0xB70 DUP3 SLOAD PUSH2 0x92E JUMP JUMPDEST PUSH2 0xB7B DUP3 DUP3 DUP6 PUSH2 0xAA9 JUMP JUMPDEST PUSH1 0x0 PUSH1 0x1F DUP4 GT PUSH1 0x1 DUP2 EQ PUSH2 0xBAA JUMPI PUSH1 0x0 DUP5 ISZERO PUSH2 0xB98 JUMPI DUP3 DUP8 ADD SLOAD SWAP1 POP JUMPDEST PUSH2 0xBA2 DUP6 DUP3 PUSH2 0xB1A JUMP JUMPDEST DUP7 SSTORE POP PUSH2 0xC15 JUMP JUMPDEST PUSH1 0x1F NOT DUP5 AND PUSH2 0xBB8 DUP8 PUSH2 0x98A JUMP JUMPDEST SWAP7 POP PUSH2 0xBC3 DUP7 PUSH2 0x975 JUMP JUMPDEST PUSH1 0x0 JUMPDEST DUP3 DUP2 LT ISZERO PUSH2 0xBEB JUMPI DUP5 DUP10 ADD SLOAD DUP3 SSTORE PUSH1 0x1 DUP3 ADD SWAP2 POP PUSH1 0x1 DUP6 ADD SWAP5 POP PUSH1 0x20 DUP2 ADD SWAP1 POP PUSH2 0xBC6 JUMP JUMPDEST DUP7 DUP4 LT ISZERO PUSH2 0xC08 JUMPI DUP5 DUP10 ADD SLOAD PUSH2 0xC04 PUSH1 0x1F DUP10 AND DUP3 PUSH2 0xAFC JUMP JUMPDEST DUP4 SSTORE POP JUMPDEST PUSH1 0x1 PUSH1 0x2 DUP9 MUL ADD DUP9 SSTORE POP POP POP JUMPDEST POP POP POP POP POP POP JUMPDEST JUMP JUMPDEST PUSH32 0x4E487B7100000000000000000000000000000000000000000000000000000000 PUSH1 0x0 MSTORE PUSH1 0x31 PUSH1 0x4 MSTORE PUSH1 0x24 PUSH1 0x0 REVERT JUMPDEST PUSH2 0xC56 DUP3 PUSH2 0x4A5 JUMP JUMPDEST PUSH8 0xFFFFFFFFFFFFFFFF DUP2 GT ISZERO PUSH2 0xC6F JUMPI PUSH2 0xC6E PUSH2 0x5F7 JUMP JUMPDEST JUMPDEST PUSH2 0xC79 DUP3 SLOAD PUSH2 0x92E JUMP JUMPDEST PUSH2 0xC84 DUP3 DUP3 DUP6 PUSH2 0xAA9 JUMP JUMPDEST PUSH1 0x0 PUSH1 0x20 SWAP1 POP PUSH1 0x1F DUP4 GT PUSH1 0x1 DUP2 EQ PUSH2 0xCB7 JUMPI PUSH1 0x0 DUP5 ISZERO PUSH2 0xCA5 JUMPI DUP3 DUP8 ADD MLOAD SWAP1 POP JUMPDEST PUSH2 0xCAF DUP6 DUP3 PUSH2 0xB1A JUMP JUMPDEST DUP7 SSTORE POP PUSH2 0xD17 JUMP JUMPDEST PUSH1 0x1F NOT DUP5 AND PUSH2 0xCC5 DUP7 PUSH2 0x975 JUMP JUMPDEST PUSH1 0x0 JUMPDEST DUP3 DUP2 LT ISZERO PUSH2 0xCED JUMPI DUP5 DUP10 ADD MLOAD DUP3 SSTORE PUSH1 0x1 DUP3 ADD SWAP2 POP PUSH1 0x20 DUP6 ADD SWAP5 POP PUSH1 0x20 DUP2 ADD SWAP1 POP PUSH2 0xCC8 JUMP JUMPDEST DUP7 DUP4 LT ISZERO PUSH2 0xD0A JUMPI DUP5 DUP10 ADD MLOAD PUSH2 0xD06 PUSH1 0x1F DUP10 AND DUP3 PUSH2 0xAFC JUMP JUMPDEST DUP4 SSTORE POP JUMPDEST PUSH1 0x1 PUSH1 0x2 DUP9 MUL ADD DUP9 SSTORE POP POP POP JUMPDEST POP POP POP POP POP POP JUMP INVALID LOG2 PUSH5 0x6970667358 0x22 SLT KECCAK256 STATICCALL 0xB4 DIV 0x2D JUMP GT PUSH25 0xA9D42574CE1AEBF14ADD43ABE8AE5037C7C945CB0CF1C94FC9 PUSH5 0x736F6C6343 STOP ADDMOD SLT STOP CALLER "
				},
				"gasEstimates": {
					"creation": {
						"codeDepositCost": "682600",
						"executionCost": "715",
						"totalCost": "683315"
					},
					"external": {
						"deleteToDo(uint256)": "infinite",
						"getTodo()": "infinite",
						"getTodosLength()": "2524",
						"setTodo(string)": "infinite",
						"todos(uint256)": "infinite"
					}
				},
				"methodIdentifiers": {
					"deleteToDo(uint256)": "549fd151",
					"getTodo()": "7fa1680a",
					"getTodosLength()": "ec209aab",
					"setTodo(string)": "b9abac74",
					"todos(uint256)": "bc8bc2b4"
				}
			},
			"storageLayout": {
				"storage": [
					{
						"astId": 4,
						"contract": "contracts/Todo.sol:Todos",
						"label": "todos",
						"offset": 0,
						"slot": "0",
						"type": "t_array(t_string_storage)dyn_storage"
					}
				],
				"types": {
					"t_array(t_string_storage)dyn_storage": {
						"base": "t_string_storage",
						"encoding": "dynamic_array",
						"label": "string[]",
						"numberOfBytes": "32"
					},
					"t_string_storage": {
						"encoding": "bytes",
						"label": "string",
						"numberOfBytes": "32"
					}
				}
			},
			"userdoc": {
				"kind": "user",
				"methods": {},
				"version": 1
			}
		}
	}
}