{
	"contracts/SupplyChain.sol": {
		"SupplyChain": {
			"abi": [
				{
					"anonymous": false,
					"inputs": [
						{
							"indexed": true,
							"internalType": "uint256",
							"name": "id",
							"type": "uint256"
						},
						{
							"indexed": false,
							"internalType": "string",
							"name": "name",
							"type": "string"
						},
						{
							"indexed": false,
							"internalType": "uint256",
							"name": "quantity",
							"type": "uint256"
						},
						{
							"indexed": false,
							"internalType": "uint256",
							"name": "price",
							"type": "uint256"
						},
						{
							"indexed": false,
							"internalType": "address",
							"name": "supplier",
							"type": "address"
						}
					],
					"name": "ItemCreated",
					"type": "event"
				},
				{
					"anonymous": false,
					"inputs": [
						{
							"indexed": true,
							"internalType": "uint256",
							"name": "id",
							"type": "uint256"
						},
						{
							"indexed": false,
							"internalType": "address",
							"name": "buyer",
							"type": "address"
						}
					],
					"name": "ItemDelivered",
					"type": "event"
				},
				{
					"anonymous": false,
					"inputs": [
						{
							"indexed": true,
							"internalType": "uint256",
							"name": "id",
							"type": "uint256"
						},
						{
							"indexed": false,
							"internalType": "address",
							"name": "buyer",
							"type": "address"
						}
					],
					"name": "ItemInTransit",
					"type": "event"
				},
				{
					"inputs": [
						{
							"internalType": "uint256",
							"name": "_id",
							"type": "uint256"
						}
					],
					"name": "confirmDelivery",
					"outputs": [],
					"stateMutability": "nonpayable",
					"type": "function"
				},
				{
					"inputs": [
						{
							"internalType": "string",
							"name": "_name",
							"type": "string"
						},
						{
							"internalType": "uint256",
							"name": "_quantity",
							"type": "uint256"
						},
						{
							"internalType": "uint256",
							"name": "_price",
							"type": "uint256"
						}
					],
					"name": "createItem",
					"outputs": [],
					"stateMutability": "nonpayable",
					"type": "function"
				},
				{
					"inputs": [],
					"name": "itemCount",
					"outputs": [
						{
							"internalType": "uint256",
							"name": "",
							"type": "uint256"
						}
					],
					"stateMutability": "view",
					"type": "function"
				},
				{
					"inputs": [
						{
							"internalType": "uint256",
							"name": "",
							"type": "uint256"
						}
					],
					"name": "items",
					"outputs": [
						{
							"internalType": "uint256",
							"name": "id",
							"type": "uint256"
						},
						{
							"internalType": "string",
							"name": "name",
							"type": "string"
						},
						{
							"internalType": "uint256",
							"name": "quantity",
							"type": "uint256"
						},
						{
							"internalType": "uint256",
							"name": "price",
							"type": "uint256"
						},
						{
							"internalType": "address",
							"name": "supplier",
							"type": "address"
						},
						{
							"internalType": "address",
							"name": "buyer",
							"type": "address"
						},
						{
							"internalType": "enum SupplyChain.State",
							"name": "state",
							"type": "uint8"
						}
					],
					"stateMutability": "view",
					"type": "function"
				},
				{
					"inputs": [
						{
							"internalType": "uint256",
							"name": "_id",
							"type": "uint256"
						},
						{
							"internalType": "address",
							"name": "_buyer",
							"type": "address"
						}
					],
					"name": "startShipping",
					"outputs": [],
					"stateMutability": "nonpayable",
					"type": "function"
				}
			],
			"devdoc": {
				"kind": "dev",
				"methods": {},
				"version": 1
			},
			"evm": {
				"assembly": "    /* \"contracts/SupplyChain.sol\":60:1620  contract SupplyChain {... */\n  mstore(0x40, 0x80)\n  callvalue\n  dup1\n  iszero\n  tag_1\n  jumpi\n  0x00\n  dup1\n  revert\ntag_1:\n  pop\n  dataSize(sub_0)\n  dup1\n  dataOffset(sub_0)\n  0x00\n  codecopy\n  0x00\n  return\nstop\n\nsub_0: assembly {\n        /* \"contracts/SupplyChain.sol\":60:1620  contract SupplyChain {... */\n      mstore(0x40, 0x80)\n      callvalue\n      dup1\n      iszero\n      tag_1\n      jumpi\n      0x00\n      dup1\n      revert\n    tag_1:\n      pop\n      jumpi(tag_2, lt(calldatasize, 0x04))\n      shr(0xe0, calldataload(0x00))\n      dup1\n      0x108155bc\n      eq\n      tag_3\n      jumpi\n      dup1\n      0x6bfb0d01\n      eq\n      tag_4\n      jumpi\n      dup1\n      0xbfb231d2\n      eq\n      tag_5\n      jumpi\n      dup1\n      0xf53a8f6f\n      eq\n      tag_6\n      jumpi\n      dup1\n      0xfd84cb97\n      eq\n      tag_7\n      jumpi\n    tag_2:\n      0x00\n      dup1\n      revert\n        /* \"contracts/SupplyChain.sol\":614:907  function createItem(string memory _name, uint _quantity, uint _price) public {... */\n    tag_3:\n      tag_8\n      0x04\n      dup1\n      calldatasize\n      sub\n      dup2\n      add\n      swap1\n      tag_9\n      swap2\n      swap1\n      tag_10\n      jump\t// in\n    tag_9:\n      tag_11\n      jump\t// in\n    tag_8:\n      stop\n        /* \"contracts/SupplyChain.sol\":367:388  uint public itemCount */\n    tag_4:\n      tag_12\n      tag_13\n      jump\t// in\n    tag_12:\n      mload(0x40)\n      tag_14\n      swap2\n      swap1\n      tag_15\n      jump\t// in\n    tag_14:\n      mload(0x40)\n      dup1\n      swap2\n      sub\n      swap1\n      return\n        /* \"contracts/SupplyChain.sol\":326:360  mapping(uint => Item) public items */\n    tag_5:\n      tag_16\n      0x04\n      dup1\n      calldatasize\n      sub\n      dup2\n      add\n      swap1\n      tag_17\n      swap2\n      swap1\n      tag_18\n      jump\t// in\n    tag_17:\n      tag_19\n      jump\t// in\n    tag_16:\n      mload(0x40)\n      tag_20\n      swap8\n      swap7\n      swap6\n      swap5\n      swap4\n      swap3\n      swap2\n      swap1\n      tag_21\n      jump\t// in\n    tag_20:\n      mload(0x40)\n      dup1\n      swap2\n      sub\n      swap1\n      return\n        /* \"contracts/SupplyChain.sol\":915:1279  function startShipping(uint _id, address _buyer) public {... */\n    tag_6:\n      tag_22\n      0x04\n      dup1\n      calldatasize\n      sub\n      dup2\n      add\n      swap1\n      tag_23\n      swap2\n      swap1\n      tag_24\n      jump\t// in\n    tag_23:\n      tag_25\n      jump\t// in\n    tag_22:\n      stop\n        /* \"contracts/SupplyChain.sol\":1287:1617  function confirmDelivery(uint _id) public {... */\n    tag_7:\n      tag_26\n      0x04\n      dup1\n      calldatasize\n      sub\n      dup2\n      add\n      swap1\n      tag_27\n      swap2\n      swap1\n      tag_18\n      jump\t// in\n    tag_27:\n      tag_28\n      jump\t// in\n    tag_26:\n      stop\n        /* \"contracts/SupplyChain.sol\":614:907  function createItem(string memory _name, uint _quantity, uint _price) public {... */\n    tag_11:\n        /* \"contracts/SupplyChain.sol\":702:711  itemCount */\n      0x01\n      0x00\n        /* \"contracts/SupplyChain.sol\":702:713  itemCount++ */\n      dup2\n      sload\n      dup1\n      swap3\n      swap2\n      swap1\n      tag_30\n      swap1\n      tag_31\n      jump\t// in\n    tag_30:\n      swap2\n      swap1\n      pop\n      sstore\n      pop\n        /* \"contracts/SupplyChain.sol\":743:823  Item(itemCount, _name, _quantity, _price, msg.sender, address(0), State.Created) */\n      mload(0x40)\n      dup1\n      0xe0\n      add\n      0x40\n      mstore\n      dup1\n        /* \"contracts/SupplyChain.sol\":748:757  itemCount */\n      sload(0x01)\n        /* \"contracts/SupplyChain.sol\":743:823  Item(itemCount, _name, _quantity, _price, msg.sender, address(0), State.Created) */\n      dup2\n      mstore\n      0x20\n      add\n        /* \"contracts/SupplyChain.sol\":759:764  _name */\n      dup5\n        /* \"contracts/SupplyChain.sol\":743:823  Item(itemCount, _name, _quantity, _price, msg.sender, address(0), State.Created) */\n      dup2\n      mstore\n      0x20\n      add\n        /* \"contracts/SupplyChain.sol\":766:775  _quantity */\n      dup4\n        /* \"contracts/SupplyChain.sol\":743:823  Item(itemCount, _name, _quantity, _price, msg.sender, address(0), State.Created) */\n      dup2\n      mstore\n      0x20\n      add\n        /* \"contracts/SupplyChain.sol\":777:783  _price */\n      dup3\n        /* \"contracts/SupplyChain.sol\":743:823  Item(itemCount, _name, _quantity, _price, msg.sender, address(0), State.Created) */\n      dup2\n      mstore\n      0x20\n      add\n        /* \"contracts/SupplyChain.sol\":785:795  msg.sender */\n      caller\n        /* \"contracts/SupplyChain.sol\":743:823  Item(itemCount, _name, _quantity, _price, msg.sender, address(0), State.Created) */\n      0xffffffffffffffffffffffffffffffffffffffff\n      and\n      dup2\n      mstore\n      0x20\n      add\n        /* \"contracts/SupplyChain.sol\":805:806  0 */\n      0x00\n        /* \"contracts/SupplyChain.sol\":743:823  Item(itemCount, _name, _quantity, _price, msg.sender, address(0), State.Created) */\n      0xffffffffffffffffffffffffffffffffffffffff\n      and\n      dup2\n      mstore\n      0x20\n      add\n        /* \"contracts/SupplyChain.sol\":809:822  State.Created */\n      0x00\n        /* \"contracts/SupplyChain.sol\":743:823  Item(itemCount, _name, _quantity, _price, msg.sender, address(0), State.Created) */\n      0x02\n      dup2\n      gt\n      iszero\n      tag_32\n      jumpi\n      tag_33\n      tag_34\n      jump\t// in\n    tag_33:\n    tag_32:\n      dup2\n      mstore\n      pop\n        /* \"contracts/SupplyChain.sol\":724:729  items */\n      0x00\n        /* \"contracts/SupplyChain.sol\":724:740  items[itemCount] */\n      dup1\n        /* \"contracts/SupplyChain.sol\":730:739  itemCount */\n      sload(0x01)\n        /* \"contracts/SupplyChain.sol\":724:740  items[itemCount] */\n      dup2\n      mstore\n      0x20\n      add\n      swap1\n      dup2\n      mstore\n      0x20\n      add\n      0x00\n      keccak256\n        /* \"contracts/SupplyChain.sol\":724:823  items[itemCount] = Item(itemCount, _name, _quantity, _price, msg.sender, address(0), State.Created) */\n      0x00\n      dup3\n      add\n      mload\n      dup2\n      0x00\n      add\n      sstore\n      0x20\n      dup3\n      add\n      mload\n      dup2\n      0x01\n      add\n      swap1\n      dup2\n      tag_35\n      swap2\n      swap1\n      tag_36\n      jump\t// in\n    tag_35:\n      pop\n      0x40\n      dup3\n      add\n      mload\n      dup2\n      0x02\n      add\n      sstore\n      0x60\n      dup3\n      add\n      mload\n      dup2\n      0x03\n      add\n      sstore\n      0x80\n      dup3\n      add\n      mload\n      dup2\n      0x04\n      add\n      exp(0x0100, 0x00)\n      dup2\n      sload\n      dup2\n      0xffffffffffffffffffffffffffffffffffffffff\n      mul\n      not\n      and\n      swap1\n      dup4\n      0xffffffffffffffffffffffffffffffffffffffff\n      and\n      mul\n      or\n      swap1\n      sstore\n      pop\n      0xa0\n      dup3\n      add\n      mload\n      dup2\n      0x05\n      add\n      exp(0x0100, 0x00)\n      dup2\n      sload\n      dup2\n      0xffffffffffffffffffffffffffffffffffffffff\n      mul\n      not\n      and\n      swap1\n      dup4\n      0xffffffffffffffffffffffffffffffffffffffff\n      and\n      mul\n      or\n      swap1\n      sstore\n      pop\n      0xc0\n      dup3\n      add\n      mload\n      dup2\n      0x05\n      add\n      exp(0x0100, 0x14)\n      dup2\n      sload\n      dup2\n      0xff\n      mul\n      not\n      and\n      swap1\n      dup4\n      0x02\n      dup2\n      gt\n      iszero\n      tag_37\n      jumpi\n      tag_38\n      tag_34\n      jump\t// in\n    tag_38:\n    tag_37:\n      mul\n      or\n      swap1\n      sstore\n      pop\n      swap1\n      pop\n      pop\n        /* \"contracts/SupplyChain.sol\":851:860  itemCount */\n      sload(0x01)\n        /* \"contracts/SupplyChain.sol\":839:899  ItemCreated(itemCount, _name, _quantity, _price, msg.sender) */\n      0x4d7bbaf3a743aa8e4b6df9211c03de827dd47a422c50a9abb5aadabfc5a678c8\n        /* \"contracts/SupplyChain.sol\":862:867  _name */\n      dup5\n        /* \"contracts/SupplyChain.sol\":869:878  _quantity */\n      dup5\n        /* \"contracts/SupplyChain.sol\":880:886  _price */\n      dup5\n        /* \"contracts/SupplyChain.sol\":888:898  msg.sender */\n      caller\n        /* \"contracts/SupplyChain.sol\":839:899  ItemCreated(itemCount, _name, _quantity, _price, msg.sender) */\n      mload(0x40)\n      tag_39\n      swap5\n      swap4\n      swap3\n      swap2\n      swap1\n      tag_40\n      jump\t// in\n    tag_39:\n      mload(0x40)\n      dup1\n      swap2\n      sub\n      swap1\n      log2\n        /* \"contracts/SupplyChain.sol\":614:907  function createItem(string memory _name, uint _quantity, uint _price) public {... */\n      pop\n      pop\n      pop\n      jump\t// out\n        /* \"contracts/SupplyChain.sol\":367:388  uint public itemCount */\n    tag_13:\n      sload(0x01)\n      dup2\n      jump\t// out\n        /* \"contracts/SupplyChain.sol\":326:360  mapping(uint => Item) public items */\n    tag_19:\n      mstore(0x20, 0x00)\n      dup1\n      0x00\n      mstore\n      keccak256(0x00, 0x40)\n      0x00\n      swap2\n      pop\n      swap1\n      pop\n      dup1\n      0x00\n      add\n      sload\n      swap1\n      dup1\n      0x01\n      add\n      dup1\n      sload\n      tag_41\n      swap1\n      tag_42\n      jump\t// in\n    tag_41:\n      dup1\n      0x1f\n      add\n      0x20\n      dup1\n      swap2\n      div\n      mul\n      0x20\n      add\n      mload(0x40)\n      swap1\n      dup2\n      add\n      0x40\n      mstore\n      dup1\n      swap3\n      swap2\n      swap1\n      dup2\n      dup2\n      mstore\n      0x20\n      add\n      dup3\n      dup1\n      sload\n      tag_43\n      swap1\n      tag_42\n      jump\t// in\n    tag_43:\n      dup1\n      iszero\n      tag_44\n      jumpi\n      dup1\n      0x1f\n      lt\n      tag_45\n      jumpi\n      0x0100\n      dup1\n      dup4\n      sload\n      div\n      mul\n      dup4\n      mstore\n      swap2\n      0x20\n      add\n      swap2\n      jump(tag_44)\n    tag_45:\n      dup3\n      add\n      swap2\n      swap1\n      0x00\n      mstore\n      keccak256(0x00, 0x20)\n      swap1\n    tag_46:\n      dup2\n      sload\n      dup2\n      mstore\n      swap1\n      0x01\n      add\n      swap1\n      0x20\n      add\n      dup1\n      dup4\n      gt\n      tag_46\n      jumpi\n      dup3\n      swap1\n      sub\n      0x1f\n      and\n      dup3\n      add\n      swap2\n    tag_44:\n      pop\n      pop\n      pop\n      pop\n      pop\n      swap1\n      dup1\n      0x02\n      add\n      sload\n      swap1\n      dup1\n      0x03\n      add\n      sload\n      swap1\n      dup1\n      0x04\n      add\n      0x00\n      swap1\n      sload\n      swap1\n      0x0100\n      exp\n      swap1\n      div\n      0xffffffffffffffffffffffffffffffffffffffff\n      and\n      swap1\n      dup1\n      0x05\n      add\n      0x00\n      swap1\n      sload\n      swap1\n      0x0100\n      exp\n      swap1\n      div\n      0xffffffffffffffffffffffffffffffffffffffff\n      and\n      swap1\n      dup1\n      0x05\n      add\n      0x14\n      swap1\n      sload\n      swap1\n      0x0100\n      exp\n      swap1\n      div\n      0xff\n      and\n      swap1\n      pop\n      dup8\n      jump\t// out\n        /* \"contracts/SupplyChain.sol\":915:1279  function startShipping(uint _id, address _buyer) public {... */\n    tag_25:\n        /* \"contracts/SupplyChain.sol\":982:999  Item storage item */\n      0x00\n        /* \"contracts/SupplyChain.sol\":1002:1007  items */\n      dup1\n        /* \"contracts/SupplyChain.sol\":1002:1012  items[_id] */\n      0x00\n        /* \"contracts/SupplyChain.sol\":1008:1011  _id */\n      dup5\n        /* \"contracts/SupplyChain.sol\":1002:1012  items[_id] */\n      dup2\n      mstore\n      0x20\n      add\n      swap1\n      dup2\n      mstore\n      0x20\n      add\n      0x00\n      keccak256\n        /* \"contracts/SupplyChain.sol\":982:1012  Item storage item = items[_id] */\n      swap1\n      pop\n        /* \"contracts/SupplyChain.sol\":1053:1054  0 */\n      0x00\n        /* \"contracts/SupplyChain.sol\":1031:1055  item.buyer == address(0) */\n      0xffffffffffffffffffffffffffffffffffffffff\n      and\n        /* \"contracts/SupplyChain.sol\":1031:1035  item */\n      dup2\n        /* \"contracts/SupplyChain.sol\":1031:1041  item.buyer */\n      0x05\n      add\n      0x00\n      swap1\n      sload\n      swap1\n      0x0100\n      exp\n      swap1\n      div\n      0xffffffffffffffffffffffffffffffffffffffff\n      and\n        /* \"contracts/SupplyChain.sol\":1031:1055  item.buyer == address(0) */\n      0xffffffffffffffffffffffffffffffffffffffff\n      and\n      eq\n        /* \"contracts/SupplyChain.sol\":1023:1077  require(item.buyer == address(0), \"Item already sold\") */\n      tag_48\n      jumpi\n      mload(0x40)\n      0x08c379a000000000000000000000000000000000000000000000000000000000\n      dup2\n      mstore\n      0x04\n      add\n      tag_49\n      swap1\n      tag_50\n      jump\t// in\n    tag_49:\n      mload(0x40)\n      dup1\n      swap2\n      sub\n      swap1\n      revert\n    tag_48:\n        /* \"contracts/SupplyChain.sol\":1113:1123  msg.sender */\n      caller\n        /* \"contracts/SupplyChain.sol\":1096:1123  item.supplier == msg.sender */\n      0xffffffffffffffffffffffffffffffffffffffff\n      and\n        /* \"contracts/SupplyChain.sol\":1096:1100  item */\n      dup2\n        /* \"contracts/SupplyChain.sol\":1096:1109  item.supplier */\n      0x04\n      add\n      0x00\n      swap1\n      sload\n      swap1\n      0x0100\n      exp\n      swap1\n      div\n      0xffffffffffffffffffffffffffffffffffffffff\n      and\n        /* \"contracts/SupplyChain.sol\":1096:1123  item.supplier == msg.sender */\n      0xffffffffffffffffffffffffffffffffffffffff\n      and\n      eq\n        /* \"contracts/SupplyChain.sol\":1088:1160  require(item.supplier == msg.sender, \"Only supplier can start shipping\") */\n      tag_51\n      jumpi\n      mload(0x40)\n      0x08c379a000000000000000000000000000000000000000000000000000000000\n      dup2\n      mstore\n      0x04\n      add\n      tag_52\n      swap1\n      tag_53\n      jump\t// in\n    tag_52:\n      mload(0x40)\n      dup1\n      swap2\n      sub\n      swap1\n      revert\n    tag_51:\n        /* \"contracts/SupplyChain.sol\":1184:1190  _buyer */\n      dup2\n        /* \"contracts/SupplyChain.sol\":1171:1175  item */\n      dup2\n        /* \"contracts/SupplyChain.sol\":1171:1181  item.buyer */\n      0x05\n      add\n      0x00\n        /* \"contracts/SupplyChain.sol\":1171:1190  item.buyer = _buyer */\n      0x0100\n      exp\n      dup2\n      sload\n      dup2\n      0xffffffffffffffffffffffffffffffffffffffff\n      mul\n      not\n      and\n      swap1\n      dup4\n      0xffffffffffffffffffffffffffffffffffffffff\n      and\n      mul\n      or\n      swap1\n      sstore\n      pop\n        /* \"contracts/SupplyChain.sol\":1214:1229  State.InTransit */\n      0x01\n        /* \"contracts/SupplyChain.sol\":1201:1205  item */\n      dup2\n        /* \"contracts/SupplyChain.sol\":1201:1211  item.state */\n      0x05\n      add\n      0x14\n        /* \"contracts/SupplyChain.sol\":1201:1229  item.state = State.InTransit */\n      0x0100\n      exp\n      dup2\n      sload\n      dup2\n      0xff\n      mul\n      not\n      and\n      swap1\n      dup4\n      0x02\n      dup2\n      gt\n      iszero\n      tag_54\n      jumpi\n      tag_55\n      tag_34\n      jump\t// in\n    tag_55:\n    tag_54:\n      mul\n      or\n      swap1\n      sstore\n      pop\n        /* \"contracts/SupplyChain.sol\":1259:1262  _id */\n      dup3\n        /* \"contracts/SupplyChain.sol\":1245:1271  ItemInTransit(_id, _buyer) */\n      0xf41f2e87f5d2d4e158d8becae35315325ad585b5ad6156df7660a16a1c700f81\n        /* \"contracts/SupplyChain.sol\":1264:1270  _buyer */\n      dup4\n        /* \"contracts/SupplyChain.sol\":1245:1271  ItemInTransit(_id, _buyer) */\n      mload(0x40)\n      tag_56\n      swap2\n      swap1\n      tag_57\n      jump\t// in\n    tag_56:\n      mload(0x40)\n      dup1\n      swap2\n      sub\n      swap1\n      log2\n        /* \"contracts/SupplyChain.sol\":971:1279  {... */\n      pop\n        /* \"contracts/SupplyChain.sol\":915:1279  function startShipping(uint _id, address _buyer) public {... */\n      pop\n      pop\n      jump\t// out\n        /* \"contracts/SupplyChain.sol\":1287:1617  function confirmDelivery(uint _id) public {... */\n    tag_28:\n        /* \"contracts/SupplyChain.sol\":1340:1357  Item storage item */\n      0x00\n        /* \"contracts/SupplyChain.sol\":1360:1365  items */\n      dup1\n        /* \"contracts/SupplyChain.sol\":1360:1370  items[_id] */\n      0x00\n        /* \"contracts/SupplyChain.sol\":1366:1369  _id */\n      dup4\n        /* \"contracts/SupplyChain.sol\":1360:1370  items[_id] */\n      dup2\n      mstore\n      0x20\n      add\n      swap1\n      dup2\n      mstore\n      0x20\n      add\n      0x00\n      keccak256\n        /* \"contracts/SupplyChain.sol\":1340:1370  Item storage item = items[_id] */\n      swap1\n      pop\n        /* \"contracts/SupplyChain.sol\":1403:1413  msg.sender */\n      caller\n        /* \"contracts/SupplyChain.sol\":1389:1413  item.buyer == msg.sender */\n      0xffffffffffffffffffffffffffffffffffffffff\n      and\n        /* \"contracts/SupplyChain.sol\":1389:1393  item */\n      dup2\n        /* \"contracts/SupplyChain.sol\":1389:1399  item.buyer */\n      0x05\n      add\n      0x00\n      swap1\n      sload\n      swap1\n      0x0100\n      exp\n      swap1\n      div\n      0xffffffffffffffffffffffffffffffffffffffff\n      and\n        /* \"contracts/SupplyChain.sol\":1389:1413  item.buyer == msg.sender */\n      0xffffffffffffffffffffffffffffffffffffffff\n      and\n      eq\n        /* \"contracts/SupplyChain.sol\":1381:1449  require(item.buyer == msg.sender, \"Only buyer can confirm delivery\") */\n      tag_59\n      jumpi\n      mload(0x40)\n      0x08c379a000000000000000000000000000000000000000000000000000000000\n      dup2\n      mstore\n      0x04\n      add\n      tag_60\n      swap1\n      tag_61\n      jump\t// in\n    tag_60:\n      mload(0x40)\n      dup1\n      swap2\n      sub\n      swap1\n      revert\n    tag_59:\n        /* \"contracts/SupplyChain.sol\":1482:1497  State.InTransit */\n      0x01\n        /* \"contracts/SupplyChain.sol\":1468:1497  item.state == State.InTransit */\n      0x02\n      dup2\n      gt\n      iszero\n      tag_62\n      jumpi\n      tag_63\n      tag_34\n      jump\t// in\n    tag_63:\n    tag_62:\n        /* \"contracts/SupplyChain.sol\":1468:1472  item */\n      dup2\n        /* \"contracts/SupplyChain.sol\":1468:1478  item.state */\n      0x05\n      add\n      0x14\n      swap1\n      sload\n      swap1\n      0x0100\n      exp\n      swap1\n      div\n      0xff\n      and\n        /* \"contracts/SupplyChain.sol\":1468:1497  item.state == State.InTransit */\n      0x02\n      dup2\n      gt\n      iszero\n      tag_64\n      jumpi\n      tag_65\n      tag_34\n      jump\t// in\n    tag_65:\n    tag_64:\n      eq\n        /* \"contracts/SupplyChain.sol\":1460:1524  require(item.state == State.InTransit, \"Item is not in transit\") */\n      tag_66\n      jumpi\n      mload(0x40)\n      0x08c379a000000000000000000000000000000000000000000000000000000000\n      dup2\n      mstore\n      0x04\n      add\n      tag_67\n      swap1\n      tag_68\n      jump\t// in\n    tag_67:\n      mload(0x40)\n      dup1\n      swap2\n      sub\n      swap1\n      revert\n    tag_66:\n        /* \"contracts/SupplyChain.sol\":1548:1563  State.Delivered */\n      0x02\n        /* \"contracts/SupplyChain.sol\":1535:1539  item */\n      dup2\n        /* \"contracts/SupplyChain.sol\":1535:1545  item.state */\n      0x05\n      add\n      0x14\n        /* \"contracts/SupplyChain.sol\":1535:1563  item.state = State.Delivered */\n      0x0100\n      exp\n      dup2\n      sload\n      dup2\n      0xff\n      mul\n      not\n      and\n      swap1\n      dup4\n      0x02\n      dup2\n      gt\n      iszero\n      tag_69\n      jumpi\n      tag_70\n      tag_34\n      jump\t// in\n    tag_70:\n    tag_69:\n      mul\n      or\n      swap1\n      sstore\n      pop\n        /* \"contracts/SupplyChain.sol\":1593:1596  _id */\n      dup2\n        /* \"contracts/SupplyChain.sol\":1579:1609  ItemDelivered(_id, msg.sender) */\n      0xdda0c542ebf9d79262678b7e660a015d15e1e21c518ccd27b3848556961d7521\n        /* \"contracts/SupplyChain.sol\":1598:1608  msg.sender */\n      caller\n        /* \"contracts/SupplyChain.sol\":1579:1609  ItemDelivered(_id, msg.sender) */\n      mload(0x40)\n      tag_71\n      swap2\n      swap1\n      tag_57\n      jump\t// in\n    tag_71:\n      mload(0x40)\n      dup1\n      swap2\n      sub\n      swap1\n      log2\n        /* \"contracts/SupplyChain.sol\":1329:1617  {... */\n      pop\n        /* \"contracts/SupplyChain.sol\":1287:1617  function confirmDelivery(uint _id) public {... */\n      pop\n      jump\t// out\n        /* \"#utility.yul\":7:82   */\n    tag_72:\n        /* \"#utility.yul\":40:46   */\n      0x00\n        /* \"#utility.yul\":73:75   */\n      0x40\n        /* \"#utility.yul\":67:76   */\n      mload\n        /* \"#utility.yul\":57:76   */\n      swap1\n      pop\n        /* \"#utility.yul\":7:82   */\n      swap1\n      jump\t// out\n        /* \"#utility.yul\":88:205   */\n    tag_73:\n        /* \"#utility.yul\":197:198   */\n      0x00\n        /* \"#utility.yul\":194:195   */\n      dup1\n        /* \"#utility.yul\":187:199   */\n      revert\n        /* \"#utility.yul\":211:328   */\n    tag_74:\n        /* \"#utility.yul\":320:321   */\n      0x00\n        /* \"#utility.yul\":317:318   */\n      dup1\n        /* \"#utility.yul\":310:322   */\n      revert\n        /* \"#utility.yul\":334:451   */\n    tag_75:\n        /* \"#utility.yul\":443:444   */\n      0x00\n        /* \"#utility.yul\":440:441   */\n      dup1\n        /* \"#utility.yul\":433:445   */\n      revert\n        /* \"#utility.yul\":457:574   */\n    tag_76:\n        /* \"#utility.yul\":566:567   */\n      0x00\n        /* \"#utility.yul\":563:564   */\n      dup1\n        /* \"#utility.yul\":556:568   */\n      revert\n        /* \"#utility.yul\":580:682   */\n    tag_77:\n        /* \"#utility.yul\":621:627   */\n      0x00\n        /* \"#utility.yul\":672:674   */\n      0x1f\n        /* \"#utility.yul\":668:675   */\n      not\n        /* \"#utility.yul\":663:665   */\n      0x1f\n        /* \"#utility.yul\":656:661   */\n      dup4\n        /* \"#utility.yul\":652:666   */\n      add\n        /* \"#utility.yul\":648:676   */\n      and\n        /* \"#utility.yul\":638:676   */\n      swap1\n      pop\n        /* \"#utility.yul\":580:682   */\n      swap2\n      swap1\n      pop\n      jump\t// out\n        /* \"#utility.yul\":688:868   */\n    tag_78:\n        /* \"#utility.yul\":736:813   */\n      0x4e487b7100000000000000000000000000000000000000000000000000000000\n        /* \"#utility.yul\":733:734   */\n      0x00\n        /* \"#utility.yul\":726:814   */\n      mstore\n        /* \"#utility.yul\":833:837   */\n      0x41\n        /* \"#utility.yul\":830:831   */\n      0x04\n        /* \"#utility.yul\":823:838   */\n      mstore\n        /* \"#utility.yul\":857:861   */\n      0x24\n        /* \"#utility.yul\":854:855   */\n      0x00\n        /* \"#utility.yul\":847:862   */\n      revert\n        /* \"#utility.yul\":874:1155   */\n    tag_79:\n        /* \"#utility.yul\":957:984   */\n      tag_136\n        /* \"#utility.yul\":979:983   */\n      dup3\n        /* \"#utility.yul\":957:984   */\n      tag_77\n      jump\t// in\n    tag_136:\n        /* \"#utility.yul\":949:955   */\n      dup2\n        /* \"#utility.yul\":945:985   */\n      add\n        /* \"#utility.yul\":1087:1093   */\n      dup2\n        /* \"#utility.yul\":1075:1085   */\n      dup2\n        /* \"#utility.yul\":1072:1094   */\n      lt\n        /* \"#utility.yul\":1051:1069   */\n      0xffffffffffffffff\n        /* \"#utility.yul\":1039:1049   */\n      dup3\n        /* \"#utility.yul\":1036:1070   */\n      gt\n        /* \"#utility.yul\":1033:1095   */\n      or\n        /* \"#utility.yul\":1030:1118   */\n      iszero\n      tag_137\n      jumpi\n        /* \"#utility.yul\":1098:1116   */\n      tag_138\n      tag_78\n      jump\t// in\n    tag_138:\n        /* \"#utility.yul\":1030:1118   */\n    tag_137:\n        /* \"#utility.yul\":1138:1148   */\n      dup1\n        /* \"#utility.yul\":1134:1136   */\n      0x40\n        /* \"#utility.yul\":1127:1149   */\n      mstore\n        /* \"#utility.yul\":917:1155   */\n      pop\n        /* \"#utility.yul\":874:1155   */\n      pop\n      pop\n      jump\t// out\n        /* \"#utility.yul\":1161:1290   */\n    tag_80:\n        /* \"#utility.yul\":1195:1201   */\n      0x00\n        /* \"#utility.yul\":1222:1242   */\n      tag_140\n      tag_72\n      jump\t// in\n    tag_140:\n        /* \"#utility.yul\":1212:1242   */\n      swap1\n      pop\n        /* \"#utility.yul\":1251:1284   */\n      tag_141\n        /* \"#utility.yul\":1279:1283   */\n      dup3\n        /* \"#utility.yul\":1271:1277   */\n      dup3\n        /* \"#utility.yul\":1251:1284   */\n      tag_79\n      jump\t// in\n    tag_141:\n        /* \"#utility.yul\":1161:1290   */\n      swap2\n      swap1\n      pop\n      jump\t// out\n        /* \"#utility.yul\":1296:1604   */\n    tag_81:\n        /* \"#utility.yul\":1358:1362   */\n      0x00\n        /* \"#utility.yul\":1448:1466   */\n      0xffffffffffffffff\n        /* \"#utility.yul\":1440:1446   */\n      dup3\n        /* \"#utility.yul\":1437:1467   */\n      gt\n        /* \"#utility.yul\":1434:1490   */\n      iszero\n      tag_143\n      jumpi\n        /* \"#utility.yul\":1470:1488   */\n      tag_144\n      tag_78\n      jump\t// in\n    tag_144:\n        /* \"#utility.yul\":1434:1490   */\n    tag_143:\n        /* \"#utility.yul\":1508:1537   */\n      tag_145\n        /* \"#utility.yul\":1530:1536   */\n      dup3\n        /* \"#utility.yul\":1508:1537   */\n      tag_77\n      jump\t// in\n    tag_145:\n        /* \"#utility.yul\":1500:1537   */\n      swap1\n      pop\n        /* \"#utility.yul\":1592:1596   */\n      0x20\n        /* \"#utility.yul\":1586:1590   */\n      dup2\n        /* \"#utility.yul\":1582:1597   */\n      add\n        /* \"#utility.yul\":1574:1597   */\n      swap1\n      pop\n        /* \"#utility.yul\":1296:1604   */\n      swap2\n      swap1\n      pop\n      jump\t// out\n        /* \"#utility.yul\":1610:1756   */\n    tag_82:\n        /* \"#utility.yul\":1707:1713   */\n      dup3\n        /* \"#utility.yul\":1702:1705   */\n      dup2\n        /* \"#utility.yul\":1697:1700   */\n      dup4\n        /* \"#utility.yul\":1684:1714   */\n      calldatacopy\n        /* \"#utility.yul\":1748:1749   */\n      0x00\n        /* \"#utility.yul\":1739:1745   */\n      dup4\n        /* \"#utility.yul\":1734:1737   */\n      dup4\n        /* \"#utility.yul\":1730:1746   */\n      add\n        /* \"#utility.yul\":1723:1750   */\n      mstore\n        /* \"#utility.yul\":1610:1756   */\n      pop\n      pop\n      pop\n      jump\t// out\n        /* \"#utility.yul\":1762:2187   */\n    tag_83:\n        /* \"#utility.yul\":1840:1845   */\n      0x00\n        /* \"#utility.yul\":1865:1931   */\n      tag_148\n        /* \"#utility.yul\":1881:1930   */\n      tag_149\n        /* \"#utility.yul\":1923:1929   */\n      dup5\n        /* \"#utility.yul\":1881:1930   */\n      tag_81\n      jump\t// in\n    tag_149:\n        /* \"#utility.yul\":1865:1931   */\n      tag_80\n      jump\t// in\n    tag_148:\n        /* \"#utility.yul\":1856:1931   */\n      swap1\n      pop\n        /* \"#utility.yul\":1954:1960   */\n      dup3\n        /* \"#utility.yul\":1947:1952   */\n      dup2\n        /* \"#utility.yul\":1940:1961   */\n      mstore\n        /* \"#utility.yul\":1992:1996   */\n      0x20\n        /* \"#utility.yul\":1985:1990   */\n      dup2\n        /* \"#utility.yul\":1981:1997   */\n      add\n        /* \"#utility.yul\":2030:2033   */\n      dup5\n        /* \"#utility.yul\":2021:2027   */\n      dup5\n        /* \"#utility.yul\":2016:2019   */\n      dup5\n        /* \"#utility.yul\":2012:2028   */\n      add\n        /* \"#utility.yul\":2009:2034   */\n      gt\n        /* \"#utility.yul\":2006:2118   */\n      iszero\n      tag_150\n      jumpi\n        /* \"#utility.yul\":2037:2116   */\n      tag_151\n      tag_76\n      jump\t// in\n    tag_151:\n        /* \"#utility.yul\":2006:2118   */\n    tag_150:\n        /* \"#utility.yul\":2127:2181   */\n      tag_152\n        /* \"#utility.yul\":2174:2180   */\n      dup5\n        /* \"#utility.yul\":2169:2172   */\n      dup3\n        /* \"#utility.yul\":2164:2167   */\n      dup6\n        /* \"#utility.yul\":2127:2181   */\n      tag_82\n      jump\t// in\n    tag_152:\n        /* \"#utility.yul\":1846:2187   */\n      pop\n        /* \"#utility.yul\":1762:2187   */\n      swap4\n      swap3\n      pop\n      pop\n      pop\n      jump\t// out\n        /* \"#utility.yul\":2207:2547   */\n    tag_84:\n        /* \"#utility.yul\":2263:2268   */\n      0x00\n        /* \"#utility.yul\":2312:2315   */\n      dup3\n        /* \"#utility.yul\":2305:2309   */\n      0x1f\n        /* \"#utility.yul\":2297:2303   */\n      dup4\n        /* \"#utility.yul\":2293:2310   */\n      add\n        /* \"#utility.yul\":2289:2316   */\n      slt\n        /* \"#utility.yul\":2279:2401   */\n      tag_154\n      jumpi\n        /* \"#utility.yul\":2320:2399   */\n      tag_155\n      tag_75\n      jump\t// in\n    tag_155:\n        /* \"#utility.yul\":2279:2401   */\n    tag_154:\n        /* \"#utility.yul\":2437:2443   */\n      dup2\n        /* \"#utility.yul\":2424:2444   */\n      calldataload\n        /* \"#utility.yul\":2462:2541   */\n      tag_156\n        /* \"#utility.yul\":2537:2540   */\n      dup5\n        /* \"#utility.yul\":2529:2535   */\n      dup3\n        /* \"#utility.yul\":2522:2526   */\n      0x20\n        /* \"#utility.yul\":2514:2520   */\n      dup7\n        /* \"#utility.yul\":2510:2527   */\n      add\n        /* \"#utility.yul\":2462:2541   */\n      tag_83\n      jump\t// in\n    tag_156:\n        /* \"#utility.yul\":2453:2541   */\n      swap2\n      pop\n        /* \"#utility.yul\":2269:2547   */\n      pop\n        /* \"#utility.yul\":2207:2547   */\n      swap3\n      swap2\n      pop\n      pop\n      jump\t// out\n        /* \"#utility.yul\":2553:2630   */\n    tag_85:\n        /* \"#utility.yul\":2590:2597   */\n      0x00\n        /* \"#utility.yul\":2619:2624   */\n      dup2\n        /* \"#utility.yul\":2608:2624   */\n      swap1\n      pop\n        /* \"#utility.yul\":2553:2630   */\n      swap2\n      swap1\n      pop\n      jump\t// out\n        /* \"#utility.yul\":2636:2758   */\n    tag_86:\n        /* \"#utility.yul\":2709:2733   */\n      tag_159\n        /* \"#utility.yul\":2727:2732   */\n      dup2\n        /* \"#utility.yul\":2709:2733   */\n      tag_85\n      jump\t// in\n    tag_159:\n        /* \"#utility.yul\":2702:2707   */\n      dup2\n        /* \"#utility.yul\":2699:2734   */\n      eq\n        /* \"#utility.yul\":2689:2752   */\n      tag_160\n      jumpi\n        /* \"#utility.yul\":2748:2749   */\n      0x00\n        /* \"#utility.yul\":2745:2746   */\n      dup1\n        /* \"#utility.yul\":2738:2750   */\n      revert\n        /* \"#utility.yul\":2689:2752   */\n    tag_160:\n        /* \"#utility.yul\":2636:2758   */\n      pop\n      jump\t// out\n        /* \"#utility.yul\":2764:2903   */\n    tag_87:\n        /* \"#utility.yul\":2810:2815   */\n      0x00\n        /* \"#utility.yul\":2848:2854   */\n      dup2\n        /* \"#utility.yul\":2835:2855   */\n      calldataload\n        /* \"#utility.yul\":2826:2855   */\n      swap1\n      pop\n        /* \"#utility.yul\":2864:2897   */\n      tag_162\n        /* \"#utility.yul\":2891:2896   */\n      dup2\n        /* \"#utility.yul\":2864:2897   */\n      tag_86\n      jump\t// in\n    tag_162:\n        /* \"#utility.yul\":2764:2903   */\n      swap3\n      swap2\n      pop\n      pop\n      jump\t// out\n        /* \"#utility.yul\":2909:3708   */\n    tag_10:\n        /* \"#utility.yul\":2996:3002   */\n      0x00\n        /* \"#utility.yul\":3004:3010   */\n      dup1\n        /* \"#utility.yul\":3012:3018   */\n      0x00\n        /* \"#utility.yul\":3061:3063   */\n      0x60\n        /* \"#utility.yul\":3049:3058   */\n      dup5\n        /* \"#utility.yul\":3040:3047   */\n      dup7\n        /* \"#utility.yul\":3036:3059   */\n      sub\n        /* \"#utility.yul\":3032:3064   */\n      slt\n        /* \"#utility.yul\":3029:3148   */\n      iszero\n      tag_164\n      jumpi\n        /* \"#utility.yul\":3067:3146   */\n      tag_165\n      tag_73\n      jump\t// in\n    tag_165:\n        /* \"#utility.yul\":3029:3148   */\n    tag_164:\n        /* \"#utility.yul\":3215:3216   */\n      0x00\n        /* \"#utility.yul\":3204:3213   */\n      dup5\n        /* \"#utility.yul\":3200:3217   */\n      add\n        /* \"#utility.yul\":3187:3218   */\n      calldataload\n        /* \"#utility.yul\":3245:3263   */\n      0xffffffffffffffff\n        /* \"#utility.yul\":3237:3243   */\n      dup2\n        /* \"#utility.yul\":3234:3264   */\n      gt\n        /* \"#utility.yul\":3231:3348   */\n      iszero\n      tag_166\n      jumpi\n        /* \"#utility.yul\":3267:3346   */\n      tag_167\n      tag_74\n      jump\t// in\n    tag_167:\n        /* \"#utility.yul\":3231:3348   */\n    tag_166:\n        /* \"#utility.yul\":3372:3435   */\n      tag_168\n        /* \"#utility.yul\":3427:3434   */\n      dup7\n        /* \"#utility.yul\":3418:3424   */\n      dup3\n        /* \"#utility.yul\":3407:3416   */\n      dup8\n        /* \"#utility.yul\":3403:3425   */\n      add\n        /* \"#utility.yul\":3372:3435   */\n      tag_84\n      jump\t// in\n    tag_168:\n        /* \"#utility.yul\":3362:3435   */\n      swap4\n      pop\n        /* \"#utility.yul\":3158:3445   */\n      pop\n        /* \"#utility.yul\":3484:3486   */\n      0x20\n        /* \"#utility.yul\":3510:3563   */\n      tag_169\n        /* \"#utility.yul\":3555:3562   */\n      dup7\n        /* \"#utility.yul\":3546:3552   */\n      dup3\n        /* \"#utility.yul\":3535:3544   */\n      dup8\n        /* \"#utility.yul\":3531:3553   */\n      add\n        /* \"#utility.yul\":3510:3563   */\n      tag_87\n      jump\t// in\n    tag_169:\n        /* \"#utility.yul\":3500:3563   */\n      swap3\n      pop\n        /* \"#utility.yul\":3455:3573   */\n      pop\n        /* \"#utility.yul\":3612:3614   */\n      0x40\n        /* \"#utility.yul\":3638:3691   */\n      tag_170\n        /* \"#utility.yul\":3683:3690   */\n      dup7\n        /* \"#utility.yul\":3674:3680   */\n      dup3\n        /* \"#utility.yul\":3663:3672   */\n      dup8\n        /* \"#utility.yul\":3659:3681   */\n      add\n        /* \"#utility.yul\":3638:3691   */\n      tag_87\n      jump\t// in\n    tag_170:\n        /* \"#utility.yul\":3628:3691   */\n      swap2\n      pop\n        /* \"#utility.yul\":3583:3701   */\n      pop\n        /* \"#utility.yul\":2909:3708   */\n      swap3\n      pop\n      swap3\n      pop\n      swap3\n      jump\t// out\n        /* \"#utility.yul\":3714:3832   */\n    tag_88:\n        /* \"#utility.yul\":3801:3825   */\n      tag_172\n        /* \"#utility.yul\":3819:3824   */\n      dup2\n        /* \"#utility.yul\":3801:3825   */\n      tag_85\n      jump\t// in\n    tag_172:\n        /* \"#utility.yul\":3796:3799   */\n      dup3\n        /* \"#utility.yul\":3789:3826   */\n      mstore\n        /* \"#utility.yul\":3714:3832   */\n      pop\n      pop\n      jump\t// out\n        /* \"#utility.yul\":3838:4060   */\n    tag_15:\n        /* \"#utility.yul\":3931:3935   */\n      0x00\n        /* \"#utility.yul\":3969:3971   */\n      0x20\n        /* \"#utility.yul\":3958:3967   */\n      dup3\n        /* \"#utility.yul\":3954:3972   */\n      add\n        /* \"#utility.yul\":3946:3972   */\n      swap1\n      pop\n        /* \"#utility.yul\":3982:4053   */\n      tag_174\n        /* \"#utility.yul\":4050:4051   */\n      0x00\n        /* \"#utility.yul\":4039:4048   */\n      dup4\n        /* \"#utility.yul\":4035:4052   */\n      add\n        /* \"#utility.yul\":4026:4032   */\n      dup5\n        /* \"#utility.yul\":3982:4053   */\n      tag_88\n      jump\t// in\n    tag_174:\n        /* \"#utility.yul\":3838:4060   */\n      swap3\n      swap2\n      pop\n      pop\n      jump\t// out\n        /* \"#utility.yul\":4066:4395   */\n    tag_18:\n        /* \"#utility.yul\":4125:4131   */\n      0x00\n        /* \"#utility.yul\":4174:4176   */\n      0x20\n        /* \"#utility.yul\":4162:4171   */\n      dup3\n        /* \"#utility.yul\":4153:4160   */\n      dup5\n        /* \"#utility.yul\":4149:4172   */\n      sub\n        /* \"#utility.yul\":4145:4177   */\n      slt\n        /* \"#utility.yul\":4142:4261   */\n      iszero\n      tag_176\n      jumpi\n        /* \"#utility.yul\":4180:4259   */\n      tag_177\n      tag_73\n      jump\t// in\n    tag_177:\n        /* \"#utility.yul\":4142:4261   */\n    tag_176:\n        /* \"#utility.yul\":4300:4301   */\n      0x00\n        /* \"#utility.yul\":4325:4378   */\n      tag_178\n        /* \"#utility.yul\":4370:4377   */\n      dup5\n        /* \"#utility.yul\":4361:4367   */\n      dup3\n        /* \"#utility.yul\":4350:4359   */\n      dup6\n        /* \"#utility.yul\":4346:4368   */\n      add\n        /* \"#utility.yul\":4325:4378   */\n      tag_87\n      jump\t// in\n    tag_178:\n        /* \"#utility.yul\":4315:4378   */\n      swap2\n      pop\n        /* \"#utility.yul\":4271:4388   */\n      pop\n        /* \"#utility.yul\":4066:4395   */\n      swap3\n      swap2\n      pop\n      pop\n      jump\t// out\n        /* \"#utility.yul\":4401:4500   */\n    tag_89:\n        /* \"#utility.yul\":4453:4459   */\n      0x00\n        /* \"#utility.yul\":4487:4492   */\n      dup2\n        /* \"#utility.yul\":4481:4493   */\n      mload\n        /* \"#utility.yul\":4471:4493   */\n      swap1\n      pop\n        /* \"#utility.yul\":4401:4500   */\n      swap2\n      swap1\n      pop\n      jump\t// out\n        /* \"#utility.yul\":4506:4675   */\n    tag_90:\n        /* \"#utility.yul\":4590:4601   */\n      0x00\n        /* \"#utility.yul\":4624:4630   */\n      dup3\n        /* \"#utility.yul\":4619:4622   */\n      dup3\n        /* \"#utility.yul\":4612:4631   */\n      mstore\n        /* \"#utility.yul\":4664:4668   */\n      0x20\n        /* \"#utility.yul\":4659:4662   */\n      dup3\n        /* \"#utility.yul\":4655:4669   */\n      add\n        /* \"#utility.yul\":4640:4669   */\n      swap1\n      pop\n        /* \"#utility.yul\":4506:4675   */\n      swap3\n      swap2\n      pop\n      pop\n      jump\t// out\n        /* \"#utility.yul\":4681:4927   */\n    tag_91:\n        /* \"#utility.yul\":4762:4763   */\n      0x00\n        /* \"#utility.yul\":4772:4885   */\n    tag_182:\n        /* \"#utility.yul\":4786:4792   */\n      dup4\n        /* \"#utility.yul\":4783:4784   */\n      dup2\n        /* \"#utility.yul\":4780:4793   */\n      lt\n        /* \"#utility.yul\":4772:4885   */\n      iszero\n      tag_184\n      jumpi\n        /* \"#utility.yul\":4871:4872   */\n      dup1\n        /* \"#utility.yul\":4866:4869   */\n      dup3\n        /* \"#utility.yul\":4862:4873   */\n      add\n        /* \"#utility.yul\":4856:4874   */\n      mload\n        /* \"#utility.yul\":4852:4853   */\n      dup2\n        /* \"#utility.yul\":4847:4850   */\n      dup5\n        /* \"#utility.yul\":4843:4854   */\n      add\n        /* \"#utility.yul\":4836:4875   */\n      mstore\n        /* \"#utility.yul\":4808:4810   */\n      0x20\n        /* \"#utility.yul\":4805:4806   */\n      dup2\n        /* \"#utility.yul\":4801:4811   */\n      add\n        /* \"#utility.yul\":4796:4811   */\n      swap1\n      pop\n        /* \"#utility.yul\":4772:4885   */\n      jump(tag_182)\n    tag_184:\n        /* \"#utility.yul\":4919:4920   */\n      0x00\n        /* \"#utility.yul\":4910:4916   */\n      dup5\n        /* \"#utility.yul\":4905:4908   */\n      dup5\n        /* \"#utility.yul\":4901:4917   */\n      add\n        /* \"#utility.yul\":4894:4921   */\n      mstore\n        /* \"#utility.yul\":4743:4927   */\n      pop\n        /* \"#utility.yul\":4681:4927   */\n      pop\n      pop\n      pop\n      jump\t// out\n        /* \"#utility.yul\":4933:5310   */\n    tag_92:\n        /* \"#utility.yul\":5021:5024   */\n      0x00\n        /* \"#utility.yul\":5049:5088   */\n      tag_186\n        /* \"#utility.yul\":5082:5087   */\n      dup3\n        /* \"#utility.yul\":5049:5088   */\n      tag_89\n      jump\t// in\n    tag_186:\n        /* \"#utility.yul\":5104:5175   */\n      tag_187\n        /* \"#utility.yul\":5168:5174   */\n      dup2\n        /* \"#utility.yul\":5163:5166   */\n      dup6\n        /* \"#utility.yul\":5104:5175   */\n      tag_90\n      jump\t// in\n    tag_187:\n        /* \"#utility.yul\":5097:5175   */\n      swap4\n      pop\n        /* \"#utility.yul\":5184:5249   */\n      tag_188\n        /* \"#utility.yul\":5242:5248   */\n      dup2\n        /* \"#utility.yul\":5237:5240   */\n      dup6\n        /* \"#utility.yul\":5230:5234   */\n      0x20\n        /* \"#utility.yul\":5223:5228   */\n      dup7\n        /* \"#utility.yul\":5219:5235   */\n      add\n        /* \"#utility.yul\":5184:5249   */\n      tag_91\n      jump\t// in\n    tag_188:\n        /* \"#utility.yul\":5274:5303   */\n      tag_189\n        /* \"#utility.yul\":5296:5302   */\n      dup2\n        /* \"#utility.yul\":5274:5303   */\n      tag_77\n      jump\t// in\n    tag_189:\n        /* \"#utility.yul\":5269:5272   */\n      dup5\n        /* \"#utility.yul\":5265:5304   */\n      add\n        /* \"#utility.yul\":5258:5304   */\n      swap2\n      pop\n        /* \"#utility.yul\":5025:5310   */\n      pop\n        /* \"#utility.yul\":4933:5310   */\n      swap3\n      swap2\n      pop\n      pop\n      jump\t// out\n        /* \"#utility.yul\":5316:5442   */\n    tag_93:\n        /* \"#utility.yul\":5353:5360   */\n      0x00\n        /* \"#utility.yul\":5393:5435   */\n      0xffffffffffffffffffffffffffffffffffffffff\n        /* \"#utility.yul\":5386:5391   */\n      dup3\n        /* \"#utility.yul\":5382:5436   */\n      and\n        /* \"#utility.yul\":5371:5436   */\n      swap1\n      pop\n        /* \"#utility.yul\":5316:5442   */\n      swap2\n      swap1\n      pop\n      jump\t// out\n        /* \"#utility.yul\":5448:5544   */\n    tag_94:\n        /* \"#utility.yul\":5485:5492   */\n      0x00\n        /* \"#utility.yul\":5514:5538   */\n      tag_192\n        /* \"#utility.yul\":5532:5537   */\n      dup3\n        /* \"#utility.yul\":5514:5538   */\n      tag_93\n      jump\t// in\n    tag_192:\n        /* \"#utility.yul\":5503:5538   */\n      swap1\n      pop\n        /* \"#utility.yul\":5448:5544   */\n      swap2\n      swap1\n      pop\n      jump\t// out\n        /* \"#utility.yul\":5550:5668   */\n    tag_95:\n        /* \"#utility.yul\":5637:5661   */\n      tag_194\n        /* \"#utility.yul\":5655:5660   */\n      dup2\n        /* \"#utility.yul\":5637:5661   */\n      tag_94\n      jump\t// in\n    tag_194:\n        /* \"#utility.yul\":5632:5635   */\n      dup3\n        /* \"#utility.yul\":5625:5662   */\n      mstore\n        /* \"#utility.yul\":5550:5668   */\n      pop\n      pop\n      jump\t// out\n        /* \"#utility.yul\":5674:5854   */\n    tag_34:\n        /* \"#utility.yul\":5722:5799   */\n      0x4e487b7100000000000000000000000000000000000000000000000000000000\n        /* \"#utility.yul\":5719:5720   */\n      0x00\n        /* \"#utility.yul\":5712:5800   */\n      mstore\n        /* \"#utility.yul\":5819:5823   */\n      0x21\n        /* \"#utility.yul\":5816:5817   */\n      0x04\n        /* \"#utility.yul\":5809:5824   */\n      mstore\n        /* \"#utility.yul\":5843:5847   */\n      0x24\n        /* \"#utility.yul\":5840:5841   */\n      0x00\n        /* \"#utility.yul\":5833:5848   */\n      revert\n        /* \"#utility.yul\":5860:5972   */\n    tag_96:\n        /* \"#utility.yul\":5940:5941   */\n      0x03\n        /* \"#utility.yul\":5933:5938   */\n      dup2\n        /* \"#utility.yul\":5930:5942   */\n      lt\n        /* \"#utility.yul\":5920:5966   */\n      tag_197\n      jumpi\n        /* \"#utility.yul\":5946:5964   */\n      tag_198\n      tag_34\n      jump\t// in\n    tag_198:\n        /* \"#utility.yul\":5920:5966   */\n    tag_197:\n        /* \"#utility.yul\":5860:5972   */\n      pop\n      jump\t// out\n        /* \"#utility.yul\":5978:6103   */\n    tag_97:\n        /* \"#utility.yul\":6022:6029   */\n      0x00\n        /* \"#utility.yul\":6051:6056   */\n      dup2\n        /* \"#utility.yul\":6040:6056   */\n      swap1\n      pop\n        /* \"#utility.yul\":6057:6097   */\n      tag_200\n        /* \"#utility.yul\":6091:6096   */\n      dup3\n        /* \"#utility.yul\":6057:6097   */\n      tag_96\n      jump\t// in\n    tag_200:\n        /* \"#utility.yul\":5978:6103   */\n      swap2\n      swap1\n      pop\n      jump\t// out\n        /* \"#utility.yul\":6109:6234   */\n    tag_98:\n        /* \"#utility.yul\":6164:6173   */\n      0x00\n        /* \"#utility.yul\":6197:6228   */\n      tag_202\n        /* \"#utility.yul\":6222:6227   */\n      dup3\n        /* \"#utility.yul\":6197:6228   */\n      tag_97\n      jump\t// in\n    tag_202:\n        /* \"#utility.yul\":6184:6228   */\n      swap1\n      pop\n        /* \"#utility.yul\":6109:6234   */\n      swap2\n      swap1\n      pop\n      jump\t// out\n        /* \"#utility.yul\":6240:6381   */\n    tag_99:\n        /* \"#utility.yul\":6332:6374   */\n      tag_204\n        /* \"#utility.yul\":6368:6373   */\n      dup2\n        /* \"#utility.yul\":6332:6374   */\n      tag_98\n      jump\t// in\n    tag_204:\n        /* \"#utility.yul\":6327:6330   */\n      dup3\n        /* \"#utility.yul\":6320:6375   */\n      mstore\n        /* \"#utility.yul\":6240:6381   */\n      pop\n      pop\n      jump\t// out\n        /* \"#utility.yul\":6387:7374   */\n    tag_21:\n        /* \"#utility.yul\":6673:6677   */\n      0x00\n        /* \"#utility.yul\":6711:6714   */\n      0xe0\n        /* \"#utility.yul\":6700:6709   */\n      dup3\n        /* \"#utility.yul\":6696:6715   */\n      add\n        /* \"#utility.yul\":6688:6715   */\n      swap1\n      pop\n        /* \"#utility.yul\":6725:6796   */\n      tag_206\n        /* \"#utility.yul\":6793:6794   */\n      0x00\n        /* \"#utility.yul\":6782:6791   */\n      dup4\n        /* \"#utility.yul\":6778:6795   */\n      add\n        /* \"#utility.yul\":6769:6775   */\n      dup11\n        /* \"#utility.yul\":6725:6796   */\n      tag_88\n      jump\t// in\n    tag_206:\n        /* \"#utility.yul\":6843:6852   */\n      dup2\n        /* \"#utility.yul\":6837:6841   */\n      dup2\n        /* \"#utility.yul\":6833:6853   */\n      sub\n        /* \"#utility.yul\":6828:6830   */\n      0x20\n        /* \"#utility.yul\":6817:6826   */\n      dup4\n        /* \"#utility.yul\":6813:6831   */\n      add\n        /* \"#utility.yul\":6806:6854   */\n      mstore\n        /* \"#utility.yul\":6871:6949   */\n      tag_207\n        /* \"#utility.yul\":6944:6948   */\n      dup2\n        /* \"#utility.yul\":6935:6941   */\n      dup10\n        /* \"#utility.yul\":6871:6949   */\n      tag_92\n      jump\t// in\n    tag_207:\n        /* \"#utility.yul\":6863:6949   */\n      swap1\n      pop\n        /* \"#utility.yul\":6959:7031   */\n      tag_208\n        /* \"#utility.yul\":7027:7029   */\n      0x40\n        /* \"#utility.yul\":7016:7025   */\n      dup4\n        /* \"#utility.yul\":7012:7030   */\n      add\n        /* \"#utility.yul\":7003:7009   */\n      dup9\n        /* \"#utility.yul\":6959:7031   */\n      tag_88\n      jump\t// in\n    tag_208:\n        /* \"#utility.yul\":7041:7113   */\n      tag_209\n        /* \"#utility.yul\":7109:7111   */\n      0x60\n        /* \"#utility.yul\":7098:7107   */\n      dup4\n        /* \"#utility.yul\":7094:7112   */\n      add\n        /* \"#utility.yul\":7085:7091   */\n      dup8\n        /* \"#utility.yul\":7041:7113   */\n      tag_88\n      jump\t// in\n    tag_209:\n        /* \"#utility.yul\":7123:7196   */\n      tag_210\n        /* \"#utility.yul\":7191:7194   */\n      0x80\n        /* \"#utility.yul\":7180:7189   */\n      dup4\n        /* \"#utility.yul\":7176:7195   */\n      add\n        /* \"#utility.yul\":7167:7173   */\n      dup7\n        /* \"#utility.yul\":7123:7196   */\n      tag_95\n      jump\t// in\n    tag_210:\n        /* \"#utility.yul\":7206:7279   */\n      tag_211\n        /* \"#utility.yul\":7274:7277   */\n      0xa0\n        /* \"#utility.yul\":7263:7272   */\n      dup4\n        /* \"#utility.yul\":7259:7278   */\n      add\n        /* \"#utility.yul\":7250:7256   */\n      dup6\n        /* \"#utility.yul\":7206:7279   */\n      tag_95\n      jump\t// in\n    tag_211:\n        /* \"#utility.yul\":7289:7367   */\n      tag_212\n        /* \"#utility.yul\":7362:7365   */\n      0xc0\n        /* \"#utility.yul\":7351:7360   */\n      dup4\n        /* \"#utility.yul\":7347:7366   */\n      add\n        /* \"#utility.yul\":7338:7344   */\n      dup5\n        /* \"#utility.yul\":7289:7367   */\n      tag_99\n      jump\t// in\n    tag_212:\n        /* \"#utility.yul\":6387:7374   */\n      swap9\n      swap8\n      pop\n      pop\n      pop\n      pop\n      pop\n      pop\n      pop\n      pop\n      jump\t// out\n        /* \"#utility.yul\":7380:7502   */\n    tag_100:\n        /* \"#utility.yul\":7453:7477   */\n      tag_214\n        /* \"#utility.yul\":7471:7476   */\n      dup2\n        /* \"#utility.yul\":7453:7477   */\n      tag_94\n      jump\t// in\n    tag_214:\n        /* \"#utility.yul\":7446:7451   */\n      dup2\n        /* \"#utility.yul\":7443:7478   */\n      eq\n        /* \"#utility.yul\":7433:7496   */\n      tag_215\n      jumpi\n        /* \"#utility.yul\":7492:7493   */\n      0x00\n        /* \"#utility.yul\":7489:7490   */\n      dup1\n        /* \"#utility.yul\":7482:7494   */\n      revert\n        /* \"#utility.yul\":7433:7496   */\n    tag_215:\n        /* \"#utility.yul\":7380:7502   */\n      pop\n      jump\t// out\n        /* \"#utility.yul\":7508:7647   */\n    tag_101:\n        /* \"#utility.yul\":7554:7559   */\n      0x00\n        /* \"#utility.yul\":7592:7598   */\n      dup2\n        /* \"#utility.yul\":7579:7599   */\n      calldataload\n        /* \"#utility.yul\":7570:7599   */\n      swap1\n      pop\n        /* \"#utility.yul\":7608:7641   */\n      tag_217\n        /* \"#utility.yul\":7635:7640   */\n      dup2\n        /* \"#utility.yul\":7608:7641   */\n      tag_100\n      jump\t// in\n    tag_217:\n        /* \"#utility.yul\":7508:7647   */\n      swap3\n      swap2\n      pop\n      pop\n      jump\t// out\n        /* \"#utility.yul\":7653:8127   */\n    tag_24:\n        /* \"#utility.yul\":7721:7727   */\n      0x00\n        /* \"#utility.yul\":7729:7735   */\n      dup1\n        /* \"#utility.yul\":7778:7780   */\n      0x40\n        /* \"#utility.yul\":7766:7775   */\n      dup4\n        /* \"#utility.yul\":7757:7764   */\n      dup6\n        /* \"#utility.yul\":7753:7776   */\n      sub\n        /* \"#utility.yul\":7749:7781   */\n      slt\n        /* \"#utility.yul\":7746:7865   */\n      iszero\n      tag_219\n      jumpi\n        /* \"#utility.yul\":7784:7863   */\n      tag_220\n      tag_73\n      jump\t// in\n    tag_220:\n        /* \"#utility.yul\":7746:7865   */\n    tag_219:\n        /* \"#utility.yul\":7904:7905   */\n      0x00\n        /* \"#utility.yul\":7929:7982   */\n      tag_221\n        /* \"#utility.yul\":7974:7981   */\n      dup6\n        /* \"#utility.yul\":7965:7971   */\n      dup3\n        /* \"#utility.yul\":7954:7963   */\n      dup7\n        /* \"#utility.yul\":7950:7972   */\n      add\n        /* \"#utility.yul\":7929:7982   */\n      tag_87\n      jump\t// in\n    tag_221:\n        /* \"#utility.yul\":7919:7982   */\n      swap3\n      pop\n        /* \"#utility.yul\":7875:7992   */\n      pop\n        /* \"#utility.yul\":8031:8033   */\n      0x20\n        /* \"#utility.yul\":8057:8110   */\n      tag_222\n        /* \"#utility.yul\":8102:8109   */\n      dup6\n        /* \"#utility.yul\":8093:8099   */\n      dup3\n        /* \"#utility.yul\":8082:8091   */\n      dup7\n        /* \"#utility.yul\":8078:8100   */\n      add\n        /* \"#utility.yul\":8057:8110   */\n      tag_101\n      jump\t// in\n    tag_222:\n        /* \"#utility.yul\":8047:8110   */\n      swap2\n      pop\n        /* \"#utility.yul\":8002:8120   */\n      pop\n        /* \"#utility.yul\":7653:8127   */\n      swap3\n      pop\n      swap3\n      swap1\n      pop\n      jump\t// out\n        /* \"#utility.yul\":8133:8313   */\n    tag_102:\n        /* \"#utility.yul\":8181:8258   */\n      0x4e487b7100000000000000000000000000000000000000000000000000000000\n        /* \"#utility.yul\":8178:8179   */\n      0x00\n        /* \"#utility.yul\":8171:8259   */\n      mstore\n        /* \"#utility.yul\":8278:8282   */\n      0x11\n        /* \"#utility.yul\":8275:8276   */\n      0x04\n        /* \"#utility.yul\":8268:8283   */\n      mstore\n        /* \"#utility.yul\":8302:8306   */\n      0x24\n        /* \"#utility.yul\":8299:8300   */\n      0x00\n        /* \"#utility.yul\":8292:8307   */\n      revert\n        /* \"#utility.yul\":8319:8552   */\n    tag_31:\n        /* \"#utility.yul\":8358:8361   */\n      0x00\n        /* \"#utility.yul\":8381:8405   */\n      tag_225\n        /* \"#utility.yul\":8399:8404   */\n      dup3\n        /* \"#utility.yul\":8381:8405   */\n      tag_85\n      jump\t// in\n    tag_225:\n        /* \"#utility.yul\":8372:8405   */\n      swap2\n      pop\n        /* \"#utility.yul\":8427:8493   */\n      0xffffffffffffffffffffffffffffffffffffffffffffffffffffffffffffffff\n        /* \"#utility.yul\":8420:8425   */\n      dup3\n        /* \"#utility.yul\":8417:8494   */\n      sub\n        /* \"#utility.yul\":8414:8517   */\n      tag_226\n      jumpi\n        /* \"#utility.yul\":8497:8515   */\n      tag_227\n      tag_102\n      jump\t// in\n    tag_227:\n        /* \"#utility.yul\":8414:8517   */\n    tag_226:\n        /* \"#utility.yul\":8544:8545   */\n      0x01\n        /* \"#utility.yul\":8537:8542   */\n      dup3\n        /* \"#utility.yul\":8533:8546   */\n      add\n        /* \"#utility.yul\":8526:8546   */\n      swap1\n      pop\n        /* \"#utility.yul\":8319:8552   */\n      swap2\n      swap1\n      pop\n      jump\t// out\n        /* \"#utility.yul\":8558:8738   */\n    tag_103:\n        /* \"#utility.yul\":8606:8683   */\n      0x4e487b7100000000000000000000000000000000000000000000000000000000\n        /* \"#utility.yul\":8603:8604   */\n      0x00\n        /* \"#utility.yul\":8596:8684   */\n      mstore\n        /* \"#utility.yul\":8703:8707   */\n      0x22\n        /* \"#utility.yul\":8700:8701   */\n      0x04\n        /* \"#utility.yul\":8693:8708   */\n      mstore\n        /* \"#utility.yul\":8727:8731   */\n      0x24\n        /* \"#utility.yul\":8724:8725   */\n      0x00\n        /* \"#utility.yul\":8717:8732   */\n      revert\n        /* \"#utility.yul\":8744:9064   */\n    tag_42:\n        /* \"#utility.yul\":8788:8794   */\n      0x00\n        /* \"#utility.yul\":8825:8826   */\n      0x02\n        /* \"#utility.yul\":8819:8823   */\n      dup3\n        /* \"#utility.yul\":8815:8827   */\n      div\n        /* \"#utility.yul\":8805:8827   */\n      swap1\n      pop\n        /* \"#utility.yul\":8872:8873   */\n      0x01\n        /* \"#utility.yul\":8866:8870   */\n      dup3\n        /* \"#utility.yul\":8862:8874   */\n      and\n        /* \"#utility.yul\":8893:8911   */\n      dup1\n        /* \"#utility.yul\":8883:8964   */\n      tag_230\n      jumpi\n        /* \"#utility.yul\":8949:8953   */\n      0x7f\n        /* \"#utility.yul\":8941:8947   */\n      dup3\n        /* \"#utility.yul\":8937:8954   */\n      and\n        /* \"#utility.yul\":8927:8954   */\n      swap2\n      pop\n        /* \"#utility.yul\":8883:8964   */\n    tag_230:\n        /* \"#utility.yul\":9011:9013   */\n      0x20\n        /* \"#utility.yul\":9003:9009   */\n      dup3\n        /* \"#utility.yul\":9000:9014   */\n      lt\n        /* \"#utility.yul\":8980:8998   */\n      dup2\n        /* \"#utility.yul\":8977:9015   */\n      sub\n        /* \"#utility.yul\":8974:9058   */\n      tag_231\n      jumpi\n        /* \"#utility.yul\":9030:9048   */\n      tag_232\n      tag_103\n      jump\t// in\n    tag_232:\n        /* \"#utility.yul\":8974:9058   */\n    tag_231:\n        /* \"#utility.yul\":8795:9064   */\n      pop\n        /* \"#utility.yul\":8744:9064   */\n      swap2\n      swap1\n      pop\n      jump\t// out\n        /* \"#utility.yul\":9070:9211   */\n    tag_104:\n        /* \"#utility.yul\":9119:9123   */\n      0x00\n        /* \"#utility.yul\":9142:9145   */\n      dup2\n        /* \"#utility.yul\":9134:9145   */\n      swap1\n      pop\n        /* \"#utility.yul\":9165:9168   */\n      dup2\n        /* \"#utility.yul\":9162:9163   */\n      0x00\n        /* \"#utility.yul\":9155:9169   */\n      mstore\n        /* \"#utility.yul\":9199:9203   */\n      0x20\n        /* \"#utility.yul\":9196:9197   */\n      0x00\n        /* \"#utility.yul\":9186:9204   */\n      keccak256\n        /* \"#utility.yul\":9178:9204   */\n      swap1\n      pop\n        /* \"#utility.yul\":9070:9211   */\n      swap2\n      swap1\n      pop\n      jump\t// out\n        /* \"#utility.yul\":9217:9310   */\n    tag_105:\n        /* \"#utility.yul\":9254:9260   */\n      0x00\n        /* \"#utility.yul\":9301:9303   */\n      0x20\n        /* \"#utility.yul\":9296:9298   */\n      0x1f\n        /* \"#utility.yul\":9289:9294   */\n      dup4\n        /* \"#utility.yul\":9285:9299   */\n      add\n        /* \"#utility.yul\":9281:9304   */\n      div\n        /* \"#utility.yul\":9271:9304   */\n      swap1\n      pop\n        /* \"#utility.yul\":9217:9310   */\n      swap2\n      swap1\n      pop\n      jump\t// out\n        /* \"#utility.yul\":9316:9423   */\n    tag_106:\n        /* \"#utility.yul\":9360:9368   */\n      0x00\n        /* \"#utility.yul\":9410:9415   */\n      dup3\n        /* \"#utility.yul\":9404:9408   */\n      dup3\n        /* \"#utility.yul\":9400:9416   */\n      shl\n        /* \"#utility.yul\":9379:9416   */\n      swap1\n      pop\n        /* \"#utility.yul\":9316:9423   */\n      swap3\n      swap2\n      pop\n      pop\n      jump\t// out\n        /* \"#utility.yul\":9429:9822   */\n    tag_107:\n        /* \"#utility.yul\":9498:9504   */\n      0x00\n        /* \"#utility.yul\":9548:9549   */\n      0x08\n        /* \"#utility.yul\":9536:9546   */\n      dup4\n        /* \"#utility.yul\":9532:9550   */\n      mul\n        /* \"#utility.yul\":9571:9668   */\n      tag_237\n        /* \"#utility.yul\":9601:9667   */\n      0xffffffffffffffffffffffffffffffffffffffffffffffffffffffffffffffff\n        /* \"#utility.yul\":9590:9599   */\n      dup3\n        /* \"#utility.yul\":9571:9668   */\n      tag_106\n      jump\t// in\n    tag_237:\n        /* \"#utility.yul\":9689:9728   */\n      tag_238\n        /* \"#utility.yul\":9719:9727   */\n      dup7\n        /* \"#utility.yul\":9708:9717   */\n      dup4\n        /* \"#utility.yul\":9689:9728   */\n      tag_106\n      jump\t// in\n    tag_238:\n        /* \"#utility.yul\":9677:9728   */\n      swap6\n      pop\n        /* \"#utility.yul\":9761:9765   */\n      dup1\n        /* \"#utility.yul\":9757:9766   */\n      not\n        /* \"#utility.yul\":9750:9755   */\n      dup5\n        /* \"#utility.yul\":9746:9767   */\n      and\n        /* \"#utility.yul\":9737:9767   */\n      swap4\n      pop\n        /* \"#utility.yul\":9810:9814   */\n      dup1\n        /* \"#utility.yul\":9800:9808   */\n      dup7\n        /* \"#utility.yul\":9796:9815   */\n      and\n        /* \"#utility.yul\":9789:9794   */\n      dup5\n        /* \"#utility.yul\":9786:9816   */\n      or\n        /* \"#utility.yul\":9776:9816   */\n      swap3\n      pop\n        /* \"#utility.yul\":9505:9822   */\n      pop\n      pop\n        /* \"#utility.yul\":9429:9822   */\n      swap4\n      swap3\n      pop\n      pop\n      pop\n      jump\t// out\n        /* \"#utility.yul\":9828:9888   */\n    tag_108:\n        /* \"#utility.yul\":9856:9859   */\n      0x00\n        /* \"#utility.yul\":9877:9882   */\n      dup2\n        /* \"#utility.yul\":9870:9882   */\n      swap1\n      pop\n        /* \"#utility.yul\":9828:9888   */\n      swap2\n      swap1\n      pop\n      jump\t// out\n        /* \"#utility.yul\":9894:10036   */\n    tag_109:\n        /* \"#utility.yul\":9944:9953   */\n      0x00\n        /* \"#utility.yul\":9977:10030   */\n      tag_241\n        /* \"#utility.yul\":9995:10029   */\n      tag_242\n        /* \"#utility.yul\":10004:10028   */\n      tag_243\n        /* \"#utility.yul\":10022:10027   */\n      dup5\n        /* \"#utility.yul\":10004:10028   */\n      tag_85\n      jump\t// in\n    tag_243:\n        /* \"#utility.yul\":9995:10029   */\n      tag_108\n      jump\t// in\n    tag_242:\n        /* \"#utility.yul\":9977:10030   */\n      tag_85\n      jump\t// in\n    tag_241:\n        /* \"#utility.yul\":9964:10030   */\n      swap1\n      pop\n        /* \"#utility.yul\":9894:10036   */\n      swap2\n      swap1\n      pop\n      jump\t// out\n        /* \"#utility.yul\":10042:10117   */\n    tag_110:\n        /* \"#utility.yul\":10085:10088   */\n      0x00\n        /* \"#utility.yul\":10106:10111   */\n      dup2\n        /* \"#utility.yul\":10099:10111   */\n      swap1\n      pop\n        /* \"#utility.yul\":10042:10117   */\n      swap2\n      swap1\n      pop\n      jump\t// out\n        /* \"#utility.yul\":10123:10392   */\n    tag_111:\n        /* \"#utility.yul\":10233:10272   */\n      tag_246\n        /* \"#utility.yul\":10264:10271   */\n      dup4\n        /* \"#utility.yul\":10233:10272   */\n      tag_109\n      jump\t// in\n    tag_246:\n        /* \"#utility.yul\":10294:10385   */\n      tag_247\n        /* \"#utility.yul\":10343:10384   */\n      tag_248\n        /* \"#utility.yul\":10367:10383   */\n      dup3\n        /* \"#utility.yul\":10343:10384   */\n      tag_110\n      jump\t// in\n    tag_248:\n        /* \"#utility.yul\":10335:10341   */\n      dup5\n        /* \"#utility.yul\":10328:10332   */\n      dup5\n        /* \"#utility.yul\":10322:10333   */\n      sload\n        /* \"#utility.yul\":10294:10385   */\n      tag_107\n      jump\t// in\n    tag_247:\n        /* \"#utility.yul\":10288:10292   */\n      dup3\n        /* \"#utility.yul\":10281:10386   */\n      sstore\n        /* \"#utility.yul\":10199:10392   */\n      pop\n        /* \"#utility.yul\":10123:10392   */\n      pop\n      pop\n      pop\n      jump\t// out\n        /* \"#utility.yul\":10398:10471   */\n    tag_112:\n        /* \"#utility.yul\":10443:10446   */\n      0x00\n        /* \"#utility.yul\":10398:10471   */\n      swap1\n      jump\t// out\n        /* \"#utility.yul\":10477:10666   */\n    tag_113:\n        /* \"#utility.yul\":10554:10586   */\n      tag_251\n      tag_112\n      jump\t// in\n    tag_251:\n        /* \"#utility.yul\":10595:10660   */\n      tag_252\n        /* \"#utility.yul\":10653:10659   */\n      dup2\n        /* \"#utility.yul\":10645:10651   */\n      dup5\n        /* \"#utility.yul\":10639:10643   */\n      dup5\n        /* \"#utility.yul\":10595:10660   */\n      tag_111\n      jump\t// in\n    tag_252:\n        /* \"#utility.yul\":10530:10666   */\n      pop\n        /* \"#utility.yul\":10477:10666   */\n      pop\n      pop\n      jump\t// out\n        /* \"#utility.yul\":10672:10858   */\n    tag_114:\n        /* \"#utility.yul\":10732:10852   */\n    tag_254:\n        /* \"#utility.yul\":10749:10752   */\n      dup2\n        /* \"#utility.yul\":10742:10747   */\n      dup2\n        /* \"#utility.yul\":10739:10753   */\n      lt\n        /* \"#utility.yul\":10732:10852   */\n      iszero\n      tag_256\n      jumpi\n        /* \"#utility.yul\":10803:10842   */\n      tag_257\n        /* \"#utility.yul\":10840:10841   */\n      0x00\n        /* \"#utility.yul\":10833:10838   */\n      dup3\n        /* \"#utility.yul\":10803:10842   */\n      tag_113\n      jump\t// in\n    tag_257:\n        /* \"#utility.yul\":10776:10777   */\n      0x01\n        /* \"#utility.yul\":10769:10774   */\n      dup2\n        /* \"#utility.yul\":10765:10778   */\n      add\n        /* \"#utility.yul\":10756:10778   */\n      swap1\n      pop\n        /* \"#utility.yul\":10732:10852   */\n      jump(tag_254)\n    tag_256:\n        /* \"#utility.yul\":10672:10858   */\n      pop\n      pop\n      jump\t// out\n        /* \"#utility.yul\":10864:11407   */\n    tag_115:\n        /* \"#utility.yul\":10965:10967   */\n      0x1f\n        /* \"#utility.yul\":10960:10963   */\n      dup3\n        /* \"#utility.yul\":10957:10968   */\n      gt\n        /* \"#utility.yul\":10954:11400   */\n      iszero\n      tag_259\n      jumpi\n        /* \"#utility.yul\":10999:11037   */\n      tag_260\n        /* \"#utility.yul\":11031:11036   */\n      dup2\n        /* \"#utility.yul\":10999:11037   */\n      tag_104\n      jump\t// in\n    tag_260:\n        /* \"#utility.yul\":11083:11112   */\n      tag_261\n        /* \"#utility.yul\":11101:11111   */\n      dup5\n        /* \"#utility.yul\":11083:11112   */\n      tag_105\n      jump\t// in\n    tag_261:\n        /* \"#utility.yul\":11073:11081   */\n      dup2\n        /* \"#utility.yul\":11069:11113   */\n      add\n        /* \"#utility.yul\":11266:11268   */\n      0x20\n        /* \"#utility.yul\":11254:11264   */\n      dup6\n        /* \"#utility.yul\":11251:11269   */\n      lt\n        /* \"#utility.yul\":11248:11297   */\n      iszero\n      tag_262\n      jumpi\n        /* \"#utility.yul\":11287:11295   */\n      dup2\n        /* \"#utility.yul\":11272:11295   */\n      swap1\n      pop\n        /* \"#utility.yul\":11248:11297   */\n    tag_262:\n        /* \"#utility.yul\":11310:11390   */\n      tag_263\n        /* \"#utility.yul\":11366:11388   */\n      tag_264\n        /* \"#utility.yul\":11384:11387   */\n      dup6\n        /* \"#utility.yul\":11366:11388   */\n      tag_105\n      jump\t// in\n    tag_264:\n        /* \"#utility.yul\":11356:11364   */\n      dup4\n        /* \"#utility.yul\":11352:11389   */\n      add\n        /* \"#utility.yul\":11339:11350   */\n      dup3\n        /* \"#utility.yul\":11310:11390   */\n      tag_114\n      jump\t// in\n    tag_263:\n        /* \"#utility.yul\":10969:11400   */\n      pop\n      pop\n        /* \"#utility.yul\":10954:11400   */\n    tag_259:\n        /* \"#utility.yul\":10864:11407   */\n      pop\n      pop\n      pop\n      jump\t// out\n        /* \"#utility.yul\":11413:11530   */\n    tag_116:\n        /* \"#utility.yul\":11467:11475   */\n      0x00\n        /* \"#utility.yul\":11517:11522   */\n      dup3\n        /* \"#utility.yul\":11511:11515   */\n      dup3\n        /* \"#utility.yul\":11507:11523   */\n      shr\n        /* \"#utility.yul\":11486:11523   */\n      swap1\n      pop\n        /* \"#utility.yul\":11413:11530   */\n      swap3\n      swap2\n      pop\n      pop\n      jump\t// out\n        /* \"#utility.yul\":11536:11705   */\n    tag_117:\n        /* \"#utility.yul\":11580:11586   */\n      0x00\n        /* \"#utility.yul\":11613:11664   */\n      tag_267\n        /* \"#utility.yul\":11661:11662   */\n      0x00\n        /* \"#utility.yul\":11657:11663   */\n      not\n        /* \"#utility.yul\":11649:11654   */\n      dup5\n        /* \"#utility.yul\":11646:11647   */\n      0x08\n        /* \"#utility.yul\":11642:11655   */\n      mul\n        /* \"#utility.yul\":11613:11664   */\n      tag_116\n      jump\t// in\n    tag_267:\n        /* \"#utility.yul\":11609:11665   */\n      not\n        /* \"#utility.yul\":11694:11698   */\n      dup1\n        /* \"#utility.yul\":11688:11692   */\n      dup4\n        /* \"#utility.yul\":11684:11699   */\n      and\n        /* \"#utility.yul\":11674:11699   */\n      swap2\n      pop\n        /* \"#utility.yul\":11587:11705   */\n      pop\n        /* \"#utility.yul\":11536:11705   */\n      swap3\n      swap2\n      pop\n      pop\n      jump\t// out\n        /* \"#utility.yul\":11710:12005   */\n    tag_118:\n        /* \"#utility.yul\":11786:11790   */\n      0x00\n        /* \"#utility.yul\":11932:11961   */\n      tag_269\n        /* \"#utility.yul\":11957:11960   */\n      dup4\n        /* \"#utility.yul\":11951:11955   */\n      dup4\n        /* \"#utility.yul\":11932:11961   */\n      tag_117\n      jump\t// in\n    tag_269:\n        /* \"#utility.yul\":11924:11961   */\n      swap2\n      pop\n        /* \"#utility.yul\":11994:11997   */\n      dup3\n        /* \"#utility.yul\":11991:11992   */\n      0x02\n        /* \"#utility.yul\":11987:11998   */\n      mul\n        /* \"#utility.yul\":11981:11985   */\n      dup3\n        /* \"#utility.yul\":11978:11999   */\n      or\n        /* \"#utility.yul\":11970:11999   */\n      swap1\n      pop\n        /* \"#utility.yul\":11710:12005   */\n      swap3\n      swap2\n      pop\n      pop\n      jump\t// out\n        /* \"#utility.yul\":12010:13405   */\n    tag_36:\n        /* \"#utility.yul\":12127:12164   */\n      tag_271\n        /* \"#utility.yul\":12160:12163   */\n      dup3\n        /* \"#utility.yul\":12127:12164   */\n      tag_89\n      jump\t// in\n    tag_271:\n        /* \"#utility.yul\":12229:12247   */\n      0xffffffffffffffff\n        /* \"#utility.yul\":12221:12227   */\n      dup2\n        /* \"#utility.yul\":12218:12248   */\n      gt\n        /* \"#utility.yul\":12215:12271   */\n      iszero\n      tag_272\n      jumpi\n        /* \"#utility.yul\":12251:12269   */\n      tag_273\n      tag_78\n      jump\t// in\n    tag_273:\n        /* \"#utility.yul\":12215:12271   */\n    tag_272:\n        /* \"#utility.yul\":12295:12333   */\n      tag_274\n        /* \"#utility.yul\":12327:12331   */\n      dup3\n        /* \"#utility.yul\":12321:12332   */\n      sload\n        /* \"#utility.yul\":12295:12333   */\n      tag_42\n      jump\t// in\n    tag_274:\n        /* \"#utility.yul\":12380:12447   */\n      tag_275\n        /* \"#utility.yul\":12440:12446   */\n      dup3\n        /* \"#utility.yul\":12432:12438   */\n      dup3\n        /* \"#utility.yul\":12426:12430   */\n      dup6\n        /* \"#utility.yul\":12380:12447   */\n      tag_115\n      jump\t// in\n    tag_275:\n        /* \"#utility.yul\":12474:12475   */\n      0x00\n        /* \"#utility.yul\":12498:12502   */\n      0x20\n        /* \"#utility.yul\":12485:12502   */\n      swap1\n      pop\n        /* \"#utility.yul\":12530:12532   */\n      0x1f\n        /* \"#utility.yul\":12522:12528   */\n      dup4\n        /* \"#utility.yul\":12519:12533   */\n      gt\n        /* \"#utility.yul\":12547:12548   */\n      0x01\n        /* \"#utility.yul\":12542:13160   */\n      dup2\n      eq\n      tag_277\n      jumpi\n        /* \"#utility.yul\":13204:13205   */\n      0x00\n        /* \"#utility.yul\":13221:13227   */\n      dup5\n        /* \"#utility.yul\":13218:13295   */\n      iszero\n      tag_278\n      jumpi\n        /* \"#utility.yul\":13270:13279   */\n      dup3\n        /* \"#utility.yul\":13265:13268   */\n      dup8\n        /* \"#utility.yul\":13261:13280   */\n      add\n        /* \"#utility.yul\":13255:13281   */\n      mload\n        /* \"#utility.yul\":13246:13281   */\n      swap1\n      pop\n        /* \"#utility.yul\":13218:13295   */\n    tag_278:\n        /* \"#utility.yul\":13321:13388   */\n      tag_279\n        /* \"#utility.yul\":13381:13387   */\n      dup6\n        /* \"#utility.yul\":13374:13379   */\n      dup3\n        /* \"#utility.yul\":13321:13388   */\n      tag_118\n      jump\t// in\n    tag_279:\n        /* \"#utility.yul\":13315:13319   */\n      dup7\n        /* \"#utility.yul\":13308:13389   */\n      sstore\n        /* \"#utility.yul\":13177:13399   */\n      pop\n        /* \"#utility.yul\":12512:13399   */\n      jump(tag_276)\n        /* \"#utility.yul\":12542:13160   */\n    tag_277:\n        /* \"#utility.yul\":12594:12598   */\n      0x1f\n        /* \"#utility.yul\":12590:12599   */\n      not\n        /* \"#utility.yul\":12582:12588   */\n      dup5\n        /* \"#utility.yul\":12578:12600   */\n      and\n        /* \"#utility.yul\":12628:12665   */\n      tag_280\n        /* \"#utility.yul\":12660:12664   */\n      dup7\n        /* \"#utility.yul\":12628:12665   */\n      tag_104\n      jump\t// in\n    tag_280:\n        /* \"#utility.yul\":12687:12688   */\n      0x00\n        /* \"#utility.yul\":12701:12909   */\n    tag_281:\n        /* \"#utility.yul\":12715:12722   */\n      dup3\n        /* \"#utility.yul\":12712:12713   */\n      dup2\n        /* \"#utility.yul\":12709:12723   */\n      lt\n        /* \"#utility.yul\":12701:12909   */\n      iszero\n      tag_283\n      jumpi\n        /* \"#utility.yul\":12794:12803   */\n      dup5\n        /* \"#utility.yul\":12789:12792   */\n      dup10\n        /* \"#utility.yul\":12785:12804   */\n      add\n        /* \"#utility.yul\":12779:12805   */\n      mload\n        /* \"#utility.yul\":12771:12777   */\n      dup3\n        /* \"#utility.yul\":12764:12806   */\n      sstore\n        /* \"#utility.yul\":12845:12846   */\n      0x01\n        /* \"#utility.yul\":12837:12843   */\n      dup3\n        /* \"#utility.yul\":12833:12847   */\n      add\n        /* \"#utility.yul\":12823:12847   */\n      swap2\n      pop\n        /* \"#utility.yul\":12892:12894   */\n      0x20\n        /* \"#utility.yul\":12881:12890   */\n      dup6\n        /* \"#utility.yul\":12877:12895   */\n      add\n        /* \"#utility.yul\":12864:12895   */\n      swap5\n      pop\n        /* \"#utility.yul\":12738:12742   */\n      0x20\n        /* \"#utility.yul\":12735:12736   */\n      dup2\n        /* \"#utility.yul\":12731:12743   */\n      add\n        /* \"#utility.yul\":12726:12743   */\n      swap1\n      pop\n        /* \"#utility.yul\":12701:12909   */\n      jump(tag_281)\n    tag_283:\n        /* \"#utility.yul\":12937:12943   */\n      dup7\n        /* \"#utility.yul\":12928:12935   */\n      dup4\n        /* \"#utility.yul\":12925:12944   */\n      lt\n        /* \"#utility.yul\":12922:13101   */\n      iszero\n      tag_284\n      jumpi\n        /* \"#utility.yul\":12995:13004   */\n      dup5\n        /* \"#utility.yul\":12990:12993   */\n      dup10\n        /* \"#utility.yul\":12986:13005   */\n      add\n        /* \"#utility.yul\":12980:13006   */\n      mload\n        /* \"#utility.yul\":13038:13086   */\n      tag_285\n        /* \"#utility.yul\":13080:13084   */\n      0x1f\n        /* \"#utility.yul\":13072:13078   */\n      dup10\n        /* \"#utility.yul\":13068:13085   */\n      and\n        /* \"#utility.yul\":13057:13066   */\n      dup3\n        /* \"#utility.yul\":13038:13086   */\n      tag_117\n      jump\t// in\n    tag_285:\n        /* \"#utility.yul\":13030:13036   */\n      dup4\n        /* \"#utility.yul\":13023:13087   */\n      sstore\n        /* \"#utility.yul\":12945:13101   */\n      pop\n        /* \"#utility.yul\":12922:13101   */\n    tag_284:\n        /* \"#utility.yul\":13147:13148   */\n      0x01\n        /* \"#utility.yul\":13143:13144   */\n      0x02\n        /* \"#utility.yul\":13135:13141   */\n      dup9\n        /* \"#utility.yul\":13131:13145   */\n      mul\n        /* \"#utility.yul\":13127:13149   */\n      add\n        /* \"#utility.yul\":13121:13125   */\n      dup9\n        /* \"#utility.yul\":13114:13150   */\n      sstore\n        /* \"#utility.yul\":12549:13160   */\n      pop\n      pop\n      pop\n        /* \"#utility.yul\":12512:13399   */\n    tag_276:\n      pop\n        /* \"#utility.yul\":12102:13405   */\n      pop\n      pop\n      pop\n        /* \"#utility.yul\":12010:13405   */\n      pop\n      pop\n      jump\t// out\n        /* \"#utility.yul\":13411:14055   */\n    tag_40:\n        /* \"#utility.yul\":13608:13612   */\n      0x00\n        /* \"#utility.yul\":13646:13649   */\n      0x80\n        /* \"#utility.yul\":13635:13644   */\n      dup3\n        /* \"#utility.yul\":13631:13650   */\n      add\n        /* \"#utility.yul\":13623:13650   */\n      swap1\n      pop\n        /* \"#utility.yul\":13696:13705   */\n      dup2\n        /* \"#utility.yul\":13690:13694   */\n      dup2\n        /* \"#utility.yul\":13686:13706   */\n      sub\n        /* \"#utility.yul\":13682:13683   */\n      0x00\n        /* \"#utility.yul\":13671:13680   */\n      dup4\n        /* \"#utility.yul\":13667:13684   */\n      add\n        /* \"#utility.yul\":13660:13707   */\n      mstore\n        /* \"#utility.yul\":13724:13802   */\n      tag_287\n        /* \"#utility.yul\":13797:13801   */\n      dup2\n        /* \"#utility.yul\":13788:13794   */\n      dup8\n        /* \"#utility.yul\":13724:13802   */\n      tag_92\n      jump\t// in\n    tag_287:\n        /* \"#utility.yul\":13716:13802   */\n      swap1\n      pop\n        /* \"#utility.yul\":13812:13884   */\n      tag_288\n        /* \"#utility.yul\":13880:13882   */\n      0x20\n        /* \"#utility.yul\":13869:13878   */\n      dup4\n        /* \"#utility.yul\":13865:13883   */\n      add\n        /* \"#utility.yul\":13856:13862   */\n      dup7\n        /* \"#utility.yul\":13812:13884   */\n      tag_88\n      jump\t// in\n    tag_288:\n        /* \"#utility.yul\":13894:13966   */\n      tag_289\n        /* \"#utility.yul\":13962:13964   */\n      0x40\n        /* \"#utility.yul\":13951:13960   */\n      dup4\n        /* \"#utility.yul\":13947:13965   */\n      add\n        /* \"#utility.yul\":13938:13944   */\n      dup6\n        /* \"#utility.yul\":13894:13966   */\n      tag_88\n      jump\t// in\n    tag_289:\n        /* \"#utility.yul\":13976:14048   */\n      tag_290\n        /* \"#utility.yul\":14044:14046   */\n      0x60\n        /* \"#utility.yul\":14033:14042   */\n      dup4\n        /* \"#utility.yul\":14029:14047   */\n      add\n        /* \"#utility.yul\":14020:14026   */\n      dup5\n        /* \"#utility.yul\":13976:14048   */\n      tag_95\n      jump\t// in\n    tag_290:\n        /* \"#utility.yul\":13411:14055   */\n      swap6\n      swap5\n      pop\n      pop\n      pop\n      pop\n      pop\n      jump\t// out\n        /* \"#utility.yul\":14061:14228   */\n    tag_119:\n        /* \"#utility.yul\":14201:14220   */\n      0x4974656d20616c726561647920736f6c64000000000000000000000000000000\n        /* \"#utility.yul\":14197:14198   */\n      0x00\n        /* \"#utility.yul\":14189:14195   */\n      dup3\n        /* \"#utility.yul\":14185:14199   */\n      add\n        /* \"#utility.yul\":14178:14221   */\n      mstore\n        /* \"#utility.yul\":14061:14228   */\n      pop\n      jump\t// out\n        /* \"#utility.yul\":14234:14600   */\n    tag_120:\n        /* \"#utility.yul\":14376:14379   */\n      0x00\n        /* \"#utility.yul\":14397:14464   */\n      tag_293\n        /* \"#utility.yul\":14461:14463   */\n      0x11\n        /* \"#utility.yul\":14456:14459   */\n      dup4\n        /* \"#utility.yul\":14397:14464   */\n      tag_90\n      jump\t// in\n    tag_293:\n        /* \"#utility.yul\":14390:14464   */\n      swap2\n      pop\n        /* \"#utility.yul\":14473:14566   */\n      tag_294\n        /* \"#utility.yul\":14562:14565   */\n      dup3\n        /* \"#utility.yul\":14473:14566   */\n      tag_119\n      jump\t// in\n    tag_294:\n        /* \"#utility.yul\":14591:14593   */\n      0x20\n        /* \"#utility.yul\":14586:14589   */\n      dup3\n        /* \"#utility.yul\":14582:14594   */\n      add\n        /* \"#utility.yul\":14575:14594   */\n      swap1\n      pop\n        /* \"#utility.yul\":14234:14600   */\n      swap2\n      swap1\n      pop\n      jump\t// out\n        /* \"#utility.yul\":14606:15025   */\n    tag_50:\n        /* \"#utility.yul\":14772:14776   */\n      0x00\n        /* \"#utility.yul\":14810:14812   */\n      0x20\n        /* \"#utility.yul\":14799:14808   */\n      dup3\n        /* \"#utility.yul\":14795:14813   */\n      add\n        /* \"#utility.yul\":14787:14813   */\n      swap1\n      pop\n        /* \"#utility.yul\":14859:14868   */\n      dup2\n        /* \"#utility.yul\":14853:14857   */\n      dup2\n        /* \"#utility.yul\":14849:14869   */\n      sub\n        /* \"#utility.yul\":14845:14846   */\n      0x00\n        /* \"#utility.yul\":14834:14843   */\n      dup4\n        /* \"#utility.yul\":14830:14847   */\n      add\n        /* \"#utility.yul\":14823:14870   */\n      mstore\n        /* \"#utility.yul\":14887:15018   */\n      tag_296\n        /* \"#utility.yul\":15013:15017   */\n      dup2\n        /* \"#utility.yul\":14887:15018   */\n      tag_120\n      jump\t// in\n    tag_296:\n        /* \"#utility.yul\":14879:15018   */\n      swap1\n      pop\n        /* \"#utility.yul\":14606:15025   */\n      swap2\n      swap1\n      pop\n      jump\t// out\n        /* \"#utility.yul\":15031:15213   */\n    tag_121:\n        /* \"#utility.yul\":15171:15205   */\n      0x4f6e6c7920737570706c6965722063616e207374617274207368697070696e67\n        /* \"#utility.yul\":15167:15168   */\n      0x00\n        /* \"#utility.yul\":15159:15165   */\n      dup3\n        /* \"#utility.yul\":15155:15169   */\n      add\n        /* \"#utility.yul\":15148:15206   */\n      mstore\n        /* \"#utility.yul\":15031:15213   */\n      pop\n      jump\t// out\n        /* \"#utility.yul\":15219:15585   */\n    tag_122:\n        /* \"#utility.yul\":15361:15364   */\n      0x00\n        /* \"#utility.yul\":15382:15449   */\n      tag_299\n        /* \"#utility.yul\":15446:15448   */\n      0x20\n        /* \"#utility.yul\":15441:15444   */\n      dup4\n        /* \"#utility.yul\":15382:15449   */\n      tag_90\n      jump\t// in\n    tag_299:\n        /* \"#utility.yul\":15375:15449   */\n      swap2\n      pop\n        /* \"#utility.yul\":15458:15551   */\n      tag_300\n        /* \"#utility.yul\":15547:15550   */\n      dup3\n        /* \"#utility.yul\":15458:15551   */\n      tag_121\n      jump\t// in\n    tag_300:\n        /* \"#utility.yul\":15576:15578   */\n      0x20\n        /* \"#utility.yul\":15571:15574   */\n      dup3\n        /* \"#utility.yul\":15567:15579   */\n      add\n        /* \"#utility.yul\":15560:15579   */\n      swap1\n      pop\n        /* \"#utility.yul\":15219:15585   */\n      swap2\n      swap1\n      pop\n      jump\t// out\n        /* \"#utility.yul\":15591:16010   */\n    tag_53:\n        /* \"#utility.yul\":15757:15761   */\n      0x00\n        /* \"#utility.yul\":15795:15797   */\n      0x20\n        /* \"#utility.yul\":15784:15793   */\n      dup3\n        /* \"#utility.yul\":15780:15798   */\n      add\n        /* \"#utility.yul\":15772:15798   */\n      swap1\n      pop\n        /* \"#utility.yul\":15844:15853   */\n      dup2\n        /* \"#utility.yul\":15838:15842   */\n      dup2\n        /* \"#utility.yul\":15834:15854   */\n      sub\n        /* \"#utility.yul\":15830:15831   */\n      0x00\n        /* \"#utility.yul\":15819:15828   */\n      dup4\n        /* \"#utility.yul\":15815:15832   */\n      add\n        /* \"#utility.yul\":15808:15855   */\n      mstore\n        /* \"#utility.yul\":15872:16003   */\n      tag_302\n        /* \"#utility.yul\":15998:16002   */\n      dup2\n        /* \"#utility.yul\":15872:16003   */\n      tag_122\n      jump\t// in\n    tag_302:\n        /* \"#utility.yul\":15864:16003   */\n      swap1\n      pop\n        /* \"#utility.yul\":15591:16010   */\n      swap2\n      swap1\n      pop\n      jump\t// out\n        /* \"#utility.yul\":16016:16238   */\n    tag_57:\n        /* \"#utility.yul\":16109:16113   */\n      0x00\n        /* \"#utility.yul\":16147:16149   */\n      0x20\n        /* \"#utility.yul\":16136:16145   */\n      dup3\n        /* \"#utility.yul\":16132:16150   */\n      add\n        /* \"#utility.yul\":16124:16150   */\n      swap1\n      pop\n        /* \"#utility.yul\":16160:16231   */\n      tag_304\n        /* \"#utility.yul\":16228:16229   */\n      0x00\n        /* \"#utility.yul\":16217:16226   */\n      dup4\n        /* \"#utility.yul\":16213:16230   */\n      add\n        /* \"#utility.yul\":16204:16210   */\n      dup5\n        /* \"#utility.yul\":16160:16231   */\n      tag_95\n      jump\t// in\n    tag_304:\n        /* \"#utility.yul\":16016:16238   */\n      swap3\n      swap2\n      pop\n      pop\n      jump\t// out\n        /* \"#utility.yul\":16244:16425   */\n    tag_123:\n        /* \"#utility.yul\":16384:16417   */\n      0x4f6e6c792062757965722063616e20636f6e6669726d2064656c697665727900\n        /* \"#utility.yul\":16380:16381   */\n      0x00\n        /* \"#utility.yul\":16372:16378   */\n      dup3\n        /* \"#utility.yul\":16368:16382   */\n      add\n        /* \"#utility.yul\":16361:16418   */\n      mstore\n        /* \"#utility.yul\":16244:16425   */\n      pop\n      jump\t// out\n        /* \"#utility.yul\":16431:16797   */\n    tag_124:\n        /* \"#utility.yul\":16573:16576   */\n      0x00\n        /* \"#utility.yul\":16594:16661   */\n      tag_307\n        /* \"#utility.yul\":16658:16660   */\n      0x1f\n        /* \"#utility.yul\":16653:16656   */\n      dup4\n        /* \"#utility.yul\":16594:16661   */\n      tag_90\n      jump\t// in\n    tag_307:\n        /* \"#utility.yul\":16587:16661   */\n      swap2\n      pop\n        /* \"#utility.yul\":16670:16763   */\n      tag_308\n        /* \"#utility.yul\":16759:16762   */\n      dup3\n        /* \"#utility.yul\":16670:16763   */\n      tag_123\n      jump\t// in\n    tag_308:\n        /* \"#utility.yul\":16788:16790   */\n      0x20\n        /* \"#utility.yul\":16783:16786   */\n      dup3\n        /* \"#utility.yul\":16779:16791   */\n      add\n        /* \"#utility.yul\":16772:16791   */\n      swap1\n      pop\n        /* \"#utility.yul\":16431:16797   */\n      swap2\n      swap1\n      pop\n      jump\t// out\n        /* \"#utility.yul\":16803:17222   */\n    tag_61:\n        /* \"#utility.yul\":16969:16973   */\n      0x00\n        /* \"#utility.yul\":17007:17009   */\n      0x20\n        /* \"#utility.yul\":16996:17005   */\n      dup3\n        /* \"#utility.yul\":16992:17010   */\n      add\n        /* \"#utility.yul\":16984:17010   */\n      swap1\n      pop\n        /* \"#utility.yul\":17056:17065   */\n      dup2\n        /* \"#utility.yul\":17050:17054   */\n      dup2\n        /* \"#utility.yul\":17046:17066   */\n      sub\n        /* \"#utility.yul\":17042:17043   */\n      0x00\n        /* \"#utility.yul\":17031:17040   */\n      dup4\n        /* \"#utility.yul\":17027:17044   */\n      add\n        /* \"#utility.yul\":17020:17067   */\n      mstore\n        /* \"#utility.yul\":17084:17215   */\n      tag_310\n        /* \"#utility.yul\":17210:17214   */\n      dup2\n        /* \"#utility.yul\":17084:17215   */\n      tag_124\n      jump\t// in\n    tag_310:\n        /* \"#utility.yul\":17076:17215   */\n      swap1\n      pop\n        /* \"#utility.yul\":16803:17222   */\n      swap2\n      swap1\n      pop\n      jump\t// out\n        /* \"#utility.yul\":17228:17400   */\n    tag_125:\n        /* \"#utility.yul\":17368:17392   */\n      0x4974656d206973206e6f7420696e207472616e73697400000000000000000000\n        /* \"#utility.yul\":17364:17365   */\n      0x00\n        /* \"#utility.yul\":17356:17362   */\n      dup3\n        /* \"#utility.yul\":17352:17366   */\n      add\n        /* \"#utility.yul\":17345:17393   */\n      mstore\n        /* \"#utility.yul\":17228:17400   */\n      pop\n      jump\t// out\n        /* \"#utility.yul\":17406:17772   */\n    tag_126:\n        /* \"#utility.yul\":17548:17551   */\n      0x00\n        /* \"#utility.yul\":17569:17636   */\n      tag_313\n        /* \"#utility.yul\":17633:17635   */\n      0x16\n        /* \"#utility.yul\":17628:17631   */\n      dup4\n        /* \"#utility.yul\":17569:17636   */\n      tag_90\n      jump\t// in\n    tag_313:\n        /* \"#utility.yul\":17562:17636   */\n      swap2\n      pop\n        /* \"#utility.yul\":17645:17738   */\n      tag_314\n        /* \"#utility.yul\":17734:17737   */\n      dup3\n        /* \"#utility.yul\":17645:17738   */\n      tag_125\n      jump\t// in\n    tag_314:\n        /* \"#utility.yul\":17763:17765   */\n      0x20\n        /* \"#utility.yul\":17758:17761   */\n      dup3\n        /* \"#utility.yul\":17754:17766   */\n      add\n        /* \"#utility.yul\":17747:17766   */\n      swap1\n      pop\n        /* \"#utility.yul\":17406:17772   */\n      swap2\n      swap1\n      pop\n      jump\t// out\n        /* \"#utility.yul\":17778:18197   */\n    tag_68:\n        /* \"#utility.yul\":17944:17948   */\n      0x00\n        /* \"#utility.yul\":17982:17984   */\n      0x20\n        /* \"#utility.yul\":17971:17980   */\n      dup3\n        /* \"#utility.yul\":17967:17985   */\n      add\n        /* \"#utility.yul\":17959:17985   */\n      swap1\n      pop\n        /* \"#utility.yul\":18031:18040   */\n      dup2\n        /* \"#utility.yul\":18025:18029   */\n      dup2\n        /* \"#utility.yul\":18021:18041   */\n      sub\n        /* \"#utility.yul\":18017:18018   */\n      0x00\n        /* \"#utility.yul\":18006:18015   */\n      dup4\n        /* \"#utility.yul\":18002:18019   */\n      add\n        /* \"#utility.yul\":17995:18042   */\n      mstore\n        /* \"#utility.yul\":18059:18190   */\n      tag_316\n        /* \"#utility.yul\":18185:18189   */\n      dup2\n        /* \"#utility.yul\":18059:18190   */\n      tag_126\n      jump\t// in\n    tag_316:\n        /* \"#utility.yul\":18051:18190   */\n      swap1\n      pop\n        /* \"#utility.yul\":17778:18197   */\n      swap2\n      swap1\n      pop\n      jump\t// out\n\n    auxdata: 0xa2646970667358221220e8017e05158bbf1380b1cc26782ae4473d5e2caafd1a8a0328ef32148ceddc0564736f6c63430008120033\n}\n",
				"bytecode": {
					"linkReferences": {},
					"object": "608060405234801561001057600080fd5b5061117e806100206000396000f3fe608060405234801561001057600080fd5b50600436106100575760003560e01c8063108155bc1461005c5780636bfb0d0114610078578063bfb231d214610096578063f53a8f6f146100cc578063fd84cb97146100e8575b600080fd5b610076600480360381019061007191906108fd565b610104565b005b6100806102df565b60405161008d919061097b565b60405180910390f35b6100b060048036038101906100ab9190610996565b6102e5565b6040516100c39796959493929190610afa565b60405180910390f35b6100e660048036038101906100e19190610b9c565b6103fc565b005b61010260048036038101906100fd9190610996565b6105e4565b005b6001600081548092919061011790610c0b565b91905055506040518060e0016040528060015481526020018481526020018381526020018281526020013373ffffffffffffffffffffffffffffffffffffffff168152602001600073ffffffffffffffffffffffffffffffffffffffff1681526020016000600281111561018e5761018d610a83565b5b81525060008060015481526020019081526020016000206000820151816000015560208201518160010190816101c49190610e5f565b50604082015181600201556060820151816003015560808201518160040160006101000a81548173ffffffffffffffffffffffffffffffffffffffff021916908373ffffffffffffffffffffffffffffffffffffffff16021790555060a08201518160050160006101000a81548173ffffffffffffffffffffffffffffffffffffffff021916908373ffffffffffffffffffffffffffffffffffffffff16021790555060c08201518160050160146101000a81548160ff0219169083600281111561029257610291610a83565b5b02179055509050506001547f4d7bbaf3a743aa8e4b6df9211c03de827dd47a422c50a9abb5aadabfc5a678c8848484336040516102d29493929190610f31565b60405180910390a2505050565b60015481565b600060205280600052604060002060009150905080600001549080600101805461030e90610c82565b80601f016020809104026020016040519081016040528092919081815260200182805461033a90610c82565b80156103875780601f1061035c57610100808354040283529160200191610387565b820191906000526020600020905b81548152906001019060200180831161036a57829003601f168201915b5050505050908060020154908060030154908060040160009054906101000a900473ffffffffffffffffffffffffffffffffffffffff16908060050160009054906101000a900473ffffffffffffffffffffffffffffffffffffffff16908060050160149054906101000a900460ff16905087565b60008060008481526020019081526020016000209050600073ffffffffffffffffffffffffffffffffffffffff168160050160009054906101000a900473ffffffffffffffffffffffffffffffffffffffff1673ffffffffffffffffffffffffffffffffffffffff16146104a5576040517f08c379a000000000000000000000000000000000000000000000000000000000815260040161049c90610fc9565b60405180910390fd5b3373ffffffffffffffffffffffffffffffffffffffff168160040160009054906101000a900473ffffffffffffffffffffffffffffffffffffffff1673ffffffffffffffffffffffffffffffffffffffff1614610537576040517f08c379a000000000000000000000000000000000000000000000000000000000815260040161052e90611035565b60405180910390fd5b818160050160006101000a81548173ffffffffffffffffffffffffffffffffffffffff021916908373ffffffffffffffffffffffffffffffffffffffff16021790555060018160050160146101000a81548160ff021916908360028111156105a2576105a1610a83565b5b0217905550827ff41f2e87f5d2d4e158d8becae35315325ad585b5ad6156df7660a16a1c700f81836040516105d79190611055565b60405180910390a2505050565b600080600083815260200190815260200160002090503373ffffffffffffffffffffffffffffffffffffffff168160050160009054906101000a900473ffffffffffffffffffffffffffffffffffffffff1673ffffffffffffffffffffffffffffffffffffffff161461068c576040517f08c379a0000000000000000000000000000000000000000000000000000000008152600401610683906110bc565b60405180910390fd5b600160028111156106a05761069f610a83565b5b8160050160149054906101000a900460ff1660028111156106c4576106c3610a83565b5b14610704576040517f08c379a00000000000000000000000000000000000000000000000000000000081526004016106fb90611128565b60405180910390fd5b60028160050160146101000a81548160ff0219169083600281111561072c5761072b610a83565b5b0217905550817fdda0c542ebf9d79262678b7e660a015d15e1e21c518ccd27b3848556961d7521336040516107619190611055565b60405180910390a25050565b6000604051905090565b600080fd5b600080fd5b600080fd5b600080fd5b6000601f19601f8301169050919050565b7f4e487b7100000000000000000000000000000000000000000000000000000000600052604160045260246000fd5b6107d48261078b565b810181811067ffffffffffffffff821117156107f3576107f261079c565b5b80604052505050565b600061080661076d565b905061081282826107cb565b919050565b600067ffffffffffffffff8211156108325761083161079c565b5b61083b8261078b565b9050602081019050919050565b82818337600083830152505050565b600061086a61086584610817565b6107fc565b90508281526020810184848401111561088657610885610786565b5b610891848285610848565b509392505050565b600082601f8301126108ae576108ad610781565b5b81356108be848260208601610857565b91505092915050565b6000819050919050565b6108da816108c7565b81146108e557600080fd5b50565b6000813590506108f7816108d1565b92915050565b60008060006060848603121561091657610915610777565b5b600084013567ffffffffffffffff8111156109345761093361077c565b5b61094086828701610899565b9350506020610951868287016108e8565b9250506040610962868287016108e8565b9150509250925092565b610975816108c7565b82525050565b6000602082019050610990600083018461096c565b92915050565b6000602082840312156109ac576109ab610777565b5b60006109ba848285016108e8565b91505092915050565b600081519050919050565b600082825260208201905092915050565b60005b838110156109fd5780820151818401526020810190506109e2565b60008484015250505050565b6000610a14826109c3565b610a1e81856109ce565b9350610a2e8185602086016109df565b610a378161078b565b840191505092915050565b600073ffffffffffffffffffffffffffffffffffffffff82169050919050565b6000610a6d82610a42565b9050919050565b610a7d81610a62565b82525050565b7f4e487b7100000000000000000000000000000000000000000000000000000000600052602160045260246000fd5b60038110610ac357610ac2610a83565b5b50565b6000819050610ad482610ab2565b919050565b6000610ae482610ac6565b9050919050565b610af481610ad9565b82525050565b600060e082019050610b0f600083018a61096c565b8181036020830152610b218189610a09565b9050610b30604083018861096c565b610b3d606083018761096c565b610b4a6080830186610a74565b610b5760a0830185610a74565b610b6460c0830184610aeb565b98975050505050505050565b610b7981610a62565b8114610b8457600080fd5b50565b600081359050610b9681610b70565b92915050565b60008060408385031215610bb357610bb2610777565b5b6000610bc1858286016108e8565b9250506020610bd285828601610b87565b9150509250929050565b7f4e487b7100000000000000000000000000000000000000000000000000000000600052601160045260246000fd5b6000610c16826108c7565b91507fffffffffffffffffffffffffffffffffffffffffffffffffffffffffffffffff8203610c4857610c47610bdc565b5b600182019050919050565b7f4e487b7100000000000000000000000000000000000000000000000000000000600052602260045260246000fd5b60006002820490506001821680610c9a57607f821691505b602082108103610cad57610cac610c53565b5b50919050565b60008190508160005260206000209050919050565b60006020601f8301049050919050565b600082821b905092915050565b600060088302610d157fffffffffffffffffffffffffffffffffffffffffffffffffffffffffffffffff82610cd8565b610d1f8683610cd8565b95508019841693508086168417925050509392505050565b6000819050919050565b6000610d5c610d57610d52846108c7565b610d37565b6108c7565b9050919050565b6000819050919050565b610d7683610d41565b610d8a610d8282610d63565b848454610ce5565b825550505050565b600090565b610d9f610d92565b610daa818484610d6d565b505050565b5b81811015610dce57610dc3600082610d97565b600181019050610db0565b5050565b601f821115610e1357610de481610cb3565b610ded84610cc8565b81016020851015610dfc578190505b610e10610e0885610cc8565b830182610daf565b50505b505050565b600082821c905092915050565b6000610e3660001984600802610e18565b1980831691505092915050565b6000610e4f8383610e25565b9150826002028217905092915050565b610e68826109c3565b67ffffffffffffffff811115610e8157610e8061079c565b5b610e8b8254610c82565b610e96828285610dd2565b600060209050601f831160018114610ec95760008415610eb7578287015190505b610ec18582610e43565b865550610f29565b601f198416610ed786610cb3565b60005b82811015610eff57848901518255600182019150602085019450602081019050610eda565b86831015610f1c5784890151610f18601f891682610e25565b8355505b6001600288020188555050505b505050505050565b60006080820190508181036000830152610f4b8187610a09565b9050610f5a602083018661096c565b610f67604083018561096c565b610f746060830184610a74565b95945050505050565b7f4974656d20616c726561647920736f6c64000000000000000000000000000000600082015250565b6000610fb36011836109ce565b9150610fbe82610f7d565b602082019050919050565b60006020820190508181036000830152610fe281610fa6565b9050919050565b7f4f6e6c7920737570706c6965722063616e207374617274207368697070696e67600082015250565b600061101f6020836109ce565b915061102a82610fe9565b602082019050919050565b6000602082019050818103600083015261104e81611012565b9050919050565b600060208201905061106a6000830184610a74565b92915050565b7f4f6e6c792062757965722063616e20636f6e6669726d2064656c697665727900600082015250565b60006110a6601f836109ce565b91506110b182611070565b602082019050919050565b600060208201905081810360008301526110d581611099565b9050919050565b7f4974656d206973206e6f7420696e207472616e73697400000000000000000000600082015250565b60006111126016836109ce565b915061111d826110dc565b602082019050919050565b6000602082019050818103600083015261114181611105565b905091905056fea2646970667358221220e8017e05158bbf1380b1cc26782ae4473d5e2caafd1a8a0328ef32148ceddc0564736f6c63430008120033",
					"opcodes": "PUSH1 0x80 PUSH1 0x40 MSTORE CALLVALUE DUP1 ISZERO PUSH2 0x10 JUMPI PUSH1 0x0 DUP1 REVERT JUMPDEST POP PUSH2 0x117E DUP1 PUSH2 0x20 PUSH1 0x0 CODECOPY PUSH1 0x0 RETURN INVALID PUSH1 0x80 PUSH1 0x40 MSTORE CALLVALUE DUP1 ISZERO PUSH2 0x10 JUMPI PUSH1 0x0 DUP1 REVERT JUMPDEST POP PUSH1 0x4 CALLDATASIZE LT PUSH2 0x57 JUMPI PUSH1 0x0 CALLDATALOAD PUSH1 0xE0 SHR DUP1 PUSH4 0x108155BC EQ PUSH2 0x5C JUMPI DUP1 PUSH4 0x6BFB0D01 EQ PUSH2 0x78 JUMPI DUP1 PUSH4 0xBFB231D2 EQ PUSH2 0x96 JUMPI DUP1 PUSH4 0xF53A8F6F EQ PUSH2 0xCC JUMPI DUP1 PUSH4 0xFD84CB97 EQ PUSH2 0xE8 JUMPI JUMPDEST PUSH1 0x0 DUP1 REVERT JUMPDEST PUSH2 0x76 PUSH1 0x4 DUP1 CALLDATASIZE SUB DUP2 ADD SWAP1 PUSH2 0x71 SWAP2 SWAP1 PUSH2 0x8FD JUMP JUMPDEST PUSH2 0x104 JUMP JUMPDEST STOP JUMPDEST PUSH2 0x80 PUSH2 0x2DF JUMP JUMPDEST PUSH1 0x40 MLOAD PUSH2 0x8D SWAP2 SWAP1 PUSH2 0x97B JUMP JUMPDEST PUSH1 0x40 MLOAD DUP1 SWAP2 SUB SWAP1 RETURN JUMPDEST PUSH2 0xB0 PUSH1 0x4 DUP1 CALLDATASIZE SUB DUP2 ADD SWAP1 PUSH2 0xAB SWAP2 SWAP1 PUSH2 0x996 JUMP JUMPDEST PUSH2 0x2E5 JUMP JUMPDEST PUSH1 0x40 MLOAD PUSH2 0xC3 SWAP8 SWAP7 SWAP6 SWAP5 SWAP4 SWAP3 SWAP2 SWAP1 PUSH2 0xAFA JUMP JUMPDEST PUSH1 0x40 MLOAD DUP1 SWAP2 SUB SWAP1 RETURN JUMPDEST PUSH2 0xE6 PUSH1 0x4 DUP1 CALLDATASIZE SUB DUP2 ADD SWAP1 PUSH2 0xE1 SWAP2 SWAP1 PUSH2 0xB9C JUMP JUMPDEST PUSH2 0x3FC JUMP JUMPDEST STOP JUMPDEST PUSH2 0x102 PUSH1 0x4 DUP1 CALLDATASIZE SUB DUP2 ADD SWAP1 PUSH2 0xFD SWAP2 SWAP1 PUSH2 0x996 JUMP JUMPDEST PUSH2 0x5E4 JUMP JUMPDEST STOP JUMPDEST PUSH1 0x1 PUSH1 0x0 DUP2 SLOAD DUP1 SWAP3 SWAP2 SWAP1 PUSH2 0x117 SWAP1 PUSH2 0xC0B JUMP JUMPDEST SWAP2 SWAP1 POP SSTORE POP PUSH1 0x40 MLOAD DUP1 PUSH1 0xE0 ADD PUSH1 0x40 MSTORE DUP1 PUSH1 0x1 SLOAD DUP2 MSTORE PUSH1 0x20 ADD DUP5 DUP2 MSTORE PUSH1 0x20 ADD DUP4 DUP2 MSTORE PUSH1 0x20 ADD DUP3 DUP2 MSTORE PUSH1 0x20 ADD CALLER PUSH20 0xFFFFFFFFFFFFFFFFFFFFFFFFFFFFFFFFFFFFFFFF AND DUP2 MSTORE PUSH1 0x20 ADD PUSH1 0x0 PUSH20 0xFFFFFFFFFFFFFFFFFFFFFFFFFFFFFFFFFFFFFFFF AND DUP2 MSTORE PUSH1 0x20 ADD PUSH1 0x0 PUSH1 0x2 DUP2 GT ISZERO PUSH2 0x18E JUMPI PUSH2 0x18D PUSH2 0xA83 JUMP JUMPDEST JUMPDEST DUP2 MSTORE POP PUSH1 0x0 DUP1 PUSH1 0x1 SLOAD DUP2 MSTORE PUSH1 0x20 ADD SWAP1 DUP2 MSTORE PUSH1 0x20 ADD PUSH1 0x0 KECCAK256 PUSH1 0x0 DUP3 ADD MLOAD DUP2 PUSH1 0x0 ADD SSTORE PUSH1 0x20 DUP3 ADD MLOAD DUP2 PUSH1 0x1 ADD SWAP1 DUP2 PUSH2 0x1C4 SWAP2 SWAP1 PUSH2 0xE5F JUMP JUMPDEST POP PUSH1 0x40 DUP3 ADD MLOAD DUP2 PUSH1 0x2 ADD SSTORE PUSH1 0x60 DUP3 ADD MLOAD DUP2 PUSH1 0x3 ADD SSTORE PUSH1 0x80 DUP3 ADD MLOAD DUP2 PUSH1 0x4 ADD PUSH1 0x0 PUSH2 0x100 EXP DUP2 SLOAD DUP2 PUSH20 0xFFFFFFFFFFFFFFFFFFFFFFFFFFFFFFFFFFFFFFFF MUL NOT AND SWAP1 DUP4 PUSH20 0xFFFFFFFFFFFFFFFFFFFFFFFFFFFFFFFFFFFFFFFF AND MUL OR SWAP1 SSTORE POP PUSH1 0xA0 DUP3 ADD MLOAD DUP2 PUSH1 0x5 ADD PUSH1 0x0 PUSH2 0x100 EXP DUP2 SLOAD DUP2 PUSH20 0xFFFFFFFFFFFFFFFFFFFFFFFFFFFFFFFFFFFFFFFF MUL NOT AND SWAP1 DUP4 PUSH20 0xFFFFFFFFFFFFFFFFFFFFFFFFFFFFFFFFFFFFFFFF AND MUL OR SWAP1 SSTORE POP PUSH1 0xC0 DUP3 ADD MLOAD DUP2 PUSH1 0x5 ADD PUSH1 0x14 PUSH2 0x100 EXP DUP2 SLOAD DUP2 PUSH1 0xFF MUL NOT AND SWAP1 DUP4 PUSH1 0x2 DUP2 GT ISZERO PUSH2 0x292 JUMPI PUSH2 0x291 PUSH2 0xA83 JUMP JUMPDEST JUMPDEST MUL OR SWAP1 SSTORE POP SWAP1 POP POP PUSH1 0x1 SLOAD PUSH32 0x4D7BBAF3A743AA8E4B6DF9211C03DE827DD47A422C50A9ABB5AADABFC5A678C8 DUP5 DUP5 DUP5 CALLER PUSH1 0x40 MLOAD PUSH2 0x2D2 SWAP5 SWAP4 SWAP3 SWAP2 SWAP1 PUSH2 0xF31 JUMP JUMPDEST PUSH1 0x40 MLOAD DUP1 SWAP2 SUB SWAP1 LOG2 POP POP POP JUMP JUMPDEST PUSH1 0x1 SLOAD DUP2 JUMP JUMPDEST PUSH1 0x0 PUSH1 0x20 MSTORE DUP1 PUSH1 0x0 MSTORE PUSH1 0x40 PUSH1 0x0 KECCAK256 PUSH1 0x0 SWAP2 POP SWAP1 POP DUP1 PUSH1 0x0 ADD SLOAD SWAP1 DUP1 PUSH1 0x1 ADD DUP1 SLOAD PUSH2 0x30E SWAP1 PUSH2 0xC82 JUMP JUMPDEST DUP1 PUSH1 0x1F ADD PUSH1 0x20 DUP1 SWAP2 DIV MUL PUSH1 0x20 ADD PUSH1 0x40 MLOAD SWAP1 DUP2 ADD PUSH1 0x40 MSTORE DUP1 SWAP3 SWAP2 SWAP1 DUP2 DUP2 MSTORE PUSH1 0x20 ADD DUP3 DUP1 SLOAD PUSH2 0x33A SWAP1 PUSH2 0xC82 JUMP JUMPDEST DUP1 ISZERO PUSH2 0x387 JUMPI DUP1 PUSH1 0x1F LT PUSH2 0x35C JUMPI PUSH2 0x100 DUP1 DUP4 SLOAD DIV MUL DUP4 MSTORE SWAP2 PUSH1 0x20 ADD SWAP2 PUSH2 0x387 JUMP JUMPDEST DUP3 ADD SWAP2 SWAP1 PUSH1 0x0 MSTORE PUSH1 0x20 PUSH1 0x0 KECCAK256 SWAP1 JUMPDEST DUP2 SLOAD DUP2 MSTORE SWAP1 PUSH1 0x1 ADD SWAP1 PUSH1 0x20 ADD DUP1 DUP4 GT PUSH2 0x36A JUMPI DUP3 SWAP1 SUB PUSH1 0x1F AND DUP3 ADD SWAP2 JUMPDEST POP POP POP POP POP SWAP1 DUP1 PUSH1 0x2 ADD SLOAD SWAP1 DUP1 PUSH1 0x3 ADD SLOAD SWAP1 DUP1 PUSH1 0x4 ADD PUSH1 0x0 SWAP1 SLOAD SWAP1 PUSH2 0x100 EXP SWAP1 DIV PUSH20 0xFFFFFFFFFFFFFFFFFFFFFFFFFFFFFFFFFFFFFFFF AND SWAP1 DUP1 PUSH1 0x5 ADD PUSH1 0x0 SWAP1 SLOAD SWAP1 PUSH2 0x100 EXP SWAP1 DIV PUSH20 0xFFFFFFFFFFFFFFFFFFFFFFFFFFFFFFFFFFFFFFFF AND SWAP1 DUP1 PUSH1 0x5 ADD PUSH1 0x14 SWAP1 SLOAD SWAP1 PUSH2 0x100 EXP SWAP1 DIV PUSH1 0xFF AND SWAP1 POP DUP8 JUMP JUMPDEST PUSH1 0x0 DUP1 PUSH1 0x0 DUP5 DUP2 MSTORE PUSH1 0x20 ADD SWAP1 DUP2 MSTORE PUSH1 0x20 ADD PUSH1 0x0 KECCAK256 SWAP1 POP PUSH1 0x0 PUSH20 0xFFFFFFFFFFFFFFFFFFFFFFFFFFFFFFFFFFFFFFFF AND DUP2 PUSH1 0x5 ADD PUSH1 0x0 SWAP1 SLOAD SWAP1 PUSH2 0x100 EXP SWAP1 DIV PUSH20 0xFFFFFFFFFFFFFFFFFFFFFFFFFFFFFFFFFFFFFFFF AND PUSH20 0xFFFFFFFFFFFFFFFFFFFFFFFFFFFFFFFFFFFFFFFF AND EQ PUSH2 0x4A5 JUMPI PUSH1 0x40 MLOAD PUSH32 0x8C379A000000000000000000000000000000000000000000000000000000000 DUP2 MSTORE PUSH1 0x4 ADD PUSH2 0x49C SWAP1 PUSH2 0xFC9 JUMP JUMPDEST PUSH1 0x40 MLOAD DUP1 SWAP2 SUB SWAP1 REVERT JUMPDEST CALLER PUSH20 0xFFFFFFFFFFFFFFFFFFFFFFFFFFFFFFFFFFFFFFFF AND DUP2 PUSH1 0x4 ADD PUSH1 0x0 SWAP1 SLOAD SWAP1 PUSH2 0x100 EXP SWAP1 DIV PUSH20 0xFFFFFFFFFFFFFFFFFFFFFFFFFFFFFFFFFFFFFFFF AND PUSH20 0xFFFFFFFFFFFFFFFFFFFFFFFFFFFFFFFFFFFFFFFF AND EQ PUSH2 0x537 JUMPI PUSH1 0x40 MLOAD PUSH32 0x8C379A000000000000000000000000000000000000000000000000000000000 DUP2 MSTORE PUSH1 0x4 ADD PUSH2 0x52E SWAP1 PUSH2 0x1035 JUMP JUMPDEST PUSH1 0x40 MLOAD DUP1 SWAP2 SUB SWAP1 REVERT JUMPDEST DUP2 DUP2 PUSH1 0x5 ADD PUSH1 0x0 PUSH2 0x100 EXP DUP2 SLOAD DUP2 PUSH20 0xFFFFFFFFFFFFFFFFFFFFFFFFFFFFFFFFFFFFFFFF MUL NOT AND SWAP1 DUP4 PUSH20 0xFFFFFFFFFFFFFFFFFFFFFFFFFFFFFFFFFFFFFFFF AND MUL OR SWAP1 SSTORE POP PUSH1 0x1 DUP2 PUSH1 0x5 ADD PUSH1 0x14 PUSH2 0x100 EXP DUP2 SLOAD DUP2 PUSH1 0xFF MUL NOT AND SWAP1 DUP4 PUSH1 0x2 DUP2 GT ISZERO PUSH2 0x5A2 JUMPI PUSH2 0x5A1 PUSH2 0xA83 JUMP JUMPDEST JUMPDEST MUL OR SWAP1 SSTORE POP DUP3 PUSH32 0xF41F2E87F5D2D4E158D8BECAE35315325AD585B5AD6156DF7660A16A1C700F81 DUP4 PUSH1 0x40 MLOAD PUSH2 0x5D7 SWAP2 SWAP1 PUSH2 0x1055 JUMP JUMPDEST PUSH1 0x40 MLOAD DUP1 SWAP2 SUB SWAP1 LOG2 POP POP POP JUMP JUMPDEST PUSH1 0x0 DUP1 PUSH1 0x0 DUP4 DUP2 MSTORE PUSH1 0x20 ADD SWAP1 DUP2 MSTORE PUSH1 0x20 ADD PUSH1 0x0 KECCAK256 SWAP1 POP CALLER PUSH20 0xFFFFFFFFFFFFFFFFFFFFFFFFFFFFFFFFFFFFFFFF AND DUP2 PUSH1 0x5 ADD PUSH1 0x0 SWAP1 SLOAD SWAP1 PUSH2 0x100 EXP SWAP1 DIV PUSH20 0xFFFFFFFFFFFFFFFFFFFFFFFFFFFFFFFFFFFFFFFF AND PUSH20 0xFFFFFFFFFFFFFFFFFFFFFFFFFFFFFFFFFFFFFFFF AND EQ PUSH2 0x68C JUMPI PUSH1 0x40 MLOAD PUSH32 0x8C379A000000000000000000000000000000000000000000000000000000000 DUP2 MSTORE PUSH1 0x4 ADD PUSH2 0x683 SWAP1 PUSH2 0x10BC JUMP JUMPDEST PUSH1 0x40 MLOAD DUP1 SWAP2 SUB SWAP1 REVERT JUMPDEST PUSH1 0x1 PUSH1 0x2 DUP2 GT ISZERO PUSH2 0x6A0 JUMPI PUSH2 0x69F PUSH2 0xA83 JUMP JUMPDEST JUMPDEST DUP2 PUSH1 0x5 ADD PUSH1 0x14 SWAP1 SLOAD SWAP1 PUSH2 0x100 EXP SWAP1 DIV PUSH1 0xFF AND PUSH1 0x2 DUP2 GT ISZERO PUSH2 0x6C4 JUMPI PUSH2 0x6C3 PUSH2 0xA83 JUMP JUMPDEST JUMPDEST EQ PUSH2 0x704 JUMPI PUSH1 0x40 MLOAD PUSH32 0x8C379A000000000000000000000000000000000000000000000000000000000 DUP2 MSTORE PUSH1 0x4 ADD PUSH2 0x6FB SWAP1 PUSH2 0x1128 JUMP JUMPDEST PUSH1 0x40 MLOAD DUP1 SWAP2 SUB SWAP1 REVERT JUMPDEST PUSH1 0x2 DUP2 PUSH1 0x5 ADD PUSH1 0x14 PUSH2 0x100 EXP DUP2 SLOAD DUP2 PUSH1 0xFF MUL NOT AND SWAP1 DUP4 PUSH1 0x2 DUP2 GT ISZERO PUSH2 0x72C JUMPI PUSH2 0x72B PUSH2 0xA83 JUMP JUMPDEST JUMPDEST MUL OR SWAP1 SSTORE POP DUP2 PUSH32 0xDDA0C542EBF9D79262678B7E660A015D15E1E21C518CCD27B3848556961D7521 CALLER PUSH1 0x40 MLOAD PUSH2 0x761 SWAP2 SWAP1 PUSH2 0x1055 JUMP JUMPDEST PUSH1 0x40 MLOAD DUP1 SWAP2 SUB SWAP1 LOG2 POP POP JUMP JUMPDEST PUSH1 0x0 PUSH1 0x40 MLOAD SWAP1 POP SWAP1 JUMP JUMPDEST PUSH1 0x0 DUP1 REVERT JUMPDEST PUSH1 0x0 DUP1 REVERT JUMPDEST PUSH1 0x0 DUP1 REVERT JUMPDEST PUSH1 0x0 DUP1 REVERT JUMPDEST PUSH1 0x0 PUSH1 0x1F NOT PUSH1 0x1F DUP4 ADD AND SWAP1 POP SWAP2 SWAP1 POP JUMP JUMPDEST PUSH32 0x4E487B7100000000000000000000000000000000000000000000000000000000 PUSH1 0x0 MSTORE PUSH1 0x41 PUSH1 0x4 MSTORE PUSH1 0x24 PUSH1 0x0 REVERT JUMPDEST PUSH2 0x7D4 DUP3 PUSH2 0x78B JUMP JUMPDEST DUP2 ADD DUP2 DUP2 LT PUSH8 0xFFFFFFFFFFFFFFFF DUP3 GT OR ISZERO PUSH2 0x7F3 JUMPI PUSH2 0x7F2 PUSH2 0x79C JUMP JUMPDEST JUMPDEST DUP1 PUSH1 0x40 MSTORE POP POP POP JUMP JUMPDEST PUSH1 0x0 PUSH2 0x806 PUSH2 0x76D JUMP JUMPDEST SWAP1 POP PUSH2 0x812 DUP3 DUP3 PUSH2 0x7CB JUMP JUMPDEST SWAP2 SWAP1 POP JUMP JUMPDEST PUSH1 0x0 PUSH8 0xFFFFFFFFFFFFFFFF DUP3 GT ISZERO PUSH2 0x832 JUMPI PUSH2 0x831 PUSH2 0x79C JUMP JUMPDEST JUMPDEST PUSH2 0x83B DUP3 PUSH2 0x78B JUMP JUMPDEST SWAP1 POP PUSH1 0x20 DUP2 ADD SWAP1 POP SWAP2 SWAP1 POP JUMP JUMPDEST DUP3 DUP2 DUP4 CALLDATACOPY PUSH1 0x0 DUP4 DUP4 ADD MSTORE POP POP POP JUMP JUMPDEST PUSH1 0x0 PUSH2 0x86A PUSH2 0x865 DUP5 PUSH2 0x817 JUMP JUMPDEST PUSH2 0x7FC JUMP JUMPDEST SWAP1 POP DUP3 DUP2 MSTORE PUSH1 0x20 DUP2 ADD DUP5 DUP5 DUP5 ADD GT ISZERO PUSH2 0x886 JUMPI PUSH2 0x885 PUSH2 0x786 JUMP JUMPDEST JUMPDEST PUSH2 0x891 DUP5 DUP3 DUP6 PUSH2 0x848 JUMP JUMPDEST POP SWAP4 SWAP3 POP POP POP JUMP JUMPDEST PUSH1 0x0 DUP3 PUSH1 0x1F DUP4 ADD SLT PUSH2 0x8AE JUMPI PUSH2 0x8AD PUSH2 0x781 JUMP JUMPDEST JUMPDEST DUP2 CALLDATALOAD PUSH2 0x8BE DUP5 DUP3 PUSH1 0x20 DUP7 ADD PUSH2 0x857 JUMP JUMPDEST SWAP2 POP POP SWAP3 SWAP2 POP POP JUMP JUMPDEST PUSH1 0x0 DUP2 SWAP1 POP SWAP2 SWAP1 POP JUMP JUMPDEST PUSH2 0x8DA DUP2 PUSH2 0x8C7 JUMP JUMPDEST DUP2 EQ PUSH2 0x8E5 JUMPI PUSH1 0x0 DUP1 REVERT JUMPDEST POP JUMP JUMPDEST PUSH1 0x0 DUP2 CALLDATALOAD SWAP1 POP PUSH2 0x8F7 DUP2 PUSH2 0x8D1 JUMP JUMPDEST SWAP3 SWAP2 POP POP JUMP JUMPDEST PUSH1 0x0 DUP1 PUSH1 0x0 PUSH1 0x60 DUP5 DUP7 SUB SLT ISZERO PUSH2 0x916 JUMPI PUSH2 0x915 PUSH2 0x777 JUMP JUMPDEST JUMPDEST PUSH1 0x0 DUP5 ADD CALLDATALOAD PUSH8 0xFFFFFFFFFFFFFFFF DUP2 GT ISZERO PUSH2 0x934 JUMPI PUSH2 0x933 PUSH2 0x77C JUMP JUMPDEST JUMPDEST PUSH2 0x940 DUP7 DUP3 DUP8 ADD PUSH2 0x899 JUMP JUMPDEST SWAP4 POP POP PUSH1 0x20 PUSH2 0x951 DUP7 DUP3 DUP8 ADD PUSH2 0x8E8 JUMP JUMPDEST SWAP3 POP POP PUSH1 0x40 PUSH2 0x962 DUP7 DUP3 DUP8 ADD PUSH2 0x8E8 JUMP JUMPDEST SWAP2 POP POP SWAP3 POP SWAP3 POP SWAP3 JUMP JUMPDEST PUSH2 0x975 DUP2 PUSH2 0x8C7 JUMP JUMPDEST DUP3 MSTORE POP POP JUMP JUMPDEST PUSH1 0x0 PUSH1 0x20 DUP3 ADD SWAP1 POP PUSH2 0x990 PUSH1 0x0 DUP4 ADD DUP5 PUSH2 0x96C JUMP JUMPDEST SWAP3 SWAP2 POP POP JUMP JUMPDEST PUSH1 0x0 PUSH1 0x20 DUP3 DUP5 SUB SLT ISZERO PUSH2 0x9AC JUMPI PUSH2 0x9AB PUSH2 0x777 JUMP JUMPDEST JUMPDEST PUSH1 0x0 PUSH2 0x9BA DUP5 DUP3 DUP6 ADD PUSH2 0x8E8 JUMP JUMPDEST SWAP2 POP POP SWAP3 SWAP2 POP POP JUMP JUMPDEST PUSH1 0x0 DUP2 MLOAD SWAP1 POP SWAP2 SWAP1 POP JUMP JUMPDEST PUSH1 0x0 DUP3 DUP3 MSTORE PUSH1 0x20 DUP3 ADD SWAP1 POP SWAP3 SWAP2 POP POP JUMP JUMPDEST PUSH1 0x0 JUMPDEST DUP4 DUP2 LT ISZERO PUSH2 0x9FD JUMPI DUP1 DUP3 ADD MLOAD DUP2 DUP5 ADD MSTORE PUSH1 0x20 DUP2 ADD SWAP1 POP PUSH2 0x9E2 JUMP JUMPDEST PUSH1 0x0 DUP5 DUP5 ADD MSTORE POP POP POP POP JUMP JUMPDEST PUSH1 0x0 PUSH2 0xA14 DUP3 PUSH2 0x9C3 JUMP JUMPDEST PUSH2 0xA1E DUP2 DUP6 PUSH2 0x9CE JUMP JUMPDEST SWAP4 POP PUSH2 0xA2E DUP2 DUP6 PUSH1 0x20 DUP7 ADD PUSH2 0x9DF JUMP JUMPDEST PUSH2 0xA37 DUP2 PUSH2 0x78B JUMP JUMPDEST DUP5 ADD SWAP2 POP POP SWAP3 SWAP2 POP POP JUMP JUMPDEST PUSH1 0x0 PUSH20 0xFFFFFFFFFFFFFFFFFFFFFFFFFFFFFFFFFFFFFFFF DUP3 AND SWAP1 POP SWAP2 SWAP1 POP JUMP JUMPDEST PUSH1 0x0 PUSH2 0xA6D DUP3 PUSH2 0xA42 JUMP JUMPDEST SWAP1 POP SWAP2 SWAP1 POP JUMP JUMPDEST PUSH2 0xA7D DUP2 PUSH2 0xA62 JUMP JUMPDEST DUP3 MSTORE POP POP JUMP JUMPDEST PUSH32 0x4E487B7100000000000000000000000000000000000000000000000000000000 PUSH1 0x0 MSTORE PUSH1 0x21 PUSH1 0x4 MSTORE PUSH1 0x24 PUSH1 0x0 REVERT JUMPDEST PUSH1 0x3 DUP2 LT PUSH2 0xAC3 JUMPI PUSH2 0xAC2 PUSH2 0xA83 JUMP JUMPDEST JUMPDEST POP JUMP JUMPDEST PUSH1 0x0 DUP2 SWAP1 POP PUSH2 0xAD4 DUP3 PUSH2 0xAB2 JUMP JUMPDEST SWAP2 SWAP1 POP JUMP JUMPDEST PUSH1 0x0 PUSH2 0xAE4 DUP3 PUSH2 0xAC6 JUMP JUMPDEST SWAP1 POP SWAP2 SWAP1 POP JUMP JUMPDEST PUSH2 0xAF4 DUP2 PUSH2 0xAD9 JUMP JUMPDEST DUP3 MSTORE POP POP JUMP JUMPDEST PUSH1 0x0 PUSH1 0xE0 DUP3 ADD SWAP1 POP PUSH2 0xB0F PUSH1 0x0 DUP4 ADD DUP11 PUSH2 0x96C JUMP JUMPDEST DUP2 DUP2 SUB PUSH1 0x20 DUP4 ADD MSTORE PUSH2 0xB21 DUP2 DUP10 PUSH2 0xA09 JUMP JUMPDEST SWAP1 POP PUSH2 0xB30 PUSH1 0x40 DUP4 ADD DUP9 PUSH2 0x96C JUMP JUMPDEST PUSH2 0xB3D PUSH1 0x60 DUP4 ADD DUP8 PUSH2 0x96C JUMP JUMPDEST PUSH2 0xB4A PUSH1 0x80 DUP4 ADD DUP7 PUSH2 0xA74 JUMP JUMPDEST PUSH2 0xB57 PUSH1 0xA0 DUP4 ADD DUP6 PUSH2 0xA74 JUMP JUMPDEST PUSH2 0xB64 PUSH1 0xC0 DUP4 ADD DUP5 PUSH2 0xAEB JUMP JUMPDEST SWAP9 SWAP8 POP POP POP POP POP POP POP POP JUMP JUMPDEST PUSH2 0xB79 DUP2 PUSH2 0xA62 JUMP JUMPDEST DUP2 EQ PUSH2 0xB84 JUMPI PUSH1 0x0 DUP1 REVERT JUMPDEST POP JUMP JUMPDEST PUSH1 0x0 DUP2 CALLDATALOAD SWAP1 POP PUSH2 0xB96 DUP2 PUSH2 0xB70 JUMP JUMPDEST SWAP3 SWAP2 POP POP JUMP JUMPDEST PUSH1 0x0 DUP1 PUSH1 0x40 DUP4 DUP6 SUB SLT ISZERO PUSH2 0xBB3 JUMPI PUSH2 0xBB2 PUSH2 0x777 JUMP JUMPDEST JUMPDEST PUSH1 0x0 PUSH2 0xBC1 DUP6 DUP3 DUP7 ADD PUSH2 0x8E8 JUMP JUMPDEST SWAP3 POP POP PUSH1 0x20 PUSH2 0xBD2 DUP6 DUP3 DUP7 ADD PUSH2 0xB87 JUMP JUMPDEST SWAP2 POP POP SWAP3 POP SWAP3 SWAP1 POP JUMP JUMPDEST PUSH32 0x4E487B7100000000000000000000000000000000000000000000000000000000 PUSH1 0x0 MSTORE PUSH1 0x11 PUSH1 0x4 MSTORE PUSH1 0x24 PUSH1 0x0 REVERT JUMPDEST PUSH1 0x0 PUSH2 0xC16 DUP3 PUSH2 0x8C7 JUMP JUMPDEST SWAP2 POP PUSH32 0xFFFFFFFFFFFFFFFFFFFFFFFFFFFFFFFFFFFFFFFFFFFFFFFFFFFFFFFFFFFFFFFF DUP3 SUB PUSH2 0xC48 JUMPI PUSH2 0xC47 PUSH2 0xBDC JUMP JUMPDEST JUMPDEST PUSH1 0x1 DUP3 ADD SWAP1 POP SWAP2 SWAP1 POP JUMP JUMPDEST PUSH32 0x4E487B7100000000000000000000000000000000000000000000000000000000 PUSH1 0x0 MSTORE PUSH1 0x22 PUSH1 0x4 MSTORE PUSH1 0x24 PUSH1 0x0 REVERT JUMPDEST PUSH1 0x0 PUSH1 0x2 DUP3 DIV SWAP1 POP PUSH1 0x1 DUP3 AND DUP1 PUSH2 0xC9A JUMPI PUSH1 0x7F DUP3 AND SWAP2 POP JUMPDEST PUSH1 0x20 DUP3 LT DUP2 SUB PUSH2 0xCAD JUMPI PUSH2 0xCAC PUSH2 0xC53 JUMP JUMPDEST JUMPDEST POP SWAP2 SWAP1 POP JUMP JUMPDEST PUSH1 0x0 DUP2 SWAP1 POP DUP2 PUSH1 0x0 MSTORE PUSH1 0x20 PUSH1 0x0 KECCAK256 SWAP1 POP SWAP2 SWAP1 POP JUMP JUMPDEST PUSH1 0x0 PUSH1 0x20 PUSH1 0x1F DUP4 ADD DIV SWAP1 POP SWAP2 SWAP1 POP JUMP JUMPDEST PUSH1 0x0 DUP3 DUP3 SHL SWAP1 POP SWAP3 SWAP2 POP POP JUMP JUMPDEST PUSH1 0x0 PUSH1 0x8 DUP4 MUL PUSH2 0xD15 PUSH32 0xFFFFFFFFFFFFFFFFFFFFFFFFFFFFFFFFFFFFFFFFFFFFFFFFFFFFFFFFFFFFFFFF DUP3 PUSH2 0xCD8 JUMP JUMPDEST PUSH2 0xD1F DUP7 DUP4 PUSH2 0xCD8 JUMP JUMPDEST SWAP6 POP DUP1 NOT DUP5 AND SWAP4 POP DUP1 DUP7 AND DUP5 OR SWAP3 POP POP POP SWAP4 SWAP3 POP POP POP JUMP JUMPDEST PUSH1 0x0 DUP2 SWAP1 POP SWAP2 SWAP1 POP JUMP JUMPDEST PUSH1 0x0 PUSH2 0xD5C PUSH2 0xD57 PUSH2 0xD52 DUP5 PUSH2 0x8C7 JUMP JUMPDEST PUSH2 0xD37 JUMP JUMPDEST PUSH2 0x8C7 JUMP JUMPDEST SWAP1 POP SWAP2 SWAP1 POP JUMP JUMPDEST PUSH1 0x0 DUP2 SWAP1 POP SWAP2 SWAP1 POP JUMP JUMPDEST PUSH2 0xD76 DUP4 PUSH2 0xD41 JUMP JUMPDEST PUSH2 0xD8A PUSH2 0xD82 DUP3 PUSH2 0xD63 JUMP JUMPDEST DUP5 DUP5 SLOAD PUSH2 0xCE5 JUMP JUMPDEST DUP3 SSTORE POP POP POP POP JUMP JUMPDEST PUSH1 0x0 SWAP1 JUMP JUMPDEST PUSH2 0xD9F PUSH2 0xD92 JUMP JUMPDEST PUSH2 0xDAA DUP2 DUP5 DUP5 PUSH2 0xD6D JUMP JUMPDEST POP POP POP JUMP JUMPDEST JUMPDEST DUP2 DUP2 LT ISZERO PUSH2 0xDCE JUMPI PUSH2 0xDC3 PUSH1 0x0 DUP3 PUSH2 0xD97 JUMP JUMPDEST PUSH1 0x1 DUP2 ADD SWAP1 POP PUSH2 0xDB0 JUMP JUMPDEST POP POP JUMP JUMPDEST PUSH1 0x1F DUP3 GT ISZERO PUSH2 0xE13 JUMPI PUSH2 0xDE4 DUP2 PUSH2 0xCB3 JUMP JUMPDEST PUSH2 0xDED DUP5 PUSH2 0xCC8 JUMP JUMPDEST DUP2 ADD PUSH1 0x20 DUP6 LT ISZERO PUSH2 0xDFC JUMPI DUP2 SWAP1 POP JUMPDEST PUSH2 0xE10 PUSH2 0xE08 DUP6 PUSH2 0xCC8 JUMP JUMPDEST DUP4 ADD DUP3 PUSH2 0xDAF JUMP JUMPDEST POP POP JUMPDEST POP POP POP JUMP JUMPDEST PUSH1 0x0 DUP3 DUP3 SHR SWAP1 POP SWAP3 SWAP2 POP POP JUMP JUMPDEST PUSH1 0x0 PUSH2 0xE36 PUSH1 0x0 NOT DUP5 PUSH1 0x8 MUL PUSH2 0xE18 JUMP JUMPDEST NOT DUP1 DUP4 AND SWAP2 POP POP SWAP3 SWAP2 POP POP JUMP JUMPDEST PUSH1 0x0 PUSH2 0xE4F DUP4 DUP4 PUSH2 0xE25 JUMP JUMPDEST SWAP2 POP DUP3 PUSH1 0x2 MUL DUP3 OR SWAP1 POP SWAP3 SWAP2 POP POP JUMP JUMPDEST PUSH2 0xE68 DUP3 PUSH2 0x9C3 JUMP JUMPDEST PUSH8 0xFFFFFFFFFFFFFFFF DUP2 GT ISZERO PUSH2 0xE81 JUMPI PUSH2 0xE80 PUSH2 0x79C JUMP JUMPDEST JUMPDEST PUSH2 0xE8B DUP3 SLOAD PUSH2 0xC82 JUMP JUMPDEST PUSH2 0xE96 DUP3 DUP3 DUP6 PUSH2 0xDD2 JUMP JUMPDEST PUSH1 0x0 PUSH1 0x20 SWAP1 POP PUSH1 0x1F DUP4 GT PUSH1 0x1 DUP2 EQ PUSH2 0xEC9 JUMPI PUSH1 0x0 DUP5 ISZERO PUSH2 0xEB7 JUMPI DUP3 DUP8 ADD MLOAD SWAP1 POP JUMPDEST PUSH2 0xEC1 DUP6 DUP3 PUSH2 0xE43 JUMP JUMPDEST DUP7 SSTORE POP PUSH2 0xF29 JUMP JUMPDEST PUSH1 0x1F NOT DUP5 AND PUSH2 0xED7 DUP7 PUSH2 0xCB3 JUMP JUMPDEST PUSH1 0x0 JUMPDEST DUP3 DUP2 LT ISZERO PUSH2 0xEFF JUMPI DUP5 DUP10 ADD MLOAD DUP3 SSTORE PUSH1 0x1 DUP3 ADD SWAP2 POP PUSH1 0x20 DUP6 ADD SWAP5 POP PUSH1 0x20 DUP2 ADD SWAP1 POP PUSH2 0xEDA JUMP JUMPDEST DUP7 DUP4 LT ISZERO PUSH2 0xF1C JUMPI DUP5 DUP10 ADD MLOAD PUSH2 0xF18 PUSH1 0x1F DUP10 AND DUP3 PUSH2 0xE25 JUMP JUMPDEST DUP4 SSTORE POP JUMPDEST PUSH1 0x1 PUSH1 0x2 DUP9 MUL ADD DUP9 SSTORE POP POP POP JUMPDEST POP POP POP POP POP POP JUMP JUMPDEST PUSH1 0x0 PUSH1 0x80 DUP3 ADD SWAP1 POP DUP2 DUP2 SUB PUSH1 0x0 DUP4 ADD MSTORE PUSH2 0xF4B DUP2 DUP8 PUSH2 0xA09 JUMP JUMPDEST SWAP1 POP PUSH2 0xF5A PUSH1 0x20 DUP4 ADD DUP7 PUSH2 0x96C JUMP JUMPDEST PUSH2 0xF67 PUSH1 0x40 DUP4 ADD DUP6 PUSH2 0x96C JUMP JUMPDEST PUSH2 0xF74 PUSH1 0x60 DUP4 ADD DUP5 PUSH2 0xA74 JUMP JUMPDEST SWAP6 SWAP5 POP POP POP POP POP JUMP JUMPDEST PUSH32 0x4974656D20616C726561647920736F6C64000000000000000000000000000000 PUSH1 0x0 DUP3 ADD MSTORE POP JUMP JUMPDEST PUSH1 0x0 PUSH2 0xFB3 PUSH1 0x11 DUP4 PUSH2 0x9CE JUMP JUMPDEST SWAP2 POP PUSH2 0xFBE DUP3 PUSH2 0xF7D JUMP JUMPDEST PUSH1 0x20 DUP3 ADD SWAP1 POP SWAP2 SWAP1 POP JUMP JUMPDEST PUSH1 0x0 PUSH1 0x20 DUP3 ADD SWAP1 POP DUP2 DUP2 SUB PUSH1 0x0 DUP4 ADD MSTORE PUSH2 0xFE2 DUP2 PUSH2 0xFA6 JUMP JUMPDEST SWAP1 POP SWAP2 SWAP1 POP JUMP JUMPDEST PUSH32 0x4F6E6C7920737570706C6965722063616E207374617274207368697070696E67 PUSH1 0x0 DUP3 ADD MSTORE POP JUMP JUMPDEST PUSH1 0x0 PUSH2 0x101F PUSH1 0x20 DUP4 PUSH2 0x9CE JUMP JUMPDEST SWAP2 POP PUSH2 0x102A DUP3 PUSH2 0xFE9 JUMP JUMPDEST PUSH1 0x20 DUP3 ADD SWAP1 POP SWAP2 SWAP1 POP JUMP JUMPDEST PUSH1 0x0 PUSH1 0x20 DUP3 ADD SWAP1 POP DUP2 DUP2 SUB PUSH1 0x0 DUP4 ADD MSTORE PUSH2 0x104E DUP2 PUSH2 0x1012 JUMP JUMPDEST SWAP1 POP SWAP2 SWAP1 POP JUMP JUMPDEST PUSH1 0x0 PUSH1 0x20 DUP3 ADD SWAP1 POP PUSH2 0x106A PUSH1 0x0 DUP4 ADD DUP5 PUSH2 0xA74 JUMP JUMPDEST SWAP3 SWAP2 POP POP JUMP JUMPDEST PUSH32 0x4F6E6C792062757965722063616E20636F6E6669726D2064656C697665727900 PUSH1 0x0 DUP3 ADD MSTORE POP JUMP JUMPDEST PUSH1 0x0 PUSH2 0x10A6 PUSH1 0x1F DUP4 PUSH2 0x9CE JUMP JUMPDEST SWAP2 POP PUSH2 0x10B1 DUP3 PUSH2 0x1070 JUMP JUMPDEST PUSH1 0x20 DUP3 ADD SWAP1 POP SWAP2 SWAP1 POP JUMP JUMPDEST PUSH1 0x0 PUSH1 0x20 DUP3 ADD SWAP1 POP DUP2 DUP2 SUB PUSH1 0x0 DUP4 ADD MSTORE PUSH2 0x10D5 DUP2 PUSH2 0x1099 JUMP JUMPDEST SWAP1 POP SWAP2 SWAP1 POP JUMP JUMPDEST PUSH32 0x4974656D206973206E6F7420696E207472616E73697400000000000000000000 PUSH1 0x0 DUP3 ADD MSTORE POP JUMP JUMPDEST PUSH1 0x0 PUSH2 0x1112 PUSH1 0x16 DUP4 PUSH2 0x9CE JUMP JUMPDEST SWAP2 POP PUSH2 0x111D DUP3 PUSH2 0x10DC JUMP JUMPDEST PUSH1 0x20 DUP3 ADD SWAP1 POP SWAP2 SWAP1 POP JUMP JUMPDEST PUSH1 0x0 PUSH1 0x20 DUP3 ADD SWAP1 POP DUP2 DUP2 SUB PUSH1 0x0 DUP4 ADD MSTORE PUSH2 0x1141 DUP2 PUSH2 0x1105 JUMP JUMPDEST SWAP1 POP SWAP2 SWAP1 POP JUMP INVALID LOG2 PUSH5 0x6970667358 0x22 SLT KECCAK256 0xE8 ADD PUSH31 0x5158BBF1380B1CC26782AE4473D5E2CAAFD1A8A0328EF32148CEDDC056473 PUSH16 0x6C634300081200330000000000000000 "
				},
				"gasEstimates": {
					"creation": {
						"codeDepositCost": "895600",
						"executionCost": "929",
						"totalCost": "896529"
					},
					"external": {
						"confirmDelivery(uint256)": "30966",
						"createItem(string,uint256,uint256)": "infinite",
						"itemCount()": "2429",
						"items(uint256)": "infinite",
						"startShipping(uint256,address)": "infinite"
					}
				},
				"methodIdentifiers": {
					"confirmDelivery(uint256)": "fd84cb97",
					"createItem(string,uint256,uint256)": "108155bc",
					"itemCount()": "6bfb0d01",
					"items(uint256)": "bfb231d2",
					"startShipping(uint256,address)": "f53a8f6f"
				}
			},
			"storageLayout": {
				"storage": [
					{
						"astId": 26,
						"contract": "contracts/SupplyChain.sol:SupplyChain",
						"label": "items",
						"offset": 0,
						"slot": "0",
						"type": "t_mapping(t_uint256,t_struct(Item)21_storage)"
					},
					{
						"astId": 28,
						"contract": "contracts/SupplyChain.sol:SupplyChain",
						"label": "itemCount",
						"offset": 0,
						"slot": "1",
						"type": "t_uint256"
					}
				],
				"types": {
					"t_address": {
						"encoding": "inplace",
						"label": "address",
						"numberOfBytes": "20"
					},
					"t_enum(State)5": {
						"encoding": "inplace",
						"label": "enum SupplyChain.State",
						"numberOfBytes": "1"
					},
					"t_mapping(t_uint256,t_struct(Item)21_storage)": {
						"encoding": "mapping",
						"key": "t_uint256",
						"label": "mapping(uint256 => struct SupplyChain.Item)",
						"numberOfBytes": "32",
						"value": "t_struct(Item)21_storage"
					},
					"t_string_storage": {
						"encoding": "bytes",
						"label": "string",
						"numberOfBytes": "32"
					},
					"t_struct(Item)21_storage": {
						"encoding": "inplace",
						"label": "struct SupplyChain.Item",
						"members": [
							{
								"astId": 7,
								"contract": "contracts/SupplyChain.sol:SupplyChain",
								"label": "id",
								"offset": 0,
								"slot": "0",
								"type": "t_uint256"
							},
							{
								"astId": 9,
								"contract": "contracts/SupplyChain.sol:SupplyChain",
								"label": "name",
								"offset": 0,
								"slot": "1",
								"type": "t_string_storage"
							},
							{
								"astId": 11,
								"contract": "contracts/SupplyChain.sol:SupplyChain",
								"label": "quantity",
								"offset": 0,
								"slot": "2",
								"type": "t_uint256"
							},
							{
								"astId": 13,
								"contract": "contracts/SupplyChain.sol:SupplyChain",
								"label": "price",
								"offset": 0,
								"slot": "3",
								"type": "t_uint256"
							},
							{
								"astId": 15,
								"contract": "contracts/SupplyChain.sol:SupplyChain",
								"label": "supplier",
								"offset": 0,
								"slot": "4",
								"type": "t_address"
							},
							{
								"astId": 17,
								"contract": "contracts/SupplyChain.sol:SupplyChain",
								"label": "buyer",
								"offset": 0,
								"slot": "5",
								"type": "t_address"
							},
							{
								"astId": 20,
								"contract": "contracts/SupplyChain.sol:SupplyChain",
								"label": "state",
								"offset": 20,
								"slot": "5",
								"type": "t_enum(State)5"
							}
						],
						"numberOfBytes": "192"
					},
					"t_uint256": {
						"encoding": "inplace",
						"label": "uint256",
						"numberOfBytes": "32"
					}
				}
			},
			"userdoc": {
				"kind": "user",
				"methods": {},
				"version": 1
			}
		}
	}
}