{
	"contracts/CBDC.sol": {
		"RBAC": {
			"abi": [
				{
					"inputs": [],
					"stateMutability": "nonpayable",
					"type": "constructor"
				},
				{
					"inputs": [
						{
							"internalType": "address",
							"name": "_addr",
							"type": "address"
						},
						{
							"internalType": "string",
							"name": "_role",
							"type": "string"
						}
					],
					"name": "addAccount",
					"outputs": [],
					"stateMutability": "nonpayable",
					"type": "function"
				},
				{
					"inputs": [
						{
							"internalType": "address",
							"name": "_newAdmin",
							"type": "address"
						}
					],
					"name": "addAdmin",
					"outputs": [],
					"stateMutability": "nonpayable",
					"type": "function"
				},
				{
					"inputs": [
						{
							"internalType": "address",
							"name": "_newIntermediaries",
							"type": "address"
						}
					],
					"name": "addIntermediaries",
					"outputs": [],
					"stateMutability": "nonpayable",
					"type": "function"
				},
				{
					"inputs": [
						{
							"internalType": "address",
							"name": "_newMerchants",
							"type": "address"
						}
					],
					"name": "addMerchants",
					"outputs": [],
					"stateMutability": "nonpayable",
					"type": "function"
				},
				{
					"inputs": [
						{
							"internalType": "address",
							"name": "_newUser",
							"type": "address"
						}
					],
					"name": "addUser",
					"outputs": [],
					"stateMutability": "nonpayable",
					"type": "function"
				},
				{
					"inputs": [],
					"name": "adminFunc",
					"outputs": [],
					"stateMutability": "nonpayable",
					"type": "function"
				},
				{
					"inputs": [],
					"name": "getAccount",
					"outputs": [
						{
							"components": [
								{
									"internalType": "address",
									"name": "addr",
									"type": "address"
								},
								{
									"internalType": "string",
									"name": "role",
									"type": "string"
								}
							],
							"internalType": "struct RBAC.Account[]",
							"name": "",
							"type": "tuple[]"
						}
					],
					"stateMutability": "view",
					"type": "function"
				},
				{
					"inputs": [],
					"name": "userFunc",
					"outputs": [],
					"stateMutability": "nonpayable",
					"type": "function"
				}
			],
			"devdoc": {
				"kind": "dev",
				"methods": {},
				"version": 1
			},
			"evm": {
				"assembly": "    /* \"contracts/CBDC.sol\":912:2892  contract RBAC {... */\n  mstore(0x40, 0x80)\n    /* \"contracts/CBDC.sol\":1211:1266  constructor() {... */\n  callvalue\n  dup1\n  iszero\n  tag_1\n  jumpi\n  0x00\n  dup1\n  revert\ntag_1:\n  pop\n    /* \"contracts/CBDC.sol\":1236:1258  admins.add(msg.sender) */\n  tag_4\n    /* \"contracts/CBDC.sol\":1247:1257  msg.sender */\n  caller\n    /* \"contracts/CBDC.sol\":1236:1242  admins */\n  0x00\n    /* \"contracts/CBDC.sol\":1236:1246  admins.add */\n  or(tag_0_37, shl(0x20, tag_5))\n  swap1\n    /* \"contracts/CBDC.sol\":1236:1258  admins.add(msg.sender) */\n  swap2\n  swap1\n  0x20\n  shr\n  jump\t// in\ntag_4:\n    /* \"contracts/CBDC.sol\":912:2892  contract RBAC {... */\n  jump(tag_6)\n    /* \"contracts/CBDC.sol\":218:316  function add(Role storage role, address addr) internal {... */\ntag_5:\n    /* \"contracts/CBDC.sol\":304:308  true */\n  0x01\n    /* \"contracts/CBDC.sol\":284:288  role */\n  dup3\n    /* \"contracts/CBDC.sol\":284:295  role.bearer */\n  0x00\n  add\n    /* \"contracts/CBDC.sol\":284:301  role.bearer[addr] */\n  0x00\n    /* \"contracts/CBDC.sol\":296:300  addr */\n  dup4\n    /* \"contracts/CBDC.sol\":284:301  role.bearer[addr] */\n  0xffffffffffffffffffffffffffffffffffffffff\n  and\n  0xffffffffffffffffffffffffffffffffffffffff\n  and\n  dup2\n  mstore\n  0x20\n  add\n  swap1\n  dup2\n  mstore\n  0x20\n  add\n  0x00\n  keccak256\n  0x00\n    /* \"contracts/CBDC.sol\":284:308  role.bearer[addr] = true */\n  0x0100\n  exp\n  dup2\n  sload\n  dup2\n  0xff\n  mul\n  not\n  and\n  swap1\n  dup4\n  iszero\n  iszero\n  mul\n  or\n  swap1\n  sstore\n  pop\n    /* \"contracts/CBDC.sol\":218:316  function add(Role storage role, address addr) internal {... */\n  pop\n  pop\n  jump\t// out\n    /* \"contracts/CBDC.sol\":912:2892  contract RBAC {... */\ntag_6:\n  dataSize(sub_0)\n  dup1\n  dataOffset(sub_0)\n  0x00\n  codecopy\n  0x00\n  return\nstop\n\nsub_0: assembly {\n        /* \"contracts/CBDC.sol\":912:2892  contract RBAC {... */\n      mstore(0x40, 0x80)\n      callvalue\n      dup1\n      iszero\n      tag_1\n      jumpi\n      0x00\n      dup1\n      revert\n    tag_1:\n      pop\n      jumpi(tag_2, lt(calldatasize, 0x04))\n      shr(0xe0, calldataload(0x00))\n      dup1\n      0x877e77eb\n      gt\n      tag_11\n      jumpi\n      dup1\n      0x877e77eb\n      eq\n      tag_7\n      jumpi\n      dup1\n      0xdb613e81\n      eq\n      tag_8\n      jumpi\n      dup1\n      0xe1d06c77\n      eq\n      tag_9\n      jumpi\n      dup1\n      0xf0d4bc5c\n      eq\n      tag_10\n      jumpi\n      jump(tag_2)\n    tag_11:\n      dup1\n      0x011a8bd9\n      eq\n      tag_3\n      jumpi\n      dup1\n      0x421b2d8b\n      eq\n      tag_4\n      jumpi\n      dup1\n      0x462ec45c\n      eq\n      tag_5\n      jumpi\n      dup1\n      0x70480275\n      eq\n      tag_6\n      jumpi\n    tag_2:\n      0x00\n      dup1\n      revert\n        /* \"contracts/CBDC.sol\":1908:2142  function addIntermediaries(address _newIntermediaries)... */\n    tag_3:\n      tag_12\n      0x04\n      dup1\n      calldatasize\n      sub\n      dup2\n      add\n      swap1\n      tag_13\n      swap2\n      swap1\n      tag_14\n      jump\t// in\n    tag_13:\n      tag_15\n      jump\t// in\n    tag_12:\n      stop\n        /* \"contracts/CBDC.sol\":1758:1900  function addUser(address _newUser) external onlyUser {... */\n    tag_4:\n      tag_16\n      0x04\n      dup1\n      calldatasize\n      sub\n      dup2\n      add\n      swap1\n      tag_17\n      swap2\n      swap1\n      tag_14\n      jump\t// in\n    tag_17:\n      tag_18\n      jump\t// in\n    tag_16:\n      stop\n        /* \"contracts/CBDC.sol\":1551:1593  function adminFunc() external onlyAdmin {} */\n    tag_5:\n      tag_19\n      tag_20\n      jump\t// in\n    tag_19:\n      stop\n        /* \"contracts/CBDC.sol\":1601:1750  function addAdmin(address _newAdmin) external onlyAdmin {... */\n    tag_6:\n      tag_21\n      0x04\n      dup1\n      calldatasize\n      sub\n      dup2\n      add\n      swap1\n      tag_22\n      swap2\n      swap1\n      tag_14\n      jump\t// in\n    tag_22:\n      tag_23\n      jump\t// in\n    tag_21:\n      stop\n        /* \"contracts/CBDC.sol\":2150:2326  function addMerchants(address _newMerchants) external onlyMerchants {... */\n    tag_7:\n      tag_24\n      0x04\n      dup1\n      calldatasize\n      sub\n      dup2\n      add\n      swap1\n      tag_25\n      swap2\n      swap1\n      tag_14\n      jump\t// in\n    tag_25:\n      tag_26\n      jump\t// in\n    tag_24:\n      stop\n        /* \"contracts/CBDC.sol\":1274:1369  function getAccount() public view returns (Account[] memory) {... */\n    tag_8:\n      tag_27\n      tag_28\n      jump\t// in\n    tag_27:\n      mload(0x40)\n      tag_29\n      swap2\n      swap1\n      tag_30\n      jump\t// in\n    tag_29:\n      mload(0x40)\n      dup1\n      swap2\n      sub\n      swap1\n      return\n        /* \"contracts/CBDC.sol\":1503:1543  function userFunc() external onlyUser {} */\n    tag_9:\n      tag_31\n      tag_32\n      jump\t// in\n    tag_31:\n      stop\n        /* \"contracts/CBDC.sol\":1377:1495  function addAccount(address _addr, string memory _role) public {... */\n    tag_10:\n      tag_33\n      0x04\n      dup1\n      calldatasize\n      sub\n      dup2\n      add\n      swap1\n      tag_34\n      swap2\n      swap1\n      tag_35\n      jump\t// in\n    tag_34:\n      tag_36\n      jump\t// in\n    tag_33:\n      stop\n        /* \"contracts/CBDC.sol\":1908:2142  function addIntermediaries(address _newIntermediaries)... */\n    tag_15:\n        /* \"contracts/CBDC.sol\":2674:2678  true */\n      0x01\n        /* \"contracts/CBDC.sol\":2640:2678  intermediaries.has(msg.sender) == true */\n      iszero\n      iszero\n        /* \"contracts/CBDC.sol\":2640:2670  intermediaries.has(msg.sender) */\n      tag_39\n        /* \"contracts/CBDC.sol\":2659:2669  msg.sender */\n      caller\n        /* \"contracts/CBDC.sol\":2640:2654  intermediaries */\n      0x01\n        /* \"contracts/CBDC.sol\":2640:2658  intermediaries.has */\n      tag_40\n      swap1\n        /* \"contracts/CBDC.sol\":2640:2670  intermediaries.has(msg.sender) */\n      swap2\n      swap1\n      0xffffffff\n      and\n      jump\t// in\n    tag_39:\n        /* \"contracts/CBDC.sol\":2640:2678  intermediaries.has(msg.sender) == true */\n      iszero\n      iszero\n      eq\n        /* \"contracts/CBDC.sol\":2618:2735  require(... */\n      tag_41\n      jumpi\n      mload(0x40)\n      0x08c379a000000000000000000000000000000000000000000000000000000000\n      dup2\n      mstore\n      0x04\n      add\n      tag_42\n      swap1\n      tag_43\n      jump\t// in\n    tag_42:\n      mload(0x40)\n      dup1\n      swap2\n      sub\n      swap1\n      revert\n    tag_41:\n        /* \"contracts/CBDC.sol\":2025:2033  accounts */\n      0x04\n        /* \"contracts/CBDC.sol\":2039:2084  Account(_newIntermediaries, \"intermediaries\") */\n      mload(0x40)\n      dup1\n      0x40\n      add\n      0x40\n      mstore\n      dup1\n        /* \"contracts/CBDC.sol\":2047:2065  _newIntermediaries */\n      dup4\n        /* \"contracts/CBDC.sol\":2039:2084  Account(_newIntermediaries, \"intermediaries\") */\n      0xffffffffffffffffffffffffffffffffffffffff\n      and\n      dup2\n      mstore\n      0x20\n      add\n      mload(0x40)\n      dup1\n      0x40\n      add\n      0x40\n      mstore\n      dup1\n      0x0e\n      dup2\n      mstore\n      0x20\n      add\n      0x696e7465726d6564696172696573000000000000000000000000000000000000\n      dup2\n      mstore\n      pop\n      dup2\n      mstore\n      pop\n        /* \"contracts/CBDC.sol\":2025:2085  accounts.push(Account(_newIntermediaries, \"intermediaries\")) */\n      swap1\n      dup1\n      0x01\n      dup2\n      sload\n      add\n      dup1\n      dup3\n      sstore\n      dup1\n      swap2\n      pop\n      pop\n      0x01\n      swap1\n      sub\n      swap1\n      0x00\n      mstore\n      keccak256(0x00, 0x20)\n      swap1\n      0x02\n      mul\n      add\n      0x00\n      swap1\n      swap2\n      swap1\n      swap2\n      swap1\n      swap2\n      pop\n      0x00\n      dup3\n      add\n      mload\n      dup2\n      0x00\n      add\n      exp(0x0100, 0x00)\n      dup2\n      sload\n      dup2\n      0xffffffffffffffffffffffffffffffffffffffff\n      mul\n      not\n      and\n      swap1\n      dup4\n      0xffffffffffffffffffffffffffffffffffffffff\n      and\n      mul\n      or\n      swap1\n      sstore\n      pop\n      0x20\n      dup3\n      add\n      mload\n      dup2\n      0x01\n      add\n      swap1\n      dup2\n      tag_46\n      swap2\n      swap1\n      tag_47\n      jump\t// in\n    tag_46:\n      pop\n      pop\n      pop\n        /* \"contracts/CBDC.sol\":2096:2134  intermediaries.add(_newIntermediaries) */\n      tag_48\n        /* \"contracts/CBDC.sol\":2115:2133  _newIntermediaries */\n      dup2\n        /* \"contracts/CBDC.sol\":2096:2110  intermediaries */\n      0x01\n        /* \"contracts/CBDC.sol\":2096:2114  intermediaries.add */\n      tag_37\n      swap1\n        /* \"contracts/CBDC.sol\":2096:2134  intermediaries.add(_newIntermediaries) */\n      swap2\n      swap1\n      0xffffffff\n      and\n      jump\t// in\n    tag_48:\n        /* \"contracts/CBDC.sol\":1908:2142  function addIntermediaries(address _newIntermediaries)... */\n      pop\n      jump\t// out\n        /* \"contracts/CBDC.sol\":1758:1900  function addUser(address _newUser) external onlyUser {... */\n    tag_18:\n        /* \"contracts/CBDC.sol\":2521:2525  true */\n      0x01\n        /* \"contracts/CBDC.sol\":2496:2525  users.has(msg.sender) == true */\n      iszero\n      iszero\n        /* \"contracts/CBDC.sol\":2496:2517  users.has(msg.sender) */\n      tag_50\n        /* \"contracts/CBDC.sol\":2506:2516  msg.sender */\n      caller\n        /* \"contracts/CBDC.sol\":2496:2501  users */\n      0x02\n        /* \"contracts/CBDC.sol\":2496:2505  users.has */\n      tag_40\n      swap1\n        /* \"contracts/CBDC.sol\":2496:2517  users.has(msg.sender) */\n      swap2\n      swap1\n      0xffffffff\n      and\n      jump\t// in\n    tag_50:\n        /* \"contracts/CBDC.sol\":2496:2525  users.has(msg.sender) == true */\n      iszero\n      iszero\n      eq\n        /* \"contracts/CBDC.sol\":2488:2549  require(users.has(msg.sender) == true, \"Must have user role\") */\n      tag_51\n      jumpi\n      mload(0x40)\n      0x08c379a000000000000000000000000000000000000000000000000000000000\n      dup2\n      mstore\n      0x04\n      add\n      tag_52\n      swap1\n      tag_53\n      jump\t// in\n    tag_52:\n      mload(0x40)\n      dup1\n      swap2\n      sub\n      swap1\n      revert\n    tag_51:\n        /* \"contracts/CBDC.sol\":1822:1830  accounts */\n      0x04\n        /* \"contracts/CBDC.sol\":1836:1861  Account(_newUser, \"user\") */\n      mload(0x40)\n      dup1\n      0x40\n      add\n      0x40\n      mstore\n      dup1\n        /* \"contracts/CBDC.sol\":1844:1852  _newUser */\n      dup4\n        /* \"contracts/CBDC.sol\":1836:1861  Account(_newUser, \"user\") */\n      0xffffffffffffffffffffffffffffffffffffffff\n      and\n      dup2\n      mstore\n      0x20\n      add\n      mload(0x40)\n      dup1\n      0x40\n      add\n      0x40\n      mstore\n      dup1\n      0x04\n      dup2\n      mstore\n      0x20\n      add\n      0x7573657200000000000000000000000000000000000000000000000000000000\n      dup2\n      mstore\n      pop\n      dup2\n      mstore\n      pop\n        /* \"contracts/CBDC.sol\":1822:1862  accounts.push(Account(_newUser, \"user\")) */\n      swap1\n      dup1\n      0x01\n      dup2\n      sload\n      add\n      dup1\n      dup3\n      sstore\n      dup1\n      swap2\n      pop\n      pop\n      0x01\n      swap1\n      sub\n      swap1\n      0x00\n      mstore\n      keccak256(0x00, 0x20)\n      swap1\n      0x02\n      mul\n      add\n      0x00\n      swap1\n      swap2\n      swap1\n      swap2\n      swap1\n      swap2\n      pop\n      0x00\n      dup3\n      add\n      mload\n      dup2\n      0x00\n      add\n      exp(0x0100, 0x00)\n      dup2\n      sload\n      dup2\n      0xffffffffffffffffffffffffffffffffffffffff\n      mul\n      not\n      and\n      swap1\n      dup4\n      0xffffffffffffffffffffffffffffffffffffffff\n      and\n      mul\n      or\n      swap1\n      sstore\n      pop\n      0x20\n      dup3\n      add\n      mload\n      dup2\n      0x01\n      add\n      swap1\n      dup2\n      tag_56\n      swap2\n      swap1\n      tag_47\n      jump\t// in\n    tag_56:\n      pop\n      pop\n      pop\n        /* \"contracts/CBDC.sol\":1873:1892  users.add(_newUser) */\n      tag_57\n        /* \"contracts/CBDC.sol\":1883:1891  _newUser */\n      dup2\n        /* \"contracts/CBDC.sol\":1873:1878  users */\n      0x02\n        /* \"contracts/CBDC.sol\":1873:1882  users.add */\n      tag_37\n      swap1\n        /* \"contracts/CBDC.sol\":1873:1892  users.add(_newUser) */\n      swap2\n      swap1\n      0xffffffff\n      and\n      jump\t// in\n    tag_57:\n        /* \"contracts/CBDC.sol\":1758:1900  function addUser(address _newUser) external onlyUser {... */\n      pop\n      jump\t// out\n        /* \"contracts/CBDC.sol\":1551:1593  function adminFunc() external onlyAdmin {} */\n    tag_20:\n        /* \"contracts/CBDC.sol\":2400:2404  true */\n      0x01\n        /* \"contracts/CBDC.sol\":2374:2404  admins.has(msg.sender) == true */\n      iszero\n      iszero\n        /* \"contracts/CBDC.sol\":2374:2396  admins.has(msg.sender) */\n      tag_59\n        /* \"contracts/CBDC.sol\":2385:2395  msg.sender */\n      caller\n        /* \"contracts/CBDC.sol\":2374:2380  admins */\n      0x00\n        /* \"contracts/CBDC.sol\":2374:2384  admins.has */\n      tag_40\n      swap1\n        /* \"contracts/CBDC.sol\":2374:2396  admins.has(msg.sender) */\n      swap2\n      swap1\n      0xffffffff\n      and\n      jump\t// in\n    tag_59:\n        /* \"contracts/CBDC.sol\":2374:2404  admins.has(msg.sender) == true */\n      iszero\n      iszero\n      eq\n        /* \"contracts/CBDC.sol\":2366:2429  require(admins.has(msg.sender) == true, \"Must have admin role\") */\n      tag_60\n      jumpi\n      mload(0x40)\n      0x08c379a000000000000000000000000000000000000000000000000000000000\n      dup2\n      mstore\n      0x04\n      add\n      tag_61\n      swap1\n      tag_62\n      jump\t// in\n    tag_61:\n      mload(0x40)\n      dup1\n      swap2\n      sub\n      swap1\n      revert\n    tag_60:\n        /* \"contracts/CBDC.sol\":1551:1593  function adminFunc() external onlyAdmin {} */\n      jump\t// out\n        /* \"contracts/CBDC.sol\":1601:1750  function addAdmin(address _newAdmin) external onlyAdmin {... */\n    tag_23:\n        /* \"contracts/CBDC.sol\":2400:2404  true */\n      0x01\n        /* \"contracts/CBDC.sol\":2374:2404  admins.has(msg.sender) == true */\n      iszero\n      iszero\n        /* \"contracts/CBDC.sol\":2374:2396  admins.has(msg.sender) */\n      tag_65\n        /* \"contracts/CBDC.sol\":2385:2395  msg.sender */\n      caller\n        /* \"contracts/CBDC.sol\":2374:2380  admins */\n      0x00\n        /* \"contracts/CBDC.sol\":2374:2384  admins.has */\n      tag_40\n      swap1\n        /* \"contracts/CBDC.sol\":2374:2396  admins.has(msg.sender) */\n      swap2\n      swap1\n      0xffffffff\n      and\n      jump\t// in\n    tag_65:\n        /* \"contracts/CBDC.sol\":2374:2404  admins.has(msg.sender) == true */\n      iszero\n      iszero\n      eq\n        /* \"contracts/CBDC.sol\":2366:2429  require(admins.has(msg.sender) == true, \"Must have admin role\") */\n      tag_66\n      jumpi\n      mload(0x40)\n      0x08c379a000000000000000000000000000000000000000000000000000000000\n      dup2\n      mstore\n      0x04\n      add\n      tag_67\n      swap1\n      tag_62\n      jump\t// in\n    tag_67:\n      mload(0x40)\n      dup1\n      swap2\n      sub\n      swap1\n      revert\n    tag_66:\n        /* \"contracts/CBDC.sol\":1668:1676  accounts */\n      0x04\n        /* \"contracts/CBDC.sol\":1682:1709  Account(_newAdmin, \"admin\") */\n      mload(0x40)\n      dup1\n      0x40\n      add\n      0x40\n      mstore\n      dup1\n        /* \"contracts/CBDC.sol\":1690:1699  _newAdmin */\n      dup4\n        /* \"contracts/CBDC.sol\":1682:1709  Account(_newAdmin, \"admin\") */\n      0xffffffffffffffffffffffffffffffffffffffff\n      and\n      dup2\n      mstore\n      0x20\n      add\n      mload(0x40)\n      dup1\n      0x40\n      add\n      0x40\n      mstore\n      dup1\n      0x05\n      dup2\n      mstore\n      0x20\n      add\n      0x61646d696e000000000000000000000000000000000000000000000000000000\n      dup2\n      mstore\n      pop\n      dup2\n      mstore\n      pop\n        /* \"contracts/CBDC.sol\":1668:1710  accounts.push(Account(_newAdmin, \"admin\")) */\n      swap1\n      dup1\n      0x01\n      dup2\n      sload\n      add\n      dup1\n      dup3\n      sstore\n      dup1\n      swap2\n      pop\n      pop\n      0x01\n      swap1\n      sub\n      swap1\n      0x00\n      mstore\n      keccak256(0x00, 0x20)\n      swap1\n      0x02\n      mul\n      add\n      0x00\n      swap1\n      swap2\n      swap1\n      swap2\n      swap1\n      swap2\n      pop\n      0x00\n      dup3\n      add\n      mload\n      dup2\n      0x00\n      add\n      exp(0x0100, 0x00)\n      dup2\n      sload\n      dup2\n      0xffffffffffffffffffffffffffffffffffffffff\n      mul\n      not\n      and\n      swap1\n      dup4\n      0xffffffffffffffffffffffffffffffffffffffff\n      and\n      mul\n      or\n      swap1\n      sstore\n      pop\n      0x20\n      dup3\n      add\n      mload\n      dup2\n      0x01\n      add\n      swap1\n      dup2\n      tag_70\n      swap2\n      swap1\n      tag_47\n      jump\t// in\n    tag_70:\n      pop\n      pop\n      pop\n        /* \"contracts/CBDC.sol\":1721:1742  admins.add(_newAdmin) */\n      tag_71\n        /* \"contracts/CBDC.sol\":1732:1741  _newAdmin */\n      dup2\n        /* \"contracts/CBDC.sol\":1721:1727  admins */\n      0x00\n        /* \"contracts/CBDC.sol\":1721:1731  admins.add */\n      tag_37\n      swap1\n        /* \"contracts/CBDC.sol\":1721:1742  admins.add(_newAdmin) */\n      swap2\n      swap1\n      0xffffffff\n      and\n      jump\t// in\n    tag_71:\n        /* \"contracts/CBDC.sol\":1601:1750  function addAdmin(address _newAdmin) external onlyAdmin {... */\n      pop\n      jump\t// out\n        /* \"contracts/CBDC.sol\":2150:2326  function addMerchants(address _newMerchants) external onlyMerchants {... */\n    tag_26:\n        /* \"contracts/CBDC.sol\":2836:2840  true */\n      0x01\n        /* \"contracts/CBDC.sol\":2807:2840  merchants.has(msg.sender) == true */\n      iszero\n      iszero\n        /* \"contracts/CBDC.sol\":2807:2832  merchants.has(msg.sender) */\n      tag_73\n        /* \"contracts/CBDC.sol\":2821:2831  msg.sender */\n      caller\n        /* \"contracts/CBDC.sol\":2807:2816  merchants */\n      0x03\n        /* \"contracts/CBDC.sol\":2807:2820  merchants.has */\n      tag_40\n      swap1\n        /* \"contracts/CBDC.sol\":2807:2832  merchants.has(msg.sender) */\n      swap2\n      swap1\n      0xffffffff\n      and\n      jump\t// in\n    tag_73:\n        /* \"contracts/CBDC.sol\":2807:2840  merchants.has(msg.sender) == true */\n      iszero\n      iszero\n      eq\n        /* \"contracts/CBDC.sol\":2799:2869  require(merchants.has(msg.sender) == true, \"Must have merchants role\") */\n      tag_74\n      jumpi\n      mload(0x40)\n      0x08c379a000000000000000000000000000000000000000000000000000000000\n      dup2\n      mstore\n      0x04\n      add\n      tag_75\n      swap1\n      tag_76\n      jump\t// in\n    tag_75:\n      mload(0x40)\n      dup1\n      swap2\n      sub\n      swap1\n      revert\n    tag_74:\n        /* \"contracts/CBDC.sol\":2229:2237  accounts */\n      0x04\n        /* \"contracts/CBDC.sol\":2243:2278  Account(_newMerchants, \"merchants\") */\n      mload(0x40)\n      dup1\n      0x40\n      add\n      0x40\n      mstore\n      dup1\n        /* \"contracts/CBDC.sol\":2251:2264  _newMerchants */\n      dup4\n        /* \"contracts/CBDC.sol\":2243:2278  Account(_newMerchants, \"merchants\") */\n      0xffffffffffffffffffffffffffffffffffffffff\n      and\n      dup2\n      mstore\n      0x20\n      add\n      mload(0x40)\n      dup1\n      0x40\n      add\n      0x40\n      mstore\n      dup1\n      0x09\n      dup2\n      mstore\n      0x20\n      add\n      0x6d65726368616e74730000000000000000000000000000000000000000000000\n      dup2\n      mstore\n      pop\n      dup2\n      mstore\n      pop\n        /* \"contracts/CBDC.sol\":2229:2279  accounts.push(Account(_newMerchants, \"merchants\")) */\n      swap1\n      dup1\n      0x01\n      dup2\n      sload\n      add\n      dup1\n      dup3\n      sstore\n      dup1\n      swap2\n      pop\n      pop\n      0x01\n      swap1\n      sub\n      swap1\n      0x00\n      mstore\n      keccak256(0x00, 0x20)\n      swap1\n      0x02\n      mul\n      add\n      0x00\n      swap1\n      swap2\n      swap1\n      swap2\n      swap1\n      swap2\n      pop\n      0x00\n      dup3\n      add\n      mload\n      dup2\n      0x00\n      add\n      exp(0x0100, 0x00)\n      dup2\n      sload\n      dup2\n      0xffffffffffffffffffffffffffffffffffffffff\n      mul\n      not\n      and\n      swap1\n      dup4\n      0xffffffffffffffffffffffffffffffffffffffff\n      and\n      mul\n      or\n      swap1\n      sstore\n      pop\n      0x20\n      dup3\n      add\n      mload\n      dup2\n      0x01\n      add\n      swap1\n      dup2\n      tag_79\n      swap2\n      swap1\n      tag_47\n      jump\t// in\n    tag_79:\n      pop\n      pop\n      pop\n        /* \"contracts/CBDC.sol\":2290:2318  merchants.add(_newMerchants) */\n      tag_80\n        /* \"contracts/CBDC.sol\":2304:2317  _newMerchants */\n      dup2\n        /* \"contracts/CBDC.sol\":2290:2299  merchants */\n      0x03\n        /* \"contracts/CBDC.sol\":2290:2303  merchants.add */\n      tag_37\n      swap1\n        /* \"contracts/CBDC.sol\":2290:2318  merchants.add(_newMerchants) */\n      swap2\n      swap1\n      0xffffffff\n      and\n      jump\t// in\n    tag_80:\n        /* \"contracts/CBDC.sol\":2150:2326  function addMerchants(address _newMerchants) external onlyMerchants {... */\n      pop\n      jump\t// out\n        /* \"contracts/CBDC.sol\":1274:1369  function getAccount() public view returns (Account[] memory) {... */\n    tag_28:\n        /* \"contracts/CBDC.sol\":1317:1333  Account[] memory */\n      0x60\n        /* \"contracts/CBDC.sol\":1353:1361  accounts */\n      0x04\n        /* \"contracts/CBDC.sol\":1346:1361  return accounts */\n      dup1\n      sload\n      dup1\n      0x20\n      mul\n      0x20\n      add\n      mload(0x40)\n      swap1\n      dup2\n      add\n      0x40\n      mstore\n      dup1\n      swap3\n      swap2\n      swap1\n      dup2\n      dup2\n      mstore\n      0x20\n      add\n      0x00\n      swap1\n    tag_82:\n      dup3\n      dup3\n      lt\n      iszero\n      tag_83\n      jumpi\n      dup4\n      dup3\n      swap1\n      0x00\n      mstore\n      keccak256(0x00, 0x20)\n      swap1\n      0x02\n      mul\n      add\n      mload(0x40)\n      dup1\n      0x40\n      add\n      0x40\n      mstore\n      swap1\n      dup2\n      0x00\n      dup3\n      add\n      0x00\n      swap1\n      sload\n      swap1\n      0x0100\n      exp\n      swap1\n      div\n      0xffffffffffffffffffffffffffffffffffffffff\n      and\n      0xffffffffffffffffffffffffffffffffffffffff\n      and\n      0xffffffffffffffffffffffffffffffffffffffff\n      and\n      dup2\n      mstore\n      0x20\n      add\n      0x01\n      dup3\n      add\n      dup1\n      sload\n      tag_85\n      swap1\n      tag_86\n      jump\t// in\n    tag_85:\n      dup1\n      0x1f\n      add\n      0x20\n      dup1\n      swap2\n      div\n      mul\n      0x20\n      add\n      mload(0x40)\n      swap1\n      dup2\n      add\n      0x40\n      mstore\n      dup1\n      swap3\n      swap2\n      swap1\n      dup2\n      dup2\n      mstore\n      0x20\n      add\n      dup3\n      dup1\n      sload\n      tag_87\n      swap1\n      tag_86\n      jump\t// in\n    tag_87:\n      dup1\n      iszero\n      tag_88\n      jumpi\n      dup1\n      0x1f\n      lt\n      tag_89\n      jumpi\n      0x0100\n      dup1\n      dup4\n      sload\n      div\n      mul\n      dup4\n      mstore\n      swap2\n      0x20\n      add\n      swap2\n      jump(tag_88)\n    tag_89:\n      dup3\n      add\n      swap2\n      swap1\n      0x00\n      mstore\n      keccak256(0x00, 0x20)\n      swap1\n    tag_90:\n      dup2\n      sload\n      dup2\n      mstore\n      swap1\n      0x01\n      add\n      swap1\n      0x20\n      add\n      dup1\n      dup4\n      gt\n      tag_90\n      jumpi\n      dup3\n      swap1\n      sub\n      0x1f\n      and\n      dup3\n      add\n      swap2\n    tag_88:\n      pop\n      pop\n      pop\n      pop\n      pop\n      dup2\n      mstore\n      pop\n      pop\n      dup2\n      mstore\n      0x20\n      add\n      swap1\n      0x01\n      add\n      swap1\n      jump(tag_82)\n    tag_83:\n      pop\n      pop\n      pop\n      pop\n      swap1\n      pop\n        /* \"contracts/CBDC.sol\":1274:1369  function getAccount() public view returns (Account[] memory) {... */\n      swap1\n      jump\t// out\n        /* \"contracts/CBDC.sol\":1503:1543  function userFunc() external onlyUser {} */\n    tag_32:\n        /* \"contracts/CBDC.sol\":2521:2525  true */\n      0x01\n        /* \"contracts/CBDC.sol\":2496:2525  users.has(msg.sender) == true */\n      iszero\n      iszero\n        /* \"contracts/CBDC.sol\":2496:2517  users.has(msg.sender) */\n      tag_92\n        /* \"contracts/CBDC.sol\":2506:2516  msg.sender */\n      caller\n        /* \"contracts/CBDC.sol\":2496:2501  users */\n      0x02\n        /* \"contracts/CBDC.sol\":2496:2505  users.has */\n      tag_40\n      swap1\n        /* \"contracts/CBDC.sol\":2496:2517  users.has(msg.sender) */\n      swap2\n      swap1\n      0xffffffff\n      and\n      jump\t// in\n    tag_92:\n        /* \"contracts/CBDC.sol\":2496:2525  users.has(msg.sender) == true */\n      iszero\n      iszero\n      eq\n        /* \"contracts/CBDC.sol\":2488:2549  require(users.has(msg.sender) == true, \"Must have user role\") */\n      tag_93\n      jumpi\n      mload(0x40)\n      0x08c379a000000000000000000000000000000000000000000000000000000000\n      dup2\n      mstore\n      0x04\n      add\n      tag_94\n      swap1\n      tag_53\n      jump\t// in\n    tag_94:\n      mload(0x40)\n      dup1\n      swap2\n      sub\n      swap1\n      revert\n    tag_93:\n        /* \"contracts/CBDC.sol\":1503:1543  function userFunc() external onlyUser {} */\n      jump\t// out\n        /* \"contracts/CBDC.sol\":1377:1495  function addAccount(address _addr, string memory _role) public {... */\n    tag_36:\n        /* \"contracts/CBDC.sol\":1451:1459  accounts */\n      0x04\n        /* \"contracts/CBDC.sol\":1465:1486  Account(_addr, _role) */\n      mload(0x40)\n      dup1\n      0x40\n      add\n      0x40\n      mstore\n      dup1\n        /* \"contracts/CBDC.sol\":1473:1478  _addr */\n      dup5\n        /* \"contracts/CBDC.sol\":1465:1486  Account(_addr, _role) */\n      0xffffffffffffffffffffffffffffffffffffffff\n      and\n      dup2\n      mstore\n      0x20\n      add\n        /* \"contracts/CBDC.sol\":1480:1485  _role */\n      dup4\n        /* \"contracts/CBDC.sol\":1465:1486  Account(_addr, _role) */\n      dup2\n      mstore\n      pop\n        /* \"contracts/CBDC.sol\":1451:1487  accounts.push(Account(_addr, _role)) */\n      swap1\n      dup1\n      0x01\n      dup2\n      sload\n      add\n      dup1\n      dup3\n      sstore\n      dup1\n      swap2\n      pop\n      pop\n      0x01\n      swap1\n      sub\n      swap1\n      0x00\n      mstore\n      keccak256(0x00, 0x20)\n      swap1\n      0x02\n      mul\n      add\n      0x00\n      swap1\n      swap2\n      swap1\n      swap2\n      swap1\n      swap2\n      pop\n      0x00\n      dup3\n      add\n      mload\n      dup2\n      0x00\n      add\n      exp(0x0100, 0x00)\n      dup2\n      sload\n      dup2\n      0xffffffffffffffffffffffffffffffffffffffff\n      mul\n      not\n      and\n      swap1\n      dup4\n      0xffffffffffffffffffffffffffffffffffffffff\n      and\n      mul\n      or\n      swap1\n      sstore\n      pop\n      0x20\n      dup3\n      add\n      mload\n      dup2\n      0x01\n      add\n      swap1\n      dup2\n      tag_98\n      swap2\n      swap1\n      tag_47\n      jump\t// in\n    tag_98:\n      pop\n      pop\n      pop\n        /* \"contracts/CBDC.sol\":1377:1495  function addAccount(address _addr, string memory _role) public {... */\n      pop\n      pop\n      jump\t// out\n        /* \"contracts/CBDC.sol\":218:316  function add(Role storage role, address addr) internal {... */\n    tag_37:\n        /* \"contracts/CBDC.sol\":304:308  true */\n      0x01\n        /* \"contracts/CBDC.sol\":284:288  role */\n      dup3\n        /* \"contracts/CBDC.sol\":284:295  role.bearer */\n      0x00\n      add\n        /* \"contracts/CBDC.sol\":284:301  role.bearer[addr] */\n      0x00\n        /* \"contracts/CBDC.sol\":296:300  addr */\n      dup4\n        /* \"contracts/CBDC.sol\":284:301  role.bearer[addr] */\n      0xffffffffffffffffffffffffffffffffffffffff\n      and\n      0xffffffffffffffffffffffffffffffffffffffff\n      and\n      dup2\n      mstore\n      0x20\n      add\n      swap1\n      dup2\n      mstore\n      0x20\n      add\n      0x00\n      keccak256\n      0x00\n        /* \"contracts/CBDC.sol\":284:308  role.bearer[addr] = true */\n      0x0100\n      exp\n      dup2\n      sload\n      dup2\n      0xff\n      mul\n      not\n      and\n      swap1\n      dup4\n      iszero\n      iszero\n      mul\n      or\n      swap1\n      sstore\n      pop\n        /* \"contracts/CBDC.sol\":218:316  function add(Role storage role, address addr) internal {... */\n      pop\n      pop\n      jump\t// out\n        /* \"contracts/CBDC.sol\":787:905  function has(Role storage role, address addr) internal view returns (bool) {... */\n    tag_40:\n        /* \"contracts/CBDC.sol\":856:860  bool */\n      0x00\n        /* \"contracts/CBDC.sol\":880:884  role */\n      dup3\n        /* \"contracts/CBDC.sol\":880:891  role.bearer */\n      0x00\n      add\n        /* \"contracts/CBDC.sol\":880:897  role.bearer[addr] */\n      0x00\n        /* \"contracts/CBDC.sol\":892:896  addr */\n      dup4\n        /* \"contracts/CBDC.sol\":880:897  role.bearer[addr] */\n      0xffffffffffffffffffffffffffffffffffffffff\n      and\n      0xffffffffffffffffffffffffffffffffffffffff\n      and\n      dup2\n      mstore\n      0x20\n      add\n      swap1\n      dup2\n      mstore\n      0x20\n      add\n      0x00\n      keccak256\n      0x00\n      swap1\n      sload\n      swap1\n      0x0100\n      exp\n      swap1\n      div\n      0xff\n      and\n        /* \"contracts/CBDC.sol\":873:897  return role.bearer[addr] */\n      swap1\n      pop\n        /* \"contracts/CBDC.sol\":787:905  function has(Role storage role, address addr) internal view returns (bool) {... */\n      swap3\n      swap2\n      pop\n      pop\n      jump\t// out\n        /* \"#utility.yul\":7:82   */\n    tag_101:\n        /* \"#utility.yul\":40:46   */\n      0x00\n        /* \"#utility.yul\":73:75   */\n      0x40\n        /* \"#utility.yul\":67:76   */\n      mload\n        /* \"#utility.yul\":57:76   */\n      swap1\n      pop\n        /* \"#utility.yul\":7:82   */\n      swap1\n      jump\t// out\n        /* \"#utility.yul\":88:205   */\n    tag_102:\n        /* \"#utility.yul\":197:198   */\n      0x00\n        /* \"#utility.yul\":194:195   */\n      dup1\n        /* \"#utility.yul\":187:199   */\n      revert\n        /* \"#utility.yul\":211:328   */\n    tag_103:\n        /* \"#utility.yul\":320:321   */\n      0x00\n        /* \"#utility.yul\":317:318   */\n      dup1\n        /* \"#utility.yul\":310:322   */\n      revert\n        /* \"#utility.yul\":334:460   */\n    tag_104:\n        /* \"#utility.yul\":371:378   */\n      0x00\n        /* \"#utility.yul\":411:453   */\n      0xffffffffffffffffffffffffffffffffffffffff\n        /* \"#utility.yul\":404:409   */\n      dup3\n        /* \"#utility.yul\":400:454   */\n      and\n        /* \"#utility.yul\":389:454   */\n      swap1\n      pop\n        /* \"#utility.yul\":334:460   */\n      swap2\n      swap1\n      pop\n      jump\t// out\n        /* \"#utility.yul\":466:562   */\n    tag_105:\n        /* \"#utility.yul\":503:510   */\n      0x00\n        /* \"#utility.yul\":532:556   */\n      tag_162\n        /* \"#utility.yul\":550:555   */\n      dup3\n        /* \"#utility.yul\":532:556   */\n      tag_104\n      jump\t// in\n    tag_162:\n        /* \"#utility.yul\":521:556   */\n      swap1\n      pop\n        /* \"#utility.yul\":466:562   */\n      swap2\n      swap1\n      pop\n      jump\t// out\n        /* \"#utility.yul\":568:690   */\n    tag_106:\n        /* \"#utility.yul\":641:665   */\n      tag_164\n        /* \"#utility.yul\":659:664   */\n      dup2\n        /* \"#utility.yul\":641:665   */\n      tag_105\n      jump\t// in\n    tag_164:\n        /* \"#utility.yul\":634:639   */\n      dup2\n        /* \"#utility.yul\":631:666   */\n      eq\n        /* \"#utility.yul\":621:684   */\n      tag_165\n      jumpi\n        /* \"#utility.yul\":680:681   */\n      0x00\n        /* \"#utility.yul\":677:678   */\n      dup1\n        /* \"#utility.yul\":670:682   */\n      revert\n        /* \"#utility.yul\":621:684   */\n    tag_165:\n        /* \"#utility.yul\":568:690   */\n      pop\n      jump\t// out\n        /* \"#utility.yul\":696:835   */\n    tag_107:\n        /* \"#utility.yul\":742:747   */\n      0x00\n        /* \"#utility.yul\":780:786   */\n      dup2\n        /* \"#utility.yul\":767:787   */\n      calldataload\n        /* \"#utility.yul\":758:787   */\n      swap1\n      pop\n        /* \"#utility.yul\":796:829   */\n      tag_167\n        /* \"#utility.yul\":823:828   */\n      dup2\n        /* \"#utility.yul\":796:829   */\n      tag_106\n      jump\t// in\n    tag_167:\n        /* \"#utility.yul\":696:835   */\n      swap3\n      swap2\n      pop\n      pop\n      jump\t// out\n        /* \"#utility.yul\":841:1170   */\n    tag_14:\n        /* \"#utility.yul\":900:906   */\n      0x00\n        /* \"#utility.yul\":949:951   */\n      0x20\n        /* \"#utility.yul\":937:946   */\n      dup3\n        /* \"#utility.yul\":928:935   */\n      dup5\n        /* \"#utility.yul\":924:947   */\n      sub\n        /* \"#utility.yul\":920:952   */\n      slt\n        /* \"#utility.yul\":917:1036   */\n      iszero\n      tag_169\n      jumpi\n        /* \"#utility.yul\":955:1034   */\n      tag_170\n      tag_102\n      jump\t// in\n    tag_170:\n        /* \"#utility.yul\":917:1036   */\n    tag_169:\n        /* \"#utility.yul\":1075:1076   */\n      0x00\n        /* \"#utility.yul\":1100:1153   */\n      tag_171\n        /* \"#utility.yul\":1145:1152   */\n      dup5\n        /* \"#utility.yul\":1136:1142   */\n      dup3\n        /* \"#utility.yul\":1125:1134   */\n      dup6\n        /* \"#utility.yul\":1121:1143   */\n      add\n        /* \"#utility.yul\":1100:1153   */\n      tag_107\n      jump\t// in\n    tag_171:\n        /* \"#utility.yul\":1090:1153   */\n      swap2\n      pop\n        /* \"#utility.yul\":1046:1163   */\n      pop\n        /* \"#utility.yul\":841:1170   */\n      swap3\n      swap2\n      pop\n      pop\n      jump\t// out\n        /* \"#utility.yul\":1176:1313   */\n    tag_108:\n        /* \"#utility.yul\":1266:1272   */\n      0x00\n        /* \"#utility.yul\":1300:1305   */\n      dup2\n        /* \"#utility.yul\":1294:1306   */\n      mload\n        /* \"#utility.yul\":1284:1306   */\n      swap1\n      pop\n        /* \"#utility.yul\":1176:1313   */\n      swap2\n      swap1\n      pop\n      jump\t// out\n        /* \"#utility.yul\":1319:1526   */\n    tag_109:\n        /* \"#utility.yul\":1441:1452   */\n      0x00\n        /* \"#utility.yul\":1475:1481   */\n      dup3\n        /* \"#utility.yul\":1470:1473   */\n      dup3\n        /* \"#utility.yul\":1463:1482   */\n      mstore\n        /* \"#utility.yul\":1515:1519   */\n      0x20\n        /* \"#utility.yul\":1510:1513   */\n      dup3\n        /* \"#utility.yul\":1506:1520   */\n      add\n        /* \"#utility.yul\":1491:1520   */\n      swap1\n      pop\n        /* \"#utility.yul\":1319:1526   */\n      swap3\n      swap2\n      pop\n      pop\n      jump\t// out\n        /* \"#utility.yul\":1532:1687   */\n    tag_110:\n        /* \"#utility.yul\":1622:1626   */\n      0x00\n        /* \"#utility.yul\":1645:1648   */\n      dup2\n        /* \"#utility.yul\":1637:1648   */\n      swap1\n      pop\n        /* \"#utility.yul\":1675:1679   */\n      0x20\n        /* \"#utility.yul\":1670:1673   */\n      dup3\n        /* \"#utility.yul\":1666:1680   */\n      add\n        /* \"#utility.yul\":1658:1680   */\n      swap1\n      pop\n        /* \"#utility.yul\":1532:1687   */\n      swap2\n      swap1\n      pop\n      jump\t// out\n        /* \"#utility.yul\":1693:1801   */\n    tag_111:\n        /* \"#utility.yul\":1770:1794   */\n      tag_176\n        /* \"#utility.yul\":1788:1793   */\n      dup2\n        /* \"#utility.yul\":1770:1794   */\n      tag_105\n      jump\t// in\n    tag_176:\n        /* \"#utility.yul\":1765:1768   */\n      dup3\n        /* \"#utility.yul\":1758:1795   */\n      mstore\n        /* \"#utility.yul\":1693:1801   */\n      pop\n      pop\n      jump\t// out\n        /* \"#utility.yul\":1807:1906   */\n    tag_112:\n        /* \"#utility.yul\":1859:1865   */\n      0x00\n        /* \"#utility.yul\":1893:1898   */\n      dup2\n        /* \"#utility.yul\":1887:1899   */\n      mload\n        /* \"#utility.yul\":1877:1899   */\n      swap1\n      pop\n        /* \"#utility.yul\":1807:1906   */\n      swap2\n      swap1\n      pop\n      jump\t// out\n        /* \"#utility.yul\":1912:2071   */\n    tag_113:\n        /* \"#utility.yul\":1986:1997   */\n      0x00\n        /* \"#utility.yul\":2020:2026   */\n      dup3\n        /* \"#utility.yul\":2015:2018   */\n      dup3\n        /* \"#utility.yul\":2008:2027   */\n      mstore\n        /* \"#utility.yul\":2060:2064   */\n      0x20\n        /* \"#utility.yul\":2055:2058   */\n      dup3\n        /* \"#utility.yul\":2051:2065   */\n      add\n        /* \"#utility.yul\":2036:2065   */\n      swap1\n      pop\n        /* \"#utility.yul\":1912:2071   */\n      swap3\n      swap2\n      pop\n      pop\n      jump\t// out\n        /* \"#utility.yul\":2077:2323   */\n    tag_114:\n        /* \"#utility.yul\":2158:2159   */\n      0x00\n        /* \"#utility.yul\":2168:2281   */\n    tag_180:\n        /* \"#utility.yul\":2182:2188   */\n      dup4\n        /* \"#utility.yul\":2179:2180   */\n      dup2\n        /* \"#utility.yul\":2176:2189   */\n      lt\n        /* \"#utility.yul\":2168:2281   */\n      iszero\n      tag_182\n      jumpi\n        /* \"#utility.yul\":2267:2268   */\n      dup1\n        /* \"#utility.yul\":2262:2265   */\n      dup3\n        /* \"#utility.yul\":2258:2269   */\n      add\n        /* \"#utility.yul\":2252:2270   */\n      mload\n        /* \"#utility.yul\":2248:2249   */\n      dup2\n        /* \"#utility.yul\":2243:2246   */\n      dup5\n        /* \"#utility.yul\":2239:2250   */\n      add\n        /* \"#utility.yul\":2232:2271   */\n      mstore\n        /* \"#utility.yul\":2204:2206   */\n      0x20\n        /* \"#utility.yul\":2201:2202   */\n      dup2\n        /* \"#utility.yul\":2197:2207   */\n      add\n        /* \"#utility.yul\":2192:2207   */\n      swap1\n      pop\n        /* \"#utility.yul\":2168:2281   */\n      jump(tag_180)\n    tag_182:\n        /* \"#utility.yul\":2315:2316   */\n      0x00\n        /* \"#utility.yul\":2306:2312   */\n      dup5\n        /* \"#utility.yul\":2301:2304   */\n      dup5\n        /* \"#utility.yul\":2297:2313   */\n      add\n        /* \"#utility.yul\":2290:2317   */\n      mstore\n        /* \"#utility.yul\":2139:2323   */\n      pop\n        /* \"#utility.yul\":2077:2323   */\n      pop\n      pop\n      pop\n      jump\t// out\n        /* \"#utility.yul\":2329:2431   */\n    tag_115:\n        /* \"#utility.yul\":2370:2376   */\n      0x00\n        /* \"#utility.yul\":2421:2423   */\n      0x1f\n        /* \"#utility.yul\":2417:2424   */\n      not\n        /* \"#utility.yul\":2412:2414   */\n      0x1f\n        /* \"#utility.yul\":2405:2410   */\n      dup4\n        /* \"#utility.yul\":2401:2415   */\n      add\n        /* \"#utility.yul\":2397:2425   */\n      and\n        /* \"#utility.yul\":2387:2425   */\n      swap1\n      pop\n        /* \"#utility.yul\":2329:2431   */\n      swap2\n      swap1\n      pop\n      jump\t// out\n        /* \"#utility.yul\":2437:2794   */\n    tag_116:\n        /* \"#utility.yul\":2515:2518   */\n      0x00\n        /* \"#utility.yul\":2543:2582   */\n      tag_185\n        /* \"#utility.yul\":2576:2581   */\n      dup3\n        /* \"#utility.yul\":2543:2582   */\n      tag_112\n      jump\t// in\n    tag_185:\n        /* \"#utility.yul\":2598:2659   */\n      tag_186\n        /* \"#utility.yul\":2652:2658   */\n      dup2\n        /* \"#utility.yul\":2647:2650   */\n      dup6\n        /* \"#utility.yul\":2598:2659   */\n      tag_113\n      jump\t// in\n    tag_186:\n        /* \"#utility.yul\":2591:2659   */\n      swap4\n      pop\n        /* \"#utility.yul\":2668:2733   */\n      tag_187\n        /* \"#utility.yul\":2726:2732   */\n      dup2\n        /* \"#utility.yul\":2721:2724   */\n      dup6\n        /* \"#utility.yul\":2714:2718   */\n      0x20\n        /* \"#utility.yul\":2707:2712   */\n      dup7\n        /* \"#utility.yul\":2703:2719   */\n      add\n        /* \"#utility.yul\":2668:2733   */\n      tag_114\n      jump\t// in\n    tag_187:\n        /* \"#utility.yul\":2758:2787   */\n      tag_188\n        /* \"#utility.yul\":2780:2786   */\n      dup2\n        /* \"#utility.yul\":2758:2787   */\n      tag_115\n      jump\t// in\n    tag_188:\n        /* \"#utility.yul\":2753:2756   */\n      dup5\n        /* \"#utility.yul\":2749:2788   */\n      add\n        /* \"#utility.yul\":2742:2788   */\n      swap2\n      pop\n        /* \"#utility.yul\":2519:2794   */\n      pop\n        /* \"#utility.yul\":2437:2794   */\n      swap3\n      swap2\n      pop\n      pop\n      jump\t// out\n        /* \"#utility.yul\":2850:3442   */\n    tag_117:\n        /* \"#utility.yul\":2955:2958   */\n      0x00\n        /* \"#utility.yul\":2991:2995   */\n      0x40\n        /* \"#utility.yul\":2986:2989   */\n      dup4\n        /* \"#utility.yul\":2982:2996   */\n      add\n        /* \"#utility.yul\":3078:3082   */\n      0x00\n        /* \"#utility.yul\":3071:3076   */\n      dup4\n        /* \"#utility.yul\":3067:3083   */\n      add\n        /* \"#utility.yul\":3061:3084   */\n      mload\n        /* \"#utility.yul\":3097:3160   */\n      tag_190\n        /* \"#utility.yul\":3154:3158   */\n      0x00\n        /* \"#utility.yul\":3149:3152   */\n      dup7\n        /* \"#utility.yul\":3145:3159   */\n      add\n        /* \"#utility.yul\":3131:3143   */\n      dup3\n        /* \"#utility.yul\":3097:3160   */\n      tag_111\n      jump\t// in\n    tag_190:\n        /* \"#utility.yul\":3006:3170   */\n      pop\n        /* \"#utility.yul\":3252:3256   */\n      0x20\n        /* \"#utility.yul\":3245:3250   */\n      dup4\n        /* \"#utility.yul\":3241:3257   */\n      add\n        /* \"#utility.yul\":3235:3258   */\n      mload\n        /* \"#utility.yul\":3305:3308   */\n      dup5\n        /* \"#utility.yul\":3299:3303   */\n      dup3\n        /* \"#utility.yul\":3295:3309   */\n      sub\n        /* \"#utility.yul\":3288:3292   */\n      0x20\n        /* \"#utility.yul\":3283:3286   */\n      dup7\n        /* \"#utility.yul\":3279:3293   */\n      add\n        /* \"#utility.yul\":3272:3310   */\n      mstore\n        /* \"#utility.yul\":3331:3404   */\n      tag_191\n        /* \"#utility.yul\":3399:3403   */\n      dup3\n        /* \"#utility.yul\":3385:3397   */\n      dup3\n        /* \"#utility.yul\":3331:3404   */\n      tag_116\n      jump\t// in\n    tag_191:\n        /* \"#utility.yul\":3323:3404   */\n      swap2\n      pop\n        /* \"#utility.yul\":3180:3415   */\n      pop\n        /* \"#utility.yul\":3432:3436   */\n      dup1\n        /* \"#utility.yul\":3425:3436   */\n      swap2\n      pop\n        /* \"#utility.yul\":2960:3442   */\n      pop\n        /* \"#utility.yul\":2850:3442   */\n      swap3\n      swap2\n      pop\n      pop\n      jump\t// out\n        /* \"#utility.yul\":3448:3696   */\n    tag_118:\n        /* \"#utility.yul\":3563:3573   */\n      0x00\n        /* \"#utility.yul\":3598:3690   */\n      tag_193\n        /* \"#utility.yul\":3686:3689   */\n      dup4\n        /* \"#utility.yul\":3678:3684   */\n      dup4\n        /* \"#utility.yul\":3598:3690   */\n      tag_117\n      jump\t// in\n    tag_193:\n        /* \"#utility.yul\":3584:3690   */\n      swap1\n      pop\n        /* \"#utility.yul\":3448:3696   */\n      swap3\n      swap2\n      pop\n      pop\n      jump\t// out\n        /* \"#utility.yul\":3702:3838   */\n    tag_119:\n        /* \"#utility.yul\":3795:3799   */\n      0x00\n        /* \"#utility.yul\":3827:3831   */\n      0x20\n        /* \"#utility.yul\":3822:3825   */\n      dup3\n        /* \"#utility.yul\":3818:3832   */\n      add\n        /* \"#utility.yul\":3810:3832   */\n      swap1\n      pop\n        /* \"#utility.yul\":3702:3838   */\n      swap2\n      swap1\n      pop\n      jump\t// out\n        /* \"#utility.yul\":3898:4993   */\n    tag_120:\n        /* \"#utility.yul\":4063:4066   */\n      0x00\n        /* \"#utility.yul\":4092:4169   */\n      tag_196\n        /* \"#utility.yul\":4163:4168   */\n      dup3\n        /* \"#utility.yul\":4092:4169   */\n      tag_108\n      jump\t// in\n    tag_196:\n        /* \"#utility.yul\":4185:4294   */\n      tag_197\n        /* \"#utility.yul\":4287:4293   */\n      dup2\n        /* \"#utility.yul\":4282:4285   */\n      dup6\n        /* \"#utility.yul\":4185:4294   */\n      tag_109\n      jump\t// in\n    tag_197:\n        /* \"#utility.yul\":4178:4294   */\n      swap4\n      pop\n        /* \"#utility.yul\":4320:4323   */\n      dup4\n        /* \"#utility.yul\":4365:4369   */\n      0x20\n        /* \"#utility.yul\":4357:4363   */\n      dup3\n        /* \"#utility.yul\":4353:4370   */\n      mul\n        /* \"#utility.yul\":4348:4351   */\n      dup6\n        /* \"#utility.yul\":4344:4371   */\n      add\n        /* \"#utility.yul\":4395:4474   */\n      tag_198\n        /* \"#utility.yul\":4468:4473   */\n      dup6\n        /* \"#utility.yul\":4395:4474   */\n      tag_110\n      jump\t// in\n    tag_198:\n        /* \"#utility.yul\":4497:4504   */\n      dup1\n        /* \"#utility.yul\":4528:4529   */\n      0x00\n        /* \"#utility.yul\":4513:4948   */\n    tag_199:\n        /* \"#utility.yul\":4538:4544   */\n      dup6\n        /* \"#utility.yul\":4535:4536   */\n      dup2\n        /* \"#utility.yul\":4532:4545   */\n      lt\n        /* \"#utility.yul\":4513:4948   */\n      iszero\n      tag_201\n      jumpi\n        /* \"#utility.yul\":4609:4618   */\n      dup5\n        /* \"#utility.yul\":4603:4607   */\n      dup5\n        /* \"#utility.yul\":4599:4619   */\n      sub\n        /* \"#utility.yul\":4594:4597   */\n      dup10\n        /* \"#utility.yul\":4587:4620   */\n      mstore\n        /* \"#utility.yul\":4660:4666   */\n      dup2\n        /* \"#utility.yul\":4654:4667   */\n      mload\n        /* \"#utility.yul\":4688:4798   */\n      tag_202\n        /* \"#utility.yul\":4793:4797   */\n      dup6\n        /* \"#utility.yul\":4778:4791   */\n      dup3\n        /* \"#utility.yul\":4688:4798   */\n      tag_118\n      jump\t// in\n    tag_202:\n        /* \"#utility.yul\":4680:4798   */\n      swap5\n      pop\n        /* \"#utility.yul\":4821:4904   */\n      tag_203\n        /* \"#utility.yul\":4897:4903   */\n      dup4\n        /* \"#utility.yul\":4821:4904   */\n      tag_119\n      jump\t// in\n    tag_203:\n        /* \"#utility.yul\":4811:4904   */\n      swap3\n      pop\n        /* \"#utility.yul\":4933:4937   */\n      0x20\n        /* \"#utility.yul\":4928:4931   */\n      dup11\n        /* \"#utility.yul\":4924:4938   */\n      add\n        /* \"#utility.yul\":4917:4938   */\n      swap10\n      pop\n        /* \"#utility.yul\":4573:4948   */\n      pop\n        /* \"#utility.yul\":4560:4561   */\n      0x01\n        /* \"#utility.yul\":4557:4558   */\n      dup2\n        /* \"#utility.yul\":4553:4562   */\n      add\n        /* \"#utility.yul\":4548:4562   */\n      swap1\n      pop\n        /* \"#utility.yul\":4513:4948   */\n      jump(tag_199)\n    tag_201:\n        /* \"#utility.yul\":4517:4531   */\n      pop\n        /* \"#utility.yul\":4964:4968   */\n      dup3\n        /* \"#utility.yul\":4957:4968   */\n      swap8\n      pop\n        /* \"#utility.yul\":4984:4987   */\n      dup8\n        /* \"#utility.yul\":4977:4987   */\n      swap6\n      pop\n        /* \"#utility.yul\":4068:4993   */\n      pop\n      pop\n      pop\n      pop\n      pop\n        /* \"#utility.yul\":3898:4993   */\n      swap3\n      swap2\n      pop\n      pop\n      jump\t// out\n        /* \"#utility.yul\":4999:5464   */\n    tag_30:\n        /* \"#utility.yul\":5188:5192   */\n      0x00\n        /* \"#utility.yul\":5226:5228   */\n      0x20\n        /* \"#utility.yul\":5215:5224   */\n      dup3\n        /* \"#utility.yul\":5211:5229   */\n      add\n        /* \"#utility.yul\":5203:5229   */\n      swap1\n      pop\n        /* \"#utility.yul\":5275:5284   */\n      dup2\n        /* \"#utility.yul\":5269:5273   */\n      dup2\n        /* \"#utility.yul\":5265:5285   */\n      sub\n        /* \"#utility.yul\":5261:5262   */\n      0x00\n        /* \"#utility.yul\":5250:5259   */\n      dup4\n        /* \"#utility.yul\":5246:5263   */\n      add\n        /* \"#utility.yul\":5239:5286   */\n      mstore\n        /* \"#utility.yul\":5303:5457   */\n      tag_205\n        /* \"#utility.yul\":5452:5456   */\n      dup2\n        /* \"#utility.yul\":5443:5449   */\n      dup5\n        /* \"#utility.yul\":5303:5457   */\n      tag_120\n      jump\t// in\n    tag_205:\n        /* \"#utility.yul\":5295:5457   */\n      swap1\n      pop\n        /* \"#utility.yul\":4999:5464   */\n      swap3\n      swap2\n      pop\n      pop\n      jump\t// out\n        /* \"#utility.yul\":5470:5587   */\n    tag_121:\n        /* \"#utility.yul\":5579:5580   */\n      0x00\n        /* \"#utility.yul\":5576:5577   */\n      dup1\n        /* \"#utility.yul\":5569:5581   */\n      revert\n        /* \"#utility.yul\":5593:5710   */\n    tag_122:\n        /* \"#utility.yul\":5702:5703   */\n      0x00\n        /* \"#utility.yul\":5699:5700   */\n      dup1\n        /* \"#utility.yul\":5692:5704   */\n      revert\n        /* \"#utility.yul\":5716:5896   */\n    tag_123:\n        /* \"#utility.yul\":5764:5841   */\n      0x4e487b7100000000000000000000000000000000000000000000000000000000\n        /* \"#utility.yul\":5761:5762   */\n      0x00\n        /* \"#utility.yul\":5754:5842   */\n      mstore\n        /* \"#utility.yul\":5861:5865   */\n      0x41\n        /* \"#utility.yul\":5858:5859   */\n      0x04\n        /* \"#utility.yul\":5851:5866   */\n      mstore\n        /* \"#utility.yul\":5885:5889   */\n      0x24\n        /* \"#utility.yul\":5882:5883   */\n      0x00\n        /* \"#utility.yul\":5875:5890   */\n      revert\n        /* \"#utility.yul\":5902:6183   */\n    tag_124:\n        /* \"#utility.yul\":5985:6012   */\n      tag_210\n        /* \"#utility.yul\":6007:6011   */\n      dup3\n        /* \"#utility.yul\":5985:6012   */\n      tag_115\n      jump\t// in\n    tag_210:\n        /* \"#utility.yul\":5977:5983   */\n      dup2\n        /* \"#utility.yul\":5973:6013   */\n      add\n        /* \"#utility.yul\":6115:6121   */\n      dup2\n        /* \"#utility.yul\":6103:6113   */\n      dup2\n        /* \"#utility.yul\":6100:6122   */\n      lt\n        /* \"#utility.yul\":6079:6097   */\n      0xffffffffffffffff\n        /* \"#utility.yul\":6067:6077   */\n      dup3\n        /* \"#utility.yul\":6064:6098   */\n      gt\n        /* \"#utility.yul\":6061:6123   */\n      or\n        /* \"#utility.yul\":6058:6146   */\n      iszero\n      tag_211\n      jumpi\n        /* \"#utility.yul\":6126:6144   */\n      tag_212\n      tag_123\n      jump\t// in\n    tag_212:\n        /* \"#utility.yul\":6058:6146   */\n    tag_211:\n        /* \"#utility.yul\":6166:6176   */\n      dup1\n        /* \"#utility.yul\":6162:6164   */\n      0x40\n        /* \"#utility.yul\":6155:6177   */\n      mstore\n        /* \"#utility.yul\":5945:6183   */\n      pop\n        /* \"#utility.yul\":5902:6183   */\n      pop\n      pop\n      jump\t// out\n        /* \"#utility.yul\":6189:6318   */\n    tag_125:\n        /* \"#utility.yul\":6223:6229   */\n      0x00\n        /* \"#utility.yul\":6250:6270   */\n      tag_214\n      tag_101\n      jump\t// in\n    tag_214:\n        /* \"#utility.yul\":6240:6270   */\n      swap1\n      pop\n        /* \"#utility.yul\":6279:6312   */\n      tag_215\n        /* \"#utility.yul\":6307:6311   */\n      dup3\n        /* \"#utility.yul\":6299:6305   */\n      dup3\n        /* \"#utility.yul\":6279:6312   */\n      tag_124\n      jump\t// in\n    tag_215:\n        /* \"#utility.yul\":6189:6318   */\n      swap2\n      swap1\n      pop\n      jump\t// out\n        /* \"#utility.yul\":6324:6632   */\n    tag_126:\n        /* \"#utility.yul\":6386:6390   */\n      0x00\n        /* \"#utility.yul\":6476:6494   */\n      0xffffffffffffffff\n        /* \"#utility.yul\":6468:6474   */\n      dup3\n        /* \"#utility.yul\":6465:6495   */\n      gt\n        /* \"#utility.yul\":6462:6518   */\n      iszero\n      tag_217\n      jumpi\n        /* \"#utility.yul\":6498:6516   */\n      tag_218\n      tag_123\n      jump\t// in\n    tag_218:\n        /* \"#utility.yul\":6462:6518   */\n    tag_217:\n        /* \"#utility.yul\":6536:6565   */\n      tag_219\n        /* \"#utility.yul\":6558:6564   */\n      dup3\n        /* \"#utility.yul\":6536:6565   */\n      tag_115\n      jump\t// in\n    tag_219:\n        /* \"#utility.yul\":6528:6565   */\n      swap1\n      pop\n        /* \"#utility.yul\":6620:6624   */\n      0x20\n        /* \"#utility.yul\":6614:6618   */\n      dup2\n        /* \"#utility.yul\":6610:6625   */\n      add\n        /* \"#utility.yul\":6602:6625   */\n      swap1\n      pop\n        /* \"#utility.yul\":6324:6632   */\n      swap2\n      swap1\n      pop\n      jump\t// out\n        /* \"#utility.yul\":6638:6784   */\n    tag_127:\n        /* \"#utility.yul\":6735:6741   */\n      dup3\n        /* \"#utility.yul\":6730:6733   */\n      dup2\n        /* \"#utility.yul\":6725:6728   */\n      dup4\n        /* \"#utility.yul\":6712:6742   */\n      calldatacopy\n        /* \"#utility.yul\":6776:6777   */\n      0x00\n        /* \"#utility.yul\":6767:6773   */\n      dup4\n        /* \"#utility.yul\":6762:6765   */\n      dup4\n        /* \"#utility.yul\":6758:6774   */\n      add\n        /* \"#utility.yul\":6751:6778   */\n      mstore\n        /* \"#utility.yul\":6638:6784   */\n      pop\n      pop\n      pop\n      jump\t// out\n        /* \"#utility.yul\":6790:7215   */\n    tag_128:\n        /* \"#utility.yul\":6868:6873   */\n      0x00\n        /* \"#utility.yul\":6893:6959   */\n      tag_222\n        /* \"#utility.yul\":6909:6958   */\n      tag_223\n        /* \"#utility.yul\":6951:6957   */\n      dup5\n        /* \"#utility.yul\":6909:6958   */\n      tag_126\n      jump\t// in\n    tag_223:\n        /* \"#utility.yul\":6893:6959   */\n      tag_125\n      jump\t// in\n    tag_222:\n        /* \"#utility.yul\":6884:6959   */\n      swap1\n      pop\n        /* \"#utility.yul\":6982:6988   */\n      dup3\n        /* \"#utility.yul\":6975:6980   */\n      dup2\n        /* \"#utility.yul\":6968:6989   */\n      mstore\n        /* \"#utility.yul\":7020:7024   */\n      0x20\n        /* \"#utility.yul\":7013:7018   */\n      dup2\n        /* \"#utility.yul\":7009:7025   */\n      add\n        /* \"#utility.yul\":7058:7061   */\n      dup5\n        /* \"#utility.yul\":7049:7055   */\n      dup5\n        /* \"#utility.yul\":7044:7047   */\n      dup5\n        /* \"#utility.yul\":7040:7056   */\n      add\n        /* \"#utility.yul\":7037:7062   */\n      gt\n        /* \"#utility.yul\":7034:7146   */\n      iszero\n      tag_224\n      jumpi\n        /* \"#utility.yul\":7065:7144   */\n      tag_225\n      tag_122\n      jump\t// in\n    tag_225:\n        /* \"#utility.yul\":7034:7146   */\n    tag_224:\n        /* \"#utility.yul\":7155:7209   */\n      tag_226\n        /* \"#utility.yul\":7202:7208   */\n      dup5\n        /* \"#utility.yul\":7197:7200   */\n      dup3\n        /* \"#utility.yul\":7192:7195   */\n      dup6\n        /* \"#utility.yul\":7155:7209   */\n      tag_127\n      jump\t// in\n    tag_226:\n        /* \"#utility.yul\":6874:7215   */\n      pop\n        /* \"#utility.yul\":6790:7215   */\n      swap4\n      swap3\n      pop\n      pop\n      pop\n      jump\t// out\n        /* \"#utility.yul\":7235:7575   */\n    tag_129:\n        /* \"#utility.yul\":7291:7296   */\n      0x00\n        /* \"#utility.yul\":7340:7343   */\n      dup3\n        /* \"#utility.yul\":7333:7337   */\n      0x1f\n        /* \"#utility.yul\":7325:7331   */\n      dup4\n        /* \"#utility.yul\":7321:7338   */\n      add\n        /* \"#utility.yul\":7317:7344   */\n      slt\n        /* \"#utility.yul\":7307:7429   */\n      tag_228\n      jumpi\n        /* \"#utility.yul\":7348:7427   */\n      tag_229\n      tag_121\n      jump\t// in\n    tag_229:\n        /* \"#utility.yul\":7307:7429   */\n    tag_228:\n        /* \"#utility.yul\":7465:7471   */\n      dup2\n        /* \"#utility.yul\":7452:7472   */\n      calldataload\n        /* \"#utility.yul\":7490:7569   */\n      tag_230\n        /* \"#utility.yul\":7565:7568   */\n      dup5\n        /* \"#utility.yul\":7557:7563   */\n      dup3\n        /* \"#utility.yul\":7550:7554   */\n      0x20\n        /* \"#utility.yul\":7542:7548   */\n      dup7\n        /* \"#utility.yul\":7538:7555   */\n      add\n        /* \"#utility.yul\":7490:7569   */\n      tag_128\n      jump\t// in\n    tag_230:\n        /* \"#utility.yul\":7481:7569   */\n      swap2\n      pop\n        /* \"#utility.yul\":7297:7575   */\n      pop\n        /* \"#utility.yul\":7235:7575   */\n      swap3\n      swap2\n      pop\n      pop\n      jump\t// out\n        /* \"#utility.yul\":7581:8235   */\n    tag_35:\n        /* \"#utility.yul\":7659:7665   */\n      0x00\n        /* \"#utility.yul\":7667:7673   */\n      dup1\n        /* \"#utility.yul\":7716:7718   */\n      0x40\n        /* \"#utility.yul\":7704:7713   */\n      dup4\n        /* \"#utility.yul\":7695:7702   */\n      dup6\n        /* \"#utility.yul\":7691:7714   */\n      sub\n        /* \"#utility.yul\":7687:7719   */\n      slt\n        /* \"#utility.yul\":7684:7803   */\n      iszero\n      tag_232\n      jumpi\n        /* \"#utility.yul\":7722:7801   */\n      tag_233\n      tag_102\n      jump\t// in\n    tag_233:\n        /* \"#utility.yul\":7684:7803   */\n    tag_232:\n        /* \"#utility.yul\":7842:7843   */\n      0x00\n        /* \"#utility.yul\":7867:7920   */\n      tag_234\n        /* \"#utility.yul\":7912:7919   */\n      dup6\n        /* \"#utility.yul\":7903:7909   */\n      dup3\n        /* \"#utility.yul\":7892:7901   */\n      dup7\n        /* \"#utility.yul\":7888:7910   */\n      add\n        /* \"#utility.yul\":7867:7920   */\n      tag_107\n      jump\t// in\n    tag_234:\n        /* \"#utility.yul\":7857:7920   */\n      swap3\n      pop\n        /* \"#utility.yul\":7813:7930   */\n      pop\n        /* \"#utility.yul\":7997:7999   */\n      0x20\n        /* \"#utility.yul\":7986:7995   */\n      dup4\n        /* \"#utility.yul\":7982:8000   */\n      add\n        /* \"#utility.yul\":7969:8001   */\n      calldataload\n        /* \"#utility.yul\":8028:8046   */\n      0xffffffffffffffff\n        /* \"#utility.yul\":8020:8026   */\n      dup2\n        /* \"#utility.yul\":8017:8047   */\n      gt\n        /* \"#utility.yul\":8014:8131   */\n      iszero\n      tag_235\n      jumpi\n        /* \"#utility.yul\":8050:8129   */\n      tag_236\n      tag_103\n      jump\t// in\n    tag_236:\n        /* \"#utility.yul\":8014:8131   */\n    tag_235:\n        /* \"#utility.yul\":8155:8218   */\n      tag_237\n        /* \"#utility.yul\":8210:8217   */\n      dup6\n        /* \"#utility.yul\":8201:8207   */\n      dup3\n        /* \"#utility.yul\":8190:8199   */\n      dup7\n        /* \"#utility.yul\":8186:8208   */\n      add\n        /* \"#utility.yul\":8155:8218   */\n      tag_129\n      jump\t// in\n    tag_237:\n        /* \"#utility.yul\":8145:8218   */\n      swap2\n      pop\n        /* \"#utility.yul\":7940:8228   */\n      pop\n        /* \"#utility.yul\":7581:8235   */\n      swap3\n      pop\n      swap3\n      swap1\n      pop\n      jump\t// out\n        /* \"#utility.yul\":8241:8410   */\n    tag_130:\n        /* \"#utility.yul\":8325:8336   */\n      0x00\n        /* \"#utility.yul\":8359:8365   */\n      dup3\n        /* \"#utility.yul\":8354:8357   */\n      dup3\n        /* \"#utility.yul\":8347:8366   */\n      mstore\n        /* \"#utility.yul\":8399:8403   */\n      0x20\n        /* \"#utility.yul\":8394:8397   */\n      dup3\n        /* \"#utility.yul\":8390:8404   */\n      add\n        /* \"#utility.yul\":8375:8404   */\n      swap1\n      pop\n        /* \"#utility.yul\":8241:8410   */\n      swap3\n      swap2\n      pop\n      pop\n      jump\t// out\n        /* \"#utility.yul\":8416:8595   */\n    tag_131:\n        /* \"#utility.yul\":8556:8587   */\n      0x4d757374206861766520696e7465726d656469617269657320726f6c65000000\n        /* \"#utility.yul\":8552:8553   */\n      0x00\n        /* \"#utility.yul\":8544:8550   */\n      dup3\n        /* \"#utility.yul\":8540:8554   */\n      add\n        /* \"#utility.yul\":8533:8588   */\n      mstore\n        /* \"#utility.yul\":8416:8595   */\n      pop\n      jump\t// out\n        /* \"#utility.yul\":8601:8967   */\n    tag_132:\n        /* \"#utility.yul\":8743:8746   */\n      0x00\n        /* \"#utility.yul\":8764:8831   */\n      tag_241\n        /* \"#utility.yul\":8828:8830   */\n      0x1d\n        /* \"#utility.yul\":8823:8826   */\n      dup4\n        /* \"#utility.yul\":8764:8831   */\n      tag_130\n      jump\t// in\n    tag_241:\n        /* \"#utility.yul\":8757:8831   */\n      swap2\n      pop\n        /* \"#utility.yul\":8840:8933   */\n      tag_242\n        /* \"#utility.yul\":8929:8932   */\n      dup3\n        /* \"#utility.yul\":8840:8933   */\n      tag_131\n      jump\t// in\n    tag_242:\n        /* \"#utility.yul\":8958:8960   */\n      0x20\n        /* \"#utility.yul\":8953:8956   */\n      dup3\n        /* \"#utility.yul\":8949:8961   */\n      add\n        /* \"#utility.yul\":8942:8961   */\n      swap1\n      pop\n        /* \"#utility.yul\":8601:8967   */\n      swap2\n      swap1\n      pop\n      jump\t// out\n        /* \"#utility.yul\":8973:9392   */\n    tag_43:\n        /* \"#utility.yul\":9139:9143   */\n      0x00\n        /* \"#utility.yul\":9177:9179   */\n      0x20\n        /* \"#utility.yul\":9166:9175   */\n      dup3\n        /* \"#utility.yul\":9162:9180   */\n      add\n        /* \"#utility.yul\":9154:9180   */\n      swap1\n      pop\n        /* \"#utility.yul\":9226:9235   */\n      dup2\n        /* \"#utility.yul\":9220:9224   */\n      dup2\n        /* \"#utility.yul\":9216:9236   */\n      sub\n        /* \"#utility.yul\":9212:9213   */\n      0x00\n        /* \"#utility.yul\":9201:9210   */\n      dup4\n        /* \"#utility.yul\":9197:9214   */\n      add\n        /* \"#utility.yul\":9190:9237   */\n      mstore\n        /* \"#utility.yul\":9254:9385   */\n      tag_244\n        /* \"#utility.yul\":9380:9384   */\n      dup2\n        /* \"#utility.yul\":9254:9385   */\n      tag_132\n      jump\t// in\n    tag_244:\n        /* \"#utility.yul\":9246:9385   */\n      swap1\n      pop\n        /* \"#utility.yul\":8973:9392   */\n      swap2\n      swap1\n      pop\n      jump\t// out\n        /* \"#utility.yul\":9398:9578   */\n    tag_133:\n        /* \"#utility.yul\":9446:9523   */\n      0x4e487b7100000000000000000000000000000000000000000000000000000000\n        /* \"#utility.yul\":9443:9444   */\n      0x00\n        /* \"#utility.yul\":9436:9524   */\n      mstore\n        /* \"#utility.yul\":9543:9547   */\n      0x22\n        /* \"#utility.yul\":9540:9541   */\n      0x04\n        /* \"#utility.yul\":9533:9548   */\n      mstore\n        /* \"#utility.yul\":9567:9571   */\n      0x24\n        /* \"#utility.yul\":9564:9565   */\n      0x00\n        /* \"#utility.yul\":9557:9572   */\n      revert\n        /* \"#utility.yul\":9584:9904   */\n    tag_86:\n        /* \"#utility.yul\":9628:9634   */\n      0x00\n        /* \"#utility.yul\":9665:9666   */\n      0x02\n        /* \"#utility.yul\":9659:9663   */\n      dup3\n        /* \"#utility.yul\":9655:9667   */\n      div\n        /* \"#utility.yul\":9645:9667   */\n      swap1\n      pop\n        /* \"#utility.yul\":9712:9713   */\n      0x01\n        /* \"#utility.yul\":9706:9710   */\n      dup3\n        /* \"#utility.yul\":9702:9714   */\n      and\n        /* \"#utility.yul\":9733:9751   */\n      dup1\n        /* \"#utility.yul\":9723:9804   */\n      tag_247\n      jumpi\n        /* \"#utility.yul\":9789:9793   */\n      0x7f\n        /* \"#utility.yul\":9781:9787   */\n      dup3\n        /* \"#utility.yul\":9777:9794   */\n      and\n        /* \"#utility.yul\":9767:9794   */\n      swap2\n      pop\n        /* \"#utility.yul\":9723:9804   */\n    tag_247:\n        /* \"#utility.yul\":9851:9853   */\n      0x20\n        /* \"#utility.yul\":9843:9849   */\n      dup3\n        /* \"#utility.yul\":9840:9854   */\n      lt\n        /* \"#utility.yul\":9820:9838   */\n      dup2\n        /* \"#utility.yul\":9817:9855   */\n      sub\n        /* \"#utility.yul\":9814:9898   */\n      tag_248\n      jumpi\n        /* \"#utility.yul\":9870:9888   */\n      tag_249\n      tag_133\n      jump\t// in\n    tag_249:\n        /* \"#utility.yul\":9814:9898   */\n    tag_248:\n        /* \"#utility.yul\":9635:9904   */\n      pop\n        /* \"#utility.yul\":9584:9904   */\n      swap2\n      swap1\n      pop\n      jump\t// out\n        /* \"#utility.yul\":9910:10051   */\n    tag_134:\n        /* \"#utility.yul\":9959:9963   */\n      0x00\n        /* \"#utility.yul\":9982:9985   */\n      dup2\n        /* \"#utility.yul\":9974:9985   */\n      swap1\n      pop\n        /* \"#utility.yul\":10005:10008   */\n      dup2\n        /* \"#utility.yul\":10002:10003   */\n      0x00\n        /* \"#utility.yul\":9995:10009   */\n      mstore\n        /* \"#utility.yul\":10039:10043   */\n      0x20\n        /* \"#utility.yul\":10036:10037   */\n      0x00\n        /* \"#utility.yul\":10026:10044   */\n      keccak256\n        /* \"#utility.yul\":10018:10044   */\n      swap1\n      pop\n        /* \"#utility.yul\":9910:10051   */\n      swap2\n      swap1\n      pop\n      jump\t// out\n        /* \"#utility.yul\":10057:10150   */\n    tag_135:\n        /* \"#utility.yul\":10094:10100   */\n      0x00\n        /* \"#utility.yul\":10141:10143   */\n      0x20\n        /* \"#utility.yul\":10136:10138   */\n      0x1f\n        /* \"#utility.yul\":10129:10134   */\n      dup4\n        /* \"#utility.yul\":10125:10139   */\n      add\n        /* \"#utility.yul\":10121:10144   */\n      div\n        /* \"#utility.yul\":10111:10144   */\n      swap1\n      pop\n        /* \"#utility.yul\":10057:10150   */\n      swap2\n      swap1\n      pop\n      jump\t// out\n        /* \"#utility.yul\":10156:10263   */\n    tag_136:\n        /* \"#utility.yul\":10200:10208   */\n      0x00\n        /* \"#utility.yul\":10250:10255   */\n      dup3\n        /* \"#utility.yul\":10244:10248   */\n      dup3\n        /* \"#utility.yul\":10240:10256   */\n      shl\n        /* \"#utility.yul\":10219:10256   */\n      swap1\n      pop\n        /* \"#utility.yul\":10156:10263   */\n      swap3\n      swap2\n      pop\n      pop\n      jump\t// out\n        /* \"#utility.yul\":10269:10662   */\n    tag_137:\n        /* \"#utility.yul\":10338:10344   */\n      0x00\n        /* \"#utility.yul\":10388:10389   */\n      0x08\n        /* \"#utility.yul\":10376:10386   */\n      dup4\n        /* \"#utility.yul\":10372:10390   */\n      mul\n        /* \"#utility.yul\":10411:10508   */\n      tag_254\n        /* \"#utility.yul\":10441:10507   */\n      0xffffffffffffffffffffffffffffffffffffffffffffffffffffffffffffffff\n        /* \"#utility.yul\":10430:10439   */\n      dup3\n        /* \"#utility.yul\":10411:10508   */\n      tag_136\n      jump\t// in\n    tag_254:\n        /* \"#utility.yul\":10529:10568   */\n      tag_255\n        /* \"#utility.yul\":10559:10567   */\n      dup7\n        /* \"#utility.yul\":10548:10557   */\n      dup4\n        /* \"#utility.yul\":10529:10568   */\n      tag_136\n      jump\t// in\n    tag_255:\n        /* \"#utility.yul\":10517:10568   */\n      swap6\n      pop\n        /* \"#utility.yul\":10601:10605   */\n      dup1\n        /* \"#utility.yul\":10597:10606   */\n      not\n        /* \"#utility.yul\":10590:10595   */\n      dup5\n        /* \"#utility.yul\":10586:10607   */\n      and\n        /* \"#utility.yul\":10577:10607   */\n      swap4\n      pop\n        /* \"#utility.yul\":10650:10654   */\n      dup1\n        /* \"#utility.yul\":10640:10648   */\n      dup7\n        /* \"#utility.yul\":10636:10655   */\n      and\n        /* \"#utility.yul\":10629:10634   */\n      dup5\n        /* \"#utility.yul\":10626:10656   */\n      or\n        /* \"#utility.yul\":10616:10656   */\n      swap3\n      pop\n        /* \"#utility.yul\":10345:10662   */\n      pop\n      pop\n        /* \"#utility.yul\":10269:10662   */\n      swap4\n      swap3\n      pop\n      pop\n      pop\n      jump\t// out\n        /* \"#utility.yul\":10668:10745   */\n    tag_138:\n        /* \"#utility.yul\":10705:10712   */\n      0x00\n        /* \"#utility.yul\":10734:10739   */\n      dup2\n        /* \"#utility.yul\":10723:10739   */\n      swap1\n      pop\n        /* \"#utility.yul\":10668:10745   */\n      swap2\n      swap1\n      pop\n      jump\t// out\n        /* \"#utility.yul\":10751:10811   */\n    tag_139:\n        /* \"#utility.yul\":10779:10782   */\n      0x00\n        /* \"#utility.yul\":10800:10805   */\n      dup2\n        /* \"#utility.yul\":10793:10805   */\n      swap1\n      pop\n        /* \"#utility.yul\":10751:10811   */\n      swap2\n      swap1\n      pop\n      jump\t// out\n        /* \"#utility.yul\":10817:10959   */\n    tag_140:\n        /* \"#utility.yul\":10867:10876   */\n      0x00\n        /* \"#utility.yul\":10900:10953   */\n      tag_259\n        /* \"#utility.yul\":10918:10952   */\n      tag_260\n        /* \"#utility.yul\":10927:10951   */\n      tag_261\n        /* \"#utility.yul\":10945:10950   */\n      dup5\n        /* \"#utility.yul\":10927:10951   */\n      tag_138\n      jump\t// in\n    tag_261:\n        /* \"#utility.yul\":10918:10952   */\n      tag_139\n      jump\t// in\n    tag_260:\n        /* \"#utility.yul\":10900:10953   */\n      tag_138\n      jump\t// in\n    tag_259:\n        /* \"#utility.yul\":10887:10953   */\n      swap1\n      pop\n        /* \"#utility.yul\":10817:10959   */\n      swap2\n      swap1\n      pop\n      jump\t// out\n        /* \"#utility.yul\":10965:11040   */\n    tag_141:\n        /* \"#utility.yul\":11008:11011   */\n      0x00\n        /* \"#utility.yul\":11029:11034   */\n      dup2\n        /* \"#utility.yul\":11022:11034   */\n      swap1\n      pop\n        /* \"#utility.yul\":10965:11040   */\n      swap2\n      swap1\n      pop\n      jump\t// out\n        /* \"#utility.yul\":11046:11315   */\n    tag_142:\n        /* \"#utility.yul\":11156:11195   */\n      tag_264\n        /* \"#utility.yul\":11187:11194   */\n      dup4\n        /* \"#utility.yul\":11156:11195   */\n      tag_140\n      jump\t// in\n    tag_264:\n        /* \"#utility.yul\":11217:11308   */\n      tag_265\n        /* \"#utility.yul\":11266:11307   */\n      tag_266\n        /* \"#utility.yul\":11290:11306   */\n      dup3\n        /* \"#utility.yul\":11266:11307   */\n      tag_141\n      jump\t// in\n    tag_266:\n        /* \"#utility.yul\":11258:11264   */\n      dup5\n        /* \"#utility.yul\":11251:11255   */\n      dup5\n        /* \"#utility.yul\":11245:11256   */\n      sload\n        /* \"#utility.yul\":11217:11308   */\n      tag_137\n      jump\t// in\n    tag_265:\n        /* \"#utility.yul\":11211:11215   */\n      dup3\n        /* \"#utility.yul\":11204:11309   */\n      sstore\n        /* \"#utility.yul\":11122:11315   */\n      pop\n        /* \"#utility.yul\":11046:11315   */\n      pop\n      pop\n      pop\n      jump\t// out\n        /* \"#utility.yul\":11321:11394   */\n    tag_143:\n        /* \"#utility.yul\":11366:11369   */\n      0x00\n        /* \"#utility.yul\":11321:11394   */\n      swap1\n      jump\t// out\n        /* \"#utility.yul\":11400:11589   */\n    tag_144:\n        /* \"#utility.yul\":11477:11509   */\n      tag_269\n      tag_143\n      jump\t// in\n    tag_269:\n        /* \"#utility.yul\":11518:11583   */\n      tag_270\n        /* \"#utility.yul\":11576:11582   */\n      dup2\n        /* \"#utility.yul\":11568:11574   */\n      dup5\n        /* \"#utility.yul\":11562:11566   */\n      dup5\n        /* \"#utility.yul\":11518:11583   */\n      tag_142\n      jump\t// in\n    tag_270:\n        /* \"#utility.yul\":11453:11589   */\n      pop\n        /* \"#utility.yul\":11400:11589   */\n      pop\n      pop\n      jump\t// out\n        /* \"#utility.yul\":11595:11781   */\n    tag_145:\n        /* \"#utility.yul\":11655:11775   */\n    tag_272:\n        /* \"#utility.yul\":11672:11675   */\n      dup2\n        /* \"#utility.yul\":11665:11670   */\n      dup2\n        /* \"#utility.yul\":11662:11676   */\n      lt\n        /* \"#utility.yul\":11655:11775   */\n      iszero\n      tag_274\n      jumpi\n        /* \"#utility.yul\":11726:11765   */\n      tag_275\n        /* \"#utility.yul\":11763:11764   */\n      0x00\n        /* \"#utility.yul\":11756:11761   */\n      dup3\n        /* \"#utility.yul\":11726:11765   */\n      tag_144\n      jump\t// in\n    tag_275:\n        /* \"#utility.yul\":11699:11700   */\n      0x01\n        /* \"#utility.yul\":11692:11697   */\n      dup2\n        /* \"#utility.yul\":11688:11701   */\n      add\n        /* \"#utility.yul\":11679:11701   */\n      swap1\n      pop\n        /* \"#utility.yul\":11655:11775   */\n      jump(tag_272)\n    tag_274:\n        /* \"#utility.yul\":11595:11781   */\n      pop\n      pop\n      jump\t// out\n        /* \"#utility.yul\":11787:12330   */\n    tag_146:\n        /* \"#utility.yul\":11888:11890   */\n      0x1f\n        /* \"#utility.yul\":11883:11886   */\n      dup3\n        /* \"#utility.yul\":11880:11891   */\n      gt\n        /* \"#utility.yul\":11877:12323   */\n      iszero\n      tag_277\n      jumpi\n        /* \"#utility.yul\":11922:11960   */\n      tag_278\n        /* \"#utility.yul\":11954:11959   */\n      dup2\n        /* \"#utility.yul\":11922:11960   */\n      tag_134\n      jump\t// in\n    tag_278:\n        /* \"#utility.yul\":12006:12035   */\n      tag_279\n        /* \"#utility.yul\":12024:12034   */\n      dup5\n        /* \"#utility.yul\":12006:12035   */\n      tag_135\n      jump\t// in\n    tag_279:\n        /* \"#utility.yul\":11996:12004   */\n      dup2\n        /* \"#utility.yul\":11992:12036   */\n      add\n        /* \"#utility.yul\":12189:12191   */\n      0x20\n        /* \"#utility.yul\":12177:12187   */\n      dup6\n        /* \"#utility.yul\":12174:12192   */\n      lt\n        /* \"#utility.yul\":12171:12220   */\n      iszero\n      tag_280\n      jumpi\n        /* \"#utility.yul\":12210:12218   */\n      dup2\n        /* \"#utility.yul\":12195:12218   */\n      swap1\n      pop\n        /* \"#utility.yul\":12171:12220   */\n    tag_280:\n        /* \"#utility.yul\":12233:12313   */\n      tag_281\n        /* \"#utility.yul\":12289:12311   */\n      tag_282\n        /* \"#utility.yul\":12307:12310   */\n      dup6\n        /* \"#utility.yul\":12289:12311   */\n      tag_135\n      jump\t// in\n    tag_282:\n        /* \"#utility.yul\":12279:12287   */\n      dup4\n        /* \"#utility.yul\":12275:12312   */\n      add\n        /* \"#utility.yul\":12262:12273   */\n      dup3\n        /* \"#utility.yul\":12233:12313   */\n      tag_145\n      jump\t// in\n    tag_281:\n        /* \"#utility.yul\":11892:12323   */\n      pop\n      pop\n        /* \"#utility.yul\":11877:12323   */\n    tag_277:\n        /* \"#utility.yul\":11787:12330   */\n      pop\n      pop\n      pop\n      jump\t// out\n        /* \"#utility.yul\":12336:12453   */\n    tag_147:\n        /* \"#utility.yul\":12390:12398   */\n      0x00\n        /* \"#utility.yul\":12440:12445   */\n      dup3\n        /* \"#utility.yul\":12434:12438   */\n      dup3\n        /* \"#utility.yul\":12430:12446   */\n      shr\n        /* \"#utility.yul\":12409:12446   */\n      swap1\n      pop\n        /* \"#utility.yul\":12336:12453   */\n      swap3\n      swap2\n      pop\n      pop\n      jump\t// out\n        /* \"#utility.yul\":12459:12628   */\n    tag_148:\n        /* \"#utility.yul\":12503:12509   */\n      0x00\n        /* \"#utility.yul\":12536:12587   */\n      tag_285\n        /* \"#utility.yul\":12584:12585   */\n      0x00\n        /* \"#utility.yul\":12580:12586   */\n      not\n        /* \"#utility.yul\":12572:12577   */\n      dup5\n        /* \"#utility.yul\":12569:12570   */\n      0x08\n        /* \"#utility.yul\":12565:12578   */\n      mul\n        /* \"#utility.yul\":12536:12587   */\n      tag_147\n      jump\t// in\n    tag_285:\n        /* \"#utility.yul\":12532:12588   */\n      not\n        /* \"#utility.yul\":12617:12621   */\n      dup1\n        /* \"#utility.yul\":12611:12615   */\n      dup4\n        /* \"#utility.yul\":12607:12622   */\n      and\n        /* \"#utility.yul\":12597:12622   */\n      swap2\n      pop\n        /* \"#utility.yul\":12510:12628   */\n      pop\n        /* \"#utility.yul\":12459:12628   */\n      swap3\n      swap2\n      pop\n      pop\n      jump\t// out\n        /* \"#utility.yul\":12633:12928   */\n    tag_149:\n        /* \"#utility.yul\":12709:12713   */\n      0x00\n        /* \"#utility.yul\":12855:12884   */\n      tag_287\n        /* \"#utility.yul\":12880:12883   */\n      dup4\n        /* \"#utility.yul\":12874:12878   */\n      dup4\n        /* \"#utility.yul\":12855:12884   */\n      tag_148\n      jump\t// in\n    tag_287:\n        /* \"#utility.yul\":12847:12884   */\n      swap2\n      pop\n        /* \"#utility.yul\":12917:12920   */\n      dup3\n        /* \"#utility.yul\":12914:12915   */\n      0x02\n        /* \"#utility.yul\":12910:12921   */\n      mul\n        /* \"#utility.yul\":12904:12908   */\n      dup3\n        /* \"#utility.yul\":12901:12922   */\n      or\n        /* \"#utility.yul\":12893:12922   */\n      swap1\n      pop\n        /* \"#utility.yul\":12633:12928   */\n      swap3\n      swap2\n      pop\n      pop\n      jump\t// out\n        /* \"#utility.yul\":12933:14328   */\n    tag_47:\n        /* \"#utility.yul\":13050:13087   */\n      tag_289\n        /* \"#utility.yul\":13083:13086   */\n      dup3\n        /* \"#utility.yul\":13050:13087   */\n      tag_112\n      jump\t// in\n    tag_289:\n        /* \"#utility.yul\":13152:13170   */\n      0xffffffffffffffff\n        /* \"#utility.yul\":13144:13150   */\n      dup2\n        /* \"#utility.yul\":13141:13171   */\n      gt\n        /* \"#utility.yul\":13138:13194   */\n      iszero\n      tag_290\n      jumpi\n        /* \"#utility.yul\":13174:13192   */\n      tag_291\n      tag_123\n      jump\t// in\n    tag_291:\n        /* \"#utility.yul\":13138:13194   */\n    tag_290:\n        /* \"#utility.yul\":13218:13256   */\n      tag_292\n        /* \"#utility.yul\":13250:13254   */\n      dup3\n        /* \"#utility.yul\":13244:13255   */\n      sload\n        /* \"#utility.yul\":13218:13256   */\n      tag_86\n      jump\t// in\n    tag_292:\n        /* \"#utility.yul\":13303:13370   */\n      tag_293\n        /* \"#utility.yul\":13363:13369   */\n      dup3\n        /* \"#utility.yul\":13355:13361   */\n      dup3\n        /* \"#utility.yul\":13349:13353   */\n      dup6\n        /* \"#utility.yul\":13303:13370   */\n      tag_146\n      jump\t// in\n    tag_293:\n        /* \"#utility.yul\":13397:13398   */\n      0x00\n        /* \"#utility.yul\":13421:13425   */\n      0x20\n        /* \"#utility.yul\":13408:13425   */\n      swap1\n      pop\n        /* \"#utility.yul\":13453:13455   */\n      0x1f\n        /* \"#utility.yul\":13445:13451   */\n      dup4\n        /* \"#utility.yul\":13442:13456   */\n      gt\n        /* \"#utility.yul\":13470:13471   */\n      0x01\n        /* \"#utility.yul\":13465:14083   */\n      dup2\n      eq\n      tag_295\n      jumpi\n        /* \"#utility.yul\":14127:14128   */\n      0x00\n        /* \"#utility.yul\":14144:14150   */\n      dup5\n        /* \"#utility.yul\":14141:14218   */\n      iszero\n      tag_296\n      jumpi\n        /* \"#utility.yul\":14193:14202   */\n      dup3\n        /* \"#utility.yul\":14188:14191   */\n      dup8\n        /* \"#utility.yul\":14184:14203   */\n      add\n        /* \"#utility.yul\":14178:14204   */\n      mload\n        /* \"#utility.yul\":14169:14204   */\n      swap1\n      pop\n        /* \"#utility.yul\":14141:14218   */\n    tag_296:\n        /* \"#utility.yul\":14244:14311   */\n      tag_297\n        /* \"#utility.yul\":14304:14310   */\n      dup6\n        /* \"#utility.yul\":14297:14302   */\n      dup3\n        /* \"#utility.yul\":14244:14311   */\n      tag_149\n      jump\t// in\n    tag_297:\n        /* \"#utility.yul\":14238:14242   */\n      dup7\n        /* \"#utility.yul\":14231:14312   */\n      sstore\n        /* \"#utility.yul\":14100:14322   */\n      pop\n        /* \"#utility.yul\":13435:14322   */\n      jump(tag_294)\n        /* \"#utility.yul\":13465:14083   */\n    tag_295:\n        /* \"#utility.yul\":13517:13521   */\n      0x1f\n        /* \"#utility.yul\":13513:13522   */\n      not\n        /* \"#utility.yul\":13505:13511   */\n      dup5\n        /* \"#utility.yul\":13501:13523   */\n      and\n        /* \"#utility.yul\":13551:13588   */\n      tag_298\n        /* \"#utility.yul\":13583:13587   */\n      dup7\n        /* \"#utility.yul\":13551:13588   */\n      tag_134\n      jump\t// in\n    tag_298:\n        /* \"#utility.yul\":13610:13611   */\n      0x00\n        /* \"#utility.yul\":13624:13832   */\n    tag_299:\n        /* \"#utility.yul\":13638:13645   */\n      dup3\n        /* \"#utility.yul\":13635:13636   */\n      dup2\n        /* \"#utility.yul\":13632:13646   */\n      lt\n        /* \"#utility.yul\":13624:13832   */\n      iszero\n      tag_301\n      jumpi\n        /* \"#utility.yul\":13717:13726   */\n      dup5\n        /* \"#utility.yul\":13712:13715   */\n      dup10\n        /* \"#utility.yul\":13708:13727   */\n      add\n        /* \"#utility.yul\":13702:13728   */\n      mload\n        /* \"#utility.yul\":13694:13700   */\n      dup3\n        /* \"#utility.yul\":13687:13729   */\n      sstore\n        /* \"#utility.yul\":13768:13769   */\n      0x01\n        /* \"#utility.yul\":13760:13766   */\n      dup3\n        /* \"#utility.yul\":13756:13770   */\n      add\n        /* \"#utility.yul\":13746:13770   */\n      swap2\n      pop\n        /* \"#utility.yul\":13815:13817   */\n      0x20\n        /* \"#utility.yul\":13804:13813   */\n      dup6\n        /* \"#utility.yul\":13800:13818   */\n      add\n        /* \"#utility.yul\":13787:13818   */\n      swap5\n      pop\n        /* \"#utility.yul\":13661:13665   */\n      0x20\n        /* \"#utility.yul\":13658:13659   */\n      dup2\n        /* \"#utility.yul\":13654:13666   */\n      add\n        /* \"#utility.yul\":13649:13666   */\n      swap1\n      pop\n        /* \"#utility.yul\":13624:13832   */\n      jump(tag_299)\n    tag_301:\n        /* \"#utility.yul\":13860:13866   */\n      dup7\n        /* \"#utility.yul\":13851:13858   */\n      dup4\n        /* \"#utility.yul\":13848:13867   */\n      lt\n        /* \"#utility.yul\":13845:14024   */\n      iszero\n      tag_302\n      jumpi\n        /* \"#utility.yul\":13918:13927   */\n      dup5\n        /* \"#utility.yul\":13913:13916   */\n      dup10\n        /* \"#utility.yul\":13909:13928   */\n      add\n        /* \"#utility.yul\":13903:13929   */\n      mload\n        /* \"#utility.yul\":13961:14009   */\n      tag_303\n        /* \"#utility.yul\":14003:14007   */\n      0x1f\n        /* \"#utility.yul\":13995:14001   */\n      dup10\n        /* \"#utility.yul\":13991:14008   */\n      and\n        /* \"#utility.yul\":13980:13989   */\n      dup3\n        /* \"#utility.yul\":13961:14009   */\n      tag_148\n      jump\t// in\n    tag_303:\n        /* \"#utility.yul\":13953:13959   */\n      dup4\n        /* \"#utility.yul\":13946:14010   */\n      sstore\n        /* \"#utility.yul\":13868:14024   */\n      pop\n        /* \"#utility.yul\":13845:14024   */\n    tag_302:\n        /* \"#utility.yul\":14070:14071   */\n      0x01\n        /* \"#utility.yul\":14066:14067   */\n      0x02\n        /* \"#utility.yul\":14058:14064   */\n      dup9\n        /* \"#utility.yul\":14054:14068   */\n      mul\n        /* \"#utility.yul\":14050:14072   */\n      add\n        /* \"#utility.yul\":14044:14048   */\n      dup9\n        /* \"#utility.yul\":14037:14073   */\n      sstore\n        /* \"#utility.yul\":13472:14083   */\n      pop\n      pop\n      pop\n        /* \"#utility.yul\":13435:14322   */\n    tag_294:\n      pop\n        /* \"#utility.yul\":13025:14328   */\n      pop\n      pop\n      pop\n        /* \"#utility.yul\":12933:14328   */\n      pop\n      pop\n      jump\t// out\n        /* \"#utility.yul\":14334:14503   */\n    tag_150:\n        /* \"#utility.yul\":14474:14495   */\n      0x4d7573742068617665207573657220726f6c6500000000000000000000000000\n        /* \"#utility.yul\":14470:14471   */\n      0x00\n        /* \"#utility.yul\":14462:14468   */\n      dup3\n        /* \"#utility.yul\":14458:14472   */\n      add\n        /* \"#utility.yul\":14451:14496   */\n      mstore\n        /* \"#utility.yul\":14334:14503   */\n      pop\n      jump\t// out\n        /* \"#utility.yul\":14509:14875   */\n    tag_151:\n        /* \"#utility.yul\":14651:14654   */\n      0x00\n        /* \"#utility.yul\":14672:14739   */\n      tag_306\n        /* \"#utility.yul\":14736:14738   */\n      0x13\n        /* \"#utility.yul\":14731:14734   */\n      dup4\n        /* \"#utility.yul\":14672:14739   */\n      tag_130\n      jump\t// in\n    tag_306:\n        /* \"#utility.yul\":14665:14739   */\n      swap2\n      pop\n        /* \"#utility.yul\":14748:14841   */\n      tag_307\n        /* \"#utility.yul\":14837:14840   */\n      dup3\n        /* \"#utility.yul\":14748:14841   */\n      tag_150\n      jump\t// in\n    tag_307:\n        /* \"#utility.yul\":14866:14868   */\n      0x20\n        /* \"#utility.yul\":14861:14864   */\n      dup3\n        /* \"#utility.yul\":14857:14869   */\n      add\n        /* \"#utility.yul\":14850:14869   */\n      swap1\n      pop\n        /* \"#utility.yul\":14509:14875   */\n      swap2\n      swap1\n      pop\n      jump\t// out\n        /* \"#utility.yul\":14881:15300   */\n    tag_53:\n        /* \"#utility.yul\":15047:15051   */\n      0x00\n        /* \"#utility.yul\":15085:15087   */\n      0x20\n        /* \"#utility.yul\":15074:15083   */\n      dup3\n        /* \"#utility.yul\":15070:15088   */\n      add\n        /* \"#utility.yul\":15062:15088   */\n      swap1\n      pop\n        /* \"#utility.yul\":15134:15143   */\n      dup2\n        /* \"#utility.yul\":15128:15132   */\n      dup2\n        /* \"#utility.yul\":15124:15144   */\n      sub\n        /* \"#utility.yul\":15120:15121   */\n      0x00\n        /* \"#utility.yul\":15109:15118   */\n      dup4\n        /* \"#utility.yul\":15105:15122   */\n      add\n        /* \"#utility.yul\":15098:15145   */\n      mstore\n        /* \"#utility.yul\":15162:15293   */\n      tag_309\n        /* \"#utility.yul\":15288:15292   */\n      dup2\n        /* \"#utility.yul\":15162:15293   */\n      tag_151\n      jump\t// in\n    tag_309:\n        /* \"#utility.yul\":15154:15293   */\n      swap1\n      pop\n        /* \"#utility.yul\":14881:15300   */\n      swap2\n      swap1\n      pop\n      jump\t// out\n        /* \"#utility.yul\":15306:15476   */\n    tag_152:\n        /* \"#utility.yul\":15446:15468   */\n      0x4d75737420686176652061646d696e20726f6c65000000000000000000000000\n        /* \"#utility.yul\":15442:15443   */\n      0x00\n        /* \"#utility.yul\":15434:15440   */\n      dup3\n        /* \"#utility.yul\":15430:15444   */\n      add\n        /* \"#utility.yul\":15423:15469   */\n      mstore\n        /* \"#utility.yul\":15306:15476   */\n      pop\n      jump\t// out\n        /* \"#utility.yul\":15482:15848   */\n    tag_153:\n        /* \"#utility.yul\":15624:15627   */\n      0x00\n        /* \"#utility.yul\":15645:15712   */\n      tag_312\n        /* \"#utility.yul\":15709:15711   */\n      0x14\n        /* \"#utility.yul\":15704:15707   */\n      dup4\n        /* \"#utility.yul\":15645:15712   */\n      tag_130\n      jump\t// in\n    tag_312:\n        /* \"#utility.yul\":15638:15712   */\n      swap2\n      pop\n        /* \"#utility.yul\":15721:15814   */\n      tag_313\n        /* \"#utility.yul\":15810:15813   */\n      dup3\n        /* \"#utility.yul\":15721:15814   */\n      tag_152\n      jump\t// in\n    tag_313:\n        /* \"#utility.yul\":15839:15841   */\n      0x20\n        /* \"#utility.yul\":15834:15837   */\n      dup3\n        /* \"#utility.yul\":15830:15842   */\n      add\n        /* \"#utility.yul\":15823:15842   */\n      swap1\n      pop\n        /* \"#utility.yul\":15482:15848   */\n      swap2\n      swap1\n      pop\n      jump\t// out\n        /* \"#utility.yul\":15854:16273   */\n    tag_62:\n        /* \"#utility.yul\":16020:16024   */\n      0x00\n        /* \"#utility.yul\":16058:16060   */\n      0x20\n        /* \"#utility.yul\":16047:16056   */\n      dup3\n        /* \"#utility.yul\":16043:16061   */\n      add\n        /* \"#utility.yul\":16035:16061   */\n      swap1\n      pop\n        /* \"#utility.yul\":16107:16116   */\n      dup2\n        /* \"#utility.yul\":16101:16105   */\n      dup2\n        /* \"#utility.yul\":16097:16117   */\n      sub\n        /* \"#utility.yul\":16093:16094   */\n      0x00\n        /* \"#utility.yul\":16082:16091   */\n      dup4\n        /* \"#utility.yul\":16078:16095   */\n      add\n        /* \"#utility.yul\":16071:16118   */\n      mstore\n        /* \"#utility.yul\":16135:16266   */\n      tag_315\n        /* \"#utility.yul\":16261:16265   */\n      dup2\n        /* \"#utility.yul\":16135:16266   */\n      tag_153\n      jump\t// in\n    tag_315:\n        /* \"#utility.yul\":16127:16266   */\n      swap1\n      pop\n        /* \"#utility.yul\":15854:16273   */\n      swap2\n      swap1\n      pop\n      jump\t// out\n        /* \"#utility.yul\":16279:16453   */\n    tag_154:\n        /* \"#utility.yul\":16419:16445   */\n      0x4d7573742068617665206d65726368616e747320726f6c650000000000000000\n        /* \"#utility.yul\":16415:16416   */\n      0x00\n        /* \"#utility.yul\":16407:16413   */\n      dup3\n        /* \"#utility.yul\":16403:16417   */\n      add\n        /* \"#utility.yul\":16396:16446   */\n      mstore\n        /* \"#utility.yul\":16279:16453   */\n      pop\n      jump\t// out\n        /* \"#utility.yul\":16459:16825   */\n    tag_155:\n        /* \"#utility.yul\":16601:16604   */\n      0x00\n        /* \"#utility.yul\":16622:16689   */\n      tag_318\n        /* \"#utility.yul\":16686:16688   */\n      0x18\n        /* \"#utility.yul\":16681:16684   */\n      dup4\n        /* \"#utility.yul\":16622:16689   */\n      tag_130\n      jump\t// in\n    tag_318:\n        /* \"#utility.yul\":16615:16689   */\n      swap2\n      pop\n        /* \"#utility.yul\":16698:16791   */\n      tag_319\n        /* \"#utility.yul\":16787:16790   */\n      dup3\n        /* \"#utility.yul\":16698:16791   */\n      tag_154\n      jump\t// in\n    tag_319:\n        /* \"#utility.yul\":16816:16818   */\n      0x20\n        /* \"#utility.yul\":16811:16814   */\n      dup3\n        /* \"#utility.yul\":16807:16819   */\n      add\n        /* \"#utility.yul\":16800:16819   */\n      swap1\n      pop\n        /* \"#utility.yul\":16459:16825   */\n      swap2\n      swap1\n      pop\n      jump\t// out\n        /* \"#utility.yul\":16831:17250   */\n    tag_76:\n        /* \"#utility.yul\":16997:17001   */\n      0x00\n        /* \"#utility.yul\":17035:17037   */\n      0x20\n        /* \"#utility.yul\":17024:17033   */\n      dup3\n        /* \"#utility.yul\":17020:17038   */\n      add\n        /* \"#utility.yul\":17012:17038   */\n      swap1\n      pop\n        /* \"#utility.yul\":17084:17093   */\n      dup2\n        /* \"#utility.yul\":17078:17082   */\n      dup2\n        /* \"#utility.yul\":17074:17094   */\n      sub\n        /* \"#utility.yul\":17070:17071   */\n      0x00\n        /* \"#utility.yul\":17059:17068   */\n      dup4\n        /* \"#utility.yul\":17055:17072   */\n      add\n        /* \"#utility.yul\":17048:17095   */\n      mstore\n        /* \"#utility.yul\":17112:17243   */\n      tag_321\n        /* \"#utility.yul\":17238:17242   */\n      dup2\n        /* \"#utility.yul\":17112:17243   */\n      tag_155\n      jump\t// in\n    tag_321:\n        /* \"#utility.yul\":17104:17243   */\n      swap1\n      pop\n        /* \"#utility.yul\":16831:17250   */\n      swap2\n      swap1\n      pop\n      jump\t// out\n\n    auxdata: 0xa2646970667358221220be3d4fcf1aaaa9899f9ca3cf9145a8924239549f5cfaea711a5525d26011dcd364736f6c63430008120033\n}\n",
				"bytecode": {
					"linkReferences": {},
					"object": "608060405234801561001057600080fd5b5061002933600061002e60201b61096f1790919060201c565b61008c565b60018260000160008373ffffffffffffffffffffffffffffffffffffffff1673ffffffffffffffffffffffffffffffffffffffff16815260200190815260200160002060006101000a81548160ff0219169083151502179055505050565b6112f58061009b6000396000f3fe608060405234801561001057600080fd5b50600436106100885760003560e01c8063877e77eb1161005b578063877e77eb146100eb578063db613e8114610107578063e1d06c7714610125578063f0d4bc5c1461012f57610088565b8063011a8bd91461008d578063421b2d8b146100a9578063462ec45c146100c557806370480275146100cf575b600080fd5b6100a760048036038101906100a29190610a98565b61014b565b005b6100c360048036038101906100be9190610a98565b6102a6565b005b6100cd610401565b005b6100e960048036038101906100e49190610a98565b61045d565b005b61010560048036038101906101009190610a98565b6105b8565b005b61010f610713565b60405161011c9190610c63565b60405180910390f35b61012d61085a565b005b61014960048036038101906101449190610dba565b6108b6565b005b600115156101633360016109cd90919063ffffffff16565b1515146101a5576040517f08c379a000000000000000000000000000000000000000000000000000000000815260040161019c90610e73565b60405180910390fd5b600460405180604001604052808373ffffffffffffffffffffffffffffffffffffffff1681526020016040518060400160405280600e81526020017f696e7465726d6564696172696573000000000000000000000000000000000000815250815250908060018154018082558091505060019003906000526020600020906002020160009091909190915060008201518160000160006101000a81548173ffffffffffffffffffffffffffffffffffffffff021916908373ffffffffffffffffffffffffffffffffffffffff160217905550602082015181600101908161028c91906110a9565b5050506102a381600161096f90919063ffffffff16565b50565b600115156102be3360026109cd90919063ffffffff16565b151514610300576040517f08c379a00000000000000000000000000000000000000000000000000000000081526004016102f7906111c7565b60405180910390fd5b600460405180604001604052808373ffffffffffffffffffffffffffffffffffffffff1681526020016040518060400160405280600481526020017f7573657200000000000000000000000000000000000000000000000000000000815250815250908060018154018082558091505060019003906000526020600020906002020160009091909190915060008201518160000160006101000a81548173ffffffffffffffffffffffffffffffffffffffff021916908373ffffffffffffffffffffffffffffffffffffffff16021790555060208201518160010190816103e791906110a9565b5050506103fe81600261096f90919063ffffffff16565b50565b600115156104193360006109cd90919063ffffffff16565b15151461045b576040517f08c379a000000000000000000000000000000000000000000000000000000000815260040161045290611233565b60405180910390fd5b565b600115156104753360006109cd90919063ffffffff16565b1515146104b7576040517f08c379a00000000000000000000000000000000000000000000000000000000081526004016104ae90611233565b60405180910390fd5b600460405180604001604052808373ffffffffffffffffffffffffffffffffffffffff1681526020016040518060400160405280600581526020017f61646d696e000000000000000000000000000000000000000000000000000000815250815250908060018154018082558091505060019003906000526020600020906002020160009091909190915060008201518160000160006101000a81548173ffffffffffffffffffffffffffffffffffffffff021916908373ffffffffffffffffffffffffffffffffffffffff160217905550602082015181600101908161059e91906110a9565b5050506105b581600061096f90919063ffffffff16565b50565b600115156105d03360036109cd90919063ffffffff16565b151514610612576040517f08c379a00000000000000000000000000000000000000000000000000000000081526004016106099061129f565b60405180910390fd5b600460405180604001604052808373ffffffffffffffffffffffffffffffffffffffff1681526020016040518060400160405280600981526020017f6d65726368616e74730000000000000000000000000000000000000000000000815250815250908060018154018082558091505060019003906000526020600020906002020160009091909190915060008201518160000160006101000a81548173ffffffffffffffffffffffffffffffffffffffff021916908373ffffffffffffffffffffffffffffffffffffffff16021790555060208201518160010190816106f991906110a9565b50505061071081600361096f90919063ffffffff16565b50565b60606004805480602002602001604051908101604052809291908181526020016000905b8282101561085157838290600052602060002090600202016040518060400160405290816000820160009054906101000a900473ffffffffffffffffffffffffffffffffffffffff1673ffffffffffffffffffffffffffffffffffffffff1673ffffffffffffffffffffffffffffffffffffffff1681526020016001820180546107c090610ec2565b80601f01602080910402602001604051908101604052809291908181526020018280546107ec90610ec2565b80156108395780601f1061080e57610100808354040283529160200191610839565b820191906000526020600020905b81548152906001019060200180831161081c57829003601f168201915b50505050508152505081526020019060010190610737565b50505050905090565b600115156108723360026109cd90919063ffffffff16565b1515146108b4576040517f08c379a00000000000000000000000000000000000000000000000000000000081526004016108ab906111c7565b60405180910390fd5b565b600460405180604001604052808473ffffffffffffffffffffffffffffffffffffffff16815260200183815250908060018154018082558091505060019003906000526020600020906002020160009091909190915060008201518160000160006101000a81548173ffffffffffffffffffffffffffffffffffffffff021916908373ffffffffffffffffffffffffffffffffffffffff160217905550602082015181600101908161096891906110a9565b5050505050565b60018260000160008373ffffffffffffffffffffffffffffffffffffffff1673ffffffffffffffffffffffffffffffffffffffff16815260200190815260200160002060006101000a81548160ff0219169083151502179055505050565b60008260000160008373ffffffffffffffffffffffffffffffffffffffff1673ffffffffffffffffffffffffffffffffffffffff16815260200190815260200160002060009054906101000a900460ff16905092915050565b6000604051905090565b600080fd5b600080fd5b600073ffffffffffffffffffffffffffffffffffffffff82169050919050565b6000610a6582610a3a565b9050919050565b610a7581610a5a565b8114610a8057600080fd5b50565b600081359050610a9281610a6c565b92915050565b600060208284031215610aae57610aad610a30565b5b6000610abc84828501610a83565b91505092915050565b600081519050919050565b600082825260208201905092915050565b6000819050602082019050919050565b610afa81610a5a565b82525050565b600081519050919050565b600082825260208201905092915050565b60005b83811015610b3a578082015181840152602081019050610b1f565b60008484015250505050565b6000601f19601f8301169050919050565b6000610b6282610b00565b610b6c8185610b0b565b9350610b7c818560208601610b1c565b610b8581610b46565b840191505092915050565b6000604083016000830151610ba86000860182610af1565b5060208301518482036020860152610bc08282610b57565b9150508091505092915050565b6000610bd98383610b90565b905092915050565b6000602082019050919050565b6000610bf982610ac5565b610c038185610ad0565b935083602082028501610c1585610ae1565b8060005b85811015610c515784840389528151610c328582610bcd565b9450610c3d83610be1565b925060208a01995050600181019050610c19565b50829750879550505050505092915050565b60006020820190508181036000830152610c7d8184610bee565b905092915050565b600080fd5b600080fd5b7f4e487b7100000000000000000000000000000000000000000000000000000000600052604160045260246000fd5b610cc782610b46565b810181811067ffffffffffffffff82111715610ce657610ce5610c8f565b5b80604052505050565b6000610cf9610a26565b9050610d058282610cbe565b919050565b600067ffffffffffffffff821115610d2557610d24610c8f565b5b610d2e82610b46565b9050602081019050919050565b82818337600083830152505050565b6000610d5d610d5884610d0a565b610cef565b905082815260208101848484011115610d7957610d78610c8a565b5b610d84848285610d3b565b509392505050565b600082601f830112610da157610da0610c85565b5b8135610db1848260208601610d4a565b91505092915050565b60008060408385031215610dd157610dd0610a30565b5b6000610ddf85828601610a83565b925050602083013567ffffffffffffffff811115610e0057610dff610a35565b5b610e0c85828601610d8c565b9150509250929050565b600082825260208201905092915050565b7f4d757374206861766520696e7465726d656469617269657320726f6c65000000600082015250565b6000610e5d601d83610e16565b9150610e6882610e27565b602082019050919050565b60006020820190508181036000830152610e8c81610e50565b9050919050565b7f4e487b7100000000000000000000000000000000000000000000000000000000600052602260045260246000fd5b60006002820490506001821680610eda57607f821691505b602082108103610eed57610eec610e93565b5b50919050565b60008190508160005260206000209050919050565b60006020601f8301049050919050565b600082821b905092915050565b600060088302610f557fffffffffffffffffffffffffffffffffffffffffffffffffffffffffffffffff82610f18565b610f5f8683610f18565b95508019841693508086168417925050509392505050565b6000819050919050565b6000819050919050565b6000610fa6610fa1610f9c84610f77565b610f81565b610f77565b9050919050565b6000819050919050565b610fc083610f8b565b610fd4610fcc82610fad565b848454610f25565b825550505050565b600090565b610fe9610fdc565b610ff4818484610fb7565b505050565b5b818110156110185761100d600082610fe1565b600181019050610ffa565b5050565b601f82111561105d5761102e81610ef3565b61103784610f08565b81016020851015611046578190505b61105a61105285610f08565b830182610ff9565b50505b505050565b600082821c905092915050565b600061108060001984600802611062565b1980831691505092915050565b6000611099838361106f565b9150826002028217905092915050565b6110b282610b00565b67ffffffffffffffff8111156110cb576110ca610c8f565b5b6110d58254610ec2565b6110e082828561101c565b600060209050601f8311600181146111135760008415611101578287015190505b61110b858261108d565b865550611173565b601f19841661112186610ef3565b60005b8281101561114957848901518255600182019150602085019450602081019050611124565b868310156111665784890151611162601f89168261106f565b8355505b6001600288020188555050505b505050505050565b7f4d7573742068617665207573657220726f6c6500000000000000000000000000600082015250565b60006111b1601383610e16565b91506111bc8261117b565b602082019050919050565b600060208201905081810360008301526111e0816111a4565b9050919050565b7f4d75737420686176652061646d696e20726f6c65000000000000000000000000600082015250565b600061121d601483610e16565b9150611228826111e7565b602082019050919050565b6000602082019050818103600083015261124c81611210565b9050919050565b7f4d7573742068617665206d65726368616e747320726f6c650000000000000000600082015250565b6000611289601883610e16565b915061129482611253565b602082019050919050565b600060208201905081810360008301526112b88161127c565b905091905056fea2646970667358221220be3d4fcf1aaaa9899f9ca3cf9145a8924239549f5cfaea711a5525d26011dcd364736f6c63430008120033",
					"opcodes": "PUSH1 0x80 PUSH1 0x40 MSTORE CALLVALUE DUP1 ISZERO PUSH2 0x10 JUMPI PUSH1 0x0 DUP1 REVERT JUMPDEST POP PUSH2 0x29 CALLER PUSH1 0x0 PUSH2 0x2E PUSH1 0x20 SHL PUSH2 0x96F OR SWAP1 SWAP2 SWAP1 PUSH1 0x20 SHR JUMP JUMPDEST PUSH2 0x8C JUMP JUMPDEST PUSH1 0x1 DUP3 PUSH1 0x0 ADD PUSH1 0x0 DUP4 PUSH20 0xFFFFFFFFFFFFFFFFFFFFFFFFFFFFFFFFFFFFFFFF AND PUSH20 0xFFFFFFFFFFFFFFFFFFFFFFFFFFFFFFFFFFFFFFFF AND DUP2 MSTORE PUSH1 0x20 ADD SWAP1 DUP2 MSTORE PUSH1 0x20 ADD PUSH1 0x0 KECCAK256 PUSH1 0x0 PUSH2 0x100 EXP DUP2 SLOAD DUP2 PUSH1 0xFF MUL NOT AND SWAP1 DUP4 ISZERO ISZERO MUL OR SWAP1 SSTORE POP POP POP JUMP JUMPDEST PUSH2 0x12F5 DUP1 PUSH2 0x9B PUSH1 0x0 CODECOPY PUSH1 0x0 RETURN INVALID PUSH1 0x80 PUSH1 0x40 MSTORE CALLVALUE DUP1 ISZERO PUSH2 0x10 JUMPI PUSH1 0x0 DUP1 REVERT JUMPDEST POP PUSH1 0x4 CALLDATASIZE LT PUSH2 0x88 JUMPI PUSH1 0x0 CALLDATALOAD PUSH1 0xE0 SHR DUP1 PUSH4 0x877E77EB GT PUSH2 0x5B JUMPI DUP1 PUSH4 0x877E77EB EQ PUSH2 0xEB JUMPI DUP1 PUSH4 0xDB613E81 EQ PUSH2 0x107 JUMPI DUP1 PUSH4 0xE1D06C77 EQ PUSH2 0x125 JUMPI DUP1 PUSH4 0xF0D4BC5C EQ PUSH2 0x12F JUMPI PUSH2 0x88 JUMP JUMPDEST DUP1 PUSH4 0x11A8BD9 EQ PUSH2 0x8D JUMPI DUP1 PUSH4 0x421B2D8B EQ PUSH2 0xA9 JUMPI DUP1 PUSH4 0x462EC45C EQ PUSH2 0xC5 JUMPI DUP1 PUSH4 0x70480275 EQ PUSH2 0xCF JUMPI JUMPDEST PUSH1 0x0 DUP1 REVERT JUMPDEST PUSH2 0xA7 PUSH1 0x4 DUP1 CALLDATASIZE SUB DUP2 ADD SWAP1 PUSH2 0xA2 SWAP2 SWAP1 PUSH2 0xA98 JUMP JUMPDEST PUSH2 0x14B JUMP JUMPDEST STOP JUMPDEST PUSH2 0xC3 PUSH1 0x4 DUP1 CALLDATASIZE SUB DUP2 ADD SWAP1 PUSH2 0xBE SWAP2 SWAP1 PUSH2 0xA98 JUMP JUMPDEST PUSH2 0x2A6 JUMP JUMPDEST STOP JUMPDEST PUSH2 0xCD PUSH2 0x401 JUMP JUMPDEST STOP JUMPDEST PUSH2 0xE9 PUSH1 0x4 DUP1 CALLDATASIZE SUB DUP2 ADD SWAP1 PUSH2 0xE4 SWAP2 SWAP1 PUSH2 0xA98 JUMP JUMPDEST PUSH2 0x45D JUMP JUMPDEST STOP JUMPDEST PUSH2 0x105 PUSH1 0x4 DUP1 CALLDATASIZE SUB DUP2 ADD SWAP1 PUSH2 0x100 SWAP2 SWAP1 PUSH2 0xA98 JUMP JUMPDEST PUSH2 0x5B8 JUMP JUMPDEST STOP JUMPDEST PUSH2 0x10F PUSH2 0x713 JUMP JUMPDEST PUSH1 0x40 MLOAD PUSH2 0x11C SWAP2 SWAP1 PUSH2 0xC63 JUMP JUMPDEST PUSH1 0x40 MLOAD DUP1 SWAP2 SUB SWAP1 RETURN JUMPDEST PUSH2 0x12D PUSH2 0x85A JUMP JUMPDEST STOP JUMPDEST PUSH2 0x149 PUSH1 0x4 DUP1 CALLDATASIZE SUB DUP2 ADD SWAP1 PUSH2 0x144 SWAP2 SWAP1 PUSH2 0xDBA JUMP JUMPDEST PUSH2 0x8B6 JUMP JUMPDEST STOP JUMPDEST PUSH1 0x1 ISZERO ISZERO PUSH2 0x163 CALLER PUSH1 0x1 PUSH2 0x9CD SWAP1 SWAP2 SWAP1 PUSH4 0xFFFFFFFF AND JUMP JUMPDEST ISZERO ISZERO EQ PUSH2 0x1A5 JUMPI PUSH1 0x40 MLOAD PUSH32 0x8C379A000000000000000000000000000000000000000000000000000000000 DUP2 MSTORE PUSH1 0x4 ADD PUSH2 0x19C SWAP1 PUSH2 0xE73 JUMP JUMPDEST PUSH1 0x40 MLOAD DUP1 SWAP2 SUB SWAP1 REVERT JUMPDEST PUSH1 0x4 PUSH1 0x40 MLOAD DUP1 PUSH1 0x40 ADD PUSH1 0x40 MSTORE DUP1 DUP4 PUSH20 0xFFFFFFFFFFFFFFFFFFFFFFFFFFFFFFFFFFFFFFFF AND DUP2 MSTORE PUSH1 0x20 ADD PUSH1 0x40 MLOAD DUP1 PUSH1 0x40 ADD PUSH1 0x40 MSTORE DUP1 PUSH1 0xE DUP2 MSTORE PUSH1 0x20 ADD PUSH32 0x696E7465726D6564696172696573000000000000000000000000000000000000 DUP2 MSTORE POP DUP2 MSTORE POP SWAP1 DUP1 PUSH1 0x1 DUP2 SLOAD ADD DUP1 DUP3 SSTORE DUP1 SWAP2 POP POP PUSH1 0x1 SWAP1 SUB SWAP1 PUSH1 0x0 MSTORE PUSH1 0x20 PUSH1 0x0 KECCAK256 SWAP1 PUSH1 0x2 MUL ADD PUSH1 0x0 SWAP1 SWAP2 SWAP1 SWAP2 SWAP1 SWAP2 POP PUSH1 0x0 DUP3 ADD MLOAD DUP2 PUSH1 0x0 ADD PUSH1 0x0 PUSH2 0x100 EXP DUP2 SLOAD DUP2 PUSH20 0xFFFFFFFFFFFFFFFFFFFFFFFFFFFFFFFFFFFFFFFF MUL NOT AND SWAP1 DUP4 PUSH20 0xFFFFFFFFFFFFFFFFFFFFFFFFFFFFFFFFFFFFFFFF AND MUL OR SWAP1 SSTORE POP PUSH1 0x20 DUP3 ADD MLOAD DUP2 PUSH1 0x1 ADD SWAP1 DUP2 PUSH2 0x28C SWAP2 SWAP1 PUSH2 0x10A9 JUMP JUMPDEST POP POP POP PUSH2 0x2A3 DUP2 PUSH1 0x1 PUSH2 0x96F SWAP1 SWAP2 SWAP1 PUSH4 0xFFFFFFFF AND JUMP JUMPDEST POP JUMP JUMPDEST PUSH1 0x1 ISZERO ISZERO PUSH2 0x2BE CALLER PUSH1 0x2 PUSH2 0x9CD SWAP1 SWAP2 SWAP1 PUSH4 0xFFFFFFFF AND JUMP JUMPDEST ISZERO ISZERO EQ PUSH2 0x300 JUMPI PUSH1 0x40 MLOAD PUSH32 0x8C379A000000000000000000000000000000000000000000000000000000000 DUP2 MSTORE PUSH1 0x4 ADD PUSH2 0x2F7 SWAP1 PUSH2 0x11C7 JUMP JUMPDEST PUSH1 0x40 MLOAD DUP1 SWAP2 SUB SWAP1 REVERT JUMPDEST PUSH1 0x4 PUSH1 0x40 MLOAD DUP1 PUSH1 0x40 ADD PUSH1 0x40 MSTORE DUP1 DUP4 PUSH20 0xFFFFFFFFFFFFFFFFFFFFFFFFFFFFFFFFFFFFFFFF AND DUP2 MSTORE PUSH1 0x20 ADD PUSH1 0x40 MLOAD DUP1 PUSH1 0x40 ADD PUSH1 0x40 MSTORE DUP1 PUSH1 0x4 DUP2 MSTORE PUSH1 0x20 ADD PUSH32 0x7573657200000000000000000000000000000000000000000000000000000000 DUP2 MSTORE POP DUP2 MSTORE POP SWAP1 DUP1 PUSH1 0x1 DUP2 SLOAD ADD DUP1 DUP3 SSTORE DUP1 SWAP2 POP POP PUSH1 0x1 SWAP1 SUB SWAP1 PUSH1 0x0 MSTORE PUSH1 0x20 PUSH1 0x0 KECCAK256 SWAP1 PUSH1 0x2 MUL ADD PUSH1 0x0 SWAP1 SWAP2 SWAP1 SWAP2 SWAP1 SWAP2 POP PUSH1 0x0 DUP3 ADD MLOAD DUP2 PUSH1 0x0 ADD PUSH1 0x0 PUSH2 0x100 EXP DUP2 SLOAD DUP2 PUSH20 0xFFFFFFFFFFFFFFFFFFFFFFFFFFFFFFFFFFFFFFFF MUL NOT AND SWAP1 DUP4 PUSH20 0xFFFFFFFFFFFFFFFFFFFFFFFFFFFFFFFFFFFFFFFF AND MUL OR SWAP1 SSTORE POP PUSH1 0x20 DUP3 ADD MLOAD DUP2 PUSH1 0x1 ADD SWAP1 DUP2 PUSH2 0x3E7 SWAP2 SWAP1 PUSH2 0x10A9 JUMP JUMPDEST POP POP POP PUSH2 0x3FE DUP2 PUSH1 0x2 PUSH2 0x96F SWAP1 SWAP2 SWAP1 PUSH4 0xFFFFFFFF AND JUMP JUMPDEST POP JUMP JUMPDEST PUSH1 0x1 ISZERO ISZERO PUSH2 0x419 CALLER PUSH1 0x0 PUSH2 0x9CD SWAP1 SWAP2 SWAP1 PUSH4 0xFFFFFFFF AND JUMP JUMPDEST ISZERO ISZERO EQ PUSH2 0x45B JUMPI PUSH1 0x40 MLOAD PUSH32 0x8C379A000000000000000000000000000000000000000000000000000000000 DUP2 MSTORE PUSH1 0x4 ADD PUSH2 0x452 SWAP1 PUSH2 0x1233 JUMP JUMPDEST PUSH1 0x40 MLOAD DUP1 SWAP2 SUB SWAP1 REVERT JUMPDEST JUMP JUMPDEST PUSH1 0x1 ISZERO ISZERO PUSH2 0x475 CALLER PUSH1 0x0 PUSH2 0x9CD SWAP1 SWAP2 SWAP1 PUSH4 0xFFFFFFFF AND JUMP JUMPDEST ISZERO ISZERO EQ PUSH2 0x4B7 JUMPI PUSH1 0x40 MLOAD PUSH32 0x8C379A000000000000000000000000000000000000000000000000000000000 DUP2 MSTORE PUSH1 0x4 ADD PUSH2 0x4AE SWAP1 PUSH2 0x1233 JUMP JUMPDEST PUSH1 0x40 MLOAD DUP1 SWAP2 SUB SWAP1 REVERT JUMPDEST PUSH1 0x4 PUSH1 0x40 MLOAD DUP1 PUSH1 0x40 ADD PUSH1 0x40 MSTORE DUP1 DUP4 PUSH20 0xFFFFFFFFFFFFFFFFFFFFFFFFFFFFFFFFFFFFFFFF AND DUP2 MSTORE PUSH1 0x20 ADD PUSH1 0x40 MLOAD DUP1 PUSH1 0x40 ADD PUSH1 0x40 MSTORE DUP1 PUSH1 0x5 DUP2 MSTORE PUSH1 0x20 ADD PUSH32 0x61646D696E000000000000000000000000000000000000000000000000000000 DUP2 MSTORE POP DUP2 MSTORE POP SWAP1 DUP1 PUSH1 0x1 DUP2 SLOAD ADD DUP1 DUP3 SSTORE DUP1 SWAP2 POP POP PUSH1 0x1 SWAP1 SUB SWAP1 PUSH1 0x0 MSTORE PUSH1 0x20 PUSH1 0x0 KECCAK256 SWAP1 PUSH1 0x2 MUL ADD PUSH1 0x0 SWAP1 SWAP2 SWAP1 SWAP2 SWAP1 SWAP2 POP PUSH1 0x0 DUP3 ADD MLOAD DUP2 PUSH1 0x0 ADD PUSH1 0x0 PUSH2 0x100 EXP DUP2 SLOAD DUP2 PUSH20 0xFFFFFFFFFFFFFFFFFFFFFFFFFFFFFFFFFFFFFFFF MUL NOT AND SWAP1 DUP4 PUSH20 0xFFFFFFFFFFFFFFFFFFFFFFFFFFFFFFFFFFFFFFFF AND MUL OR SWAP1 SSTORE POP PUSH1 0x20 DUP3 ADD MLOAD DUP2 PUSH1 0x1 ADD SWAP1 DUP2 PUSH2 0x59E SWAP2 SWAP1 PUSH2 0x10A9 JUMP JUMPDEST POP POP POP PUSH2 0x5B5 DUP2 PUSH1 0x0 PUSH2 0x96F SWAP1 SWAP2 SWAP1 PUSH4 0xFFFFFFFF AND JUMP JUMPDEST POP JUMP JUMPDEST PUSH1 0x1 ISZERO ISZERO PUSH2 0x5D0 CALLER PUSH1 0x3 PUSH2 0x9CD SWAP1 SWAP2 SWAP1 PUSH4 0xFFFFFFFF AND JUMP JUMPDEST ISZERO ISZERO EQ PUSH2 0x612 JUMPI PUSH1 0x40 MLOAD PUSH32 0x8C379A000000000000000000000000000000000000000000000000000000000 DUP2 MSTORE PUSH1 0x4 ADD PUSH2 0x609 SWAP1 PUSH2 0x129F JUMP JUMPDEST PUSH1 0x40 MLOAD DUP1 SWAP2 SUB SWAP1 REVERT JUMPDEST PUSH1 0x4 PUSH1 0x40 MLOAD DUP1 PUSH1 0x40 ADD PUSH1 0x40 MSTORE DUP1 DUP4 PUSH20 0xFFFFFFFFFFFFFFFFFFFFFFFFFFFFFFFFFFFFFFFF AND DUP2 MSTORE PUSH1 0x20 ADD PUSH1 0x40 MLOAD DUP1 PUSH1 0x40 ADD PUSH1 0x40 MSTORE DUP1 PUSH1 0x9 DUP2 MSTORE PUSH1 0x20 ADD PUSH32 0x6D65726368616E74730000000000000000000000000000000000000000000000 DUP2 MSTORE POP DUP2 MSTORE POP SWAP1 DUP1 PUSH1 0x1 DUP2 SLOAD ADD DUP1 DUP3 SSTORE DUP1 SWAP2 POP POP PUSH1 0x1 SWAP1 SUB SWAP1 PUSH1 0x0 MSTORE PUSH1 0x20 PUSH1 0x0 KECCAK256 SWAP1 PUSH1 0x2 MUL ADD PUSH1 0x0 SWAP1 SWAP2 SWAP1 SWAP2 SWAP1 SWAP2 POP PUSH1 0x0 DUP3 ADD MLOAD DUP2 PUSH1 0x0 ADD PUSH1 0x0 PUSH2 0x100 EXP DUP2 SLOAD DUP2 PUSH20 0xFFFFFFFFFFFFFFFFFFFFFFFFFFFFFFFFFFFFFFFF MUL NOT AND SWAP1 DUP4 PUSH20 0xFFFFFFFFFFFFFFFFFFFFFFFFFFFFFFFFFFFFFFFF AND MUL OR SWAP1 SSTORE POP PUSH1 0x20 DUP3 ADD MLOAD DUP2 PUSH1 0x1 ADD SWAP1 DUP2 PUSH2 0x6F9 SWAP2 SWAP1 PUSH2 0x10A9 JUMP JUMPDEST POP POP POP PUSH2 0x710 DUP2 PUSH1 0x3 PUSH2 0x96F SWAP1 SWAP2 SWAP1 PUSH4 0xFFFFFFFF AND JUMP JUMPDEST POP JUMP JUMPDEST PUSH1 0x60 PUSH1 0x4 DUP1 SLOAD DUP1 PUSH1 0x20 MUL PUSH1 0x20 ADD PUSH1 0x40 MLOAD SWAP1 DUP2 ADD PUSH1 0x40 MSTORE DUP1 SWAP3 SWAP2 SWAP1 DUP2 DUP2 MSTORE PUSH1 0x20 ADD PUSH1 0x0 SWAP1 JUMPDEST DUP3 DUP3 LT ISZERO PUSH2 0x851 JUMPI DUP4 DUP3 SWAP1 PUSH1 0x0 MSTORE PUSH1 0x20 PUSH1 0x0 KECCAK256 SWAP1 PUSH1 0x2 MUL ADD PUSH1 0x40 MLOAD DUP1 PUSH1 0x40 ADD PUSH1 0x40 MSTORE SWAP1 DUP2 PUSH1 0x0 DUP3 ADD PUSH1 0x0 SWAP1 SLOAD SWAP1 PUSH2 0x100 EXP SWAP1 DIV PUSH20 0xFFFFFFFFFFFFFFFFFFFFFFFFFFFFFFFFFFFFFFFF AND PUSH20 0xFFFFFFFFFFFFFFFFFFFFFFFFFFFFFFFFFFFFFFFF AND PUSH20 0xFFFFFFFFFFFFFFFFFFFFFFFFFFFFFFFFFFFFFFFF AND DUP2 MSTORE PUSH1 0x20 ADD PUSH1 0x1 DUP3 ADD DUP1 SLOAD PUSH2 0x7C0 SWAP1 PUSH2 0xEC2 JUMP JUMPDEST DUP1 PUSH1 0x1F ADD PUSH1 0x20 DUP1 SWAP2 DIV MUL PUSH1 0x20 ADD PUSH1 0x40 MLOAD SWAP1 DUP2 ADD PUSH1 0x40 MSTORE DUP1 SWAP3 SWAP2 SWAP1 DUP2 DUP2 MSTORE PUSH1 0x20 ADD DUP3 DUP1 SLOAD PUSH2 0x7EC SWAP1 PUSH2 0xEC2 JUMP JUMPDEST DUP1 ISZERO PUSH2 0x839 JUMPI DUP1 PUSH1 0x1F LT PUSH2 0x80E JUMPI PUSH2 0x100 DUP1 DUP4 SLOAD DIV MUL DUP4 MSTORE SWAP2 PUSH1 0x20 ADD SWAP2 PUSH2 0x839 JUMP JUMPDEST DUP3 ADD SWAP2 SWAP1 PUSH1 0x0 MSTORE PUSH1 0x20 PUSH1 0x0 KECCAK256 SWAP1 JUMPDEST DUP2 SLOAD DUP2 MSTORE SWAP1 PUSH1 0x1 ADD SWAP1 PUSH1 0x20 ADD DUP1 DUP4 GT PUSH2 0x81C JUMPI DUP3 SWAP1 SUB PUSH1 0x1F AND DUP3 ADD SWAP2 JUMPDEST POP POP POP POP POP DUP2 MSTORE POP POP DUP2 MSTORE PUSH1 0x20 ADD SWAP1 PUSH1 0x1 ADD SWAP1 PUSH2 0x737 JUMP JUMPDEST POP POP POP POP SWAP1 POP SWAP1 JUMP JUMPDEST PUSH1 0x1 ISZERO ISZERO PUSH2 0x872 CALLER PUSH1 0x2 PUSH2 0x9CD SWAP1 SWAP2 SWAP1 PUSH4 0xFFFFFFFF AND JUMP JUMPDEST ISZERO ISZERO EQ PUSH2 0x8B4 JUMPI PUSH1 0x40 MLOAD PUSH32 0x8C379A000000000000000000000000000000000000000000000000000000000 DUP2 MSTORE PUSH1 0x4 ADD PUSH2 0x8AB SWAP1 PUSH2 0x11C7 JUMP JUMPDEST PUSH1 0x40 MLOAD DUP1 SWAP2 SUB SWAP1 REVERT JUMPDEST JUMP JUMPDEST PUSH1 0x4 PUSH1 0x40 MLOAD DUP1 PUSH1 0x40 ADD PUSH1 0x40 MSTORE DUP1 DUP5 PUSH20 0xFFFFFFFFFFFFFFFFFFFFFFFFFFFFFFFFFFFFFFFF AND DUP2 MSTORE PUSH1 0x20 ADD DUP4 DUP2 MSTORE POP SWAP1 DUP1 PUSH1 0x1 DUP2 SLOAD ADD DUP1 DUP3 SSTORE DUP1 SWAP2 POP POP PUSH1 0x1 SWAP1 SUB SWAP1 PUSH1 0x0 MSTORE PUSH1 0x20 PUSH1 0x0 KECCAK256 SWAP1 PUSH1 0x2 MUL ADD PUSH1 0x0 SWAP1 SWAP2 SWAP1 SWAP2 SWAP1 SWAP2 POP PUSH1 0x0 DUP3 ADD MLOAD DUP2 PUSH1 0x0 ADD PUSH1 0x0 PUSH2 0x100 EXP DUP2 SLOAD DUP2 PUSH20 0xFFFFFFFFFFFFFFFFFFFFFFFFFFFFFFFFFFFFFFFF MUL NOT AND SWAP1 DUP4 PUSH20 0xFFFFFFFFFFFFFFFFFFFFFFFFFFFFFFFFFFFFFFFF AND MUL OR SWAP1 SSTORE POP PUSH1 0x20 DUP3 ADD MLOAD DUP2 PUSH1 0x1 ADD SWAP1 DUP2 PUSH2 0x968 SWAP2 SWAP1 PUSH2 0x10A9 JUMP JUMPDEST POP POP POP POP POP JUMP JUMPDEST PUSH1 0x1 DUP3 PUSH1 0x0 ADD PUSH1 0x0 DUP4 PUSH20 0xFFFFFFFFFFFFFFFFFFFFFFFFFFFFFFFFFFFFFFFF AND PUSH20 0xFFFFFFFFFFFFFFFFFFFFFFFFFFFFFFFFFFFFFFFF AND DUP2 MSTORE PUSH1 0x20 ADD SWAP1 DUP2 MSTORE PUSH1 0x20 ADD PUSH1 0x0 KECCAK256 PUSH1 0x0 PUSH2 0x100 EXP DUP2 SLOAD DUP2 PUSH1 0xFF MUL NOT AND SWAP1 DUP4 ISZERO ISZERO MUL OR SWAP1 SSTORE POP POP POP JUMP JUMPDEST PUSH1 0x0 DUP3 PUSH1 0x0 ADD PUSH1 0x0 DUP4 PUSH20 0xFFFFFFFFFFFFFFFFFFFFFFFFFFFFFFFFFFFFFFFF AND PUSH20 0xFFFFFFFFFFFFFFFFFFFFFFFFFFFFFFFFFFFFFFFF AND DUP2 MSTORE PUSH1 0x20 ADD SWAP1 DUP2 MSTORE PUSH1 0x20 ADD PUSH1 0x0 KECCAK256 PUSH1 0x0 SWAP1 SLOAD SWAP1 PUSH2 0x100 EXP SWAP1 DIV PUSH1 0xFF AND SWAP1 POP SWAP3 SWAP2 POP POP JUMP JUMPDEST PUSH1 0x0 PUSH1 0x40 MLOAD SWAP1 POP SWAP1 JUMP JUMPDEST PUSH1 0x0 DUP1 REVERT JUMPDEST PUSH1 0x0 DUP1 REVERT JUMPDEST PUSH1 0x0 PUSH20 0xFFFFFFFFFFFFFFFFFFFFFFFFFFFFFFFFFFFFFFFF DUP3 AND SWAP1 POP SWAP2 SWAP1 POP JUMP JUMPDEST PUSH1 0x0 PUSH2 0xA65 DUP3 PUSH2 0xA3A JUMP JUMPDEST SWAP1 POP SWAP2 SWAP1 POP JUMP JUMPDEST PUSH2 0xA75 DUP2 PUSH2 0xA5A JUMP JUMPDEST DUP2 EQ PUSH2 0xA80 JUMPI PUSH1 0x0 DUP1 REVERT JUMPDEST POP JUMP JUMPDEST PUSH1 0x0 DUP2 CALLDATALOAD SWAP1 POP PUSH2 0xA92 DUP2 PUSH2 0xA6C JUMP JUMPDEST SWAP3 SWAP2 POP POP JUMP JUMPDEST PUSH1 0x0 PUSH1 0x20 DUP3 DUP5 SUB SLT ISZERO PUSH2 0xAAE JUMPI PUSH2 0xAAD PUSH2 0xA30 JUMP JUMPDEST JUMPDEST PUSH1 0x0 PUSH2 0xABC DUP5 DUP3 DUP6 ADD PUSH2 0xA83 JUMP JUMPDEST SWAP2 POP POP SWAP3 SWAP2 POP POP JUMP JUMPDEST PUSH1 0x0 DUP2 MLOAD SWAP1 POP SWAP2 SWAP1 POP JUMP JUMPDEST PUSH1 0x0 DUP3 DUP3 MSTORE PUSH1 0x20 DUP3 ADD SWAP1 POP SWAP3 SWAP2 POP POP JUMP JUMPDEST PUSH1 0x0 DUP2 SWAP1 POP PUSH1 0x20 DUP3 ADD SWAP1 POP SWAP2 SWAP1 POP JUMP JUMPDEST PUSH2 0xAFA DUP2 PUSH2 0xA5A JUMP JUMPDEST DUP3 MSTORE POP POP JUMP JUMPDEST PUSH1 0x0 DUP2 MLOAD SWAP1 POP SWAP2 SWAP1 POP JUMP JUMPDEST PUSH1 0x0 DUP3 DUP3 MSTORE PUSH1 0x20 DUP3 ADD SWAP1 POP SWAP3 SWAP2 POP POP JUMP JUMPDEST PUSH1 0x0 JUMPDEST DUP4 DUP2 LT ISZERO PUSH2 0xB3A JUMPI DUP1 DUP3 ADD MLOAD DUP2 DUP5 ADD MSTORE PUSH1 0x20 DUP2 ADD SWAP1 POP PUSH2 0xB1F JUMP JUMPDEST PUSH1 0x0 DUP5 DUP5 ADD MSTORE POP POP POP POP JUMP JUMPDEST PUSH1 0x0 PUSH1 0x1F NOT PUSH1 0x1F DUP4 ADD AND SWAP1 POP SWAP2 SWAP1 POP JUMP JUMPDEST PUSH1 0x0 PUSH2 0xB62 DUP3 PUSH2 0xB00 JUMP JUMPDEST PUSH2 0xB6C DUP2 DUP6 PUSH2 0xB0B JUMP JUMPDEST SWAP4 POP PUSH2 0xB7C DUP2 DUP6 PUSH1 0x20 DUP7 ADD PUSH2 0xB1C JUMP JUMPDEST PUSH2 0xB85 DUP2 PUSH2 0xB46 JUMP JUMPDEST DUP5 ADD SWAP2 POP POP SWAP3 SWAP2 POP POP JUMP JUMPDEST PUSH1 0x0 PUSH1 0x40 DUP4 ADD PUSH1 0x0 DUP4 ADD MLOAD PUSH2 0xBA8 PUSH1 0x0 DUP7 ADD DUP3 PUSH2 0xAF1 JUMP JUMPDEST POP PUSH1 0x20 DUP4 ADD MLOAD DUP5 DUP3 SUB PUSH1 0x20 DUP7 ADD MSTORE PUSH2 0xBC0 DUP3 DUP3 PUSH2 0xB57 JUMP JUMPDEST SWAP2 POP POP DUP1 SWAP2 POP POP SWAP3 SWAP2 POP POP JUMP JUMPDEST PUSH1 0x0 PUSH2 0xBD9 DUP4 DUP4 PUSH2 0xB90 JUMP JUMPDEST SWAP1 POP SWAP3 SWAP2 POP POP JUMP JUMPDEST PUSH1 0x0 PUSH1 0x20 DUP3 ADD SWAP1 POP SWAP2 SWAP1 POP JUMP JUMPDEST PUSH1 0x0 PUSH2 0xBF9 DUP3 PUSH2 0xAC5 JUMP JUMPDEST PUSH2 0xC03 DUP2 DUP6 PUSH2 0xAD0 JUMP JUMPDEST SWAP4 POP DUP4 PUSH1 0x20 DUP3 MUL DUP6 ADD PUSH2 0xC15 DUP6 PUSH2 0xAE1 JUMP JUMPDEST DUP1 PUSH1 0x0 JUMPDEST DUP6 DUP2 LT ISZERO PUSH2 0xC51 JUMPI DUP5 DUP5 SUB DUP10 MSTORE DUP2 MLOAD PUSH2 0xC32 DUP6 DUP3 PUSH2 0xBCD JUMP JUMPDEST SWAP5 POP PUSH2 0xC3D DUP4 PUSH2 0xBE1 JUMP JUMPDEST SWAP3 POP PUSH1 0x20 DUP11 ADD SWAP10 POP POP PUSH1 0x1 DUP2 ADD SWAP1 POP PUSH2 0xC19 JUMP JUMPDEST POP DUP3 SWAP8 POP DUP8 SWAP6 POP POP POP POP POP POP SWAP3 SWAP2 POP POP JUMP JUMPDEST PUSH1 0x0 PUSH1 0x20 DUP3 ADD SWAP1 POP DUP2 DUP2 SUB PUSH1 0x0 DUP4 ADD MSTORE PUSH2 0xC7D DUP2 DUP5 PUSH2 0xBEE JUMP JUMPDEST SWAP1 POP SWAP3 SWAP2 POP POP JUMP JUMPDEST PUSH1 0x0 DUP1 REVERT JUMPDEST PUSH1 0x0 DUP1 REVERT JUMPDEST PUSH32 0x4E487B7100000000000000000000000000000000000000000000000000000000 PUSH1 0x0 MSTORE PUSH1 0x41 PUSH1 0x4 MSTORE PUSH1 0x24 PUSH1 0x0 REVERT JUMPDEST PUSH2 0xCC7 DUP3 PUSH2 0xB46 JUMP JUMPDEST DUP2 ADD DUP2 DUP2 LT PUSH8 0xFFFFFFFFFFFFFFFF DUP3 GT OR ISZERO PUSH2 0xCE6 JUMPI PUSH2 0xCE5 PUSH2 0xC8F JUMP JUMPDEST JUMPDEST DUP1 PUSH1 0x40 MSTORE POP POP POP JUMP JUMPDEST PUSH1 0x0 PUSH2 0xCF9 PUSH2 0xA26 JUMP JUMPDEST SWAP1 POP PUSH2 0xD05 DUP3 DUP3 PUSH2 0xCBE JUMP JUMPDEST SWAP2 SWAP1 POP JUMP JUMPDEST PUSH1 0x0 PUSH8 0xFFFFFFFFFFFFFFFF DUP3 GT ISZERO PUSH2 0xD25 JUMPI PUSH2 0xD24 PUSH2 0xC8F JUMP JUMPDEST JUMPDEST PUSH2 0xD2E DUP3 PUSH2 0xB46 JUMP JUMPDEST SWAP1 POP PUSH1 0x20 DUP2 ADD SWAP1 POP SWAP2 SWAP1 POP JUMP JUMPDEST DUP3 DUP2 DUP4 CALLDATACOPY PUSH1 0x0 DUP4 DUP4 ADD MSTORE POP POP POP JUMP JUMPDEST PUSH1 0x0 PUSH2 0xD5D PUSH2 0xD58 DUP5 PUSH2 0xD0A JUMP JUMPDEST PUSH2 0xCEF JUMP JUMPDEST SWAP1 POP DUP3 DUP2 MSTORE PUSH1 0x20 DUP2 ADD DUP5 DUP5 DUP5 ADD GT ISZERO PUSH2 0xD79 JUMPI PUSH2 0xD78 PUSH2 0xC8A JUMP JUMPDEST JUMPDEST PUSH2 0xD84 DUP5 DUP3 DUP6 PUSH2 0xD3B JUMP JUMPDEST POP SWAP4 SWAP3 POP POP POP JUMP JUMPDEST PUSH1 0x0 DUP3 PUSH1 0x1F DUP4 ADD SLT PUSH2 0xDA1 JUMPI PUSH2 0xDA0 PUSH2 0xC85 JUMP JUMPDEST JUMPDEST DUP2 CALLDATALOAD PUSH2 0xDB1 DUP5 DUP3 PUSH1 0x20 DUP7 ADD PUSH2 0xD4A JUMP JUMPDEST SWAP2 POP POP SWAP3 SWAP2 POP POP JUMP JUMPDEST PUSH1 0x0 DUP1 PUSH1 0x40 DUP4 DUP6 SUB SLT ISZERO PUSH2 0xDD1 JUMPI PUSH2 0xDD0 PUSH2 0xA30 JUMP JUMPDEST JUMPDEST PUSH1 0x0 PUSH2 0xDDF DUP6 DUP3 DUP7 ADD PUSH2 0xA83 JUMP JUMPDEST SWAP3 POP POP PUSH1 0x20 DUP4 ADD CALLDATALOAD PUSH8 0xFFFFFFFFFFFFFFFF DUP2 GT ISZERO PUSH2 0xE00 JUMPI PUSH2 0xDFF PUSH2 0xA35 JUMP JUMPDEST JUMPDEST PUSH2 0xE0C DUP6 DUP3 DUP7 ADD PUSH2 0xD8C JUMP JUMPDEST SWAP2 POP POP SWAP3 POP SWAP3 SWAP1 POP JUMP JUMPDEST PUSH1 0x0 DUP3 DUP3 MSTORE PUSH1 0x20 DUP3 ADD SWAP1 POP SWAP3 SWAP2 POP POP JUMP JUMPDEST PUSH32 0x4D757374206861766520696E7465726D656469617269657320726F6C65000000 PUSH1 0x0 DUP3 ADD MSTORE POP JUMP JUMPDEST PUSH1 0x0 PUSH2 0xE5D PUSH1 0x1D DUP4 PUSH2 0xE16 JUMP JUMPDEST SWAP2 POP PUSH2 0xE68 DUP3 PUSH2 0xE27 JUMP JUMPDEST PUSH1 0x20 DUP3 ADD SWAP1 POP SWAP2 SWAP1 POP JUMP JUMPDEST PUSH1 0x0 PUSH1 0x20 DUP3 ADD SWAP1 POP DUP2 DUP2 SUB PUSH1 0x0 DUP4 ADD MSTORE PUSH2 0xE8C DUP2 PUSH2 0xE50 JUMP JUMPDEST SWAP1 POP SWAP2 SWAP1 POP JUMP JUMPDEST PUSH32 0x4E487B7100000000000000000000000000000000000000000000000000000000 PUSH1 0x0 MSTORE PUSH1 0x22 PUSH1 0x4 MSTORE PUSH1 0x24 PUSH1 0x0 REVERT JUMPDEST PUSH1 0x0 PUSH1 0x2 DUP3 DIV SWAP1 POP PUSH1 0x1 DUP3 AND DUP1 PUSH2 0xEDA JUMPI PUSH1 0x7F DUP3 AND SWAP2 POP JUMPDEST PUSH1 0x20 DUP3 LT DUP2 SUB PUSH2 0xEED JUMPI PUSH2 0xEEC PUSH2 0xE93 JUMP JUMPDEST JUMPDEST POP SWAP2 SWAP1 POP JUMP JUMPDEST PUSH1 0x0 DUP2 SWAP1 POP DUP2 PUSH1 0x0 MSTORE PUSH1 0x20 PUSH1 0x0 KECCAK256 SWAP1 POP SWAP2 SWAP1 POP JUMP JUMPDEST PUSH1 0x0 PUSH1 0x20 PUSH1 0x1F DUP4 ADD DIV SWAP1 POP SWAP2 SWAP1 POP JUMP JUMPDEST PUSH1 0x0 DUP3 DUP3 SHL SWAP1 POP SWAP3 SWAP2 POP POP JUMP JUMPDEST PUSH1 0x0 PUSH1 0x8 DUP4 MUL PUSH2 0xF55 PUSH32 0xFFFFFFFFFFFFFFFFFFFFFFFFFFFFFFFFFFFFFFFFFFFFFFFFFFFFFFFFFFFFFFFF DUP3 PUSH2 0xF18 JUMP JUMPDEST PUSH2 0xF5F DUP7 DUP4 PUSH2 0xF18 JUMP JUMPDEST SWAP6 POP DUP1 NOT DUP5 AND SWAP4 POP DUP1 DUP7 AND DUP5 OR SWAP3 POP POP POP SWAP4 SWAP3 POP POP POP JUMP JUMPDEST PUSH1 0x0 DUP2 SWAP1 POP SWAP2 SWAP1 POP JUMP JUMPDEST PUSH1 0x0 DUP2 SWAP1 POP SWAP2 SWAP1 POP JUMP JUMPDEST PUSH1 0x0 PUSH2 0xFA6 PUSH2 0xFA1 PUSH2 0xF9C DUP5 PUSH2 0xF77 JUMP JUMPDEST PUSH2 0xF81 JUMP JUMPDEST PUSH2 0xF77 JUMP JUMPDEST SWAP1 POP SWAP2 SWAP1 POP JUMP JUMPDEST PUSH1 0x0 DUP2 SWAP1 POP SWAP2 SWAP1 POP JUMP JUMPDEST PUSH2 0xFC0 DUP4 PUSH2 0xF8B JUMP JUMPDEST PUSH2 0xFD4 PUSH2 0xFCC DUP3 PUSH2 0xFAD JUMP JUMPDEST DUP5 DUP5 SLOAD PUSH2 0xF25 JUMP JUMPDEST DUP3 SSTORE POP POP POP POP JUMP JUMPDEST PUSH1 0x0 SWAP1 JUMP JUMPDEST PUSH2 0xFE9 PUSH2 0xFDC JUMP JUMPDEST PUSH2 0xFF4 DUP2 DUP5 DUP5 PUSH2 0xFB7 JUMP JUMPDEST POP POP POP JUMP JUMPDEST JUMPDEST DUP2 DUP2 LT ISZERO PUSH2 0x1018 JUMPI PUSH2 0x100D PUSH1 0x0 DUP3 PUSH2 0xFE1 JUMP JUMPDEST PUSH1 0x1 DUP2 ADD SWAP1 POP PUSH2 0xFFA JUMP JUMPDEST POP POP JUMP JUMPDEST PUSH1 0x1F DUP3 GT ISZERO PUSH2 0x105D JUMPI PUSH2 0x102E DUP2 PUSH2 0xEF3 JUMP JUMPDEST PUSH2 0x1037 DUP5 PUSH2 0xF08 JUMP JUMPDEST DUP2 ADD PUSH1 0x20 DUP6 LT ISZERO PUSH2 0x1046 JUMPI DUP2 SWAP1 POP JUMPDEST PUSH2 0x105A PUSH2 0x1052 DUP6 PUSH2 0xF08 JUMP JUMPDEST DUP4 ADD DUP3 PUSH2 0xFF9 JUMP JUMPDEST POP POP JUMPDEST POP POP POP JUMP JUMPDEST PUSH1 0x0 DUP3 DUP3 SHR SWAP1 POP SWAP3 SWAP2 POP POP JUMP JUMPDEST PUSH1 0x0 PUSH2 0x1080 PUSH1 0x0 NOT DUP5 PUSH1 0x8 MUL PUSH2 0x1062 JUMP JUMPDEST NOT DUP1 DUP4 AND SWAP2 POP POP SWAP3 SWAP2 POP POP JUMP JUMPDEST PUSH1 0x0 PUSH2 0x1099 DUP4 DUP4 PUSH2 0x106F JUMP JUMPDEST SWAP2 POP DUP3 PUSH1 0x2 MUL DUP3 OR SWAP1 POP SWAP3 SWAP2 POP POP JUMP JUMPDEST PUSH2 0x10B2 DUP3 PUSH2 0xB00 JUMP JUMPDEST PUSH8 0xFFFFFFFFFFFFFFFF DUP2 GT ISZERO PUSH2 0x10CB JUMPI PUSH2 0x10CA PUSH2 0xC8F JUMP JUMPDEST JUMPDEST PUSH2 0x10D5 DUP3 SLOAD PUSH2 0xEC2 JUMP JUMPDEST PUSH2 0x10E0 DUP3 DUP3 DUP6 PUSH2 0x101C JUMP JUMPDEST PUSH1 0x0 PUSH1 0x20 SWAP1 POP PUSH1 0x1F DUP4 GT PUSH1 0x1 DUP2 EQ PUSH2 0x1113 JUMPI PUSH1 0x0 DUP5 ISZERO PUSH2 0x1101 JUMPI DUP3 DUP8 ADD MLOAD SWAP1 POP JUMPDEST PUSH2 0x110B DUP6 DUP3 PUSH2 0x108D JUMP JUMPDEST DUP7 SSTORE POP PUSH2 0x1173 JUMP JUMPDEST PUSH1 0x1F NOT DUP5 AND PUSH2 0x1121 DUP7 PUSH2 0xEF3 JUMP JUMPDEST PUSH1 0x0 JUMPDEST DUP3 DUP2 LT ISZERO PUSH2 0x1149 JUMPI DUP5 DUP10 ADD MLOAD DUP3 SSTORE PUSH1 0x1 DUP3 ADD SWAP2 POP PUSH1 0x20 DUP6 ADD SWAP5 POP PUSH1 0x20 DUP2 ADD SWAP1 POP PUSH2 0x1124 JUMP JUMPDEST DUP7 DUP4 LT ISZERO PUSH2 0x1166 JUMPI DUP5 DUP10 ADD MLOAD PUSH2 0x1162 PUSH1 0x1F DUP10 AND DUP3 PUSH2 0x106F JUMP JUMPDEST DUP4 SSTORE POP JUMPDEST PUSH1 0x1 PUSH1 0x2 DUP9 MUL ADD DUP9 SSTORE POP POP POP JUMPDEST POP POP POP POP POP POP JUMP JUMPDEST PUSH32 0x4D7573742068617665207573657220726F6C6500000000000000000000000000 PUSH1 0x0 DUP3 ADD MSTORE POP JUMP JUMPDEST PUSH1 0x0 PUSH2 0x11B1 PUSH1 0x13 DUP4 PUSH2 0xE16 JUMP JUMPDEST SWAP2 POP PUSH2 0x11BC DUP3 PUSH2 0x117B JUMP JUMPDEST PUSH1 0x20 DUP3 ADD SWAP1 POP SWAP2 SWAP1 POP JUMP JUMPDEST PUSH1 0x0 PUSH1 0x20 DUP3 ADD SWAP1 POP DUP2 DUP2 SUB PUSH1 0x0 DUP4 ADD MSTORE PUSH2 0x11E0 DUP2 PUSH2 0x11A4 JUMP JUMPDEST SWAP1 POP SWAP2 SWAP1 POP JUMP JUMPDEST PUSH32 0x4D75737420686176652061646D696E20726F6C65000000000000000000000000 PUSH1 0x0 DUP3 ADD MSTORE POP JUMP JUMPDEST PUSH1 0x0 PUSH2 0x121D PUSH1 0x14 DUP4 PUSH2 0xE16 JUMP JUMPDEST SWAP2 POP PUSH2 0x1228 DUP3 PUSH2 0x11E7 JUMP JUMPDEST PUSH1 0x20 DUP3 ADD SWAP1 POP SWAP2 SWAP1 POP JUMP JUMPDEST PUSH1 0x0 PUSH1 0x20 DUP3 ADD SWAP1 POP DUP2 DUP2 SUB PUSH1 0x0 DUP4 ADD MSTORE PUSH2 0x124C DUP2 PUSH2 0x1210 JUMP JUMPDEST SWAP1 POP SWAP2 SWAP1 POP JUMP JUMPDEST PUSH32 0x4D7573742068617665206D65726368616E747320726F6C650000000000000000 PUSH1 0x0 DUP3 ADD MSTORE POP JUMP JUMPDEST PUSH1 0x0 PUSH2 0x1289 PUSH1 0x18 DUP4 PUSH2 0xE16 JUMP JUMPDEST SWAP2 POP PUSH2 0x1294 DUP3 PUSH2 0x1253 JUMP JUMPDEST PUSH1 0x20 DUP3 ADD SWAP1 POP SWAP2 SWAP1 POP JUMP JUMPDEST PUSH1 0x0 PUSH1 0x20 DUP3 ADD SWAP1 POP DUP2 DUP2 SUB PUSH1 0x0 DUP4 ADD MSTORE PUSH2 0x12B8 DUP2 PUSH2 0x127C JUMP JUMPDEST SWAP1 POP SWAP2 SWAP1 POP JUMP INVALID LOG2 PUSH5 0x6970667358 0x22 SLT KECCAK256 0xBE RETURNDATASIZE 0x4F 0xCF BYTE 0xAA 0xA9 DUP10 SWAP16 SWAP13 LOG3 0xCF SWAP2 GASLIMIT 0xA8 SWAP3 TIMESTAMP CODECOPY SLOAD SWAP16 0x5C STATICCALL 0xEA PUSH18 0x1A5525D26011DCD364736F6C634300081200 CALLER "
				},
				"gasEstimates": {
					"creation": {
						"codeDepositCost": "970600",
						"executionCost": "infinite",
						"totalCost": "infinite"
					},
					"external": {
						"addAccount(address,string)": "infinite",
						"addAdmin(address)": "infinite",
						"addIntermediaries(address)": "infinite",
						"addMerchants(address)": "infinite",
						"addUser(address)": "infinite",
						"adminFunc()": "infinite",
						"getAccount()": "infinite",
						"userFunc()": "infinite"
					}
				},
				"methodIdentifiers": {
					"addAccount(address,string)": "f0d4bc5c",
					"addAdmin(address)": "70480275",
					"addIntermediaries(address)": "011a8bd9",
					"addMerchants(address)": "877e77eb",
					"addUser(address)": "421b2d8b",
					"adminFunc()": "462ec45c",
					"getAccount()": "db613e81",
					"userFunc()": "e1d06c77"
				}
			},
			"storageLayout": {
				"storage": [
					{
						"astId": 84,
						"contract": "contracts/CBDC.sol:RBAC",
						"label": "admins",
						"offset": 0,
						"slot": "0",
						"type": "t_struct(Role)6_storage"
					},
					{
						"astId": 87,
						"contract": "contracts/CBDC.sol:RBAC",
						"label": "intermediaries",
						"offset": 0,
						"slot": "1",
						"type": "t_struct(Role)6_storage"
					},
					{
						"astId": 90,
						"contract": "contracts/CBDC.sol:RBAC",
						"label": "users",
						"offset": 0,
						"slot": "2",
						"type": "t_struct(Role)6_storage"
					},
					{
						"astId": 93,
						"contract": "contracts/CBDC.sol:RBAC",
						"label": "merchants",
						"offset": 0,
						"slot": "3",
						"type": "t_struct(Role)6_storage"
					},
					{
						"astId": 102,
						"contract": "contracts/CBDC.sol:RBAC",
						"label": "accounts",
						"offset": 0,
						"slot": "4",
						"type": "t_array(t_struct(Account)98_storage)dyn_storage"
					}
				],
				"types": {
					"t_address": {
						"encoding": "inplace",
						"label": "address",
						"numberOfBytes": "20"
					},
					"t_array(t_struct(Account)98_storage)dyn_storage": {
						"base": "t_struct(Account)98_storage",
						"encoding": "dynamic_array",
						"label": "struct RBAC.Account[]",
						"numberOfBytes": "32"
					},
					"t_bool": {
						"encoding": "inplace",
						"label": "bool",
						"numberOfBytes": "1"
					},
					"t_mapping(t_address,t_bool)": {
						"encoding": "mapping",
						"key": "t_address",
						"label": "mapping(address => bool)",
						"numberOfBytes": "32",
						"value": "t_bool"
					},
					"t_string_storage": {
						"encoding": "bytes",
						"label": "string",
						"numberOfBytes": "32"
					},
					"t_struct(Account)98_storage": {
						"encoding": "inplace",
						"label": "struct RBAC.Account",
						"members": [
							{
								"astId": 95,
								"contract": "contracts/CBDC.sol:RBAC",
								"label": "addr",
								"offset": 0,
								"slot": "0",
								"type": "t_address"
							},
							{
								"astId": 97,
								"contract": "contracts/CBDC.sol:RBAC",
								"label": "role",
								"offset": 0,
								"slot": "1",
								"type": "t_string_storage"
							}
						],
						"numberOfBytes": "64"
					},
					"t_struct(Role)6_storage": {
						"encoding": "inplace",
						"label": "struct Roles.Role",
						"members": [
							{
								"astId": 5,
								"contract": "contracts/CBDC.sol:RBAC",
								"label": "bearer",
								"offset": 0,
								"slot": "0",
								"type": "t_mapping(t_address,t_bool)"
							}
						],
						"numberOfBytes": "32"
					}
				}
			},
			"userdoc": {
				"kind": "user",
				"methods": {},
				"version": 1
			}
		}
	}
}